:020000040800F2
:10000000186F002061020008B7470008BF420008CF
:10001000B5470008B90A000829760008000000006A
:10002000000000000000000000000000A101000826
:10003000F10B000800000000FD0100085B560008FD
:100040007B0200087B0200087B0200087B0200089C
:100050007B020008334900087B0200087B0200088D
:100060007B0200087B0200087B0200087B0200087C
:100070007B0200087B0200087B0200087B0200086C
:100080007B0200087B020008890800087B02000848
:100090007B0200087B0200087B0200087B0200084C
:1000A0007B0200087B0200087B0200087B0200083C
:1000B0007B0200087B020008215700087B02000831
:1000C0007B0200087B0200087B0200087B0200081C
:1000D0007B0200087B0200087B0200087B0200080C
:1000E0007B020008AD4900087B0200087B02000883
:1000F0007B0200087B0200087B0200087B020008EC
:100100007B020008894A00087B0200087B02000885
:100110007B0200087B0200082D5700087B020008C4
:10012000050B00087B020008110B00081D0B0008DE
:100130007B0200087B0200087B0200087B020008AB
:100140007B0200087B0200087B020008B947000818
:10015000290B0008350B0008410B00087B02000842
:100160007B0200087B0200087B0200087B0200087B
:100170007B0200087B0200087B02000800000000F0
:100180007B0200087B020008DFF810D000F0D0FAF4
:100190000048004759800008AFF30080186F002026
:1001A0002C4B19680868B0E8F04F80F30988BFF35A
:1001B0006F8F4FF0000080F311887047000000003F
:1001C00008480068006880F308884FF0000080F35A
:1001D000148862B661B6BFF34F8FBFF36F8F00DF35
:1001E00000BF00BF08ED00E0DFF80C00016841F43B
:1001F00070010160704700BF88ED00E0EFF30980F7
:10020000BFF36F8F134B1A681EF0100F08BF20ED5D
:10021000108A20E9F04F106009B44FF0500080F3CD
:100220001188BFF34F8FBFF36F8F08F019FF4FF0A6
:10023000000080F3118809BC19680868B0E8F04F25
:100240001EF0100F08BFB0EC108A80F30988BFF3CE
:100250006F8F704734010020EFF305807047000076
:100260000648804706480047FEE7FEE7FEE7FEE750
:10027000FEE7FEE7FEE7FEE7FEE7FEE711570008B0
:10028000890100082DE9F05F0546002092469B4653
:1002900088460646814640241BE02846414647469C
:1002A000224600F07CF853465A46C01A914110D3BA
:1002B00011461846224600F063F82D1A67EB010834
:1002C0004F4622460120002100F05AF817EB0009A2
:1002D0004E41201EA4F10104DFDC484631462A4687
:1002E0004346BDE8F09F40EA01039B0703D009E0C5
:1002F00008C9121F08C0042AFAD203E011F8013B12
:1003000000F8013B521EF9D27047D2B201E000F86A
:10031000012B491EFBD270470022F6E710B51346A9
:100320000A4604461946FFF7F0FF204610BD00F0CC
:10033000004230F000400AD0C10D01F56071C0F3F9
:10034000160042EA0151C2084007114370470020DD
:100350000146704730B50B4601460020202201249B
:1003600009E021FA02F59D4205D303FA02F5491B83
:1003700004FA02F52844151EA2F10102F1DC30BD99
:10038000202A04DB203A00FA02F100207047914055
:10039000C2F1200320FA03F3194390407047202A4A
:1003A00004DB203A21FA02F00021704721FA02F31F
:1003B000D040C2F1200291400843194670472DE910
:1003C000FE4F804681EA0300C00F0C46009021F0EA
:1003D000004123F00045B8EB0200A94105D2404698
:1003E000214690461C460B46024623F0004010432F
:1003F00047D0270DC7F30A00C3F30A510290401AF1
:10040000019040286BDAC3F3130040F4801B00987E
:10041000924620B10023D2EB030A63EB0B0B019849
:100420005946C0F140025046FFF7AAFF06460D4666
:1004300050465946019A00F08DF910EB08006141D1
:10044000002487EA115284EAE7731A4340D0009AE5
:1004500062B3019A012A4FEA075215DC001B61EBD7
:1004600002014FF0004202EA0752CDE90042001CAF
:1004700041F5801132462B4600F08DF903B0BDE8FE
:10048000F08F40462146F9E7001B61EB0201001C9A
:1004900041F5801300185B412018A2F5001747EBC7
:1004A000030140EAD570B6196D4111E06D084FEABD
:1004B000360645EAC0754FEA0752001B61EB0201A0
:1004C000001C41F5801149084FEA300000195141E4
:1004D00032462B4603B0BDE8F04F00F04DB900980E
:1004E000012240000023D0EB020263EBE07300988E
:1004F00021464FEAE074B8EB000061EB0401E9E744
:1005000083F000435BE781F0004158E72DE9FE4F9F
:1005100081EA030404F0004421F0004100944FF00C
:10052000000B23F0004350EA01045ED052EA0304BA
:100530005BD0C3F30A54C1F30A552C44A4F2F3343C
:100540000194A0FB0254C1F3130141F48011C3F3E1
:10055000130343F4801301FB024400FB034E840A9F
:10056000970A44EA815447EA8357A4FB0768029537
:100570008D0A05FB07854FEA932C04FB0C542705D5
:10058000029D4FEA065847EA1637B5EB08056EEBB1
:10059000070C870E920E47EA811742EA8312A7FBE7
:1005A0000201B6EB0B0164EB00042B0D43EA0C33A4
:1005B0005E1844EB1C50DA465146E7FB0201C5F3D6
:1005C00013044FEA0B3343EA14534FEA0432019CFD
:1005D00043EA0603A4F10C040294009CCDE900B4A4
:1005E00000F0D9F803B0BDE8F08F00200146F9E72C
:1005F0002DE9F04D81EA030404F0004B21F00045A1
:1006000014464FF0000A23F0004150EA050220D0C2
:1006100054EA01021DD0C5F30A570246C5F313037D
:10062000C1F31300C1F30A5640F4801543F480135C
:10063000A7EB0608101BD64608F2FD3873EB050041
:1006400002D308F1010801E092185B41B8F1000FF4
:1006500003DA00200146BDE8F08D00204FF4801140
:10066000064684460EE0171B73EB050705D3121BE5
:1006700063EB050306434CEA010C49084FEA3000DE
:1006800092185B4150EA0107EDD152EA030012D003
:1006900082EA040083EA0501084305D0101BAB4140
:1006A00006D20122002306E000224FF0004302E0C0
:1006B0006FF0010253101AEB06004CEB085110EBDF
:1006C0000A0041EB0B01BDE8F04D00F055B8C1F355
:1006D0000A52C1F3130140F2FF3341F480119A42F0
:1006E00002DA00200146704740F233439A42A2F2F8
:1006F000334202DC5242FFF752BEFFF741BE000018
:1007000030B5041E71F1000404DB4FF00044404298
:1007100064EB0101141E73F1000405DB1C464FF06D
:100720000043524263EB0403994208BF904230BD3C
:10073000064C074D06E0E06840F0010394E807002E
:1007400098471034AC42F6D3FFF722FD9C9C00087A
:10075000BC9C0008202A06DBCB17203A41FA02F0A5
:1007600043EAE07306E041FA02F3D040C2F120020E
:10077000914008431946704710B5141E73F10004E8
:1007800008DA401C41F1000192185B411A4301D183
:1007900020F0010010BD2DE9F04D92469B4611B1AD
:1007A000B1FA81F202E0B0FA80F220329046FFF70F
:1007B000E7FD04460F4640EA0A0041EA0B015346B2
:1007C0005A46084313D0114653EA010019D0C8F124
:1007D00040025046FFF7E3FD05460E465046594697
:1007E0004246FFF7CDFD084305D0012004E0204636
:1007F0003946BDE8F08D0020054346EAE0762C43FB
:1008000037430A986305E40AA0EB08000022FD0ABA
:1008100044EA47540A3002D500200146E9E70105C1
:1008200010196941DDE9084500196941BDE8F04D3D
:10083000A2E770B58C1810F8015B15F0070301D121
:1008400010F8013B2A1106D110F8012B03E010F833
:10085000016B01F8016B5B1EF9D12B0705D4002356
:10086000521E0DD401F8013BFAE710F8013BCB1AF8
:10087000921C03E013F8015B01F8015B521EF9D5ED
:10088000A142D8D3002070BD014800F084BA000016
:10089000D8010020464910B54A6822F440324A6027
:1008A0004A6843681A434A6001684A6822F48072C1
:1008B0004A6001684A68036942EA03224A600168A3
:1008C0004A6822F040724A6001684A6883681A43A5
:1008D0004A6001688A6822F400628A6001688A6856
:1008E000C3681A438A60816A6FF07062D1420168FE
:1008F0008A6822F070628A6001688A680CD0836A14
:100900001A438A6001688A6822F040528A6001684E
:100910008A68C36A1A4301E022F040528A60016883
:100920008A6822F002028A6001688A68037E42EACD
:1009300043028A6090F82010002901684A680FD0AD
:1009400042F400624A6001684A6822F460424A60E8
:1009500001684A68174C436A04EB43331A4301E0C9
:1009600022F400624A600168CA6A22F47002CA6214
:100970000168CA6A838B104C04EB03531A43CA62A2
:1009800001688A6822F400728A6001688A6890F8B7
:10099000303042EA43228A6001688A6822F4806229
:1009A0008A6001688A68406942EA8020886010BDD8
:1009B0000023014000E0FFFF0000F0FF10B501241C
:1009C0000821034800F064FE00B10024204610BD59
:1009D000000C0240704700000146014802F0CCBB09
:1009E0004002002010B5044802F0D8FB042801D0D2
:1009F000012010BD002010BD4002002010B500F005
:100A000015F8012801D0012010BD074802F0E0FCD4
:100A1000040006D14FF40061034802F053FA00B11C
:100A20000124204610BD00004002002008B501202E
:100A30008DF80000FFF7C2FF10B900208DF800000C
:100A40009DF8000008BD0000134610B50A46014697
:100A50000024034802F0B8FD00B10124204610BD77
:100A60004002002008B50120ADF800000348002333
:100A70001A466946406807F0BDFB08BD200000200B
:100A8000134610B50A4601460024034802F036FE1C
:100A900000B10124204610BD4002002008B502200C
:100AA000ADF80000034800231A466946406807F085
:100AB000A1FB08BD20000020FEE7002070470020B9
:100AC0007047000010B500220449054805F0D8F928
:100AD0000449034805F0C7F9002010BD1813002091
:100AE0003C060020180B002010B50146034805F015
:100AF000BAF9024805F090F9002010BD3C0600202C
:100B000000207047014800F047BB00003C04002073
:100B1000014800F041BB000088050020014800F0BA
:100B20003BBB000024030020014800F035BB00005F
:100B3000DC030020014800F02FBB0000C4020020AD
:100B4000014800F029BB0000280500200168182397
:100B5000CAB2103AB2FBF3F2054B6FF30901032A54
:100B60009B5CC36500D9091D81650846704700007C
:100B70004C9C000810B5014600208B698A6A4FF032
:100B8000C07453B1B3F5005F15D072B1012A0CD017
:100B9000022A0AD0032A09D104E01AB1012A06D098
:100BA000022A03D1C96AC90100D5012010BDC96A52
:100BB000A142FAD010BD002AF7D0012AF2D0022AB1
:100BC000F3D0032AF3D010BD30B50468256825F4AE
:100BD00080252560046863608368402B036803D028
:100BE00099600068C26030BD9A600068C16030BD25
:100BF000704772B6FEE70022AFF3008030B50E4BAF
:100C0000054601205C7A002C14D1587A1C54587A7D
:100C100003EB800045605D7A03F108002A54587A9E
:100C2000421C5A72303008703A2048702F20887069
:100C3000CC70002030BD000030060020704700005E
:100C400078B50024009490F83C20012A19D00122A4
:100C500080F83C200A6807230568092A13D9EE6842
:100C60000A3A02EB420293409E43EE600B788A6898
:100C70000A3B03EB43039A400368DD682A43DA60CA
:100C800010E0022078BD2E6902EB420293409E43A1
:100C90002E610B788A6803EB43039A4003681D6951
:100CA0002A431A614A681F23072A13D205686E6B0C
:100CB000521E02EB820293409E436E630B790A88B8
:100CC0005B1E92B203EB83039A4003685D6B2A4379
:100CD0005A6327E005680D2A12D22E6BD21F02EB51
:100CE000820293409E432E630B790A88DB1F92B2E7
:100CF00003EB83039A4003681D6B2A431A6311E0D8
:100D0000EE6A0D3A02EB820293409E43EE620B794B
:100D10000A880D3B92B203EB83039A400368DD6AB5
:100D20002A43DA62164B0568144A9D4206D10D68C3
:100D3000122D03D1556845F48005556005689D4224
:100D400018D10B68102B01D0112B13D1536843F429
:100D500000035360096810290CD10A490A4A09683E
:100D6000B1FBF2F101EB8101490000E0491E009165
:100D70000029FBD180F83C40002078BD00230140D1
:100D8000002001403C00002040420F0070477047A7
:100D90000068C06C704770B5044600680668456816
:100DA00016F0020F05F020012AD049B3216CC906C4
:100DB00003D4216C41F400712164816811F0405F1B
:100DC00017D1217EA9B9C16A11F4700F02D08168D0
:100DD00049050ED4416821F020014160206C20F4C7
:100DE00080702064206CC00403D4206C40F00100AB
:100DF00020642046FFF7CAFF21686FF012000860E8
:100E000016F0040F05F0800132D089B3206CC006C3
:100E100003D4206C40F4005020642068816811F4F1
:100E2000401F1ED1816B11F4401F02D0816849051B
:100E300017D44168490514D4816811F0405F10D17E
:100E4000217E71B9416821F080014160206C20F45D
:100E500080502064206CC00503D4206C40F0010059
:100E600020642046FFF7EAFE21686FF00C0008605E
:100E700016F0010F05F040010FD071B12068006835
:100E8000C0070AD0206C40F480302064204600F077
:100E900043F821686FF00100086016F0200F05F09C
:100EA00080610ED000290CD0606C40F002006064BC
:100EB00020686FF0200505602046FFF768FF206876
:100EC000056070BD70B504004FF0000503D0206CC4
:100ED000002610B107E0012070BD204600F01EF88A
:100EE000666484F83C60206CC00610D4206C20F44A
:100EF000885040F0020020642046FFF7CBFC666477
:100F0000206C20F0020040F00100206400E0012588
:100F100084F83C60284670BD7047000010B586B06C
:100F2000044614216846FFF7F7F9154920688842FE
:100F300024D114480021026842F4807202600068E3
:100F400000F4807005900F481438026842F00102E6
:100F50000260006800F0010005900220009003206C
:100F6000CDE901016946084800F09AFA00220521FE
:100F7000122000F03FFC122000F02EFC06B010BD45
:100F80000020014044380240000002402DE9F041B9
:100F9000044600680D4681684FF0000749050BD5EF
:100FA0008068C00508D5206C40F02000206484F8DB
:100FB0003C700120BDE8F08100F074FB064613E0B0
:100FC000681C11D025B100F06DFB801BA8420BD925
:100FD00020680068800707D4206C40F0040020647B
:100FE00084F83C700320E5E7206800688007E7D5B7
:100FF00021686FF012000860206C40F400702064DB
:101000002068816811F0405F13D1217E89B9C16ADF
:1010100011F4700F02D0806840050AD4206C20F4CF
:1010200080702064206CC00403D4206C40F0010068
:1010300020640020BEE7000018B50021009190F860
:101040003C20012A07D0012280F83C2002689368E6
:10105000DB0702D011E0022018BD936843F00103C2
:1010600093602E4A2E4B1268B2FBF3F202EB42025F
:1010700000E0521E0092002AFBD102689368DB0751
:1010800042D0036C40F20164A34343F480730364D1
:1010900053685B0505D5036C23F4005343F4805378
:1010A0000364036CDB0404D5436C23F00603436440
:1010B00000E0416480F83C101A496FF0220313608D
:1010C00049680068CA06184906D0884224D1816858
:1010D00011F0405F13D01FE08842F8D0134A9042CD
:1010E00003D1D1F80423D206F1D0114A904213D192
:1010F000D1F8041301F01F011029E8D30CE0816836
:1011000041F08041816007E0016C41F01001016411
:10111000416C41F001014164002018BD3C000020F9
:1011200040420F0000230140002001400021014007
:101130000022014090F83C1001290CD0012180F8D8
:101140003C1001688A6822F001028A60016889689F
:10115000C90702D007E002207047016C21F48851D2
:1011600041F001010164002180F83C1008467047FD
:1011700090F83510022903D0802141650120704785
:10118000052180F835100068016821F00101016037
:1011900000207047406D70472DE9F84304464FF03A
:1011A0000009CDF8009063484FF41651A56D006812
:1011B000B0FBF1F72E6894F85C10082000FA01F1FA
:1011C00031420FD021680A6852070BD50A6822F015
:1011D00004020A6094F85C108840A860606D40F0DA
:1011E0000100606594F85C104FF0010808FA01F006
:1011F000304208D021684969090604D5A860606DAD
:1012000040F00200606594F85C1004208840304291
:1012100008D021680968890704D5A860606D40F08E
:101220000400606594F85C1010208840304218D0AB
:1012300021680968090714D5A86020680168490376
:1012400004D50068000308D5A16C07E00168C90552
:1012500003D4016821F008010160216C09B1204626
:10126000884794F85C1020208840304231D02168B3
:101270000968C9062DD5A86094F8350005282068AE
:10128000016806D0490347D5006800031DD4616C8E
:101290001CE021F0160101602068416921F0800105
:1012A0004161206C08B9A06C20B12068016821F070
:1012B0000801016094F85C103F208840A86084F821
:1012C000358084F83490216D1FE0E16B09B1204630
:1012D0008847606D00282BD0606DC00714D00520B2
:1012E00084F835002068016821F001010160009850
:1012F000401C0090B84203D820680068C007F6D1AF
:1013000084F8358084F83490E16C002910D001B065
:101310002046BDE8F04308470168C905D5D40168F7
:1013200021F01001016084F8358084F83490CCE716
:10133000BDE8F8833C0000202DE9F041044600F0B0
:10134000B1F906465CB1022084F83500002584F826
:1013500034502068016821F0010101600DE0012096
:10136000BDE8F08100F09EF9801B052805D92020FA
:101370006065032084F83500F2E720680068C00744
:10138000F0D12268116820480140D4E901031843D4
:10139000D4E903363343184363691843A3691843F8
:1013A000E3691843236A18430843616A042903D197
:1013B000D4E90B1319430843106020684069666A3A
:1013C00020F0070130460E43012704280CD1A06A03
:1013D0000643E06A40B12046FFF7CCFB20B1402035
:1013E000606584F83570BAE7206846612046FFF7EB
:1013F000ADFB94F85C203F2191408160656584F8E5
:1014000035700020ACE700003F8010F02DE9F0417E
:101410000446866D90F83400002501280DD0012087
:1014200084F8340094F835700020012F07D084F838
:10143000340002252846BDE8F0810220FBE70227A0
:1014400084F8357060652046FFF7BEFB94F85C10A9
:101450003F208840B0602068016841F016010160BB
:10146000206C20B12068016841F00801016020680B
:10147000016841F001010160DCE7000070B504463D
:1014800000F010F90546601C02D0044800780444BE
:1014900000F008F9401BA042FAD370BD30000020D4
:1014A0002DE9F84FDFF8BCA10022012503264FF0FB
:1014B0000F090AF1040BAAF1040E00BF0B6805FA2C
:1014C00002F42340A34270D10F7907F00307012FE4
:1014D00001D0022F16D187684FEA420806FA08FCAD
:1014E00027EA0C07D1F80CC00CFA08FC4CEA070CF0
:1014F000C0F808C04768A7430C79C4F300149440AF
:101500003C4344600C79E443A4070AD0C4684FEA22
:10151000420C06FA0CF7BC438F6807FA0CF7274316
:10152000C7600C7904F00304022C12D1D40800EB3C
:10153000840CDCF820405707FF0E09FA07F824EA6C
:101540000804D1F8108008FA07F848EA0408CCF833
:10155000208004684FEA420C06FA0CF7BC430F796E
:1015600007F0030707FA0CF7274307604C6814F4E9
:10157000403F70D03C4C276847F480472760246880
:1015800022F0030704F480440094384C07EB040C69
:10159000DCF8084897074FEA177809FA08F7BC43C0
:1015A000334FB84202D1002724E054E0314FB84213
:1015B00001D101271EE0304FB84201D1022719E0C6
:1015C0002E4FB84201D1032714E02D4FB84201D16C
:1015D00004270FE02B4FB84201D105270AE02A4F1C
:1015E000B84201D1062705E0284FB84201D10727AC
:1015F00000E0082707FA08F72743CCF80878DAF85C
:1016000000405746D1F804C09C435FEACC2C00D57B
:101610001C433C60DBF800405F46D1F804C09C43AB
:101620005FEA8C2C00D51C433C60DEF80040774616
:10163000D1F804C09C435FEA8C3C00D51C433C605D
:10164000084F083F3C68D1F804C09C435FEACC3C9B
:1016500000D51C433C60521C102AFFF42FAFBDE89C
:10166000F88F0000083C014044380240003001403F
:10167000000002400004024000080240000C02404A
:10168000001002400014024000180240001C0240FA
:101690000069084000D0012070470AB1816170479D
:1016A0000904FBE701488068704700003000002013
:1016B0000248816802781144816070473000002040
:1016C0000B4810B5016841F400710160016841F4F4
:1016D00080610160016841F480710160032000F0C5
:1016E000A9F80F2000F006F800F050F8002010BD17
:1016F000003C024030B505461F4887B00024016811
:1017000041F010010160006806A900F0100000908F
:1017100001A800F01FFF0498A8B100F041FF4000AD
:101720001649174AB0FBF1F11648491E026040F213
:10173000E732C0E90324C0E90114846102F082F9B0
:10174000040003D015E000F02BFFE9E70D4802F09C
:10175000E3F904000DD1362000F03EF8102D07D239
:1017600000222946362000F045F80748056000E0D1
:10177000012407B0204630BD4038024040420F00EF
:1017800000100040E805002034000020114808B592
:10179000016841F480410160006800F480400090DD
:1017A0000C48001F016841F0805101600068002270
:1017B00000F0805000900F21901E00F01BF80521D2
:1017C0000022084600F016F8BDE80840052000F0A9
:1017D00003B8000044380240002809DB00F01F0273
:1017E000012191404009800000F1E020C0F8001183
:1017F00070470000F0B40E4B1B680C46C3F3022385
:10180000C3F10705042D00D90425191D072901D2AC
:10181000002300E0DB1E012606FA05F1491E2140E7
:1018200099409E40761E16403143F0BC05F00EBF35
:101830000CED00E0064900F0070208684FF6FF03D0
:10184000184040EA0220034A104308607047000035
:101850000CED00E00000FA057047006841620020CE
:101860007047F0B50368586A39B19C6A4FF48276C4
:1018700000EB144400204D1E0AE040EA024098624A
:101880000FE006EB8007DF59401C04EB1744C0B2A1
:10189000A842F6D344EA02404FF4807202EB810181
:1018A00058500020F0BDD0F8080504F0BFBD01EB92
:1018B000C10200EB8202D0F80805D26C04F014BD1E
:1018C00001EBC10200EB8202D0F80805D2F88C22AD
:1018D00004F065BDD0F8080504F0AABD0A0601F0C1
:1018E0000F0101EBC10100EB810101D53C3101E0A9
:1018F00001F51F71006805F0DFBC70B504460B06EA
:1019000001F00F0000EBC00104EB81014FF0010278
:101910004FF0000503D581F83D203C3103E081F80C
:101920007D5201F51F71087094F8BC04012808D09D
:1019300084F8BC24206805F079F984F8BC540020B0
:1019400070BD022070BD70B5044601F00F006268E2
:10195000904201D9012070BD0B0601F00F0101EB8F
:10196000C10104EB81014FF001024FF0000503D5E6
:1019700081F83D203C3103E081F87D5201F51F7173
:101980008D70087094F8BC04012808D084F8BC2439
:10199000206805F047FB84F8BC54002070BD02208D
:1019A00070BD01F00F0101EBC10100EB8100D0F827
:1019B0009C0270472DE9F04104460F0601F00F002C
:1019C00000EBC00104EB81014FF001064FF0000570
:1019D00003D581F83D603C3103E081F87D5201F58B
:1019E0001F710870CA600B714A7802B10881022B1E
:1019F00000D14D7194F8BC04012809D084F8BC646E
:101A0000206805F06BF8284684F8BC54BDE8F081E6
:101A10000220FBE770B50C4601F00F0505EBC50190
:101A200000EB8101C1F89432C1F88C220023C1F887
:101A30009C3281F87D3281F87C52036901F51F7177
:101A4000012B00D14A612207027C006803D005F017
:101A500041FB002070BD05F02BFAFAE770B5044693
:101A60000D4601F00F006168884201D9012070BD68
:101A700029064FF000064FF0010207D500EBC00128
:101A800004EB810181F83D203C3107E005EBC50105
:101A900004EB810181F87D6201F51F718A70087085
:101AA00094F8BC04012807D084F8BC24206805F011
:101AB000E5FA280702D007E0022070BD217C04F27D
:101AC000C442206805F082FA84F8BC64002070BD2E
:101AD00070B50C4601F00F0505EBC50100EB810167
:101AE0004B65CA640023CB65012381F83D3001F8C2
:101AF0003C5F0369012B00D14A612207027C006828
:101B000003D005F0E7FA002070BD05F0D1F9FAE73F
:101B10002DE9FC5F05680446284605F06EFC0028A8
:101B20007DD1206805F095FC002878D0D5F808080C
:101B3000C0F30D20C4F8FC04206805F08AFC80077F
:101B400004D52068416901F002014161206805F077
:101B500080FCC10604F2C440009034D5206881693D
:101B600021F0100181612F6A07F00F0000EBC00027
:101B700004EB8006C7F3434006F51F76022802D027
:101B8000062811D01AE047F6F070074216D0C7F3C6
:101B90000A1217462846316905F05FFC306938445F
:101BA0003061306A384408E008222846009905F080
:101BB00054FC306AC7F30A11084430622068816916
:101BC00041F010018161206805F043FC00034FF0F3
:101BD000080B4FF0000A4FF001097CD50026206861
:101BE00005F016FC074674E0F80770D0F1B22068E3
:101BF00005F027FC8046C00707D005EB4611C1F869
:101C0000089B3146204602F0DDFD5FEA087024D5CE
:101C100005EB4611C1F808BB2068016C00E025E225
:101C200000EB46100191D0F8082BFC4B994205D9E6
:101C3000110403D54FF40041C0F8081B204600F002
:101C400005FBF6490198884207D92069012804D18B
:101C500020680121009A05F0B9F95FEAC86004D54F
:101C600005EB46111020C1F8080B5FEA88701DD5FE
:101C70006869000605D5D5F8040840F48061C5F808
:101C8000041806EBC60004EB800090F87F1200F504
:101C90001F70012905D180F803A0F1B2204600F0A1
:101CA000EBF905EB46110220C1F8080B5FEA8860EA
:101CB00004D505EB46102021C0F8081B5FEA8840D8
:101CC00005D505EB46104FF40051C0F8081B7F08FE
:101CD000761C002F88D1206805F0BBFB40036FD530
:101CE000206805F08EFB0746002667E0F80763D002
:101CF000F1B2206805F093FB8046C00723D006F0C0
:101D00000F0209FA02F0D5F834288243C5F83428C6
:101D100005EB4610C0F80899206901280FD106EBA1
:101D2000C60004EB8000D0E912211144C16436B929
:101D3000606D20B920680121009A05F047F9F1B2E1
:101D40002046FFF7B4FD5FEA087003D505EB4611A6
:101D5000C1F808B95FEAC86004D505EB4611102048
:101D6000C1F808095FEA486004D505EB4610402138
:101D7000C0F808195FEA887017D53146284605F083
:101D80000FFB06EBC60004EB800090F83F103C30E0
:101D9000012905D180F803A0F1B2204600F068F9CE
:101DA00005EB46110220C1F808095FEA086003D577
:101DB0003146204602F06CFD7F08761C002F95D13D
:101DC000206805F046FB002811DAD5F8040820F059
:101DD0000101C5F8041894F8F40401282BD020461A
:101DE00000F018FA2068416901F000414161206863
:101DF00005F02FFB00050BD5D5F80808C00702D069
:101E0000204600F04BFA2068416901F4006141610D
:101E1000206805F01EFBC00466D5D5F8040820F044
:101E20000100C5F804081021206805F0B9FA002166
:101E30004FF67F321FE084F8F4A400212046FFF71C
:101E40000BFDCFE705EB4110C0F80829D0F80039A9
:101E500023F40013C0F80039C0F8082BD0F8003B79
:101E600023F40013C0F8003BD0F8003B43F00063BC
:101E7000C0F8003B491C60688842E3D8D5F81C08CC
:101E800040F00111C5F81C18206B002828460DD021
:101E9000D0F8840840F00B01C5F88418D5F8440840
:101EA00040F00B012846C5F844180DE0D0F814089E
:101EB00042F22B010843C5F81408D5F8100840F089
:101EC0000B012846C5F81018D0F8000820F4FE6170
:101ED000C5F80018217C2068009A05F077F8206882
:101EE000416901F480514161206805F0B2FA800433
:101EF00015D5206804F032FE206805F071FAE06024
:101F000000F048FB0146227B206805F005FB2046D7
:101F100000F06AF92068416901F4005141612068CC
:101F200005F097FA000707D5204600F077F92068FA
:101F3000416901F008014161206805F08AFA000654
:101F400016D5A86920F08000A86101260DE000BF29
:101F500006EBC60004EB800090F87F02012803D155
:101F6000F1B22046FFF7BAFC761C6068B042EFD8A9
:101F7000206805F06EFAC00221D501264F4616E012
:101F800005EB4610D0F8001906EBC60004EB800004
:101F900090F84020012A09D1002907DA80F83F7023
:101FA000F0B240F080012046FFF798FC761C606894
:101FB000B042E5D82068416901F480114161206890
:101FC00005F047FA800234D501204B4629E000BFD6
:101FD00005EB4011D1F8001B00EBC00204EB8206B8
:101FE00096F88022012A1BD1002919DA94F8FC24E2
:101FF00001F4803102F00102914211D186F87F3262
:10200000A96941F08002AA616969090608D4D5F876
:10201000040840F40070C5F8040805E00A30544F85
:10202000401C61688142D3D82068416901F40011E5
:102030004161206805F00DFA400007D52046FFF702
:1020400032FC2068416901F080414161206805F05F
:1020500000FA40070AD520684568680702D520467F
:10206000FFF738FC2068416829434160BDE8FC9FC8
:10207000D0F8080504F030BAD0F8080504F040BAEA
:102080002DE9F0418AB0040005D094F8BD0426681B
:10209000002520B108E001200AB0BDE8F08184F8F5
:1020A000BC54204600F05EF8032084F8BD04F06BB9
:1020B000C00500D42561206804F0F4FE04F110018D
:1020C000282288466846FEF70EF994E80F0004F0CF
:1020D00053FD0226C8BB0021206805F0DDF9002071
:1020E00001270EE000EBC00104EB810181F83D7097
:1020F00001F83C0F08810D71CD600D61401CC0B22C
:102100008D6161688142EDD8002011E000EBC001D3
:1021100004EB810181F87D5281F87C0281F88052C4
:10212000C1F88852C1F88C52401CC0B2C1F8945218
:1021300061688142EAD8282241466846FEF7D3F812
:1021400094E80F0004F0F4FD10B184F8BD64A2E738
:1021500084F8385084F8BD74206804F0DBFD00205A
:102160009AE7000010B586B0044614216846FEF7D1
:10217000D3F82068B0F1A04F2FD119480021026890
:1021800042F001020260006800F0010005904FF487
:10219000C05000900220CDE90101032003900A20E5
:1021A000049069460F48FFF77BF90D48001D016850
:1021B00041F0800101600A481430016841F4804117
:1021C00001600068002200F4804005900521432052
:1021D000FFF710FB4320FFF7FFFA06B010BD000029
:1021E000303802400000024070B50446C068012546
:1021F00070B1022801D0FEF7FCFC2946D4F808058E
:1022000004F0ECF9D4F80805BDE8704004F0A1B979
:102210000025F2E7D0F8080504F0C9B9D0F80805A0
:1022200004F0CFB910B5044690F8BC0401280BD0D7
:10223000012084F8BC0484F83810206805F05AF9AD
:10224000002084F8BC0410BD022010BDD0F8082581
:1022500000F2C441104604F0CDB910B50446006840
:1022600094F8BC14012906D0012184F8BC14A16A99
:10227000012902D008E0022010BDA169012903D084
:10228000816B41F480318163206805F064F8206837
:1022900004F032FD002084F8BC0410BD10B50446E3
:1022A000D0F8080504F0E8F92068D0F8001E41F0E5
:1022B0000101C0F8001E206A002804D0024801680D
:1022C00041F00601016010BD10ED00E0034908B5C2
:1022D0000120086202480068009008BD00000E421C
:1022E000007000402DE9F843054600684FF00109F1
:1022F000C1074FF0000601D1400727D5DFF80C8158
:10230000C8F86860FFF7CEF90746414C05E000BF0A
:10231000FFF7C8F9C01B022857D820680001F7D47E
:1023200068688101287A41EA00703949843108607F
:10233000C8F86890FFF7B6F9074604E0FFF7B2F96E
:10234000C01B022841D820680001F7D528788007F3
:1023500052D52F484030016841F08051016000683B
:102360002C4C00F080500090206840F48070206079
:10237000FFF798F9074604E0FFF794F9C01B02281D
:1023800023D82068C005F7D5214C7034206810F49C
:10239000407020D0A98901F4407181421BD020688F
:1023A0001D4920F44070C1F800900E602060206844
:1023B000C00710D0FFF776F9064641F2883707E0EC
:1023C000FFF770F9801BB84202D90320BDE8F883FB
:1023D00020688007F4D5E9680D48C1F30122083070
:1023E000032A0BD0016821F4F81101602068A98943
:1023F000C1F30B01084320600020E7E70268074BA8
:1024000022F4F81219400A430260EFE70000474245
:102410000038024000700040400E4742FFFCFF0FB2
:102420002DE9F0470E46050065D0DFF81481D8F895
:102430000000F7B200F00700B04207D288F8007041
:10244000D8F8000000F00700B04254D128683D4C95
:10245000810712D5400703D5206840F4E050206082
:102460002878000703D5206840F460402060206889
:10247000A96820F0F000084320602878C0072DD01C
:10248000304968680839012812D0022813D003287F
:1024900011D00968890700292DDA216821F003018C
:1024A00001432160FFF7FEF8814641F2883A0EE0D1
:1024B00009688903EFE709688901ECE7FFF7F2F89B
:1024C000A0EB0901514502D90320BDE8F08720683F
:1024D000696800F00C00B0EB810FEFD1D8F8001064
:1024E000404601F00701B14207D90770006800F0CB
:1024F0000700B04201D00120E7E72878400705D562
:102500002068E96820F4E05008432060287800073C
:1025100006D52068296920F4604040EAC1002060A7
:1025200000F05EF82168084AC1F30311515CC8400D
:102530000649086006480068FFF7DCF80020C4E799
:10254000003C024008380240549C00083C00002037
:10255000340000200F2202600C4A136803F00303CA
:102560004360136803F0F0038360136803F4E053DF
:10257000C36012684FF4E05303EAD20202610448D8
:10258000006800F00700086070470000083802404B
:10259000003C024001480068704700003C000020F9
:1025A0000448054900680968044AC1F38221515C66
:1025B000C84070473C00002008380240649C000876
:1025C0000448054900680968044AC1F34231515C76
:1025D000C84070473C00002008380240649C000856
:1025E000154810B5006810F00C02144813D04110C3
:1025F000042A0FD0082A0ED10F4C241F226823680A
:1026000002F03F025B0207D52068C0F38810A0FBF0
:10261000010106E0084610BD2168C1F38811A1FB45
:1026200000010023FDF72EFE2168C1F30141491C82
:102630004900B0FBF1F010BD083802400024F4005E
:102640002DE9F84F04006ED02078DFF84C93C007D6
:10265000A9F104054AD009F104000168C1F3810120
:10266000012908D00068C0F3810002280AD1D9F8F6
:102670000000400206D52868800337D5606800282E
:10268000E1D033E06068B0F5803F10D0B0F5A02F06
:10269000286810D020F480302860286820F480203A
:1026A00028606068A8B1FEF7FDFF06460DE02868C7
:1026B00040F48030F4E740F480202860F7E700BF62
:1026C000FEF7F0FF801B642873D828688003F7D5D5
:1026D0000CE0FEF7E7FF064605E000BFFEF7E2FF6D
:1026E000801B6428F0D828688003F7D42078DFF8AE
:1026F000AC8280074FF0000A3ED5A748001D016854
:1027000011F00C0F08D00068C0F3810002280BD133
:10271000D9F80000400207D42868800716D5E06881
:10272000012800D112E033E1E068B8B10120C8F817
:102730000000FEF7B7FF064605E000BFFEF7B2FF58
:10274000801B0228C0D828688007F7D5286821692F
:1027500020F0F80040EAC10028600DE0C8F800A0B1
:10276000FEF7A0FF064604E0FEF79CFF801B022850
:102770001FD828688007F7D42078000722D5864F15
:1027800087486169703771B101210160FEF78AFFE6
:10279000064604E0FEF786FF801B022809D8386849
:1027A0008007F7D50EE0C0F800A0FEF77BFF0646D5
:1027B00005E082E0FEF776FF801B02287DD83868AE
:1027C0008007F7D42078400768D5DFF8CCB1002720
:1027D0000BF13C0BDBF80000C0000BD4DBF8001061
:1027E00041F08051CBF80010DBF80000012700F029
:1027F000805000906B4E3068C00510D4306840F4B3
:1028000080703060FEF74EFF009005E0FEF74AFF53
:102810000099401A022850D83068C005F6D55E4E9F
:10282000A0686C3601280FD00528306810D020F041
:1028300001003060306820F004003060A068B8B15A
:10284000FEF730FF00900FE0306840F00100F4E741
:1028500040F004003060F7E7FEF724FF0099411ACA
:1028600041F28830814266D830688007F4D50EE0A6
:10287000FEF718FF009007E0FEF714FF0099411AD9
:1028800041F28830814256D830688007F4D42FB1A5
:10289000DBF8001021F08051CBF80010A069C8B31C
:1028A0003D49091D0968C1F3810102294AD0022866
:1028B000504607D0C8F8600000E03CE0FEF7F2FEAA
:1028C00004463BE04746C8F86000FEF7EBFE0646CC
:1028D00005E000BFFEF7E6FE801B02282BD8286823
:1028E0008001F7D4D4E907010843A16A2E4A4908B8
:1028F00002EB0141626A41EA8211084394F82C100C
:1029000040EA0161C9F8001001203866FEF7CAFEEE
:10291000044606E03EE000BFFEF7C4FE001B0228AE
:1029200009D828688001F7D534E000BFFEF7BAFE69
:10293000001B022802D90320BDE8F88F2868800117
:10294000F4D427E00128F7D0D9F80000E26900F4B8
:10295000800191421CD1226A00F03F01914217D1BF
:1029600047F6C071626A0140B1EB821F10D1A26AC2
:102970004FF0FF3300F4403103EB5202B1EB024F52
:1029800006D194F82C1000F07060B0EB016F01D00C
:102990000120D1E70020CFE7043802400000474281
:1029A000800E4742007000400000FFFF7047006843
:1029B000503050F8210070470068503040F8212016
:1029C0007047704710B5044600688168C9040CD58B
:1029D000C068C00509D52046FFF7F3FF2068C1682D
:1029E00001F0800161F4C071C160206881688904D0
:1029F0000CD5C068800509D52046FFF7D7FF2068B1
:102A0000C16801F0800161F42071C16003494FF495
:102A1000003008600120607710BD0000143C0140C8
:102A200010B500680B4641680D480140080CD8708D
:102A3000C1F304245C7001F03F049C70C1F3423187
:102A4000197052B901F0B8FFD870587801F0B4FF8E
:102A50005870987801F0B0FF9870002010BD000009
:102A60003FFFFF0010B50B460168896A5960016895
:102A70000969C1F30E019960006801680D480140C1
:102A8000C1F305401870C1F306245C7001F07F04A7
:102A90009C70890DD97052B901F08EFF187058786A
:102AA00001F08AFF5870987801F086FF9870002036
:102AB00010BD00007F7F7F0010B5040002D0607F52
:102AC00010B106E0012010BD00202077204600F064
:102AD00039F8022060772168CA20486221685320B3
:102AE0004862204601F07EFF30BB20688168144AAE
:102AF000114081602168886862681043D4E904232A
:102B00001A43104388602168E06808612068016901
:102B1000228941EA02410161204601F087FF58B94C
:102B200021680A6C22F480220A6421680A6CA36975
:102B30001A430A64012161772268FF21516210BDA6
:102B4000BFFF8FFF1FB500210091019102910391FA
:102B500000680C49884214D102200090C001039003
:102B60006846FFF7BFFB08B1FEF743F806490120AE
:102B70000860002205212920FEF73CFE2920FEF7EF
:102B80002BFE1FBD002800403C0E47422DE9F843B4
:102B9000644E03464FF4FA4730680C46B0FBF7F03A
:102BA000791148430090187F012877D04FF0010930
:102BB00083F81C900220587718680025002A806846
:102BC0004FEA40606CD0002800DBE570A0782278E6
:102BD00094F803C040EA02406278E169120242EAD6
:102BE0008C52104394F8202040EA02600843616947
:102BF000A26908436168D3F800C01143CA22CCF827
:102C00002420D3F800C05322CCF82420626AFF2489
:102C1000B2F5807F1A684FF0030C5CD0D2F80880C0
:102C200028F40078C2F808801A68D2F80C8008F0FE
:102C3000800868F42078C2F80C8032684FF47A7605
:102C4000B2FBF7F2724300921A68009E771E00975B
:102C500061D3D668B607F8D5106218688164186821
:102C6000816841F4007181601868816841F4005105
:102C700081602D48016841F4003101602A48083024
:102C8000016841F4003101601868446283F81D90C6
:102C90001D770020BDE8F88300E001E00220F9E79D
:102CA000002800DBE570207801F08FFE02046078D8
:102CB00001F08BFE42EA0022A07801F086FE02437A
:102CC000E07842EA805294F8200001F07EFE42EA69
:102CD0000060E1698AE7966826F4807696601A6853
:102CE000D66806F0800666F4C076D6601A68009E44
:102CF000771E00970FD3D668F607F8D0D061186812
:102D000041641868816841F4807181601868816845
:102D100041F48051ACE7546283F81DC01D77032055
:102D2000B8E700003C000020003C014070B50446BC
:102D3000007F0B46012819D00126267702206077F4
:102D4000B2B19878D97840EA0145587819780002EC
:102D500040EA413005432168CA2048622168532077
:102D60004862204601F03EFED0B122E0022070BD54
:102D70005878C10603D500F0EF000A305870D878B3
:102D800001F023FE0204587801F01FFE42EA0022FF
:102D9000987801F01AFE0243187842EA4035DAE7E3
:102DA0000748054020684560204601F03FFE00B915
:102DB00066772268FF2151620021217770BD0000F3
:102DC0003FFFFF002DE9F0410446007F0D4601283A
:102DD00023D04FF0010884F81C800220607720681F
:102DE000002780684FEA4060D2B1002800DBEF7016
:102DF000A878297840EA01466878E978000240EA34
:102E0000815006432168CA204862216853204862E5
:102E1000204601F0E7FDB8B12CE00220BDE8F081CA
:102E2000002800DBEF70287801F0CFFD02046878FD
:102E300001F0CBFD42EA0022A87801F0C6FD024372
:102E4000E87842EA8056DDE70D48064020680660D3
:102E50002068816821F480218160D5E9030108435D
:102E600021688A6810438860204601F0DFFD08B9B8
:102E700084F81D802268FF2151622777CEE7000089
:102E80007F7F7F0070B504460068C16821F0A00113
:102E9000C160FEF707FC05464FF47A7607E000BFF5
:102EA000FEF700FC401BB04201D9032070BD206832
:102EB000C0688006F4D5002070BD10B5FDF78AFD0E
:102EC00010BD00002DE9FE430446002603200D46F8
:102ED00084F83400606C03285ED0B5F5805F5BD069
:102EE0004FF4006700204FF08068BD421FD181463B
:102EF000009001900021206801F0C3FD800113D4EF
:102F00006946204602F0B0F907000DD10198400350
:102F100034D5B4F850000104206801F0E9FD070041
:102F200002D10221206823E0A06B384328E01DB1C4
:102F3000A06B40F0006023E08146009001900021EA
:102F4000206801F09EFD8001EED46946204602F023
:102F50008BF90700E8D10198C0030FD5B4F85000F1
:102F60000104206801F0C4FD0700DDD100212068C4
:102F700001F00BFE0700D7D14F46D5E74746D3E710
:102F8000A063A06B144F4FF0010848B1206887631D
:102F900084F8348001260EE0A06B40F08050EFE70B
:102FA000211DD4E9050C0EC9CDE90050CDF808C0AB
:102FB000206801F06FFD4FF40071206801F0CCFD36
:102FC00028B121688F63A16B0143A163012684F8B6
:102FD00034803046BDE8FE83FF05400070470000A6
:102FE000F0B5426E920F0A70426EC2F383624A706D
:102FF000426EC2F301628A70426E120CCA70B0F85F
:103000006420120A0A7190F864204A71826E120DCF
:10301000CA80826EC2F303420A72B0F86820C2F31B
:10302000C0324A72B0F86820C2F380328A72B0F8B7
:103030006820C2F34032CA72B0F86820C2F300328E
:103040000A7300264E73426C4FF40075012462B17E
:10305000012A3AD0026847499163816B41F080515F
:10306000816380F834400120F0BDB0F86820C36E61
:103070009205120D42EA93720A61C26EC2F3C262F5
:103080000A75C26EC2F302624A75C26EC2F3425240
:103090008A75C26EC2F38242CA75C26EC2F3C23270
:1030A0000A760A69521C42650B7E03F007039B1CDB
:1030B0009A4042650B7A03F00F0704FA07F3836521
:1030C0005B0A5A43C0E917250EE090F86820C36EEA
:1030D0009206920A42EA13420A610A69521C92025B
:1030E0004265C0E91652056630F86C2FC2F3803293
:1030F00001F8192F0288C2F3C6124A70027802F052
:103100007F028A704268D20FCA704268C2F341726D
:103110000A714268C2F382624A714268C2F3835202
:103120008A714268C2F34052CA710E724268C2F399
:1031300000424A728288C2F3C0328A728288C2F325
:103140008032CA728288C2F340320A738288C2F324
:1031500000324A738288C2F381228A738288C2F362
:103160000122CA730079C0F3460008744C74002031
:10317000F0BD0000FF054000426C0A60826C4A60AE
:10318000C26C8A60026DCA60426D0A61826D4A61DA
:10319000C26D8A61006EC8610020704770B5044638
:1031A000B0F8500000250104206801F0D6FD18B1E8
:1031B000A16B0143A16304E00021206801F061FCE0
:1031C0000546C5F3432070BDF8B5056B044600689D
:1031D000416B09041BD5290719D5D4E90A56002EDD
:1031E00014D00027206801F06BFC05F8010B010AE0
:1031F00005F8011B010C05F8021B000E361F7F1C91
:1032000005F8010C082FEDD3C4E90A56F8BD416B4F
:103210004FF00006C9054FF0010744D5390281631C
:103220002068C16B4CF23A329143C1632068C16A95
:1032300021F00101C16228071DD515F0220F09D028
:10324000206801F0BBFD28B1A16B0143A1632046BA
:10325000FFF7C4FE216840F23A50886384F8347066
:103260002663A80703D0204600F040FAF8BD2046A8
:1032700000F040FAF8BD2806FCD5A80609D520685C
:1032800001F09CFD28B1A16B0143A1632046FFF72B
:10329000A5FEA807EED12068C16A21F00801C1622D
:1032A00084F83470E3E7416B490424D5290722D51B
:1032B000D4E90856002EDDD05FF0000715F8010BA9
:1032C000009015F8011B361F40EA0120009015F808
:1032D000021B40EA0140009015F8011C40EA016021
:1032E00000906946206801F0FEFB7F1C082FE5D3A3
:1032F000C4E90856F8BD416B40F23A221142F9D0B8
:10330000416B890703D5A16B41F00201A163416BB9
:10331000090703D5A16B41F00801A163416B890640
:1033200003D5A16B41F02001A163416BC90603D510
:10333000A16B41F01001A163416B890503D5A16B1D
:1033400041F00801A16340F23A7181632068C16BCA
:1033500040F23A329143C163206801F02FFDA16B26
:103360000843A063280706D584F8347026632046F6
:10337000FFF734FEF8BD2806FCD515F0300F0CD051
:10338000E16B11480865E06BFDF7F2FE0028F1D013
:10339000E06BBDE8F84001F045BFA8070CD0216CF8
:1033A0000A480865206CFDF7E3FE0028E2D0206C97
:1033B000BDE8F84001F00DBFA66384F834702663C1
:1033C0002046FFF77AFDF8BD25520008D3510008CA
:1033D00070B504000ED094F83400002518B9257794
:1033E000204600F04FF8032084F83400204600F017
:1033F0000BF808B1012070BDA5632563012084F896
:103400003400002070BD0000FEB500250446762083
:103410000095CDE9015029460B460A46206801F087
:1034200039FB48BB154E46F8A05F206801F044FB0D
:10343000012535600220FEF721F8204601F0F8FF53
:1034400030B100BF84F83450A16B0143A16313E095
:10345000204601F076FF0028F4D14FF40071206877
:1034600001F07AFB002808D0226805499163A16B1E
:103470000143A16384F834500120FEBD0080254241
:10348000FF0540002DE9F04F87B00546142168463E
:10349000FCF742FF4649286888427DD145480068CC
:1034A000444940F400600860086800F4006005903A
:1034B0004048143800683F4940F00400143908605F
:1034C000086800F004000590086840F008000860F3
:1034D0000868032600F0080005904FF4F8500090AB
:1034E000022001900020CDE902060C2469460494D4
:1034F0003148FDF7D5FF04270220CDE900700020F8
:10350000CDE90206694604942C48FDF7C9FF2D4C0D
:103510002B484FF00068C4E900080020A060E0607C
:1035200038022061C4E90976800004F114014FF4E7
:1035300080494FF0200A4FF4003B81E8010EC6029B
:1035400047022046C4E90B67FDF7F6FE08B1FDF718
:1035500050FB2C64A5631B4C194860344838C4E9FF
:1035600000084020A0600020E0604FF480602061EF
:1035700004F11401800081E8010E0420606214311E
:10358000032081E8C1002046FDF7D6FE08B1FDF713
:1035900030FBEC63002200E007E005213120A56349
:1035A000FEF728F93120FEF717F907B0BDE8F08FD4
:1035B000002C01404438024000080240000C024048
:1035C000A0640240C40200202DE9F04786B01F46E7
:1035D0000446154639B194F83400012807D002207A
:1035E00006B0BDE8F087A06B40F0006008E0002066
:1035F000A063E36DEA199A4204D9A06B40F0007011
:10360000A06369E0032284F8342022688146D062F6
:103610002268D36B40F22A363343D363236C2F4A9C
:10362000DA63236C2E4ADA64226C1065226C906097
:10363000206C0068026822F0C002026020680A461E
:10364000266C4FEA472800F180014FEA9803304684
:10365000FDF7DCFEDFF88CA0012670B12068C16B9D
:1036600021F49571C1632168C1F838A0A06B40F0C6
:103670008040A06384F834602EE01B480660606CD4
:10368000012800D06D024FF0FF30CDE900089020F6
:10369000029002200596CDE903096946206801F0F1
:1036A000DAF9012F06D9822020632946206801F02B
:1036B000C5FA05E0812020632946206801F0D7FA89
:1036C00000288DD02268C2F838A0A16B0143A16305
:1036D00084F83460C4F83090012081E791510008EB
:1036E0002D510008FF0540008C85254210B5FDF7DF
:1036F000B9F910BD10B5FDF7D1F910BD2DE9F04FA6
:103700005FEA010B87B01E460446114607D094F8C5
:103710003400012807D0022007B0BDE8F08FA06B6D
:1037200040F0006008E00025A563E26D8819904232
:1037300004D9A06B40F00070A06356E0032084F829
:1037400034002068C5622068C26B40F21A2942EA40
:103750000902C263E26B2D48D063E26B2C48D0644F
:10376000E06B0565606C012800D049024FF09008BD
:10377000012E05D9A0202063206801F039FB04E068
:10378000C4F83080206801F04CFBDFF888A00127E6
:1037900030B12268C2F838A0A16B0143A16321E0D7
:1037A0001D480760E16B40208860E06B006801689D
:1037B00021F0C00141F04001016022687602B308A7
:1037C00059468032E06BFDF721FE80B12068C16B65
:1037D00021EA0901C1632168C1F838A0A06B40F05B
:1037E0008040A06384F834702563012094E74FF093
:1037F000FF30CDE90006CDE90285CDE904576946E1
:10380000206801F028F9002086E700001752000820
:103810002D510008FF0540008C85254270B504003D
:1038200009D0606A002540B125616561A56294F800
:10383000510040B10CE0012070BD6068B0F5827F9E
:10384000F4D0E561F2E784F85050204600F044F8E7
:10385000022084F851002068016821F040010160D5
:10386000A088218900F4827001F404410843A189F1
:1038700001F400610843217C01F002010843217D2D
:1038800001F001010843218B01F400710843217FFD
:1038900001F03801084394F8201001F0800108433A
:1038A000218D01F40051084321680860A0690421BA
:1038B00001EA104094F8241001F010010843216837
:1038C00048602068C16921F40061C161656501201B
:1038D00084F85100002070BD2DE9F04387B0064602
:1038E00014216846FCF718FD2C493068884251D1F4
:1038F0002B480024016841F480510160006800F405
:103900008050059026481438016841F0010101609B
:103910000068694600F001000590F0200090022048
:10392000CDE9010403200390052004901D48FDF714
:10393000B7FD1E4D1C484FF0C067E5E80207402068
:103940004FF48068A5E811014FF4003945F8144997
:103950001648AC61C5E907496C62FDF7EDFC08B19A
:10396000FDF747F9B564AE63104D0F486035783800
:103970002860C5E90174C5E903486C61AC61C5E91B
:10398000074928466C62FDF7D7FC08B1FDF731F90D
:10399000F564AE6307B0BDE8F0830000003001407D
:1039A000443802400000024088640240DC030020EA
:1039B0007047704770B590F83C20012A32D001243E
:1039C00080F83C40022280F83D2003685A689D68D8
:1039D00022F070060A6832435A60134B02689A421A
:1039E00014D0B2F1804F11D0104B9A420ED0104B30
:1039F0009A420BD00F4B9A4208D00F4B9A4205D0F7
:103A00000E4B9A4202D00E4B9A4204D1496825F0DF
:103A100080031943916080F83D40002180F83C10FC
:103A2000084670BD022070BD000001400004004047
:103A300000080040000C004000040140004001402C
:103A40000018004010B5040003D094F83D0010B1F8
:103A500007E0012010BD002084F83C00204600F063
:103A60001FF8022084F83D00211D206801F064FE4B
:103A7000012084F8460084F83E0084F83F0084F872
:103A8000400084F8410084F8420084F8430084F840
:103A9000440084F8450084F83D00002010BD00007B
:103AA00010B586B0044614216846FCF735FC17496A
:103AB0002068884227D116480021026842F004029B
:103AC0000260006800F00400059011481038026898
:103AD00042F008020260006800F0080005904FF410
:103AE000805000900220CDE90101CDE90310694624
:103AF0000848FDF7D5FC002205211E20FDF77AFEBF
:103B00001E20FDF769FE06B010BD00000008004051
:103B100040380240000C024090F83D10012901D0CD
:103B200001207047022180F83D100168CA6842F008
:103B30000102CA6000681149884214D0B0F1804F78
:103B400011D00F4988420ED00E4988420BD00E4941
:103B5000884208D00D49884205D00D49884202D0DC
:103B60000C49884204D1816801F00701062903D07D
:103B7000016841F001010160002070470000014030
:103B80000004004000080040000C00400004014018
:103B9000004001400018004070B5044690F83C0019
:103BA0000025012817D0012684F83C60022084F803
:103BB0003D002068826822F0770222F47F42826012
:103BC0000868502838D00DDC20284FD005DC90B391
:103BD000102811D14AE0022070BD302846D040287C
:103BE0000AD13BE060282FD070280DD0B0F5805F5F
:103BF00003D0B0F5005F12D0012584F83D600020AD
:103C000084F83C00284670BDCB68D1E901212068CA
:103C100001F003FE2068816841F0770109E0CB687C
:103C2000D1E90121206801F0F8FD2068816841F4A4
:103C300080418160E1E719E0CA684968206801F0C5
:103C4000FEFD5021206806E0CA684968206801F03E
:103C500047FE6021206801F0EAFDCEE7CA684968A6
:103C6000206801F0ECFD40212068F4E7226801465D
:103C70001046F0E710B50068104988420CD1104892
:103C80001049831C04780A68012C06D0022C03D149
:103C9000516A59800321017010BD002454620A68E2
:103CA000546A1C80136A23F00A03136209680A6AC3
:103CB00042F002020A620221EDE700000008004023
:103CC000B40100209C0400202DE9F041054690F845
:103CD0003C0000260C46012810D0012085F83C004D
:103CE00072B1042A1CD0082A2CD00C2A50D00126EC
:103CF000002085F83C003046BDE8F0810220FBE75B
:103D0000D4E90012E368286801F0AAFD28688169F7
:103D100021F00C01816128688169A26811430FE0DC
:103D2000D4E90012E368286801F0ECFD2868816995
:103D300021F44061816128688169A26841EA022119
:103D40008161D5E72868D4E9002C277B016A21F43A
:103D500080710162C169036A21F0030141EA0C012B
:103D600021F0F00C39074FF420674CEA116123F47D
:103D7000206307EA02221A43C16102622868C1690E
:103D800021F00C01C1612868C169A268114328E0D3
:103D90002868D4E90027E168036A23F480530362AA
:103DA000D0F81CC0036A2CF4407C4CEA07274FF67D
:103DB000FF7C27F470470CEA013139434FF4204768
:103DC00023F4204307EA02321A43C16102622868E1
:103DD000C16921F44061C1612868C169A26841EAF2
:103DE0000221C16184E710B5040003D094F83D00BE
:103DF00010B107E0012010BD002084F83C002046EF
:103E000000F01EF8022084F83D00211D206801F01A
:103E100093FC012084F8460084F83E0084F83F00BB
:103E200084F8400084F8410084F8420084F843009C
:103E300084F8440084F8450084F83D00002010BD5B
:103E40007047000030B50446002551B104290DD05B
:103E5000082910D094F8410094F84520012811D188
:103E60000EE094F83E0094F84220F7E794F83F0003
:103E700094F84320F2E794F8400094F84420EDE7EA
:103E8000012A01D0012030BD022059B1042912D0ED
:103E9000082919D084F8410084F845000C2944D041
:103EA000012540E084F83E0084F842002068C268A2
:103EB00042F0020210E084F83F0084F843002068DA
:103EC000C26842F0040207E084F8400084F844002D
:103ED0002068C26842F00802C2600122206801F036
:103EE0008FFC14492068884214D0B0F1804F11D063
:103EF000114988420ED0114988420BD0104988429E
:103F000008D01049884205D00F49884202D00F4995
:103F1000884204D1816801F00701062903D00168B5
:103F200041F001010160284630BD2068C26842F0BE
:103F30001002D1E7000001400004004000080040EA
:103F4000000C004000040140004001400018004007
:103F500070B50446006801694FF00005C943890740
:103F600015D4C168C943890711D4E91E0161012034
:103F70002077206880698007204602D0FFF77AFE0C
:103F800004E000F098F8204600F096F825772068C5
:103F90000169C943490717D4C168C943490713D404
:103FA0006FF004010161022020772068806910F41D
:103FB000407F204602D0FFF75DFE04E000F07BF872
:103FC000204600F079F8257720680169C943090780
:103FD00016D4C168C943090712D46FF00801016102
:103FE000042020772068C0698007204602D0FFF7B0
:103FF00041FE04E000F05FF8204600F05DF8257710
:1040000020680169C943C90617D4C168C943C906F4
:1040100013D46FF010010161082020772068C06977
:1040200010F4407F204602D0FFF724FE04E000F0A9
:1040300042F8204600F040F8257720680169C9431E
:10404000C90708D1C168C943C90704D1891E0161E4
:10405000204600F033F820680169C943090609D4F5
:10406000C168C943090605D46FF08001016120468B
:10407000FFF79EFC20680169C943490609D4C1685D
:10408000C943490605D46FF040010161204600F0A4
:104090001FF820680169C94389060BD4C168C94368
:1040A000890607D46FF0200101612046BDE8704009
:1040B000FFF77FBC70BD7047704700000068034980
:1040C000884201D1FDF7F4BA7047000000100040AB
:1040D000704770B5040004D094F83D00002510B17D
:1040E00006E0012070BD84F83C50204600F022F824
:1040F000242084F83D002068C16821F40051C1608B
:10410000204601F01BFC2068016921F49041016107
:104110002068416921F02A0141612068C16841F4A9
:104120000051C1602564202084F83D0084F83E00E1
:10413000002070BD2DE9F04387B006461421684683
:10414000FCF7EAF82C493068884252D12B48002409
:10415000016841F010010160006800F01000059056
:1041600026481438016841F0010101600068694681
:1041700000F0010005904FF4C06000900220CDE9EE
:10418000010403200390072004901D48FDF788F9DF
:104190001D4D1C484FF00067E5E8020740204FF432
:1041A0008068A5E811014FF4003945F81449164814
:1041B000AC61C5E907496C62FDF7BEF808B1FCF7D0
:1041C00018FD7563AE63104D0E4860357838286071
:1041D000C5E90174C5E903486C61AC61C5E90749EB
:1041E00028466C62FDF7A8F808B1FCF702FDB5633C
:1041F000AE6307B0BDE8F0830010014044380240D0
:1042000000000240B8640240280500202DE9F84370
:10421000044690F83D001F4616460D4620284CD116
:10422000C5B1BEB194F83C00012846D0012084F805
:104230003C004FF00008C4F84080212084F83D0085
:10424000FDF730FAA6848146E684A068B0F5805F69
:1042500003D004E00120BDE8F883206928B12E4690
:104260005FF0000584F83C800EE00026FAE780212C
:10427000204601F0E9FBA0B9AEB116F8010B2168A8
:104280004860E08C401EE084E08C4B464FF000021A
:1042900000970028EBD14FF04001204601F0D4FBFD
:1042A00030B10320D7E735F8020BC0F30800E6E78A
:1042B000202084F83D000020CDE70220CBE7FEE778
:1042C000F0B500230A24302537261F4611E000BF31
:1042D000B4EB107F02D905EB107C01E006EB107CFB
:1042E00001F813C001EB430C00015B1C8CF801705A
:1042F000DBB29342ECD3F0BD7FB5002415480094A7
:10430000019402941249039401604FF48031C0E992
:1043100001140461047680F820400F49C0E90A14B2
:104320000125C561C46080F830404561FCF7CAFDD5
:1043300008B1FCF75EFC0095CDE9015469460548DB
:10434000FCF77EFC002801D0FCF753FC7FBD000089
:1043500000200140D80100200100000F1D4808B5D1
:10436000016841F4800101600068002200F48000CF
:10437000009005213820FDF73DFA3820FDF72CFA92
:10438000002205213A20FDF735FA3A20FDF724FAFC
:10439000002205213B20FDF72DFA3B20FDF71CFAFA
:1043A000002205214420FDF725FA4420FDF714FAE8
:1043B000002205214520FDF71DFA4520FDF70CFAE6
:1043C000002205214620FDF715FABDE808404620E9
:1043D000FDF702BA3038024010B504490448FCF732
:1043E0000AFC0249491E087010BD00002900002087
:1043F000389C000810B50E4A00210E4803F02EFF2D
:104400000D4C0B4A0021A06024320C4803F026FF1B
:10441000074AE06048320021094803F01FFF044AC0
:1044200020616C320021074803F018FF606110BD65
:10443000A89B00082980000808000020118C0008B3
:10444000697F0008E97F00082DE9F04186B014215A
:104450006846FBF761FF2E480024016841F0040123
:104460000160016801F004010591016841F08001DB
:104470000160016801F080010591016841F00101CE
:104480000160016801F001010591016841F002013C
:104490000160016801F002010591016841F0080125
:1044A000016000681B4F00F00800059000221021F9
:1044B0003846FDF7F2F8DFF860800122042140461B
:1044C000FDF7EBF80125CDE9005469461348029445
:1044D000FCF7E6FF1020CDE900050226CDE90256E3
:1044E00069463846FCF7DCFF0420CDE90005CDE93C
:1044F000024669464046FCF7D3FF08208DE851008C
:1045000069460748FCF7CCFF06B0BDE8F081000023
:10451000303802400008024000040240000002401F
:10452000000C024070B592B014210AA8FBF7F4FE0B
:104530000024282168460F94FBF7EEFE38480168F6
:1045400041F080510160006800F080501090FDF74C
:10455000BDFE35483349C0E900147F218160FF2149
:10456000C0E9031444618461FEF7A6FA08B1FCF7C0
:1045700040FB00212C48FEF71AFA45F65A25A842BE
:104580004BD012208DF828008DF829408DF82A4054
:104590000D9401220AA924480E94FEF713FC08B1D9
:1045A000FCF727FB01268DF83C6004208DF83D00C8
:1045B00022208DF83E0024208DF83F0032460FA9BE
:1045C0001948FEF7B3FB08B1FCF713FB23208DF865
:1045D000000055208DF8010056208DF802004FF0A4
:1045E0008030CDE9044001944FF01060CDE906041D
:1045F0004FF48070039409908DF820600122694681
:104600000948FEF7C3FA08B1FCF7F3FA2A4600217D
:104610000548FEF7D1F912B070BD00F08BF9FAE74A
:104620004038024000280040200200200748064988
:104630004FF400620160002141608160C0E9031213
:1046400041610C2181617047002C01404002002033
:104650000F4810B50D4901604FF48271416000218F
:104660008160C1604FF480220161C0E90512C1611F
:104670000162416281620A21C162FFF7CFF800281E
:1046800003D0BDE81040FCF7B4BA10BD00300140C3
:104690008403002010B58AB00024224804940594B5
:1046A00006940794089409940094019402941C4978
:1046B000039401604721C0E901144FF6FF71C0E97E
:1046C00003148461FFF7BEF908B1FCF792FA4FF4C6
:1046D0008050049004A91348FFF75EFA08B1FCF774
:1046E00088FA1048FFF77FFB08B1FCF782FA0894BC
:1046F00008A90C480994FFF75DF908B1FCF779FAAD
:104700000120CDE900400294002269460548039447
:10471000FFF7DAFA002801D0FCF76BFA0AB010BDF7
:10472000000800409C0400200C4810B50A490160B4
:104730004FF4E1314160002181600C22C160C0E989
:1047400004128161C161FFF7C4FC002803D0BDE8F9
:104750001040FCF74EBA10BD00100140E4040020E8
:1047600010B500220F49104801F099FD08B1FCF77F
:1047700040FA0E490C4801F0A7FF08B1FCF739FADE
:104780000B49094801F064FB08B1FCF732FA06480E
:1047900002F01EF8002803D0BDE81040FCF729BA4B
:1047A00010BD0000400000203C060020FC0000205E
:1047B00090000020FEE7FEE70148FDF7A9B90000E0
:1047C000381D00202DE9F04103680D4604461E6C9B
:1047D00003EB4511D1F8080BD4F810E04FF4004773
:1047E0004FF0200C04F2C442BEF1010F09D0DFF8F3
:1047F00098E0764539D1020432D500BFC1F8087B74
:104800003FE0224B5FEA007E04D59E4239D9000486
:10481000F4D436E05FEA806E02D5C1F808CB30E010
:1048200010F0280F2DD19E4201D90004E6D405EBEB
:10483000C50004EB8000D1F8101BD0F89832C1F30A
:104840001201591AC0F89C1200F51F70ADB98369A6
:104850001BB10269114401610FE0012120680AE0E7
:1048600080060AD5C1F808CB07E035B9D4F8940220
:1048700018B90021184602F0A9FBE9B22046FDF75D
:104880001FF80020BDE8F0810A31544F0A30544F20
:104890002DE9F84F0E4601EBC60100EB810481467D
:1048A0000568616DE06D3C34884202D90120BDE8A5
:1048B000F88F081AE168814200D20846C01C8708B8
:1048C00005EB46181BE000BFA0EB010AE06850456D
:1048D00000D282460AF10300870899F81000009080
:1048E0001FFA8AF3F2B22846216902F089FE216993
:1048F00001EB0A002061216A01EB0A002062D8F86E
:10490000180980B2B84205D3216AA069814201D258
:104910000028D9D1216AA069884208D806F00F0181
:1049200001208840D5F834188143C5F83418002098
:10493000BDE7704700B58BB028216846FBF7ECFC5B
:10494000012217491748FEF78DF80122164915482C
:10495000FEF766F823208DF8000055208DF8010041
:104960000F484FF0803101228078401C8DF8020002
:104970000020CDE9040101904FF01061CDE906104F
:10498000039001208DF82000000209906946054837
:10499000FEF7FCF8002801D0FCF72BF90BB000BDA6
:1049A000C4010020200200200C0000200148FEF776
:1049B00009B8000020020020010901EB810100F08C
:1049C0000F0000EB4100C0B27047002103E0491C1A
:1049D0000A38C9B2C0B20A28F9D2090740EA116000
:1049E000704700002DE9F041044600680025C168C9
:1049F000490618D4C16841F08001C160FCF752FE3D
:104A000006464FF47A78042707E000BFFCF74AFE19
:104A1000801B404501D9677701252068C0684006A2
:104A200001D4002DF2D02846BDE8F08170B50446CF
:104A300000680025C16821F08001C160206880689D
:104A4000800606D42046FEF71DFA10B104206077D8
:104A50000125284670BD0A6842624A688262D1E92F
:104A600002231A43D1E904310B43C16A1A4321F0EE
:104A7000F7011143C16200207047006800F0030095
:104A800070470844406970470148FEF79DBB00002D
:104A90004002002070B50DF1100C11439CE870002D
:104AA0002343194329434268314347F6FF639A433E
:104AB0000A434260002070BD03210160002070475E
:104AC000D0F8800070470A688260D1E901231A4358
:104AD000D1E903310B43C1681A436FF30B01114352
:104AE000C160002070470968C0F88010002070473E
:104AF00010B585B004463720CDE900104020029063
:104B0000002003904FF48060049069462046FFF730
:104B1000DAFF41F288323721204600F09BF905B0D8
:104B200010BD000010B504460A4885B00143292095
:104B3000CDE9001040200290002003904FF48060E7
:104B4000049069462046FFF7BEFF204600F03AFA7F
:104B500005B010BD0000108010B585B004461020CF
:104B6000CDE9001040200290002003904FF48060B7
:104B7000049069462046FFF7A6FF41F288321021D3
:104B8000204600F067F905B010BD10B585B00446A9
:104B90000620CDE9001040200290002003904FF441
:104BA0008060049069462046FFF78DFF41F288320D
:104BB0000621204600F04EF905B010BD30B585B095
:104BC00000240546009401944FF480600294CDE9DE
:104BD000034069462846FFF776FF0B484FF4FA5129
:104BE0000068B0FBF1F041F288314843401E03D227
:104BF0004FF0004005B030BD696B0906F6D5C52001
:104C0000A8632046F6E700003C00002010B585B000
:104C100004464FF4D5700090082001904020029087
:104C2000002003904FF48060049069462046FFF70F
:104C30004AFF204600F02CFA05B010BD10B585B033
:104C400004461220CDE9001040200290002003907D
:104C50004FF48060049069462046FFF734FF41F22C
:104C600088321221204600F0F5F805B010BD10B5CD
:104C700085B004461120CDE90010402002900020AC
:104C800003904FF48060049069462046FFF71BFFB5
:104C900041F288321121204600F0DCF805B010BD49
:104CA00010B585B004460720CDE9002040200290D1
:104CB000002003904FF48060049069462046FFF77F
:104CC00002FF41F288320721204600F0C3F805B008
:104CD00010BD10B585B0044600210220CDE90010BA
:104CE000C020CDE902014FF480600490694620465F
:104CF000FFF7E9FE204600F03DF905B010BD10B504
:104D000085B004460920CDE90010C02002900020A3
:104D100003904FF48060049069462046FFF7D3FE6D
:104D2000204600F027F905B010BD10B585B0044647
:104D300000213320CDE900104020CDE9020100011F
:104D4000049069462046FFF7BEFE41F288323321C7
:104D5000204600F07FF805B010BD10B585B00446C0
:104D60000D20CDE9001040200290002003904FF468
:104D70008060049069462046FFF7A5FE41F2883224
:104D80000D21204600F066F805B010BD30B585B0A5
:104D90000C46054600210320CDE900104020CDE956
:104DA00002010001049069462846FFF78CFE224666
:104DB0000321284600F028F905B030BD10B585B0B4
:104DC000044600210C20CDE900104020CDE902016D
:104DD0000001049069462046FFF775FE034A0C2146
:104DE000204600F037F805B010BD000000E1F505E1
:104DF00010B585B004461920CDE90010402002907E
:104E0000002003904FF48060049069462046FFF72D
:104E10005AFE41F288321921204600F01BF805B0F5
:104E200010BD10B585B004461820CDE90010402013
:104E30000290002003904FF4806004906946204661
:104E4000FFF741FE41F288321821204600F002F8B7
:104E500005B010BD454B10B51B684FF4FA54B3FBB9
:104E6000F4F353435B1E02D24FF0004010BD426B7F
:104E700012F0450FF6D01205F4D4426B520703D559
:104E800004218163084610BD426BD20702D0012184
:104E9000816305E0C52282630269D2B28A4201D0F1
:104EA000012010BD0021FFF7ECFD3149084201D17E
:104EB000002010BD002802DA4FF0007010BD410044
:104EC00001D5402010BD810001D5802010BDC1005A
:104ED00002D54FF4807010BD010102D54FF400706F
:104EE00010BD410102D54FF4806010BDC10102D553
:104EF0004FF4006010BD010202D54FF4805010BD88
:104F0000410202D54FF4005010BD810202D54FF48A
:104F1000804010BDC10202D54FF4004010BD4103D6
:104F200002D54FF4003010BD810302D54FF480202C
:104F300010BDC10302D54FF4002010BD010402D5FD
:104F40004FF4801010BD410402D54FF4001010BD85
:104F5000810402D54FF4800010BD000702D54FF444
:104F6000000010BD4FF4803010BD00003C00002058
:104F700008E0FFFD12494FF4FA520968B1FBF2F163
:104F800041F288325143491E02D24FF0004070472F
:104F9000426B12F0450FF6D01205F4D4416B49076D
:104FA00003D50421816308467047416BC90703D0CC
:104FB0000121816308467047C52181630020704745
:104FC0003C0000200F494FF4FA520968B1FBF2F19E
:104FD00041F288325143491E02D24FF000407047DF
:104FE000426B12F0450FF6D01205F4D4416B49071D
:104FF00003D50421816308467047C52181630020E1
:10500000704700003C00002030B5204B4FF4FA54AC
:105010001B68B3FBF4F341F2883463435B1E02D296
:105020004FF0004030BD446B14F0450FF6D024051E
:10503000F4D4436B5B0703D504218163084630BD7C
:10504000436BDB0702D00121816303E00369DBB21C
:105050008B4201D0012030BDC52181630021FFF7C3
:1050600010FD10F4604F04D0410406D54FF40050F9
:1050700030BD000C1080002030BD000402D54FF47C
:10508000805030BD4FF4803030BD00003C00002027
:1050900014494FF4FA520968B1FBF2F141F2883237
:1050A0005143491E02D24FF000407047426B12F04C
:1050B000450FF6D01205F4D4416B490703D50421FE
:1050C000816308467047416BC90703D001218163A2
:1050D00008467047416B490601D540218163002095
:1050E000704700003C00002010B5064C01202070E5
:1050F000FBF778FC18B9207820F0010020702078A8
:1051000010BD00002000002070B5054602F0DEFF53
:10511000044603E0FBF766FC002806D002F0D6FF49
:10512000001BA842F6D34FF0FF3070BD10B5846B62
:10513000FCF730F8022828D0206C416DE06B406D00
:10514000012901D001281DD12168104888632068F9
:10515000C16B21F49D71C163A06B40F08040A063DE
:105160002046FEF71BF8062801D0052805D1206847
:10517000FFF724FEA16B0843A063012084F83400EC
:10518000002020632046FDF729FF10BDFF054000E9
:1051900010B5846B206B822809D12068FFF70EFEC2
:1051A00028B1A16B0143A1632046FDF717FF2068DA
:1051B000C16A21F00801C162216840F23A50886357
:1051C000012084F83400002020632046FEF78EFA88
:1051D00010BD10B5846B40F23A50216888632046B8
:1051E000FDF7DCFF012184F834100021216306283B
:1051F00001D0052805D12068FFF7E0FDA16B084329
:10520000A063A06B0028204602D0FDF7E7FE10BD8A
:10521000FDF753FE10BD806B0068C16B41F48071D7
:10522000C163704710B5846B40F23A5021688863BF
:105230002046FDF7B3FF012184F8341000212163DB
:10524000062801D0052805D12068FFF7B7FDA16B1E
:105250000843A063A06B0028204602D0FDF7BEFEE5
:1052600010BDFDF72AFE10BD2DE9F04788B00D46B0
:105270000446FCF717FA0026824600960196374648
:1052800008212068FFF768FC002829D1B4F85000F5
:1052900001042068FFF72CFC002821D1401E4FF0AC
:1052A0000808CDE9020830204FF00209CDE90409D1
:1052B0000120CDE9067002A92068FFF7CCFB206829
:1052C000FFF733FD00280BD16F462068416B11F0CA
:1052D0002A0F08D0416B09071AD5C0F8388008207A
:1052E00008B0BDE8F087416B890205D5FFF7E8FB00
:1052F00047F82600761C02E0416B8904EAD5FCF7EA
:10530000D1F9A0EB0A00401CDFD14FF00040E7E7E5
:10531000416B890703D5C0F838900220E0E7416B64
:10532000890603D5202181630846D9E740F23A5126
:105330008163019800BA2860009800BA6860002074
:10534000CEE710B590B004460120ADF838002068D3
:10535000FFF793FB002854D0606C032842D02068EC
:10536000FFF7B7FC00284AD100212068FFF789FB2E
:10537000606704212068FFF784FBA067082120688C
:10538000FFF77FFBE0670C212068FFF77AFBC4F88A
:105390008000606C032825D00EA92068FFF7F6FC7A
:1053A00000282CD1606C03281CD0BDF83800206583
:1053B00001042068FFF7A3FC002820D10021206809
:1053C000FFF75FFB606604212068FFF75AFBA066C9
:1053D00008212068FFF755FBE0660C212068FFF7E5
:1053E00050FB206704212068FFF74BFB000DE064B1
:1053F00003A92046FDF7F4FD30B14FF0805010B006
:1054000010BD4FF08060FAE7B4F8500000230204AA
:105410002068FFF745FC0028F1D104F1100007C80F
:105420008DE8070094E80F00FFF734FB0020E6E763
:105430002DE9F84F0026044600963546B046006830
:10544000FFF7BCFB002827D12068FFF7DFFB4FF0F8
:10545000805B4FF001094FF6FF7748B1A6642068E2
:10546000FFF7ACFB002817D1A06C012802D020E088
:10547000C4F8489000212068FFF73AFB58B918E0BB
:1054800000212068FFF734FB002805D15146206831
:10549000FFF748FB10B15846BDE8F88F002120689F
:1054A000FFF7EFFA05464FEAD0780098401C0090CD
:1054B00002E0DFF82CA00098B84202D2B8F1000F49
:1054C000DED00098B84202D34FF08070E4E7680065
:1054D00002D5C4F8449000E066640020DCE70000D8
:1054E000000010C170B5104C05460120207002F07C
:1054F000DDFD022816D1FBF781FA18B92846FFF71F
:10550000F3FD2070207801280CD0606850B900228B
:1055100002210A2002F042FE606018B9207840F0B3
:1055200001002070207870BD2000002010B51248C6
:1055300088B014460078C00702D0032008B010BD20
:10554000C1B1012905D0022908D003290CD00420BB
:10555000F4E76846FBF740FA06980AE06846FBF76E
:105560003BFA0798208005E06846FBF735FA079874
:10557000400A20600020E1E7200000202DE9F843E8
:1055800047F230541E461746884601252046FFF74D
:10559000BBFD00281EDB324639464046FBF754FA75
:1055A000C0B90F48234600226946406802F0C4FD96
:1055B00080B9BDF8000001280CD102F087FD064635
:1055C00003E000BFFBF70EFA38B102F07FFD801B4D
:1055D000A042F7D32846BDE8F8830025FAE700008B
:1055E00020000020FFF780BD2DE9F84347F230543A
:1055F0001E461746884601252046FFF785FD0028F0
:105600001EDB324639464046FBF73AFAC0B90F482E
:10561000234600226946406802F08EFD80B9BDF83D
:10562000000002280CD102F051FD064603E000BF45
:10563000FBF7D8F938B102F049FD801BA042F7D33F
:105640002846BDE8F8830025FAE700002000002086
:105650000178407841EA0020704710B54FF0E02013
:10566000006904F0E3F8012803D0BDE8104003F01E
:10567000A3BD10BD30B593B030216846FAF74CFE9B
:1056800014210CA8FAF748FE1F480025016841F0D4
:1056900080510160006800F0805011901B48016843
:1056A00041F4804101600068022400F480401190C0
:1056B000052000904FF48030019001200290800579
:1056C000CDE9064004200890A820CDE90904072070
:1056D0000B906846FCF7B4FF08B172B6FEE70CA960
:1056E0000F2081E831004FF4A0500F904FF480500C
:1056F000109005210CA8FCF793FE002801D072B68B
:10570000FEE713B030BD000040380240007000409A
:105710000248016841F470010160704788ED00E0C3
:105720000148FEF715BC00009C0400200148FEF76C
:105730000FBC0000E8050020F0B50268254C264D9E
:10574000264E274F274B4FF0804CA04209D0604592
:1057500007D0A84205D0B04203D0B84201D0984249
:1057600004D122F0700E4A6842EA0E02A0421BD019
:10577000604519D0A84217D0B04215D0B84213D016
:10578000984211D0184DA8420ED0184DA8420BD007
:10579000174DA84208D0174DA84205D0164DA84273
:1057A00002D0164DA84203D122F44075CA682A439C
:1057B0004D6922F080022A4302608A68C2620A6848
:1057C0008262A04201D0984201D10969016301219E
:1057D0004161F0BD000001400004004000080040AD
:1057E000000C004000040140004001400044014022
:1057F0000048014000180040001C0040002000400C
:1058000010B501F01F030121046A99408C43046222
:10581000016A9A401143016210BD10B5846842EAE2
:10582000032224F47F440A432243826010BD82682D
:1058300022F070020A4342F007018160704710B500
:10584000036A046A24F001040462846924F0F00409
:1058500044EA021423F00A020A438461026210BD82
:1058600070B5046A24F0010404628469056A154E67
:10587000B04214D0B0F1804F11D0134EB0420ED0D0
:10588000124EB0420BD0124EB04208D0114EB04270
:1058900005D0114EB04202D0104EB04203D124F0D8
:1058A0000304144301E044F001041A0724F0F00457
:1058B00044EA126225F00A0301F00A0119438261E9
:1058C000016270BD0000014000040040000800407B
:1058D000000C00400004014000400140001800405E
:1058E00010B5036A23F0100303628369046A23F48A
:1058F000704343EA023224F0A00343EA01118261BB
:10590000016210BD30B5046A24F010040462846999
:10591000056A24F4407444EA022222F470444FF6EB
:10592000FF7202EA03322243A02425F0A00304EA16
:10593000011119438261016230BD000070B5044657
:1059400000680169E26821F4405111430161216955
:10595000A068E26908436169114308432168CA6885
:1059600049F20C639A430243CA6020684169A26904
:1059700021F440711143416131492068884202D0CD
:105980003049884202D1FCF71BFE01E0FCF708FE1B
:10599000E2690023192164253226B2F5004F6268BE
:1059A00028D0A0FB0101930F9200FAF76BFC01468F
:1059B000B0FBF5F06FF01802504301EB800006EBEE
:1059C0000010B0FBF5F000F0F002B1FBF5F002EBD7
:1059D0000012B1FBF5F06FF01803584301EB8000A3
:1059E00006EB0010B0FBF5F000F00F00216810444A
:1059F000886070BDA0FB010192185B41FAF742FC80
:105A00000146B0FBF5F00201B1FBF5F06FF01803B1
:105A1000584301EB800006EBC000B0FBF5F000F04E
:105A2000F80002EB4002B1FBF5F0584301EB8000B7
:105A300006EBC000B0FBF5F000F00700D6E7000071
:105A400000100140001401402DE9F041984617462E
:105A50000E460446069D27E0681C25D02DB1FBF7B5
:105A600021FEA0EB0800A8421ED920680C3050E8A7
:105A7000001F21F4D07140E80012002AF5D12068FF
:105A8000143050E8001F21F0010140E80012002A04
:105A9000F5D1202084F83D0084F83E00002084F8F1
:105AA0003C000320BDE8F0812068006836EA000071
:105AB00004D00020B842CFD00020F3E70120F9E75E
:105AC0002DE9F0410C46D0F8D412D0F8C82200EBF2
:105AD0008101D1F8C01229B304F00F0606EB86034A
