:020000040800F2
:1000000080550020610200080B3F0008C53A000837
:10001000093F0008C50500088D69000800000000C0
:10002000000000000000000000000000A101000826
:10003000F706000800000000FD010008BB4F0008A3
:100040007B0200087B0200087B0200087B0200089C
:100050007B020008E14000087B0200087B020008E8
:100060007B0200087B0200087B0200087B0200087C
:100070007B0200087B0200087B0200087B0200086C
:10008000C9050008D5050008910300087B02000897
:100090007B0200087B0200087B0200087B0200084C
:1000A0007B0200087B0200087B0200087B0200083C
:1000B0007B0200087B0200087B0200087B0200082C
:1000C0007B0200087B0200087B0200087B0200081C
:1000D0007B020008115600081D5600087B0200082C
:1000E0007B0200085D4100087B0200087B020008DB
:1000F0007B0200087B0200087B0200087B020008EC
:100100007B0200083D4200087B0200087B020008D9
:100110007B0200087B020008815000087B02000877
:10012000E10500087B020008ED050008F90500085C
:100130007B0200087B0200087B0200087B020008AB
:100140007B0200087B0200087B0200080D3F0008CC
:1001500005060008110600081D0600087B020008BD
:100160007B0200087B0200087B0200087B0200087B
:100170007B0200087B0200087B02000800000000F0
:100180007B0200087B020008DFF810D000F0EEF8D8
:1001900000480047716A0008AFF3008080550020D6
:1001A0002C4B19680868B0E8F04F80F30988BFF35A
:1001B0006F8F4FF0000080F311887047000000003F
:1001C00008480068006880F308884FF0000080F35A
:1001D000148862B661B6BFF34F8FBFF36F8F00DF35
:1001E00000BF00BF08ED00E0DFF80C00016841F43B
:1001F00070010160704700BF88ED00E0EFF30980F7
:10020000BFF36F8F134B1A681EF0100F08BF20ED5D
:10021000108A20E9F04F106009B44FF0500080F3CD
:100220001188BFF34F8FBFF36F8F06F0E9FF4FF0D8
:10023000000080F3118809BC19680868B0E8F04F25
:100240001EF0100F08BFB0EC108A80F30988BFF3CE
:100250006F8F704750000020EFF30580704700005B
:100260000648804706480047FEE7FEE7FEE7FEE750
:10027000FEE7FEE7FEE7FEE7FEE7FEE77150000857
:10028000890100082DE9F05F0546002092469B4653
:1002900088460646814640241BE02846414647469C
:1002A000224600F053F853465A46C01A914110D3E3
:1002B00011461846224600F03AF82D1A67EB01085D
:1002C0004F4622460120002100F031F817EB0009CB
:1002D0004E41201EA4F10104DFDC484631462A4687
:1002E0004346BDE8F09F40EA01039B0703D009E0C5
:1002F00008C9121F08C0042AFAD203E011F8013B12
:1003000000F8013B521EF9D27047D2B201E000F86A
:10031000012B491EFBD270470022F6E710B51346A9
:100320000A4604461946FFF7F0FF204610BD202A72
:1003300004DB203A00FA02F1002070479140C2F13C
:10034000200320FA03F3194390407047202A04DB6E
:10035000203A21FA02F00021704721FA02F3D0403E
:10036000C2F120029140084319467047064C074DE0
:1003700006E0E06840F0010394E807009847103475
:10038000AC42F6D3FFF704FF3C7B00085C7B00081F
:10039000014800F087BA0000E80100204A494A6895
:1003A00022F440324A604A6843681A434A6001684E
:1003B0004A6822F480724A6001684A68036942EA26
:1003C00003224A6001684A6822F040724A6001686C
:1003D0004A6883681A434A6001688A6822F40062A6
:1003E0008A6001688A68C3681A438A60816A6FF00C
:1003F0007062D14214D001688A6822F070628A600B
:1004000001688A68836A1A438A6001688A6822F0F0
:1004100040528A6001688A68C36A1A438A6009E0A8
:1004200001688A6822F070628A6001688A6822F036
:1004300040528A6001688A6822F002028A6001687C
:100440008A68037E42EA43028A6090F8201089B1EC
:1004500001684A6842F400624A6001684A6822F40E
:1004600060424A6001684B68426A521E43EA423267
:100470004A6004E001684A6822F400624A60016848
:10048000CA6A22F47002CA620168CB6A828B521E69
:1004900043EA0252CA6201688A6822F400728A60E2
:1004A00001688A6890F8303042EA43228A60016825
:1004B0008A6822F480628A6001688A68406942EA38
:1004C00080208860704700000023014010B501249F
:1004D0000821034800F0C2FD00B10024204610BDF1
:1004E000000C0240704700000146014802F0F6B9D6
:1004F0005002002010B5044802F002FA042801D08E
:10050000012010BD002010BD5002002010B500F0E9
:1005100015F8012801D0012010BD074802F0EAFAC1
:10052000044634B94FF40061034802F0A9F800B161
:100530000124204610BD00005002002008B5012013
:100540000090FFF7C3FF08B9002000909DF800005D
:1005500008BD000010B5002413460A4601460348B2
:1005600002F0E6FB00B10124204610BD500200203D
:1005700008B501200090044800231A4669464068E7
:1005800006F072FB08BD00002C00002010B500240E
:1005900013460A460146034802F070FC00B10124EC
:1005A000204610BD5002002008B5022000900448EB
:1005B00000231A466946406806F056FB08BD000055
:1005C0002C000020FEE70000014800F0C3BA000044
:1005D0003C060020014800F0BDBA00009C06002047
:1005E000014800F0B7BA00004C040020014800F0B8
:1005F000B1BA0000DC050020014800F0ABBA0000F1
:1006000034030020014800F0A5BA0000EC030020EC
:10061000014800F09FBA0000D4020020014800F019
:1006200099BA00007C0500200168CAB2103A18236C
:10063000B2FBF3F2064B9B5CC3656FF30901032A1F
:1006400002D9091D816500E08165806D7047000059
:100650001C7B000810B5014600208A6A8B694FF0A8
:10066000C074002B0ED0B3F5005F1AD062B3012A1C
:100670002AD0022A28D0032A03D1C96AC90100D589
:10068000012010BD1AB1012A06D0022AF9D1C96A87
:10069000C901F6D5012010BDC96AA142FBD10120D4
:1006A00010BD52B1012A0AD0022A06D0032AF7D17E
:1006B000C96AA142F4D1012010BD012010BDC96A50
:1006C000C901FBD5012010BD012010BD30B5046863
:1006D000256825F480252560046863608368402BC5
:1006E00004D0036899600068C26030BD03689A60F6
:1006F0000068C16030BD704772B6FEE7002200F0AE
:1007000001B8000030B5044601200D4B5D7A002D84
:1007100014D1587A1D54587A03EB800044605C7AF7
:1007200003F108002254587A421C5A723030087083
:100730003A2048702F208870CD70002030BD000016
:10074000440700207047000078B50024009490F81A
:100750003C20012A19D0012280F83C200A68072594
:10076000092A14D90368DE680A3A02EB420295406E
:10077000AE43DE600A788B680A3A02EB420293408D
:100780000268D5682B43D36011E0022078BD03686E
:100790001E6902EB42029540AE431E610A788B68E7
:1007A00002EB42029340026815692B4313614A68C9
:1007B0001F25072A13D203685E6B521E02EB8202CA
:1007C0009540AE435E630A8893B20A79521E02EBEB
:1007D000820293400268556B2B43536328E00D2A35
:1007E00013D203681E6BD21F02EB82029540AE4308
:1007F0001E630A8893B20A79D21F02EB82029340E9
:100800000268156B2B43136312E00368DE6A0D3A2E
:1008100002EB82029540AE43DE620A8893B20A7907
:100820000D3A02EB820293400268D56A2B43D362F1
:10083000174A184B05689D4206D10D68122D03D149
:10084000556845F48005556005689D421BD10B68CD
:10085000102B01D0112B16D1536843F400035360C1
:10086000096810290FD10C490C4A0968B1FBF2F153
:1008700001EB81014900009102E00099491E0091BD
:1008800000990029F9D180F83C40002078BD000093
:1008900000230140002001404800002040420F009A
:1008A0007047704770B5044620680568466805F0D3
:1008B000020106F0200200292AD04AB3216CC906A1
:1008C00003D4216C41F400712164816811F0405F10
:1008D00017D1217EA9B9C16A11F4700F02D08168C5
:1008E00049050ED4416821F020014160206C20F4BC
:1008F00080702064206CC00403D4206C40F00100A0
:1009000020642046FFF7CCFF21686FF012000860DA
:1009100005F0040006F0800190B389B3206CC00696
:1009200003D4206C40F4005020642068816811F4E6
:10093000401F1ED1816B11F4401F02D08168490510
:1009400017D44168490514D4816811F0405F10D173
:10095000217E71B9416821F080014160206C20F452
:1009600080502064206CC00503D4206C40F001004E
:1009700020642046FFF7E6FE21686FF00C00086057
:1009800005F0010006F0400178B171B120680068FF
:10099000C0070AD0206C40F480302064204600F06C
:1009A00044F821686FF00100086005F0200006F0AF
:1009B000806100280ED000290CD0606C40F002004D
:1009C000606420686FF0200505602046FFF769FF2E
:1009D0002068056070BD70B504460026002C03D069
:1009E000206C002510B107E0012070BD204600F00A
:1009F0001DF8656484F83C50206CC00610D4206C4F
:100A000020F4885040F0020020642046FFF7C6FC26
:100A10006564206C20F0020040F00100206400E0DA
:100A2000012684F83C50304670BD704710B586B042
:100A30000446142101A8FFF76FFC1549206888427D
:100A400024D100211348026842F4807202600068D9
:100A500000F4807000900F481438026842F00102E0
:100A60000260006800F00100009002200190032065
:100A70000290039101A9084800F008FA002205211C
:100A8000122000F0A9FB122000F098FB06B010BD68
:100A90000020014044380240000002402DE9F041AE
:100AA0000446A76D00F0F0FA054694F835000026DC
:100AB000022806D08020606584F834600120BDE8FB
:100AC000F0812068016821F0160101602068416909
:100AD00021F080014161206C08B9A06C20B1206830
:100AE000016821F0080101602068016821F001011E
:100AF00001600BE000F0C8FA401B052806D9202051
:100B000034342062032060702670D8E720680068C3
:100B1000C007EFD134343F2094F828108840B860E3
:100B20000120607026700020C9E790F83510022976
:100B300003D08021416501207047052180F83510E0
:100B40000068016821F00101016000207047406DDC
:100B5000704700002DE9F84304464FF00009CDF836
:100B600000906F484FF416510068B0FBF1F7A56D87
:100B70002E6894F85C00082202FA00F1314210D08D
:100B80002068016849070CD5016821F00401016063
:100B900094F85C0002FA00F1A960606D40F0010079
:100BA000606594F85C104FF0010808FA01F03042DB
:100BB00008D021684969090604D5A860606D40F035
:100BC0000200606594F85C1004208840304208D030
:100BD00021680968890704D5A860606D40F00400A9
:100BE000606594F85C1010208840304220D0216865
:100BF000096809071CD5A8602068016849030CD55D
:100C00000068000304D4216C91B1204688470FE0AE
:100C1000A16C69B1204688470AE00168C90503D480
:100C2000016821F008010160216C09B12046884764
:100C300094F85C102020884030424CD0216809682C
:100C4000C90648D5A86094F8350005280BD020685F
:100C50000168490330D50068000328D4616C51B3A2
:100C60002046884737E02068016821F016010160BE
:100C70002068416921F080014161206C08B9A06CB5
:100C800020B12068016821F00801016094F85C102F
:100C90003F208840A86084F8358084F83490216D26
:100CA00000293BD001B02046BDE8F0430847E16B86
:100CB00009B1204688470EE00168C90507D40168DC
:100CC00021F01001016084F8358084F83490E16BE4
:100CD00009B120468847606D00281FD0606DC007AD
:100CE00014D0052084F835002068016821F0010146
:100CF00001600098401C0090B84203D8206800684A
:100D0000C007F6D184F8358084F83490E16C00296E
:100D100004D001B02046BDE8F0430847BDE8F883A1
:100D2000480000202DE9F041044600F0ADF90546E9
:100D30005CB1022084F83500002684F83460206815
:100D4000016821F0010101600DE00120BDE8F081A2
:100D500000F09AF9401B052805D920206065032082
:100D600084F83500F2E720680068C007F0D12168F8
:100D70000A6820480240D4E901031843D4E9033546
:100D80002B43184363691843A3691843E369184365
:100D9000236A18431043626A042A03D1D4E90B235F
:100DA0001A43104308602068406920F00700656A14
:100DB00029460543012704290DD1A06A0543E06AAD
:100DC00048B12046FFF746FC28B14020606584F812
:100DD00035700120BAE7206845612046FFF724FC02
:100DE00094F85C203F2191408160666584F83570FD
:100DF0000020ABE73F8010F02DE9F04104460025CC
:100E0000A66D94F8340001280DD0012084F8340038
:100E100094F835700020012F07D084F834000225A3
:100E20002846BDE8F0810220FBE7022784F83570F0
:100E300060652046FFF74AFC94F85C103F2088402C
:100E4000B0602068016841F016010160206C20B19B
:100E50002068016841F0080101602068016841F0E4
:100E600001010160DCE7000070B5044600F00CF9F8
:100E70000546601C02D004480078044400F004F9E0
:100E8000401BA042FAD370BD3C0000202DE9F84F72
:100E90000022DFF89C914FF0010803274FF00F0C60
:100EA00009F1040AA9F1040B08FA02F50B682B40BA
:100EB000AB426ED10C7904F00304012C01D0022C5A
:100EC00015D18668540007FA04FE26EA0E06D1F80A
:100ED0000CE00EFA04FE4EEA060EC0F808E0446884
:100EE000AC430D79C5F300159540254345600C7959
:100EF000E443A40708D0C568540007FA04F6B543D4
:100F00008E68A6402E43C6600C7904F00304022CC0
:100F100011D1D40800EB8406356A5407E40E0CFAAC
:100F200004FE25EA0E05D1F810E00EFA04FE4EEAA2
:100F3000050EC6F820E00568540007FA04F6B5432C
:100F40000E7906F00306A6402E4306604C6814F4A2
:100F5000403F67D0374C256845F4804525602468BC
:100F600004F480440094344C22F003052E19D6F882
:100F7000085894074FEA147E0CFA0EF4A5432F4C40
:100F8000A04201D1002424E02D4CA04202D1012432
:100F90001FE047E02B4CA04201D1022419E02A4C6B
:100FA000A04201D1032414E0284CA04201D1042422
:100FB0000FE0274CA04201D105240AE0254CA042B5
:100FC00001D1062405E0244CA04201D1072400E011
:100FD000082404FA0EF42C43C6F80848D9F8004057
:100FE0009C434D68ED0200D51C43C9F80040DAF877
:100FF00000409C434D68AD0200D51C43CAF8004038
:10100000DBF800409C434D68AD0300D51C43CBF892
:101010000040074D083D2C689C434E68F60300D500
:101020001C432C60521C102AFFF43EAFBDE8F88F21
:10103000083C0140443802400030014000000240BA
:101040000004024000080240000C02400010024070
:101050000014024000180240001C024000690842CF
:1010600001D00120704700207047426921EA020345
:101070000A4043EA024181617047002A01D0816140
:10108000704709048161704701488068704700001B
:101090003C0000200248816802781144816070475A
:1010A0003C00002010B50B48016841F4007101605C
:1010B000016841F480610160016841F48071016060
:1010C000032000F0A9F80F2000F006F800F050F817
:1010D000002010BD003C024030B587B0054600241A
:1010E0001E48016841F010010160006800F0100026
:1010F000009001A902A800F0D5FD0598A8B100F064
:10110000F5FD40001649B0FBF1F1491E1648154A9D
:10111000026040F2E732C260416004618460846131
:1011200002F05CF804461CB115E000F0DFFDE9E7D1
:101130000D4802F08BF804466CB9362000F03EF8FA
:10114000102D07D200222946362000F045F8074826
:10115000056000E0012407B0204630BD4038024061
:1011600040420F0000100040FC060020400000201C
:1011700008B51148016841F480410160006800F43D
:10118000804000900C48001F016841F080510160D0
:10119000006800F08050009000220F21901E00F0A7
:1011A0001BF805210022084600F016F8BDE80840AB
:1011B000052000F003B8000044380240002809DB95
:1011C00000F01F02012191404009800000F1E02061
:1011D000C0F8001170470000F0B40D460D4B1B68BD
:1011E000C3F30223C3F10704042C00D90424191DFE
:1011F000072901D2002300E0DB1E012606FA04F1D4
:10120000491E294099409E40761E16403143F0BC4D
:1012100005F0BDBB0CED00E000F00701054A1068C9
:101220004FF6FF03184040EA0120034908431060CD
:10123000704700000CED00E00000FA057047D0F8A0
:10124000080504F076BC01EBC10200EB8202D0F885
:101250000805D26C04F09ABB01EBC10200EB8202DC
:10126000D0F80805D2F88C2204F0FEBBD0F80805AF
:1012700004F061BC0A0601F00F0101EBC10100EBB3
:10128000810101D53C3101E001F51F71006805F0D5
:101290000BBA70B5044601F00F006268904201D9A4
:1012A000012070BD0B0601F00F0101EBC10104EB41
:1012B00081014FF001024FF0000502D53C314A7028
:1012C00002E001F51F714D708D70087094F8BC0438
:1012D000012808D084F8BC24206805F091F884F82F
:1012E000BC54002070BD022070BD2DE9F0410446C1
:1012F0000F0601F00F0000EBC00104EB81014FF07D
:1013000001064FF0000502D53C314E7002E001F5B8
:101310001F714D700870CA600B714A7802B1088164
:10132000022B00D14D7194F8BC04012809D084F837
:10133000BC64206804F05EFF284684F8BC54BDE815
:10134000F0810220FBE770B50D4605F00F0404EBB9
:10135000C40100EB810101F51F710A618B6100235B
:101360000B624B700C700369012B00D14A612A0794
:1013700005D0027C006805F09BF8002070BD027C5F
:10138000006804F087FFF8E770B504460D46616811
:1013900005F00F00884201D9012070BD29064FF0E9
:1013A00000064FF0010206D500EBC00104EB8101FD
:1013B0003C314A7006E005EBC50104EB810101F503
:1013C0001F714E708A70087094F8BC04012807D011
:1013D00084F8BC24206805F03FF8280702D007E015
:1013E000022070BD217C04F2C442206804F0DEFFBC
:1013F00084F8BC64002070BD70B50D4605F00F0484
:1014000004EBC40100EB81013C310A618B610023D4
:101410000B6201234B700C700369012B00D14A61F0
:101420002A0705D0027C006805F042F8002070BD54
:10143000027C006804F02EFFF8E72DE9F84F04461F
:101440002568284605F0B6F900287ED1206805F009
:10145000DDF9002879D0D5F80808C0F30D20C4F8CC
:10146000FC04206805F0D2F9800704D520684169A2
:1014700001F002014161206805F0C8F9C10604F2DB
:10148000C440009035D52068816921F01001816148
:101490002F6A07F00F0000EBC00004EB800606F592
:1014A0001F76C7F34340022802D0062812D01BE063
:1014B00047F6F070074217D0C7F30A1217462846BE
:1014C000316905F0A7F9306938443061306A384431
:1014D000306209E008222846009905F09BF9306A3D
:1014E000C7F30A11084430622068816941F0100195
:1014F0008161206805F08AF900034FF0080B4FF076
:1015000000094FF001085ED50026206805F05DF95E
:10151000824655E05FEACA704FD0F1B2206805F00C
:101520006DF90746F80707D005EB4610C0F8088BA1
:101530003146204602F014FD380709D505EB461068
:10154000C0F808BB3146204600E0F9E102F0E4FCB7
:10155000F80604D505EB46111020C1F8080BB807B2
:101560001CD56869000605D5D5F8040840F48061EB
:10157000C5F8041806EBC60004EB800000F51F70E8
:10158000C178012905D180F80390F1B2204600F01E
:10159000DDF905EB46110220C1F8080BB80604D5A9
:1015A00005EB46102021C0F8081BB80405D505EB53
:1015B00046104FF40051C0F8081B761C4FEA5A0A37
:1015C000BAF1000FA6D1206805F020F940036CD5D0
:1015D000206805F0F3F88246002663E05FEACA70EF
:1015E0005DD0F1B2206805F0F7F80746F80723D080
:1015F00006F00F0108FA01F0D5F834188143C5F858
:10160000341805EB4610C0F80889206901280FD16D
:1016100006EBC60004EB8000D0E912211144C1643E
:1016200036B9606D20B920680121009A04F0BEFE31
:10163000F1B22046FFF707FE380703D505EB461049
:10164000C0F808B9F80604D505EB46111020C1F81A
:101650000809780604D505EB46104021C0F80819A2
:10166000B80716D53146284605F070F806EBC600D7
:1016700004EB80003C30C178012905D180F803904B
:10168000F1B2204600F05EF905EB46110220C1F8E8
:101690000809380603D53146204602F0D3FC761CF3
:1016A0004FEA5A0ABAF1000F98D1206805F0AEF857
:1016B000002811DAD5F8040820F00101C5F8041853
:1016C00094F8F404012829D0204600F05AF9206843
:1016D000416901F000414161206805F097F800057B
:1016E0000BD5D5F80808C00702D0204600F06CF9E9
:1016F0002068416901F400614161206805F086F8C5
:10170000C00461D5D5F8040820F00101C5F804181B
:101710001021206805F01AF8002120E084F8F494E4
:1017200000212046FFF78AFDD1E705EB411000F5C7
:1017300010604FF67F328260036823F40013036069
:10174000C0F80822D0F8002222F40012C0F80022CB
:10175000D0F8002242F00062C0F80022491C606804
:101760008842E2D8D5F81C0840F00111C5F81C18D1
:10177000206B60B1D5F8840840F00B01C5F88418DF
:10178000D5F8440840F00B01C5F844180CE0D5F832
:10179000140842F22B010843C5F81408D5F81008C4
:1017A00040F00B01C5F81018D5F8000820F4FE61D0
:1017B000C5F80018217C2068009A04F0F7FD206825
:1017C000416901F480514161206805F01FF88004EF
:1017D00015D5206804F050FD206804F0DBFFE060C0
:1017E00000F07EFA0146227B206805F041F8204691
:1017F00000F0B0F82068416901F4005141612068AF
:1018000005F004F8000707D5204600F0BEF8206870
:10181000416901F008014161206804F0F7FF00060A
:1018200015D5A86920F08001A96101260CE006EB1E
:10183000C60004EB800090F87F02012803D1F1B2CA
:101840002046FFF717FD761C6068B042EFD820688D
:1018500004F0DCFFC00220D5012616E005EB46109F
:10186000D0F8001906EBC60004EB800090F8402089
:10187000012A09D1002907DA80F83F80F0B240F050
:1018800080012046FFF7F6FC761C6068B042E5D880
:101890002068416901F480114161206804F0B6FFBD
:1018A000800230D5012026E005EB4011D1F8001B65
:1018B00000EBC00204EB820292F88032012B19D1B6
:1018C000002917DA94F8FC3401F4803103F00103A5
:1018D00099420FD182F87F82A96941F08002AA6102
:1018E0006969090606D4D5F8040840F40070C5F803
:1018F000040803E0401C61688142D5D82068416932
:1019000001F400114161206804F080FF400007D518
:101910002046FFF794FC2068416901F08041416155
:10192000206804F073FF40070AD5206845686807FF
:1019300002D52046FFF79AFC2068416829434160A0
:10194000BDE8F88FD0F8080504F015B9D0F80805FF
:1019500004F026B970B504460125E06800280ED0D1
:10196000022801D0FEF7C8FE2946D4F8080504F085
:1019700088F9D4F80805BDE8704004F03BB90025AB
:10198000F2E7D0F8080504F065B9D0F8080504F0CE
:101990006BB910B5044694F8BC0401280BD00120A3
:1019A00084F8BC0484F83810206804F052FF00204A
:1019B00084F8BC0410BD022010BDD0F8082500F248
:1019C000C441104604F069B910B50446D4F80805BE
:1019D00004F09CF92068D0F8001E41F00101C0F825
:1019E000001E206A002804D00248016841F0060168
:1019F000016010BD10ED00E008B503490120086248
:101A000002480068009008BD00000E4200700040CF
:101A10002DE9F84304464FF0010820684FF0000715
:101A2000C10701D140072BD5DFF81891C9F86870BC
:101A3000FFF72AFB0646444D07E0FFF725FB801B16
:101A4000022802D90320BDE8F88328680001F4D4F5
:101A50006068217A800140EA01703B498431086066
:101A6000C9F86880FFF710FB064606E0FFF70CFB9D
:101A7000801B022801D90320E5E728680001F5D57D
:101A80002078800753D530484030016841F08051BC
:101A90000160006800F0805000902C4D286840F4F0
:101AA00080702860FFF7F0FA064606E0FFF7ECFAD0
:101AB000801B022801D90320C5E72868C005F5D599
:101AC000214D7035286800F44070F8B1A18901F407
:101AD000407181421AD0286820F440701C49C1F836
:101AE00000800F6028602868C0070FD0FFF7CCFA8D
:101AF000064641F2883706E0FFF7C6FA801BB84277
:101B000001D903209FE728688007F5D5E0680E49D2
:101B1000C0F301220831032A0BD0086820F4F81022
:101B200008602868A189C1F30B01084328600020E0
:101B300089E70A68074B22F4F812184002430A604A
:101B4000EFE700000000474200380240007000400C
:101B5000400E4742FFFCFF0F2DE9F04704460D46BB
:101B6000002C13D0DFF82891D9F80000EFB200F074
:101B70000700A8420CD289F80070D9F8000000F0E4
:101B80000700A84204D00120BDE8F0870120FBE750
:101B90002068404E810712D5400703D5306840F4D5
:101BA000E05030602078000703D5306840F4604092
:101BB00030603068A16820F0F00008433060207881
:101BC000C00731D0334960680839012808D002289D
:101BD0000BD0032809D0096889070BD40120D3E76B
:101BE0000968890306D40120CEE70968890101D478
:101BF0000120C9E7316821F0030101433160FFF79B
:101C000043FA804641F2883A07E0FFF73DFAA0EB3D
:101C10000800504501D90320B6E73068616800F03C
:101C20000C00B0EB810FF0D1D9F8000000F00700F4
:101C3000A84209D989F80070D9F8000000F007001F
:101C4000A84201D001209FE72078400705D53068E1
:101C5000E16820F4E050084330602078000706D5A2
:101C60003068216920F4604040EAC100306000F033
:101C70005DF83168084AC1F30311515CC840074957
:101C8000086007480068FFF727FA00207CE700009B
:101C9000003C024008380240247B00084800002035
:101CA000400000200F2202600B4A136803F0030378
:101CB0004360136803F0F0038360136803F4E05398
:101CC000C360126802F46042D208026103480068EF
:101CD00000F007000860704708380240003C0240EE
:101CE00001480068704700004800002000B5FFF779
:101CF000F7FF04490968044AC1F38221515CC840D6
:101D000000BD000008380240347B000800B5FFF732
:101D1000E7FF04490968044AC1F34231515CC840F5
:101D200000BD000008380240347B000810B5174899
:101D3000006810F00C01164816D04310042912D088
:101D4000082911D1114C241F216801F03F0221689C
:101D500049020AD52068C0F38810A0FB03010023C4
:101D6000FEF790FA09E0184610BD21680023C1F380
:101D70008811A1FB0001FEF785FA2168C1F301413A
:101D8000491C4900B0FBF1F010BD000008380240CA
:101D90000024F4002DE9F84F0446002C13D02078DD
:101DA000DFF8A083C007A8F1040556D008F10400AD
:101DB0000168C1F3810101290CD00068C0F38100E2
:101DC000022803D00DE00120BDE8F88FD8F800000C
:101DD000400206D5286880033FD5606870BB0120AB
:101DE000F2E76068B0F5803F10D0B0F5A02F12D0B8
:101DF000286820F480302860286820F4802028603B
:101E00006068E0B1FFF740F9064614E0286840F446
:101E100080302860F4E7286840F480202860286833
:101E200040F480302860EBE7FFF72EF9801B642830
:101E300001D90320C8E728688003F5D50DE0FFF736
:101E400023F9064606E0FFF71FF9801B642801D935
:101E50000320B9E728688003F5D42078BA4F8007BB
:101E60004FF0000948D5B748001D016811F00C0F6C
:101E700008D00068C0F38100022813D1D8F8000010
:101E800040020FD42868800704D5E068012801D0FB
:101E9000012099E72868216920F0F80040EAC10094
:101EA000286029E0E068B8B101203860FFF7ECF85D
:101EB000064606E0FFF7E8F8801B022801D9032058
:101EC00082E728688007F5D52868216920F0F800A6
:101ED00040EAC10028600FE0C7F80090FFF7D4F88F
:101EE000064606E0FFF7D0F8801B022801D9032040
:101EF0006AE728688007F5D42078000729D5DFF83D
:101F000044A2924861690AF1700A89B10121016015
:101F1000FFF7BAF8064606E0FFF7B6F8801B02287E
:101F200001D9032050E7DAF800008007F4D510E06B
:101F3000C0F80090FFF7A8F8064606E0FFF7A4F8FF
:101F4000801B022801D903203EE7DAF80000800751
:101F5000F4D42078400778D54FF0000A79483C3017
:101F60000068C0000BD477483C30016841F08051D4
:101F70000160006800F0805000904FF0010ADFF827
:101F8000D0B1DBF80000C00514D4DBF8000040F449
:101F90008070CBF80000FFF777F8064606E0FFF701
:101FA00073F8801B022801D903200DE7DBF800003D
:101FB000C005F4D5634EA0686C3601280FD0052803
:101FC00012D0306820F001003060306820F004004A
:101FD0003060A068F8B1FFF757F8834617E0306823
:101FE00040F001003060F4E7306840F004003060F9
:101FF000306840F001003060EBE7FFF745F8A0EBF8
:102000000B0141F28830814201D90320DCE63068BF
:102010008007F2D510E0FFF737F8834609E0FFF7B5
:1020200033F8A0EB0B0141F28830814201D9032043
:10203000CAE630688007F2D4BAF1010F05D14148F1
:102040003C30016821F080510160A069C0B33D4976
:10205000091D09684FF0FF36C1F38101022946D0FE
:10206000022805D0C7F86090FFF70EF804463AE062
:10207000C7F86090FFF708F8814607E0FFF704F81B
:10208000A0EB0900022801D903209DE62868800101
:10209000F4D4D4E907010843616AA26A890106EB16
:1020A000520241EA0241084394F82C1040EA0160D0
:1020B000C8F8000001203866FEF7E6FF044607E096
:1020C0003DE0FEF7E1FF001B022801D903207BE67B
:1020D00028688001F5D532E0FEF7D6FF001B022804
:1020E00001D9032070E628688001F5D427E0012893
:1020F00023D0D8F80000E26900F4800191421AD19F
:10210000226A00F03F01914215D147F6C071626A20
:102110000140B1EB821F0ED1A26A00F4403106EB00
:102120005202B1EB024F06D194F82C1000F070600F
:10213000B0EB016F03D0012046E6012044E6002009
:1021400042E600000438024000004742800E474249
:102150000070004070470068503000EB810000685C
:1021600070470068503000EB810002607047704794
:1021700010B5044620688168C9040CD5C068C00544
:1021800009D52046FFF7F3FF2068C16801F0800100
:1021900061F4C071C1602068816889040CD5C06891
:1021A000800509D52046FFF7D5FF2068C16801F0FA
:1021B000800161F42071C16003494FF40030086070
:1021C0000120607710BD0000143C014010B50B46A3
:1021D000006841680D480140080CD870C1F3042420
:1021E0005C7001F03F049C70C1F342311970002A09
:1021F0000AD101F0B9FFD870587801F0B5FF5870D6
:10220000987801F0B1FF9870002010BD3FFFFF00EB
:1022100010B50B460168896A596001680969C1F304
:102220000E019960006801680D480140C1F3054046
:102230001870C1F306245C7001F07F049C70890D56
:10224000D970002A0AD101F08FFF1870587801F078
:102250008BFF5870987801F087FF9870002010BDB0
:102260007F7F7F0010B50446002C02D0607F10B144
:1022700006E0012010BD00202077204600F03AF84B
:10228000022060772168CA20486221685320486292
:10229000204601F07EFFC8B920688168144A1140C9
:1022A00081602068816862681143D4E904231A437D
:1022B000114381602168E068086120680169228912
:1022C00041EA02410161204601F086FF58B92168C8
:1022D0000A6C22F480220A6421680A6CA3691A43FA
:1022E0000A64012161772268FF21516210BD00005C
:1022F000BFFF8FFF1FB50021009101910291039153
:1023000000680C49884214D102200090C00103905B
:102310006846FFF77DFB08B1FEF7EEF9064901209C
:102320000860002205212920FEF756FF2920FEF72C
:1023300045FF1FBD002800403C0E47422DE9F843F1
:1023400003460C46DFF898814FF4FA494FF47A714E
:10235000D8F80000B0FBF9F048430090187F01283E
:1023600072D001261E77022058770025002A6DD0F2
:1023700018688068400600D4E570E069A17822788A
:10238000E77841EA02416278120242EA8752114339
:1023900094F8202041EA02620243606902436768C0
:1023A000A06907431968CA20486219685320486227
:1023B000606AFF244FF0030CB0F5807F66D0186888
:1023C000816821F4007181601868C16801F08001A2
:1023D00061F42071C160D8F800004FF47A71B0FB4D
:1023E000F9F04843009019680098B0F10108CDF861
:1023F000008006D24C6283F81DC01D770320BDE823
:10240000F883C8688007EFD50A621868876418687F
:10241000816841F4007181601868816841F400515D
:1024200081603048016841F4003101602D48083076
:10243000016841F400310160186844625E771D77DD
:102440000020DCE700E001E00220D8E7186880689F
:10245000400600D4E570207801F08FFE0204607819
:1024600001F08BFE42EA0022A07801F086FE0243D2
:10247000E07842EA805294F8200001F07EFE42EAC1
:102480000062E06902436069024388E71868816876
:1024900021F4807181601868C16801F0800161F4E5
:1024A000C071C16019680098B0F10108CDF80080D2
:1024B00005D24C6283F81DC01D7703209FE7C868D2
:1024C000C007F0D0CA61186847641868816841F491
:1024D000807181601868816841F480518160A0E753
:1024E00048000020003C014070B504460B46207FA8
:1024F000012805D0012626770220607712B108E076
:10250000022070BD5878C10603D500F0EF000A30F4
:102510005870A2B19878D97840EA0145587819786E
:10252000000240EA413005432168CA204862216820
:1025300053204862204601F02CFE88B117E0D8787D
:1025400001F01BFE0204587801F017FE42EA002257
:10255000987801F012FE0243187842EA4035E3E72A
:102560000748054020684560204601F035FE00B967
:1025700066772268FF2151620021217770BD00003B
:102580003FFFFF002DE9F04104460D46207F012862
:1025900021D04FF0010884F81C80022060770027CA
:1025A000E2B120688068400600D4EF70A8782978EE
:1025B00040EA01466878E978000240EA8150064323
:1025C0002168CA204862216853204862204601F0F1
:1025D000E0FDC8B12BE00220BDE8F08120688068F2
:1025E000400600D4EF70287801F0C7FD0204687837
:1025F00001F0C3FD42EA0022A87801F0BEFD0243CB
:10260000E87842EA8056DBE70D480640206806601D
:102610002068816821F480218160D5E9031001439D
:102620002068826811438160204601F0D5FD08B919
:1026300084F81D802268FF2151622777CCE70000D3
:102640007F7F7F0070B505462868C16821F0A00132
:10265000C160FEF719FD04464FF47A7606E0FEF7F6
:1026600013FD001BB04201D9032070BD2868C0686B
:102670008006F4D5002070BD10B5FDF733FF10BD06
:102680002DE9F0418AB004460D460026032084F867
:102690003400606C03281ED0B5F5805F08D0B5F516
:1026A000006F0AD085B1A06B40F00060A06316E017
:1026B000A06B40F08050A06311E0204602F06FFB59
:1026C000A16B0143A1630AE0204602F03FFBA16B2E
:1026D0000143A16303E0A06B40F08050A063A06BB6
:1026E000174F4FF0010828B12068876384F83480C1
:1026F000012613E060680490A0680590E0680690E9
:10270000079560690890A069099007A807C88DE837
:10271000070004A920680EC901F096FD4FF400716E
:10272000206801F0F5FD28B121688F63A16B01439A
:10273000A163012684F834800AB03046BDE8F081F8
:10274000FF05400070470000F0B550F8642F920F6D
:102750000A700268C2F383624A700268C2F30162BF
:102760008A700268120CCA700288120A0A71027812
:102770004A714268120DCA804268C2F303420A726B
:102780008288C2F3C0324A728288C2F380328A726F
:102790008288C2F34032CA728288C2F300320A735E
:1027A00000264E7350F8203C643801244FF4007525
:1027B000002B0CD0012B3AD0026847499163816B02
:1027C00041F08051816380F834400120F0BDB0F8C1
:1027D0006820C36E9205120D42EA93720A61C26EBE
:1027E000C2F3C2620A75C26EC2F302624A75C26E59
:1027F000C2F342528A75C26EC2F38242CA75C26E79
:10280000C2F3C2320A760B695B1C43650A7E02F092
:102810000702921C934043650A7A02F00F0704FAFC
:1028200007F28265520A5343C36505660EE090F8CD
:102830006820C36E9206920A42EA13420A610A694C
:10284000521C93024365C3658565056630F86C2F9D
:10285000C2F3803201F8192F0288C2F3C6124A70FF
:10286000027802F07F028A704268D20FCA70426812
:10287000C2F341720A714268C2F382624A714268CD
:10288000C2F383528A714268C2F34052CA710E7217
:102890004268C2F300424A728288C2F3C0328A722E
:1028A0008288C2F38032CA728288C2F340320A73CD
:1028B0008288C2F300324A738288C2F381228A730B
:1028C0008288C2F30122CA730079C0F346000874FB
:1028D0004C740020F0BD0000FF054000426C0A600F
:1028E000826C4A60C26C8A60026DCA60426D0A6185
:1028F000826D4A61C26D8A61006EC86100207047B6
:1029000038B50446002000906946204602F007FAD8
:1029100010B1A16B0143A1630098C0F3432038BDFF
:102920002DE9F0410446256B2068416B090406D56A
:10293000290704D52046BDE8F04102F0D5B9416B26
:102940004FF00008C9054FF0010752D539028163E5
:102950002068C16B4CF23A329143C1632068C16A6E
:1029600021F00101C162280724D505F0020605F017
:102970002000304309D0206801F0E8FD28B1A16BA8
:102980000143A1632046FFF7DDFE216840F23A5083
:10299000886384F83470C4F8308005F00100304357
:1029A00004D0204600F062FABDE8F081204600F035
:1029B00061FAF9E72806F7D5A80609D5206801F0DD
:1029C000C5FD28B1A16B0143A1632046FFF7BAFE04
:1029D00005F0010005F002010843E5D12068C16A55
:1029E00021F00801C16284F83470204600F042FAF8
:1029F000DAE7416B490406D5290704D52046BDE82E
:102A0000F04102F0F5B9416B40F23A221142CBD0CD
:102A1000416B890703D5A16B41F00201A163416BB2
:102A2000090703D5A16B41F00801A163416B890639
:102A300003D5A16B41F02001A163416BC90603D509
:102A4000A16B41F01001A163416B890503D5A16B16
:102A500041F00801A16340F23A7181632068C16BC3
:102A600040F23A329143C163206801F06FFDA16BDF
:102A70000843A063280707D584F83470C4F8308071
:102A80002046FFF75FFE8FE728068DD505F0100082
:102A900005F0200108430CD0E16B14480865E06B99
:102AA000FEF743F8002884D0E06BBDE8F04101F068
:102AB000A1BF05F0010005F0020108430CD0216C14
:102AC0000B480865206CFEF730F8002890D0206C89
:102AD000BDE8F04101F065BFC4F8388084F8347077
:102AE000C4F830802046FFF7C7FD5DE7F5490008D0
:102AF000A349000870B50446002C04D094F83400B3
:102B0000002510B105E0012070BD2577204600F0BA
:102B10005FF8032084F83400204600F00BF808B179
:102B2000012070BDA5632563012084F834000020D6
:102B300070BD000070B58AB0044600252946049592
:102B40000591069107910891762009900091CDE9B1
:102B500001100B460A46206801F076FB10B10120F7
:102B60000AB070BD184E3560206801F082FB012567
:102B700035600220FEF778F9204602F05FF830B1A8
:102B800084F83450A16B0143A1630120E8E720469B
:102B900001F0DFFF30B184F83450A16B0143A16331
:102BA0000120DDE74FF40071206801F0B1FB48B16E
:102BB000226806499163A16B0143A16384F83450F4
:102BC0000120CDE70020CBE7A0802542FF05400093
:102BD0002DE9F04F87B00546142102A8FDF79CFBB4
:102BE0004D49286888427DD14C4800684B4940F4E3
:102BF000006008600846006800F4006001904748E3
:102C000014380068454940F004001439086008464B
:102C1000006800F0040001900846006840F00800D9
:102C200008600846006800F0080001904FF4F85072
:102C300002900220039000200490032605960C24A5
:102C4000069402A93648FEF721F9042702970220CC
:102C50000390002004900596069402A93148FEF7DF
:102C600015F9324C30482060780660600020A06082
:102C7000E060380220614FF48058C4F814800001ED
:102C8000A0612020E0614FF40039C4F82090676211
:102C9000A6624FF4000AC4F82CA04FF4001BC4F83D
:102CA00030B02046FEF73EF808B1FDF725FD2C6454
:102CB000A5631D481D4C4838603420604FF000600B
:102CC00060604020A0600020E0604FF480602061E0
:102CD000C4F814800001A0612020E061C4F82090B5
:102CE000676200E014E0A662C4F82CA0C4F830B01B
:102CF0002046FEF717F808B1FDF7FEFCEC63A5636C
:102D0000002205213120FEF767FA3120FEF756FA3E
:102D100007B0BDE8F08F0000002C014044380240AD
:102D200000080240000C0240A0640240D4020020CF
:102D30002DE9F04786B004468C4615461E46BCF188
:102D4000000F07D094F83400012809D0022006B003
:102D5000BDE8F087A06B40F00060A0630120F6E7BB
:102D60004FF00008C4F83880E16DA819884205D9F1
:102D7000A06B40F00070A0630120E8E7032084F816
:102D800034002068C0F82C802068C16B40F22A32E1
:102D90001143C163216C3148C863216C3048C86459
:102DA000206CC0F85080206CC0F80880206C00684F
:102DB000016821F0C001016021687702BB08803101
:102DC0006246206CFEF718F8DFF898A04FF0010972
:102DD00078B12068C16B21F49571C1632068C0F897
:102DE00038A0A06B40F08040A06384F834900120AC
:102DF000ADE71D48C0F80090606C012800D06D025E
:102E00004FF0FF3000900197902002900220039035
:102E1000CDF81080CDF814906946206801F0F1F9E2
:102E2000012E06D9822020632946206801F0CEFABF
:102E300005E0812020632946206801F0E0FA58B1BE
:102E40002168C1F838A0A16B0143A16384F83490D4
:102E5000C4F8308001207AE7002078E76149000853
:102E6000FD480008FF0540008C85254210B5FDF7A0
:102E70007FFB10BD10B5FDF797FB10BD2DE9F04F9E
:102E80008A4687B0044611461D46BAF1000F07D0A6
:102E900094F83400012809D0022007B0BDE8F08F73
:102EA000A06B40F00060A0630120F6E70026A66357
:102EB000E26D4819904205D9A06B40F00070A06304
:102EC0000120EAE7032084F834002068C662206805
:102ED000C26B40F21A2842EA0802C263E26B2F4832
:102EE000D063E26B2E48D064E06B0665606C01280D
:102EF00000D049024FF09009012D05D9A020206390
:102F0000206801F03DFB04E0C4F83090206801F037
:102F100050FBDFF890B0012750B12168C1F838B0FC
:102F2000A16B0143A16384F8347026630120B4E7E8
:102F30001D480760E16B40208860E06B0068016815
:102F400021F0C00141F04001016022686D02AB0830
:102F500080325146E06BFDF74FFF80B12068C16BB6
:102F600021EA0801C1632068C0F838B0A06B40F0C6
:102F70008040A06384F83470266301208DE74FF011
:102F8000FF3001900295CDF80C90049605960697B7
:102F900001A9206801F035F900207EE7E749000823
:102FA000FD480008FF0540008C85254270B50446A9
:102FB000002C09D0606A002540B125616561A562D9
:102FC00094F8510040B10CE0012070BD6068B0F58C
:102FD000827FF4D0E561F2E784F85050204600F09B
:102FE00045F8022084F851002068016821F0400172
:102FF0000160A088218900F4827001F40441084333
:10300000A18901F400610843217C01F00201084319
:10301000217D01F001010843218B01F40071084377
:10302000217F01F03801084394F8201001F080015D
:103030000843218D01F40051084321680860A0690C
:10304000042101EA104094F8241001F01001084313
:10305000216848602068C16921F40061C16165652B
:10306000012084F85100002070BD00002DE9F043DC
:1030700087B00546142102A8FDF74EF92D492868AE
:10308000884254D100262C48016841F480510160E7
:10309000006800F48050019027481438016841F01E
:1030A00001010160006800F001000190F020029031
:1030B000022003900496032005900520069002A9A3
:1030C0001E48FDF7E3FE1F4C1D4820604FF0C0690D
:1030D000C4F804904020A060E660070127616661A3
:1030E000A661E6614FF40038C4F82080666220468D
:1030F000FDF718FE08B1FDF7FFFAAC64A5631048B0
:10310000104C783860342060C4F80490A660E66003
:1031100027616661A661E661C4F820806662204688
:10312000FDF700FE08B1FDF7E7FAEC64A56307B010
:10313000BDE8F08300300140443802400000024006
:1031400088640240EC0300207047704770B590F827
:103150003C20012A31D0012680F83C60022280F810
:103160003D2002685468936824F070050C682C4375
:103170005460134C0268A24214D0B2F1804F11D0B7
:10318000104CA2420ED0104CA2420BD00F4CA242C7
:1031900008D00F4CA24205D00E4CA24202D00E4CD9
:1031A000A24204D123F080034968194391603C3066
:1031B000467000210170002070BD022070BD00002B
:1031C000000001400004004000080040000C0040E6
:1031D00000040140004001400018004010B50446C2
:1031E000002C03D094F83D0010B107E0012010BD81
:1031F000002084F83C00204600F016F8022084F8F5
:103200003D00211D206801F041FF01203D34607226
:103210006070A070E07020716071A071E071207228
:103220002070002010BD000008B50068B0F1804F8C
:1032300008D10548016841F001010160006800F013
:103240000100009008BD00004038024090F83D1099
:10325000012901D001207047022180F83D1001684A
:10326000CA6842F00102CA6000681449884214D05A
:10327000B0F1804F11D0124988420ED011498842D6
:103280000BD01149884208D01049884205D0104916
:10329000884202D00F49884209D1816801F00701B4
:1032A000062908D0016841F00101016003E00168CE
:1032B00041F0010101600020704700000000014062
:1032C0000004004000080040000C004000040140E1
:1032D000004001400018004070B50446002594F8F5
:1032E0003C00012817D0012684F83C60022084F8B5
:1032F0003D002068826822F0770222F47F428260DB
:103300000868502838D00DDC202853D005DC90B355
:10331000102811D14EE0022070BD30284AD040283C
:103320000AD13DE0602831D070280CD0B0F5805F24
:1033300003D0B0F5005F12D001253C346670002048
:103340002070284670BDCB68D1E90121206801F0CA
:1033500003FF2068816841F077018160EDE7CB6869
:10336000D1E90121206801F0F7FE2068816841F46D
:1033700080418160E1E71DE0CA684968206801F08A
:10338000FDFE5021206801F0F1FED6E7CA684968C9
:10339000206801F004FF6021206801F0E7FECCE71F
:1033A000CA684968206801F0E9FE4021206801F000
:1033B000DDFEC2E722680146104601F0D7FEBCE7F9
:1033C000704770B50446206801694FF00005C94395
:1033D000890716D4C168C943890712D4E91E01615F
:1033E0000120207720688069800703D02046FFF7FE
:1033F000E7FF05E0204600F09BF8204600F099F832
:10340000257720680169C943490718D4C168C943B1
:10341000490714D46FF0040101610220207720686D
:10342000806910F4407F03D02046FFF7C9FF05E014
:10343000204600F07DF8204600F07BF825772068D4
:103440000169C943090717D4C168C943090713D4DF
:103450006FF008010161042020772068C0698007AF
:1034600003D02046FFF7ACFF05E0204600F060F8EF
:10347000204600F05EF8257720680169C943C90637
:1034800018D4C168C943C90614D46FF01001016192
:10349000082020772068C06910F4407F03D02046C0
:1034A000FFF78EFF05E0204600F042F8204600F0CE
:1034B00040F8257720680169C943C90708D1C16868
:1034C000C943C90704D1891E0161204600F032F8C2
:1034D00020680169C943090609D4C168C9430906BE
:1034E00005D46FF0800101612046FFF72DFE2068B2
:1034F0000169C943490609D4C168C943490605D4CD
:103500006FF040010161204600F036F82068016943
:10351000C94389060BD4C168C943890607D46FF033
:10352000200101612046BDE87040FFF70EBE70BD6E
:103530007047704710B504460C492068884201D195
:10354000FDF7A8FD2068B0F1804F0ED10848016852
:10355000084821B1BDE810400421FDF786BD0122D5
:10356000BDE810400421FDF788BD10BD00100040EB
:1035700008000020000402407047704710B5044660
:1035800020684069C0F3C01094F83D10212911D182
:1035900080B12068143050E8001F21F0800140E81D
:1035A0000012002AF5D1606B08B1FDF777FA2046CA
:1035B00001F0B6FE20684069C0F3801094F83E1018
:1035C000222911D180B12068143050E8001F21F069
:1035D000400140E80012002AF5D1A06B08B1FDF7C8
:1035E0005DFA204601F068FE002010BD7047000023
:1035F000F8B5044622681068D168536900F00F06D8
:10360000002E08D1850606D58D0604D52046BDE8D6
:10361000F84001F093BE0025002E66D003F00106AD
:1036200001F49077374360D0C20705D0CA0503D5AF
:10363000226C42F001022264420705D5DA0703D06A
:10364000226C42F002022264820705D5DA0703D019
:10365000226C42F004022264020707D501F0200226
:10366000324303D0226C42F008022264226C002A0A
:1036700031D0800604D5880602D5204601F05EFED2
:1036800020684069C0F38010216C090700D438B36A
:10369000204601F011FE2068406940061CD52068D4
:1036A000143050E8001F21F0400140E80012002AC9
:1036B000F5D1A06B60B157490165A06BFDF735FAF4
:1036C000002808D0A06B016D01B0BDE8F0400847AC
:1036D0002046FFF78BFFF8BD2046FFF787FFF8BDB8
:1036E0002046FFF783FF2564F8BD236B012B7ED1B5
:1036F000C3067CD5CB067AD5106850680090506917
:103700004FF02003400643D5A16B0868406880B2A3
:103710000028E9D0A28D8242E6D9E085C869B0F5DB
:10372000807F2DD020680C3050E8001F21F480717C
:1037300040E80012002AF5D12068143050E8001F3C
:1037400021F0010140E80012002AF5D12068143070
:1037500050E8001F21F0400140E80012002AF5D196
:1037600084F83E30256320680C3050E8001F21F0BB
:10377000100140E80012002AF5D1A06BFDF78EF988
:10378000A08DE18D401A81B22046FFF7F6FEF8BD0C
:10379000A08DE18D401A81B2E08D0028F7D000297C
:1037A000F5D020680C3050E8002F22F4907240E8E9
:1037B0000026002EF5D12068143050E8002F22F0AA
:1037C000010240E80026002EF5D184F83E30256342
:1037D00020680C3050E8002F22F0100240E800234F
:1037E000002BF5D12046FFF7C8FEF8BDFFE7020623
:1037F00006D50A0604D52046BDE8F84001F0D8BE3B
:103800004006F2D54806F0D52046BDE8F84001F064
:103810007ABD0000C351000810B50E49884218D186
:103820000D480068012814D10C4C0D490D48226840
:1038300003F009F920680A4AC0F580711044FCF7CA
:103840006BFDBDE810404FF480720549014800F05F
:103850001FB910BD38050020040000200000002022
:10386000C4000020C401002070B50446002C04D020
:1038700094F83D00002510B106E0012070BD84F8E9
:103880003C50204600F022F8242084F83D002068B7
:10389000C16821F40051C160204601F0B3FD2068E9
:1038A000016921F4904101612068416921F02A01F8
:1038B00041612068C16841F40051C1602564202045
:1038C00084F83D0084F83E00002070BD2DE9F047EB
:1038D00086B00446142101A8FCF71EFDDFF890A174
:1038E0000222206863490323634D002697064FF0A8
:1038F000070C4FF040094FF4806850455AD15D489D
:103900001430D0F800A04AF0100AC0F800A00068F7
:1039100000F010000090086840F00100086008689E
:1039200000F0010000905802019002920396049367
:10393000CDF814C001A92846FDF7A8FA504D4F480C
:1039400028606F60C5F80890EE60C5F810806E6161
:10395000AE61EE614FF40039C5F820906E622846E2
:10396000FDF7E0F908B1FCF7C7FE6563AC634348B7
:10397000434D7838603528606F60AE60EE60C5F802
:1039800010806E61AE61EE61C5F820906E622846CF
:10399000FDF7C8F908B1FCF7AFFEA563AC630022E0
:1039A00005212520FDF718FC2520FDF707FC06B0B2
:1039B000BDE8F087DFF8CCA05045F8D12D48103095
:1039C000D0F800A04AF4003AC0F800A0006800F463
:1039D00000300090086840F001000860086800F0BE
:1039E000010000900C200190029203960493CDF800
:1039F00014C001A92846FDF749FA214D2248C035D7
:103A000028606F60AE60EE60C5F810806E61AE61D8
:103A1000EE614FF4403AC5F820A06E622846FDF7EB
:103A200081F908B1FCF768FEA563AC631648174D31
:103A3000183028606F60C5F80890EE60C5F81080F7
:103A40006E61AE61EE61C5F820A06E622846FDF79A
:103A500069F908B1FCF750FE6563AC6300220521EB
:103A60002620FDF7B9FB2620FDF7A8FB9FE7000005
:103A7000001001403038024000000240B8640240AB
:103A80007C05002000440040886002409C06002025
:103A900090F83E30202B01D00220704759B152B12E
:103AA00090F83C30012B08D0012380F83C300023F3
:103AB000036301F031BD0120704702207047704759
:103AC00070477047FEE700007FB500240094019422
:103AD000029403941348124901604FF4803141600D
:103AE00084600461047680F82040C4620E498162DB
:103AF000C4600125C56180F830404561FCF76BFF6B
:103B000008B1FCF7F9FD0095019502946946054856
:103B1000FCF71AFE002801D0FCF7EEFD7FBD000087
:103B200000200140E80100200100000F08B52948ED
:103B3000016841F480010160016801F48001009195
:103B4000016841F400110160006800F40010009069
:103B5000002205211020FDF73FFB1020FDF72EFB72
:103B6000002205211120FDF737FB1120FDF726FB70
:103B7000002205213820FDF72FFB3820FDF71EFB22
:103B8000002205213A20FDF727FB3A20FDF716FB1E
:103B9000002205213B20FDF71FFB3B20FDF70EFB1C
:103BA000002205214420FDF717FB4420FDF706FB0A
:103BB000002205214520FDF70FFB4520FDF7FEFA09
:103BC000002205214620FDF707FBBDE808404620FE
:103BD000FDF7F4BA3038024010B504490448FCF748
:103BE0008DFD0249491E087010BD000035000020FF
:103BF000087B000870B586B0142101A8FCF78CFB87
:103C000000242A48016841F004010160016801F0C4
:103C100004010091016841F080010160016801F038
:103C200080010091016841F001010160016801F02B
:103C300001010091016841F002010160016801F099
:103C400002010091016841F008010160006800F084
:103C500008000090164E0122C4213046FDF70DFAEF
:103C6000012501950294039401A91248FDF70EF96C
:103C700004200190029503940225049501A9304681
:103C8000FDF704F9082001900294039501A90A4860
:103C9000FDF7FCF8C02001901120029003940495D8
:103CA00001A93046FDF7F2F806B070BD3038024089
:103CB0000004024000000240000C024070B592B0C7
:103CC00014210DA8FCF728FB00240C94282102A83D
:103CD000FCF722FB3848016841F080510160006820
:103CE00000F080500190FDF787FE354833490160B0
:103CF00044607F218160FF21C1600461446184616F
:103D0000FEF7B0FA08B1FCF7F7FC00212C48FEF7EB
:103D100022FA45F65A26B0424BD012208DF83400D4
:103D20008DF835408DF836401094119401220DA97C
:103D30002348FEF727FC08B1FCF7DEFC01258DF8CF
:103D4000305004208DF8310022208DF832002420DC
:103D50008DF8330001220CA91948FEF7C5FB08B104
:103D6000FCF7CAFC23208DF8080055208DF80900C7
:103D700056208DF80A000394059406944FF0803085
:103D800007904FF01060089009948DF828504FF478
:103D900080700B90012202A90948FEF7CFFA08B102
:103DA000FCF7AAFC324600210548FEF7DAF912B00A
:103DB00070BD00F097F9FAE7403802400028004053
:103DC00030020020074806490160002141608160FF
:103DD000C1604FF40062026141610C218161704752
:103DE000002C01405002002010B50F480D49016021
:103DF0004FF48271416000218160C16001614161C5
:103E00004FF480228261C1610162416281620A21B4
:103E1000C162FFF7CBF8002803D0BDE81040FCF7E3
:103E20006BBC10BD003001409403002010B586B07B
:103E3000002402940394049405940094019413487C
:103E40004FF0804101605321416084604FF6FF7163
:103E5000C16004618461FFF7C1F908B1FCF74CFC53
:103E60004FF48050029002A90848FFF735FA08B1D4
:103E7000FCF742FC0094019469460448FFF766F998
:103E8000002801D0FCF738FC06B010BDAC040020BF
:103E900010B50C480A4901604FF4E131416000213E
:103EA0008160C16001610C2242618161C161FFF7E3
:103EB000DBFC002803D0BDE81040FCF71DBC10BDA2
:103EC00000100140F404002010B50E4C0C48206096
:103ED0004FF4E13060600020A060E06020610C21C0
:103EE0006161A061E0612046FFF7BEFC08B1FCF70C
:103EF00003FC2068C16841F02001C16010BD0000D2
:103F00000044004038050020FEE7FEE70148FDF7C9
:103F100094BA00007009002070B504462068056C52
:103F200000EB4110D0F8081B0C4EB54205D909042E
:103F300003D54FF40041C0F8081B2046FDF73DFDB6
:103F4000B54208D92069012805D104F2C4420121F3
:103F5000206802F02BFA002070BD00000A30544F98
:103F60002DE9F04105460C462E68306C06EB4411F5
:103F7000D1F8083BD5F810804FF400474FF0200CE3
:103F800005F2C442B8F1010F08D0DFF8B080404517
:103F900045D118043AD5C1F8087B4CE0284E5FEAB9
:103FA000037806D5B04246D9180444D5C1F8087B39
:103FB00041E05FEA836802D5C1F808CB3BE013F02B
:103FC000280F38D1B04204D9180402D5C1F8087BB3
:103FD00031E004EBC40005EB800000F51F70D1F860
:103FE000101BC369C1F31201591A016224B9836914
:103FF0003BB1026911440161E1B22846FDF72CF999
:1040000019E00121286802F0D1F9F5E7980601D5F9
:10401000C1F808CBE1B22846FDF71EF90BE034B930
:10402000D5F8940218B90021304602F0BFF9E1B288
:104030002846FDF711F90020BDE8F0810A31544F00
:104040000A30544F2DE9F84F80460E46D8F80070DC
:1040500006EBC60008EB80043C34A169206A884264
:1040600002D90120BDE8F88F081AE168814200D228
:104070000846C01C4FEA900A07EB461916E0151ACD
:10408000E268AA4200D21546E81C4FEA900A98F866
:1040900010000090ABB2F2B23846216902F062FC27
:1040A000206928442061206A28442062D9F8180930
:1040B00080B2504505D3A269206A904201D2002AFD
:1040C000DDD1216AA069884208D806F00F010120DD
:1040D0008840D7F834188143C7F834180020C1E766
:1040E0007047000000B58BB0282101A8FCF714F937
:1040F000012217491748FEF78BF801221649154887
:10410000FEF764F823208DF8040055208DF8050093
:104110000F488078401C8DF8060000200290049023
:1041200005904FF0803106914FF010610791089093
:1041300001208DF8240000020A90012201A90548FF
:10414000FEF7FCF8002801D0FCF7D6FA0BB000BD52
:10415000D401002030020020100000200148FEF7AA
:1041600007B8000030020020010901EB810149007D
:1041700000F00F000844C0B27047002103E0491C62
:10418000C9B20A38C0B20A28F9D2090740EA116058
:1041900070472DE9F041044600252068C1684906B2
:1041A00017D4C16841F08001C160FCF76DFF06467D
:1041B0004FF47A78042706E0FCF766FF801B404541
:1041C00001D9677701252068C068400601D4012D18
:1041D000F2D12846BDE8F08170B50446002520687C
:1041E000C16821F08001C16020688068800606D423
:1041F0002046FEF727FA10B10420607701252846F3
:1042000070BD0A6842624A688262D1E902231A4399
:10421000D1E904310B431A43C16A21F0F70111437C
:10422000C162002070470069C0B27047006800F0AA
:104230000300704708444069704700000148FEF7DA
:104240006FBB0000500200200FB4DDE901121143E2
:10425000DDE903231A431143059A1143069A1143DA
:10426000426847F6FF639A430A434260002004B065
:1042700070470321016000207047D0F8800070472C
:104280000A688260D1E901231A43D1E903310B4363
:104290001A43C1686FF30B011143C16000207047DE
:1042A0000968C0F880100020704710B585B004463A
:1042B00000913721019140210291002103914FF497
:1042C0008061049169462046FFF7DAFF41F28832A7
:1042D0003721204600F09EF905B010BD10B585B01D
:1042E00004460A4A1143009129210191402102917B
:1042F00000210391510D049169462046FFF7C0FF4C
:10430000204600F043FA05B010BD00000000108008
:1043100010B585B004460091102101914021029111
:10432000002103914FF48061049169462046FFF714
:10433000A7FF41F288321021204600F06BF905B04A
:1043400010BD10B585B004460091062101914021B1
:104350000291002103914FF4806104916946204647
:10436000FFF78EFF41F288320621204600F052F915
:1043700005B010BD10B586B0044600210191029130
:10438000039104914FF48061059101A92046FFF744
:1043900077FF204600F026F906B010BD10B585B0B5
:1043A00004464FF4D57100910821019140210291FA
:1043B000002103914FF48061049169462046FFF784
:1043C0005FFF204600F04AFA05B010BD10B585B079
:1043D0000446009112210191402102910021039194
:1043E0004FF48061049169462046FFF749FF41F28E
:1043F00088321221204600F00DF905B010BD10B52D
:1044000085B00446009111210191402102910021C3
:1044100003914FF48061049169462046FFF730FF15
:1044200041F288321121204600F0F4F805B010BDA9
:1044300010B585B0044600920721019140210291F8
:10444000002103914FF48060049069462046FFF7F5
:1044500017FF41F288320721204600F0DBF805B053
:1044600010BD10B585B004460021009102220192D2
:10447000C022029203914FF4806104916946204664
:10448000FFF7FEFE204600F057F905B010BD10B54D
:1044900085B00446009109210191C02102910021BB
:1044A00003914FF48061049169462046FFF7E8FECE
:1044B000204600F041F905B010BD10B585B00446A6
:1044C00000210091332201924022029203911101B6
:1044D000049169462046FFF7D3FE41F2883233212A
:1044E000204600F097F805B010BD10B585B0044621
:1044F00000910D21019140210291002103914FF47F
:104500008061049169462046FFF7BAFE41F2883285
:104510000D21204600F07EF805B010BD70B585B0C5
:1045200006460D4600230093032401944024029480
:1045300003932301049369463046FFF7A1FE2A4600
:104540000321304600F044F905B070BD10B585B0C8
:104550000446002100910C22019240220292039114
:104560001101049169462046FFF78AFE034A0C2197
:10457000204600F04FF805B010BD000000E1F50541
:1045800010B585B004460091192101914021029196
:10459000002103914FF48061049169462046FFF7A2
:1045A0006FFE41F288321921204600F033F805B041
:1045B00010BD10B585B0044600911821019140212D
:1045C0000291002103914FF48061049169462046D5
:1045D000FFF756FE41F288321821204600F01AF803
:1045E00005B010BD0A494FF4FA520968B1FBF2F167
:1045F00041F288325143491E4A1C06D0426B1206D2
:10460000F9D5C5218163002070474FF00040704705
:104610004800002010B5034645484FF4FA5400689E
:10462000B0FBF4F45443641E601C0BD0586B10F0C4
:10463000450FF8D00005F6D4586B400705D5042087
:10464000986310BD4FF0004010BD586BC00702D0FA
:104650000120986310BDC52098631846FFF7E3FD5D
:10466000884201D0012010BD00211846FFF7E2FD6D
:104670003049084201D1002010BD002802DA4FF075
:10468000007010BD410001D5402010BD810001D552
:10469000802010BDC10002D54FF4807010BD010113
:1046A00002D54FF4007010BD410102D54FF4806077
:1046B00010BDC10102D54FF4006010BD010202D54A
:1046C0004FF4805010BD410202D54FF4005010BD90
:1046D000810202D54FF4804010BDC10202D54FF4D3
:1046E000004010BD410302D54FF4003010BD8103DE
:1046F00002D54FF4802010BDC10302D54FF4002035
:1047000010BD010402D54FF4801010BD410402D544
:104710004FF4001010BD810402D54FF4800010BD8D
:10472000000702D54FF4000010BD4FF4803010BDDB
:104730004800002008E0FFFD13494FF4FA520968D1
:10474000B1FBF2F241F288314A43521E511C0CD0A7
:10475000416B11F0450FF8D00905F6D4416B4907BC
:1047600006D504218163042070474FF00040704754
:10477000416BC90703D00121816301207047C52126
:104780008163002070470000480000200F494FF46B
:10479000FA520968B1FBF2F241F288314A43521EE3
:1047A000511C0CD0416B11F0450FF8D00905F6D41F
:1047B000416B490706D504218163042070474FF0FF
:1047C00000407047C52181630020704748000020E9
:1047D00030B5034620484FF4FA540068B0FBF4F4B7
:1047E00041F288304443641E601C0BD0586B10F0BB
:1047F000450FF8D00005F6D4586B400705D50420C6
:10480000986330BD4FF0004030BD586BC00702D0F8
:104810000120986330BD1846FFF705FD884201D09E
:10482000012030BDC520986300211846FFF702FD26
:1048300010F4604F04D0410406D54FF4005030BD51
:10484000000C1080002030BD000402D54FF48050D1
:1048500030BD4FF4803030BD4800002014494FF483
:10486000FA520968B1FBF2F241F288314A43521E12
:10487000511C0CD0416B11F0450FF8D00905F6D44E
:10488000416B490706D504218163042070474FF02E
:1048900000407047416BC90703D0012181630120AB
:1048A0007047416B490601D5402181630020704764
:1048B0004800002010B5064C01202070FBF71AFEBE
:1048C00018B9207820F001002070207810BD000079
:1048D0002C00002070B5054602F04AF9044602E0BB
:1048E000FBF708FE38B102F043F9001BA842F7D3EA
:1048F0004FF0FF3070BD002070BD000010B5846B1C
:10490000FCF725F9022828D0206C406DE16B496D39
:10491000012801D001291DD1216810488863206831
:10492000C16B21F49D71C163A06B40F08040A06316
:104930002046FDF7E5FF062801D0052805D12068AF
:10494000FFF704FEA16B0843A063012084F8340044
:10495000002020632046FDF7F5FE10BDFF05400056
:1049600010B5846B206B822809D12068FFF7EEFD1B
:1049700028B1A16B0143A1632046FDF7E3FE206847
:10498000C16A21F00801C162216840F23A5088638F
:10499000012084F83400002020632046FEF766FAE8
:1049A00010BD10B5846B40F23A50216888632046F0
:1049B000FDF7A6FF012184F83410002121630628A9
:1049C00001D0052805D12068FFF7C0FDA16B084381
:1049D000A063A06B18B12046FDF7B4FE10BD2046C1
:1049E000FDF74AFE10BD806B0068C16B41F4807119
:1049F000C163704710B5846B40F23A5021688863F8
:104A00002046FDF77DFF012184F834100021216349
:104A1000062801D0052805D12068FFF797FDA16B76
:104A20000843A063A06B18B12046FDF78BFE10BDB4
:104A30002046FDF721FE10BD2DE9F04788B0044661
:104A40000E46FCF721FB07460025AA46CDF800A03C
:104A5000CDF804A008212068FFF75AFC00283FD1B8
:104A6000B4F8500001042068FFF71FFC002837D17C
:104A7000401E02904FF00808CDF80C8030200490C2
:104A80004FF00209CDF81490CDF818A0012007903E
:104A900002A92068FFF7B5FB2068FFF70EFD00288C
:104AA0001ED1EA4610E0416B890205D5FFF7E5FB10
:104AB0004AF825006D1C02E0416B890409D5FCF71A
:104AC000E3FAC01B401C0ED02068416B11F02A0F86
:104AD000E9D02168496B090708D5C0F8388008205B
:104AE00008B0BDE8F0874FF00040F9E7416B890757
:104AF00003D5C0F838900220F2E7416B890603D550
:104B0000202181632020EBE740F23A518163019834
:104B10000199000601F47F4140EA0120019901F466
:104B20007F0140EA1120019940EA1160306000984D
:104B30000099000601F47F4140EA0120009901F448
:104B40007F0140EA1120009940EA11607060002066
:104B5000C6E710B590B00446012004902068FFF726
:104B600065FB002854D0606C032819D02068FFF73B
:104B700078FC00284AD100212068FFF75BFB6067C2
:104B800004212068FFF756FBA06708212068FFF783
:104B900051FBE0670C212068FFF74CFBC4F8800054
:104BA000606C032805D004A92068FFF7B7FC002833
:104BB0002CD1606C03281CD0BDF8100020650104C6
:104BC0002068FFF764FC002820D100212068FFF74F
:104BD00031FB606604212068FFF72CFBA0660821EA
:104BE0002068FFF727FBE0660C212068FFF722FB17
:104BF000206704212068FFF71DFB000DE06405A974
:104C00002046FDF7A1FD30B14FF0805010B010BD2F
:104C10004FF08060FAE7B4F85000002302042068E7
:104C2000FFF706FC0028F1D1D4E9051220698DE8D0
:104C300007000FCCFFF708FB0020E7E72DE9F84F4E
:104C4000044600270097002600252068FFF792FB06
:104C5000002819D12068FFF7A1FB4FF0010930B1FE
:104C6000A7642068FFF786FB00280DD101E0C4F897
:104C70004890A06C4FF0805A012807D1002120688D
:104C8000FFF713FB10B15046BDE8F88F4FF6FF78E1
:104C900015E000212068FFF708FB0028F4D1114936
:104CA0002068FFF71BFB08B15046EDE700212068A4
:104CB000FFF7C0FA0646F50F0098401C00900098D8
:104CC000404501D2002DE4D00098404502D34FF07A
:104CD0008070D9E7700002D5C4F8449000E06764A2
:104CE0000020D1E7000010C12DE9F0410746BC6A61
:104CF000FD6A002D11D000263868FFF7BEFA20703B
:104D0000010A6170010CA170000EE070241D2D1FBE
:104D1000761C082EF0D3BC62FD62BDE8F08170B550
:104D200004460D46002D0ED0B4F850000104206852
:104D3000FFF7DBFB002805D100212068FFF77AFA96
:104D40002860002070BD4FF0006070BD1CB50446A7
:104D500000200090019000212068FFF76BFA80018D
:104D600002D54FF400601CBD69462046FFF764FE83
:104D70000028F8D10198C0030ED5B4F85000010402
:104D80002068FFF792FA0028EDD100212068FFF794
:104D9000D8FA0028E7D11CBD4FF080601CBD1CB5BF
:104DA000044600200090019000212068FFF742FA9D
:104DB000800102D54FF400601CBD69462046FFF714
:104DC0003BFE0028F8D1019840030ED5B4F85000FE
:104DD00001042068FFF769FA0028EDD1022120685C
:104DE000FFF7AFFA0028E7D11CBD4FF080601CBD73
:104DF000F8B507463C6A7D6A002D19D00026207858
:104E00000090617840EA01200090A17840EA0140DA
:104E10000090E178241D40EA016000902D1F694652
:104E20003868FFF73DFA761C082EE8D33C627D62B5
:104E3000F8BD000070B50546104C0120207001F04F
:104E400083FE022817D1FBF761FB18B92846FFF74C
:104E500031FD2070207801280DD0606828B900222B
:104E600002210A2001F0C2FE6060606818B9207853
:104E700040F001002070207870BD00002C00002060
:104E800010B588B0144614480078C00702D003203B
:104E900008B010BD39B1012907D002290CD003296F
:104EA00011D00420F4E70020F2E76846FBF71CFB72
:104EB000069820600020EBE76846FBF715FB079893
:104EC00020800020E4E76846FBF70EFB0798400AC5
:104ED00020600020DCE700002C0000202DE9F843D2
:104EE0000D4617469846012647F230542046FFF7F4
:104EF000F1FC002802DA3046BDE8F8834246394624
:104F00002846FBF727FBB8B90D482346002269461F
:104F1000406801F035FE78B9BDF8000001280BD1DA
:104F200001F026FE054602E0FBF7E4FA30B101F09D
:104F30001FFE401BA042F7D33046DDE70026FBE70B
:104F40002C000020FFF7B6BC2DE9F8430D461746AC
:104F50009846012647F230542046FFF7BBFC002854
:104F600002DA3046BDE8F883424639462846FBF768
:104F70000DFBB8B90D48234600226946406801F090
:104F8000FFFD78B9BDF8000002280BD101F0F0FD5B
:104F9000054602E0FBF7AEFA30B101F0E9FD401B37
:104FA000A042F7D33046DDE70026FBE72C000020C7
:104FB0000178407841EA0020704710B54FF0E020BA
:104FC000006902F041FC012803D0BDE8104002F066
:104FD0004BB910BD30B593B0302107A8FBF79CF951
:104FE000142102A8FBF798F900251F48016841F039
:104FF00080510160006800F0805001901B480168FA
:1050000041F480410160006800F480400190052077
:1050100007904FF4803008900120099002240D94ED
:1050200080050E9004200F90A82010901194072066
:10503000129007A8FCF7AEFE08B1FBF75DFB0F204E
:105040000290039404954FF4A05005904FF48050C3
:105050000690052102A8FCF77FFD002801D0FBF790
:105060004BFB13B030BD00004038024000700040E0
:105070000248016841F470010160704788ED00E06A
:105080000148FEF79EB90000FC0600202DE9F04122
:105090000268264D264E274FDFF89CC0274B4FF065
:1050A0008048A84209D0404507D0B04205D0B84258
:1050B00003D0604501D0984203D122F070044A68C1
:1050C0002243A8421BD0404519D0B04217D0B84265
:1050D00015D0604513D0984211D0194CA0420ED083
:1050E000184CA0420BD0184CA04208D0174CA0423C
:1050F00005D0174CA04202D0164CA04203D122F496
:105100004074CA6822434C6922F080022243026044
:105110008A68C2620A688262A84201D0984201D1BC
:105120000969016301214161BDE8F081000001408E
:105130000004004000080040000C00400004014052
:105140000040014000440140004801400018004078
:10515000001C00400020004010B5846824F47F4407
:1051600042EA03220A432243826010BD826822F091
:1051700070020A4342F007018160704710B5036A6C
:10518000046A24F001040462846924F0F00444EA0F
:10519000021423F00A020A438461026210BD10B5B2
:1051A000036A23F0100303628469036A24F47044E1
:1051B00044EA023223F0A00343EA01118261016252
:1051C00010BD10B5806B0021C185C184FEF70EFAB9
:1051D00010BD70B5846B20684069C0F3C01094F8AE
:1051E0003D100025212904D118B1E584204600F0A6
:1051F00097F820684069C0F3801094F83E10222987
:1052000004D118B1E585204600F056F8206C40F036
:10521000100020642046FEF7E9F970BD10B5014684
:10522000886B09680968C9052FD40021C185016808
:105230000C3151E8002F22F4807241E80023002B4A
:10524000F5D10168143151E8002F22F0010241E844
:105250000023002BF5D10168143151E8002F22F012
:10526000400241E80023002BF5D1202180F83E10B8
:10527000016B012909D101680C3151E8002F22F09E
:10528000100241E80023002BF5D1016B012902D067
:10529000FEF715FC10BD818DFEF76FF910BD10B53E
:1052A000806B016B012902D0FEF70AFC10BD818DD5
:1052B0004908FEF762F910BD01680C3151E8002F72
:1052C00022F4907241E80023002BF5D101681431DB
:1052D00051E8002F22F0010241E80023002BF5D114
:1052E000016B012909D101680C3151E8002F22F02E
:1052F000100241E80023002BF5D1202180F83E1058
:1053000000210163704710B50168CA6822F04002AD
:10531000CA60202180F83D10FEF7D3FB002010BDAD
:1053200001680C3151E8002F22F0C00241E800234F
:10533000002BF5D1202180F83D10704708B590F87A
:105340003E10222901D0022008BD82684FF480530C
:105350009A4201D1016921B1816A9A421DD052B1AC
:105360000BE0816A02685268C2F308020A80816A0F
:10537000891C816209E002697AB10268526802F010
:105380007F020A70816A491C8162C18D491E09042D
:10539000090CC18505D0002008BD026852680A705A
:1053A000F0E70168CA6822F02002CA600168CA6892
:1053B00022F48072CA6001684A6922F001024A61DF
:1053C000202180F83E10016B012903D0FEF777FB06
:1053D000002008BD0021016301680C3151E8002F55
:1053E00022F0100241E80023002BF5D101680A6881
:1053F000D20602D50A6849680091818DFEF7BDF892
:10540000E6E700002DE9F041044620680169E26802
:1054100021F4405111430161A1682069E26901430F
:105420006069104301432068C26849F20C639A43E3
:105430000A43C26020684169A26921F440711143A6
:10544000416133492068884202D03249884202D102
:10545000FCF75CFC01E0FCF749FCE169002319273B
:1054600064253226B1F5004F28D061688B0F8A0081
:10547000A0FB0701FAF706FF0146B0FBF5F07A4200
:10548000504301EB800006EB0010B0FBF5F000F09C
:10549000F002B1FBF5F002EB0012B1FBF5F07B423C
:1054A000584301EB800006EB0010B0FBF5F02168DB
:1054B00000F00F0010448860BDE8F08161684A1870
:1054C000A0FB07015B41FAF7DDFE0146B0FBF5F0FA
:1054D0000201B1FBF5F06FF01803584301EB8000B7
:1054E00006EBC000B0FBF5F000F0F80002EB400264
:1054F000B1FBF5F0584301EB800006EBC000B0FBB8
:10550000F5F0216800F0070010448860D4E700003F
:10551000001001400014014037B582B00446134624
:10552000039AA262A38500252564222084F83E0008
:10553000A16B1C48C863A16B1B480864A16B1B4886
:10554000C864A06B05652168A06B091DFBF754FCBE
:10555000206801684068019084F83C50206948B197
:1055600020680C3050E8001F41F4807140E80012C0
:10557000002AF5D12068143050E8001F41F00101E5
:1055800040E80012002AF5D12068143050E8001FCE
:1055900041F0400140E80012002AF5D105B000209A
:1055A00030BD00001D5200089F520008D351000872
:1055B00090F83D10212901D0022070478168B1F593
:1055C000805F01D1016961B1016A4A1C026202680F
:1055D00009785160C18C491E0904090CC1840AD0A4
:1055E00013E0016A02680988C1F308015160016A89
:1055F000891C0162EEE70168CA6822F08002CA6075
:105600000068C16841F04001C1600020704700009F
:105610000148FDF7EDBF0000F404002008B5104874
:1056200000680168C1F30011002914D001684168C5
:105630000091016840680A48FDF7A0FF094800682A
:1056400040680949C0F58070086008490120086079
:105650000348FEF7E1F8BDE808400148FDF7C8BF80
:10566000380500203C060020000000200400002037
:1056700010B50024D0F8B8225268904700B1032436
:10568000204610BD90F89C22012A05D0022A03D0A2
:10569000032A01D000F01DB84988012904D1002156
:1056A000C0F8A41200F039B87047002070470020FD
:1056B000704710B513460A46002100F092FA002008
:1056C00010BD10B513460A46002100F027FB00204C
:1056D00010BD10B504468021204600F00EFB204688
:1056E000BDE81040002100F008BB10B50521C0F84E
:1056F000941200231A46194600F073FA002010BDD8
:1057000010B50223C0F894328261C26113460A4682
:10571000002100F003FB002010BD10B50421C0F8EB
:10572000941200231A46194600F0F8FA002010BD22
:105730000A46D188012902D01146FFF7CABF90F866
:105740009C12012906D0022904D0032909D0114650
:10575000FFF7BFBF00218160012200F10801FFF7C0
:10576000CFBF0122011DFFF7CBBF2DE9F84304464F
:105770000F4600200090002600257888010A08299D
:1057800070D2DFE801F0AB040C22ABAB8B9AD4F8FB
:10579000B412207C0A68694690470646A3E0207C44
:1057A0004FF0020840B1D4F8B802C16A6846884791
:1057B000064686F8018096E0D4F8B802816A684609
:1057C0008847064686F801808DE0C0B206285FD281
:1057D000DFE800F0031221303F4FD4F8B4024268F2
:1057E00022B1207C6946904706467CE03946204637
:1057F000FFF76FFF012576E0D4F8B402826822B18A
:10580000207C6946904706466DE039462046FFF702
:1058100060FF012567E0D4F8B402C26822B1207CA1
:105820006946904706465EE039462046FFF751FF3D
:10583000012558E0D4F8B402026922B1207C6946FF
:10584000904706464FE039462046FFF742FF0125C4
:1058500049E0D4F8B40242692AB1207C69469047F5
:10586000064640E03AE039462046FFF732FF012580
:1058700039E0D4F8B402826922B1207C69469047AD
:10588000064630E039462046FFF723FF01252AE08F
:1058900039462046FFF71DFF012524E0207C28B172
:1058A00039462046FFF715FF01251CE0D4F8B80261
:1058B000416B68468847064615E0207C28B139468A
:1058C0002046FFF706FF01250DE0D4F8B802016B72
:1058D0006846884706460721717004E0394620462D
:1058E000FFF7F7FE0125002D0CD1FA888AB1BDF82B
:1058F000000048B1824200D902460092314620465B
:10590000FFF7FEFEBDE8F88339462046FFF7E1FECB
:10591000F8E72046FFF701FFF4E70A4690F89C12EB
:10592000012906D0022904D0032902D01146FFF72D
:10593000D0BED188022902D01146FFF7CABE01218C
:10594000C160D0F8A41209B10321C160022200F1A4
:105950000C01FFF7D5BE01460020002906D0012921
:1059600005D0022905D0032905D003207047032064
:105970007047012070470320704710B5D0F8C80267
:10598000FBF787FCBDE81040FFF7E5BF70B50446A4
:105990000B461646002B08D043F080012046FFF747
:1059A00084FEFF285ED078B35CE004F11400D4F8E4
:1059B0009412002502293CD1D0E902218A420CD957
:1059C000521A826031462046FFF77BFE00231A46BA
:1059D0001946204600F005F92BE0914215D14068A8
:1059E000884212D3D4F8981288420ED2002211466F
:1059F0002046FFF766FEC4F8985200231A4619465F
:105A0000204600F0EEF814E01CE094F89C02032815
:105A100008D1D4F8B802C16821B1C4F8D452C16821
:105A2000204688478021204600F067F92046FFF78E
:105A30005CFE94F8A002A8B1204600F091F984F829
:105A4000A0520FE094F89C1203290BD1D4F8B8129D
:105A50004A693AB1C4F8D4024A69194620469047C7
:105A6000002800D1002070BD70B504460B461546D5
:105A70000022002B08D003F07F012046FFF715FE1F
:105A8000FF2854D078B352E004F5AA70D4F89412E9
:105A900003294CD1D0E902218A420AD9521A8260E4
:105AA000C068824200D3024629462046FFF701FE25
:105AB0003DE094F8AA0210F01F0006D0012806D09D
:105AC00002280AD0002078B11BE00020FBE794F800
:105AD000AE122046FFF7EBFDF5E794F8AE12204634
