:020000040800F2
:100000006054002061020008774700080943000897
:1000100075470008710A0008D1710008000000004F
:10002000000000000000000000000000A101000826
:10003000A30B000800000000FD0100082B58000879
:100040007B0200087B0200087B0200087B0200089C
:100050007B0200084D4900087B0200087B02000873
:100060007B0200087B0200087B0200087B0200087C
:100070007B0200087B0200087B0200087B0200086C
:10008000750A0008810A00083D0800087B02000884
:100090007B0200087B0200087B0200087B0200084C
:1000A0007B0200087B0200087B0200087B0200083C
:1000B0007B0200087B0200087B0200087B0200082C
:1000C0007B0200087B0200087B0200087B0200081C
:1000D0007B020008555F0008615F00087B02000892
:1000E0007B020008C94900087B0200087B02000867
:1000F0007B0200087B0200087B0200087B020008EC
:100100007B020008A54A00087B0200087B02000869
:100110007B0200087B020008F15800087B020008FF
:100120008D0A00087B020008990A0008A50A000849
:100130007B0200087B0200087B0200087B020008AB
:100140007B0200087B0200087B0200087947000858
:10015000B10A0008BD0A0008C90A00087B020008AD
:100160007B0200087B0200087B0200087B0200087B
:100170007B0200087B0200087B02000800000000F0
:100180007B0200087B020008DFF810D000F044FB7F
:10019000004800477D7C0008AFF3008060540020D9
:1001A0002C4B19680868B0E8F04F80F30988BFF35A
:1001B0006F8F4FF0000080F311887047000000003F
:1001C00008480068006880F308884FF0000080F35A
:1001D000148862B661B6BFF34F8FBFF36F8F00DF35
:1001E00000BF00BF08ED00E0DFF80C00016841F43B
:1001F00070010160704700BF88ED00E0EFF30980F7
:10020000BFF36F8F134B1A681EF0100F08BF20ED5D
:10021000108A20E9F04F106009B44FF0500080F3CD
:100220001188BFF34F8FBFF36F8F08F0EFF84FF0D7
:10023000000080F3118809BC19680868B0E8F04F25
:100240001EF0100F08BFB0EC108A80F30988BFF3CE
:100250006F8F704750000020EFF30580704700005B
:100260000648804706480047FEE7FEE7FEE7FEE750
:10027000FEE7FEE7FEE7FEE7FEE7FEE7E1580008DF
:10028000890100082DE9F05F0546002092469B4653
:1002900088460646814640241BE02846414647469C
:1002A000224600F022FA53465A46C01A914110D312
:1002B00011461846224600F009FA2D1A67EB01088C
:1002C0004F4622460120002100F000FA17EB0009FA
:1002D0004E41201EA4F10104DFDC484631462A4687
:1002E0004346BDE8F09F40EA01039B0703D009E0C5
:1002F00008C9121F08C0042AFAD203E011F8013B12
:1003000000F8013B521EF9D27047D2B201E000F86A
:10031000012B491EFBD270470022F6E710B51346A9
:100320000A4604461946FFF7F0FF204610BD30B5D7
:1003300005462A460B4612F8010B13F8014B08B18B
:10034000A042F8D01CB1002802D06D1CF1E728466D
:1003500030BD421C10F8011B0029FBD1801A7047E8
:100360002DE9FE4F804681EA0300C00F0C46009045
:1003700021F0004123F00045B8EB0200A94105D26D
:100380004046214690461C460B46024623F000405C
:10039000104347D0270DC7F30A00C3F30A51029058
:1003A000401A019040286BDAC3F3130040F4801B1D
:1003B0000098924620B10023D2EB030A63EB0B0BAB
:1003C00001985946C0F14002504600F07FF90646B8
:1003D0000D4650465946019A00F097F910EB080077
:1003E0006141002487EA115284EAE7731A4340D03E
:1003F000009A62B3019A012A4FEA075215DC001BEA
:1004000061EB02014FF0004202EA0752CDE90042DF
:10041000001C41F5801132462B4600F097F903B0DD
:10042000BDE8F08F40462146F9E7001B61EB020171
:10043000001C41F5801300185B412018A2F500173D
:1004400047EB030140EAD570B6196D4111E06D0824
:100450004FEA360645EAC0754FEA0752001B61EBCA
:100460000201001C41F5801149084FEA30000019D3
:10047000514132462B4603B0BDE8F04F00F057B96A
:100480000098012240000023D0EB020263EBE073EE
:10049000009821464FEAE074B8EB000061EB0401DC
:1004A000E9E783F000435BE781F0004158E72DE97D
:1004B000FE4F81EA030404F0004421F0004100945F
:1004C0004FF0000B23F0004350EA01045ED052EAE3
:1004D00003045BD0C3F30A54C1F30A552C44A4F2BD
:1004E000F3340194A0FB0254C1F3130141F48011D1
:1004F000C3F3130343F4801301FB024400FB034ED8
:10050000840A970A44EA815447EA8357A4FB0768A0
:1005100002958D0A05FB07854FEA932C04FB0C54CA
:100520002705029D4FEA065847EA1637B5EB08053E
:100530006EEB070C870E920E47EA811742EA831290
:10054000A7FB0201B6EB0B0164EB00042B0D43EAA1
:100550000C335E1844EB1C50DA465146E7FB0201AF
:10056000C5F313044FEA0B3343EA14534FEA043242
:10057000019C43EA0603A4F10C040294009CCDE91B
:1005800000B400F0E3F803B0BDE8F08F00200146AE
:10059000F9E72DE9F04D81EA030404F0004B21F066
:1005A000004514464FF0000A23F0004150EA0502CE
:1005B00020D054EA01021DD0C5F30A570246C5F304
:1005C0001303C1F31300C1F30A5640F4801543F43A
:1005D0008013A7EB0608101BD64608F2FD3873EB14
:1005E000050002D308F1010801E092185B41B8F15F
:1005F000000F03DA00200146BDE8F08D00204FF423
:100600008011064684460EE0171B73EB050705D3E1
:10061000121B63EB050306434CEA010C49084FEA41
:10062000300092185B4150EA0107EDD152EA030015
:1006300012D082EA040083EA0501084305D0101BAA
:10064000AB4106D20122002306E000224FF0004316
:1006500002E06FF0010253101AEB06004CEB085158
:1006600010EB0A0041EB0B01BDE8F04D00F05FB864
:1006700030B5041E71F1000404DB4FF00044404229
:1006800064EB0101141E73F1000405DB1C464FF0FE
:100690000043524263EB0403994208BF904230BDCD
:1006A00030B50B46014600202022012409E021FA42
:1006B00002F59D4205D303FA02F5491B04FA02F53F
:1006C0002844151EA2F10102F1DC30BD202A04DB12
:1006D000203A00FA02F1002070479140C2F1200355
:1006E00020FA03F3194390407047202A04DB203A94
:1006F00021FA02F00021704721FA02F3D040C2F142
:1007000020029140084319467047202A06DBCB1788
:10071000203A41FA02F043EAE07306E041FA02F3BC
:10072000D040C2F12002914008431946704710B5ED
:10073000141E73F1000408DA401C41F10001921804
:100740005B411A4301D120F0010010BD2DE9F04DAD
:1007500092469B4611B1B1FA81F202E0B0FA80F202
:1007600020329046FFF7B2FF04460F4640EA0A00E7
:1007700041EA0B0153465A46084313D0114653EA47
:10078000010019D0C8F140025046FFF7AEFF054600
:100790000E46504659464246FFF798FF084305D09B
:1007A000012004E020463946BDE8F08D00200543D5
:1007B00046EAE0762C4337430A986305E40AA0EB47
:1007C00008000022FD0A44EA47540A3002D50020FE
:1007D0000146E9E7010510196941DDE908450019FD
:1007E0006941BDE8F04DA2E7C1F30A52C1F313011C
:1007F00040F2FF3341F480119A4202DA00200146B0
:10080000704740F233439A42A2F2334202DC524232
:10081000FFF76BBFFFF75ABF064C074D06E0E068D5
:1008200040F0010394E8070098471034AC42F6D337
:10083000FFF7AEFC488D0008688D0008014800F005
:10084000EFBB0000D40100204A494A6822F440323C
:100850004A604A6843681A434A6001684A6822F459
:1008600080724A6001684A68036942EA03224A606A
:1008700001684A6822F040724A6001684A688368E9
:100880001A434A6001688A6822F400628A6001683B
:100890008A68C3681A438A60816A6FF07062D142C5
:1008A00014D001688A6822F070628A6001688A68E0
:1008B000836A1A438A6001688A6822F040528A601B
:1008C00001688A68C36A1A438A6009E001688A6815
:1008D00022F070628A6001688A6822F040528A6061
:1008E00001688A6822F002028A6001688A68037ED1
:1008F00042EA43028A6090F8201089B101684A6890
:1009000042F400624A6001684A6822F460424A6028
:1009100001684B68426A521E43EA42324A6004E070
:1009200001684A6822F400624A600168CA6A22F4D7
:100930007002CA620168CB6A828B521E43EA02527D
:10094000CA6201688A6822F400728A6001688A6853
:1009500090F8303042EA43228A6001688A6822F4C3
:1009600080628A6001688A68406942EA8020886003
:10097000704700000023014010B5012408210348FE
:1009800000F02AFF00B10024204610BD000C0240F8
:10099000704700000146014802F050BB3C020020B5
:1009A00010B5044802F05CFB042801D0012010BD02
:1009B000002010BD3C02002010B500F015F8012801
:1009C00001D0012010BD074802F044FC044634B9B0
:1009D0004FF40061034802F003FA00B101242046FD
:1009E00010BD00003C02002008B501200090FFF778
:1009F000C3FF08B9002000909DF8000008BD00006A
:100A000010B5002413460A460146034802F040FD93
:100A100000B10124204610BD3C02002008B5012091
:100A20000090044800231A466946406807F0ECF934
:100A300008BD00002C00002010B5002413460A4613
:100A40000146034802F0CAFD00B10124204610BD52
:100A50003C02002008B502200090044800231A46FA
:100A60006946406807F0D0F908BD00002C0000205E
:100A7000FEE70000014800F02BBC0000300600201B
:100A8000014800F025BC000090060020014800F05D
:100A90001FBC000038040020014800F019BC000011
:100AA000D0050020014800F013BC00002003002006
:100AB000014800F00DBC0000D8030020014800F000
:100AC00007BC0000C0020020014800F001BC00008B
:100AD000700500200168CAB2103A1823B2FBF3F285
:100AE000064B9B5CC3656FF30901032A02D9091DFC
:100AF000816500E08165806D70470000288D0008E9
:100B000010B5014600208A6A8B694FF0C074002B33
:100B10000ED0B3F5005F1AD062B3012A2AD0022AA0
:100B200028D0032A03D1C96AC90100D5012010BD0C
:100B30001AB1012A06D0022AF9D1C96AC901F6D52B
:100B4000012010BDC96AA142FBD1012010BD52B1E4
:100B5000012A0AD0022A06D0032AF7D1C96AA14283
:100B6000F4D1012010BD012010BDC96AC901FBD517
:100B7000012010BD012010BD30B50468256825F4A2
:100B800080252560046863608368402B04D0036877
:100B900099600068C26030BD03689A600068C160F7
:100BA00030BD70477CB5254D28680168C9430907E9
:100BB00004D4016841680091016841680068204CD4
:100BC000C04380062BD44FF0FF33012201A91B48FC
:100BD00003F09AFAB4F800014FF40032C0F30E01AA
:100BE000FF290BD29DF804006054B4F8000102EB19
:100BF000F0304FEA7040A4F8000110E06FF30E00EF
:100C0000A4F80001C0F30E009DF804102154B4F8BC
:100C1000000102EBF0304FEA7040A4F800012868B0
:100C20000168C943C90608D4B4F8001141F4004171
:100C3000A4F800110168406800907CBD28050020E0
:100C40004C4F00200FB410B503AA0848029906F0D3
:100C50008DFB0648FFF77DFB82B24FF0FF3303495F
:100C6000034803F0BAFA10BC5DF814FB4C4F0020A7
:100C70002805002010B54FF4FA7204A104A000F07A
:100C8000A1F808B1012010BD002010BD4F4B00009D
:100C9000415400000649B1F80001020405D5C0F333
:100CA0000E0000220A5408467047002070470000DA
:100CB0004C4F002070B5094D4FF48074002221463E
:100CC000284600F098FDC82000F08CFC21462846FC
:100CD000BDE87040012200F08EBD0000000002401F
:100CE00000B591B00B46024607A101A806F02AFB09
:100CF00041F2883209A101A800F064F810B1012086
:100D000011B000BD0020FBE741542B43574A41502E
:100D10003D222573222C2225732200004F4B000018
:100D20000449B1F800016FF30E0020F40040A1F86F
:100D3000000170474C4F002000B591B00B460246B1
:100D40000AA101A806F0FEFA41F288320EA101A81C
:100D500000F038F828B10EA006F0E4FA012011B036
:100D600000BD11A006F0DEFA0020F8E741542B4345
:100D7000495053544152543D22544350222C222571
:100D800073222C2564000000434F4E4E454354000F
:100D9000636F6E6E6563742073657276657220662C
:100DA00061696C0D0A000000636F6E6E65637420EC
:100DB00073657276657220737563636573730D0A6C
:100DC0000000000070B503460D461446FFF7A8FF6B
:100DD00019460DA0FFF736FF05B184B9002070BD9C
:100DE000FFF758FF38B12946FFF7A1FA08B10120F3
:100DF00070BDFFF795FF641E012000F0F3FB002C8F
:100E0000EED1022070BD000025730D0A0000000025
:100E100010B54FF4FA72012805D0022808D0032833
:100E20000BD0032010BD09A109A0FFF7CBFF08E0FC
:100E300006A10AA0FFF7C6FF03E004A10AA0FFF77E
:100E4000C1FF08B1012010BD002010BD4F4B0000B4
:100E500041542B43574D4F44453D310041542B43A2
:100E6000574D4F44453D320041542B43574D4F445D
:100E7000453D330072B6FEE7002200F001B80000E5
:100E800030B5044601200D4B5D7A002D14D1587AFF
:100E90001D54587A03EB800044605C7A03F108002B
:100EA0002254587A421C5A72303008703A204870E6
:100EB0002F208870CD70002030BD00003807002042
:100EC0007047000078B50024009490F83C20012A77
:100ED00019D0012280F83C200A680725092A14D974
:100EE0000368DE680A3A02EB42029540AE43DE60D8
:100EF0000A788B680A3A02EB420293400268D5688E
:100F00002B43D36011E0022078BD03681E6902EB19
:100F100042029540AE431E610A788B6802EB4202A2
:100F20009340026815692B4313614A681F25072AFD
:100F300013D203685E6B521E02EB82029540AE43F1
:100F40005E630A8893B20A79521E02EB82029340D2
:100F50000268556B2B43536328E00D2A13D20368B4
:100F60001E6BD21F02EB82029540AE431E630A88BD
:100F700093B20A79D21F02EB820293400268156B8A
:100F80002B43136312E00368DE6A0D3A02EB820220
:100F90009540AE43DE620A8893B20A790D3A02EBBD
:100FA000820293400268D56A2B43D362174A184BDA
:100FB00005689D4206D10D68122D03D1556845F490
:100FC0008005556005689D421BD10B68102B01D030
:100FD000112B16D1536843F400035360096810299C
:100FE0000FD10C490C4A0968B1FBF2F101EB810108
:100FF0004900009102E00099491E009100990029E2
:10100000F9D180F83C40002078BD00000023014069
:10101000002001404800002040420F007047704708
:1010200070B5044620680568466805F0020106F0C0
:10103000200200292AD04AB3216CC90603D4216CAE
:1010400041F400712164816811F0405F17D1217E65
:10105000A9B9C16A11F4700F02D0816849050ED494
:10106000416821F020014160206C20F480702064F0
:10107000206CC00403D4206C40F0010020642046A2
:10108000FFF7CCFF21686FF01200086005F0040044
:1010900006F0800190B389B3206CC00603D4206CA5
:1010A00040F4005020642068816811F4401F1ED174
:1010B000816B11F4401F02D08168490517D4416843
:1010C000490514D4816811F0405F10D1217E71B9B7
:1010D000416821F080014160206C20F48050206440
:1010E000206CC00503D4206C40F001002064204631
:1010F000FFF7E6FE21686FF00C00086005F00100C4
:1011000006F0400178B171B120680068C0070AD0CC
:10111000206C40F480302064204600F044F82168C0
:101120006FF00100086005F0200006F080610028E3
:101130000ED000290CD0606C40F002006064206882
:101140006FF0200505602046FFF769FF2068056005
:1011500070BD70B504460026002C03D0206C00251D
:1011600010B107E0012070BD204600F01DF8656455
:1011700084F83C50206CC00610D4206C20F48850B9
:1011800040F0020020642046FFF75EFB6564206C9F
:1011900020F0020040F00100206400E0012684F805
:1011A0003C50304670BD704710B586B004461421DF
:1011B00001A8FFF7B1F815492068884224D1002121
:1011C0001348026842F480720260006800F4807084
:1011D00000900F481438026842F001020260006873
:1011E00000F0010000900220019003200290039182
:1011F00001A9084800F008FA00220521122000F099
:10120000A9FB122000F098FB06B010BD00200140A1
:1012100044380240000002402DE9F0410446A76D29
:1012200000F0F0FA054694F835000026022806D0B2
:101230008020606584F834600120BDE8F08120687A
:10124000016821F0160101602068416921F08001E8
:101250004161206C08B9A06C20B12068016821F0C0
:10126000080101602068016821F0010101600BE0C4
:1012700000F0C8FA401B052806D92020343420622B
:10128000032060702670D8E720680068C007EFD19F
:1012900034343F2094F828108840B86001206070F2
:1012A00026700020C9E790F83510022903D080216C
:1012B000416501207047052180F8351000680168FC
:1012C00021F00101016000207047406D704700006F
:1012D0002DE9F84304464FF00009CDF800906F481F
:1012E0004FF416510068B0FBF1F7A56D2E6894F825
:1012F0005C00082202FA00F1314210D02068016837
:1013000049070CD5016821F00401016094F85C00E4
:1013100002FA00F1A960606D40F00100606594F888
:101320005C104FF0010808FA01F0304208D0216843
:101330004969090604D5A860606D40F00200606547
:1013400094F85C1004208840304208D02168096875
:10135000890704D5A860606D40F00400606594F8CA
:101360005C1010208840304220D0216809680907AD
:101370001CD5A8602068016849030CD500680003EB
:1013800004D4216C91B1204688470FE0A16C69B16B
:10139000204688470AE00168C90503D4016821F0A6
:1013A00008010160216C09B12046884794F85C105F
:1013B0002020884030424CD021680968C90648D5B1
:1013C000A86094F8350005280BD02068016849030F
:1013D00030D50068000328D4616C51B3204688479B
:1013E00037E02068016821F016010160206841693A
:1013F00021F080014161206C08B9A06C20B1206807
:10140000016821F00801016094F85C103F208840D9
:10141000A86084F8358084F83490216D00293BD091
:1014200001B02046BDE8F0430847E16B09B1204612
:1014300088470EE00168C90507D4016821F0100152
:10144000016084F8358084F83490E16B09B120465E
:101450008847606D00281FD0606DC00714D005203C
:1014600084F835002068016821F0010101600098CE
:10147000401C0090B84203D820680068C007F6D12D
:1014800084F8358084F83490E16C002904D001B0F0
:101490002046BDE8F0430847BDE8F8834800002037
:1014A0002DE9F041044600F0ADF905465CB102209B
:1014B00084F83500002684F834602068016821F043
:1014C000010101600DE00120BDE8F08100F09AF912
:1014D000401B052805D920206065032084F83500CD
:1014E000F2E720680068C007F0D121680A68204848
:1014F0000240D4E901031843D4E903352B431843D0
:1015000063691843A3691843E3691843236A1843BE
:101510001043626A042A03D1D4E90B231A4310430F
:1015200008602068406920F00700656A2946054385
:10153000012704290DD1A06A0543E06A48B120467D
:10154000FFF7DEFA28B14020606584F8357001208D
:10155000BAE7206845612046FFF7BCFA94F85C20A2
:101560003F2191408160666584F835700020ABE7CB
:101570003F8010F02DE9F04104460025A66D94F857
:10158000340001280DD0012084F8340094F835701F
:101590000020012F07D084F8340002252846BDE83A
:1015A000F0810220FBE7022784F835706065204651
:1015B000FFF7E2FA94F85C103F208840B0602068A2
:1015C000016841F016010160206C20B120680168BB
:1015D00041F0080101602068016841F001010160EB
:1015E000DCE7000070B5044600F00CF90546601C0D
:1015F00002D004480078044400F004F9401BA042E3
:10160000FAD370BD3C0000202DE9F84F0022DFF82E
:101610009C914FF0010803274FF00F0C09F1040AC9
:10162000A9F1040B08FA02F50B682B40AB426ED10E
:101630000C7904F00304012C01D0022C15D186682A
:10164000540007FA04FE26EA0E06D1F80CE00EFA62
:1016500004FE4EEA060EC0F808E04468AC430D797B
:10166000C5F300159540254345600C79E443A40774
:1016700008D0C568540007FA04F6B5438E68A64042
:101680002E43C6600C7904F00304022C11D1D40857
:1016900000EB8406356A5407E40E0CFA04FE25EAD2
:1016A0000E05D1F810E00EFA04FE4EEA050EC6F85B
:1016B00020E00568540007FA04F6B5430E7906F0F9
:1016C0000306A6402E4306604C6814F4403F67D0E2
:1016D000374C256845F480452560246804F480442F
:1016E0000094344C22F003052E19D6F808589407BC
:1016F0004FEA147E0CFA0EF4A5432F4CA04201D100
:10170000002424E02D4CA04202D101241FE047E038
:101710002B4CA04201D1022419E02A4CA04201D155
:10172000032414E0284CA04201D104240FE0274CEC
:10173000A04201D105240AE0254CA04201D1062493
:1017400005E0244CA04201D1072400E0082404FA5B
:101750000EF42C43C6F80848D9F800409C434D6865
:10176000ED0200D51C43C9F80040DAF800409C4364
:101770004D68AD0200D51C43CAF80040DBF80040BC
:101780009C434D68AD0300D51C43CBF80040074D8A
:10179000083D2C689C434E68F60300D51C432C6022
:1017A000521C102AFFF43EAFBDE8F88F083C014000
:1017B0004438024000300140000002400004024072
:1017C00000080240000C02400010024000140240D9
:1017D00000180240001C02400069084201D00120AC
:1017E000704700207047426921EA02030A4043EA39
:1017F000024181617047002A01D08161704709046C
:101800008161704701488068704700003C000020FB
:101810000248816802781144816070473C000020D2
:1018200010B50B48016841F400710160016841F492
:1018300080610160016841F480710160032000F063
:10184000A9F80F2000F006F800F050F8002010BDB5
:10185000003C024030B587B0054600241E480168B0
:1018600041F010010160006800F01000009001A933
:1018700002A800F0C3FD0598A8B100F0E3FD400008
:101880001649B0FBF1F1491E1648154A026040F2B4
:10189000E732C260416004618460846102F04EF806
:1018A00004461CB115E000F0CDFDE9E70D4802F05B
:1018B0007DF804466CB9362000F03EF8102D07D2B2
:1018C00000222946362000F045F80748056000E070
:1018D000012407B0204630BD4038024040420F008E
:1018E00000100040F00600204000002008B511481C
:1018F000016841F480410160006800F4804000907C
:101900000C48001F016841F080510160006800F040
:101910008050009000220F21901E00F01BF805213E
:101920000022084600F016F8BDE80840052000F047
:1019300003B8000044380240002809DB00F01F0211
:10194000012191404009800000F1E020C0F8001121
:1019500070470000F0B40D460D4B1B68C3F3022323
:10196000C3F10704042C00D90424191D072901D24E
:10197000002300E0DB1E012606FA04F1491E29407F
:1019800099409E40761E16403143F0BC05F000BDE4
:101990000CED00E000F00701054A10684FF6FF0368
:1019A000184040EA012003490843106070470000D6
:1019B0000CED00E00000FA057047D0F8E00404F0F8
:1019C0003ABD01EBC10200EB8202D0F8E004126ADA
:1019D00004F05EBC01EBC10200EB8202D0F8E0042F
:1019E000D2F8602204F0C2BCD0F8E00404F025BDB7
:1019F0000A0601F00F0101EBC10100EB810101D5E5
:101A0000143101E001F51571006805F071BA70B587
:101A1000044601F00F002279904201D9012070BDE7
:101A20000B0601F00F0101EBC10104EB81014FF046
:101A300001024FF0000502D514314A7002E001F5B1
:101A400015714D708D70087094F89404012808D0B9
:101A500084F89424206805F0CDF884F8945400208C
:101A600070BD022070BD2DE9F04104460F0601F063
:101A70000F0000EBC00104EB81014FF001064FF0B5
:101A8000000502D514314E7002E001F515714D705C
:101A900008708A600B714A7802B14883022B00D12A
:101AA0004D7194F89404012809D084F89464206856
:101AB00005F026F8284684F89454BDE8F081022009
:101AC000FBE710B501F00F0404EBC40100EB81014A
:101AD00001F51571CA600B6100234B614B700C70EE
:101AE0008379012B00D1CA618279006805F0DAF8A8
:101AF000002010BD70B504460D46217905F00F0099
:101B0000884201D9012070BD29064FF000064FF030
:101B1000010206D500EBC00104EB810114314A70CB
:101B200006E005EBC50104EB810101F515714E706E
:101B30008A70087094F89404012807D084F89424DB
:101B4000206805F083F8280702D007E0022070BD66
:101B5000A17904F29C42206805F022F884F894648C
:101B6000002070BD10B501F00F0404EBC40100EBC0
:101B700081011431CA600B6100234B6101234B705A
:101B80000C708379012B00D1CA618279006805F05D
:101B900089F8002010BD2DE9F84F04462568284635
:101BA00005F02AFA00287ED1206805F051FA0028B5
:101BB00079D0D5F80808C0F30D20C4F8D404206803
:101BC00005F046FA800704D52068416901F002015A
:101BD0004161206805F03CFAC10604F29C40009087
:101BE00035D52068816921F0100181612F6A07F0E5
:101BF0000F0000EBC00004EB800606F51576C7F376
:101C00004340022802D0062812D01BE047F6F070AD
:101C1000074217D0C7F30A1217462846F16805F0A5
:101C20001BFAF0683844F06070693844706109E06C
:101C300008222846009905F00FFA7069C7F30A11C7
:101C4000084470612068816941F010018161206859
:101C500005F0FEF900034FF0080B4FF000094FF0BC
:101C600001085ED50026206805F0D1F9824655E0CE
:101C70005FEACA704FD0F1B2206805F0E1F907467B
:101C8000F80707D005EB4610C0F8088B3146204610
:101C900002F09CFD380709D505EB4610C0F808BBDB
:101CA0003146204600E0F8E102F06CFDF80604D56C
:101CB00005EB46101021C0F8081BB8071CD5686951
:101CC000000605D5D5F8040840F48061C5F804186D
:101CD00006EBC60004EB800000F51570C178012901
:101CE00005D180F80390F1B2204600F0DCF905EB55
:101CF00046110220C1F8080BB80604D505EB4610C2
:101D00002021C0F8081BB80405D505EB46104FF498
:101D10000051C0F8081B761C4FEA5A0ABAF1000FAE
:101D2000A6D1206805F094F940036CD5206805F031
:101D300067F98246002663E05FEACA705DD0F1B2BF
:101D4000206805F06BF90746F80723D006F00F016D
:101D500008FA01F0D5F834188143C5F8341805EBBA
:101D60004610C0F80889A07901280FD106EBC600FB
:101D700004EB8000D0E907211144016236B9606AA2
:101D800020B920680121009A04F00AFFF1B2204630
:101D9000FFF717FE380703D505EB4610C0F808B962
:101DA000F80604D505EB46101021C0F8081978068E
:101DB00004D505EB46104021C0F80819B80716D520
:101DC0003146284605F0E6F806EBC60004EB800035
:101DD0001430C178012905D180F80390F1B2204672
:101DE00000F05DF905EB46110220C1F8080938063C
:101DF00003D53146204602F05BFD761C4FEA5A0AB5
:101E0000BAF1000F98D1206805F022F9002811DA04
:101E1000D5F8040820F00101C5F8041894F8CC04A2
:101E2000012829D0204600F059F92068416901F0C5
:101E300000414161206805F00BF900050BD5D5F88C
:101E40000808C00702D0204600F06AF920684169FE
:101E500001F400614161206805F0FAF8C00461D521
:101E6000D5F8040820F00101C5F8041810212068F5
:101E700005F090F8002120E084F8CC940021204661
:101E8000FFF79AFDD1E705EB411000F510604FF622
:101E90007F328260036823F400130360C0F80822D5
:101EA000D0F8002222F40012C0F80022D0F800225C
:101EB00042F00062C0F80022491C20798842E2D832
:101EC000D5F81C0840F00111C5F81C18E07B60B182
:101ED000D5F8840840F00B01C5F88418D5F84408FB
:101EE00040F00B01C5F844180CE0D5F8140842F294
:101EF0002B010843C5F81408D5F8100840F00B0171
:101F0000C5F81018D5F8000820F4FE61C5F80018CF
:101F1000A1792068009A04F043FE2068416901F429
:101F200080514161206805F093F8800415D5206840
:101F300004F028FE206805F04FF8E07100F07CFA0C
:101F40000146E279206805F0B5F8204600F0AFF8C8
:101F50002068416901F400514161206805F078F87A
:101F6000000707D5204600F0BDF82068416901F060
:101F700008014161206805F06BF8000615D5A869D5
:101F800020F08001A96101260CE006EBC60004EBFD
:101F9000800090F85702012803D1F1B22046FFF7E4
:101FA00027FD761C2079B042EFD8206805F050F864
:101FB000C0021FD5012615E005EB4610D0F8001928
:101FC00006EBC60004EB8000027E012A09D100293D
:101FD00007DA80F81780F0B240F080012046FFF762
:101FE00007FD761C2079B042E6D82068416901F4EB
:101FF00080114161206805F02BF8800230D5012066
:1020000026E005EB4011D1F8001B00EBC00204EB09
:10201000820292F85832012B19D1002917DA94F86C
:10202000D43401F4803103F0010399420FD182F8D6
:102030005782A96941F08002AA616969090606D43C
:10204000D5F8040840F40070C5F8040803E0401C0B
:1020500021798142D5D82068416901F4001141619C
:10206000206804F0F5FF400007D52046FFF7A5FCE7
:102070002068416901F080414161206804F0E8FF77
:1020800040070AD520684568680702D52046FFF753
:10209000ABFC2068416829434160BDE8F88FD0F867
:1020A000E00404F0E9B9D0F8E00404F0FAB970B53E
:1020B00004460125E07900280ED0022801D0FEF761
:1020C000D9FE2946D4F8E00404F05CFAD4F8E00420
:1020D000BDE8704004F00FBA0025F2E7D0F8E00444
:1020E00004F039BAD0F8E00404F03FBA10B5044661
:1020F00094F8940401280AD0012084F894046174AF
:10210000206804F0C8FF002084F8940410BD022069
:1021100010BDD0F8E02400F29C41104604F03EBA15
:1021200010B50446D4F8E00404F071FA2068D0F841
:10213000001E41F00101C0F8001EE07A002804D022
:102140000248016841F00601016010BD10ED00E099
:1021500008B503490120086202480068009008BDE4
:1021600000000E42007000402DE9F84304464FF095
:10217000010820684FF00007C10701D140072BD5A7
:10218000DFF81891C9F86870FFF73CFB0646444D2C
:1021900007E0FFF737FB801B022802D90320BDE8C8
:1021A000F88328680001F4D46068217A800140EA4D
:1021B00001703B4984310860C9F86880FFF722FB51
:1021C000064606E0FFF71EFB801B022801D903200C
:1021D000E5E728680001F5D52078800753D5304819
:1021E0004030016841F080510160006800F080508B
:1021F00000902C4D286840F480702860FFF702FBA7
:10220000064606E0FFF7FEFA801B022801D90320EC
:10221000C5E72868C005F5D5214D7035286800F45C
:102220004070F8B1A18901F4407181421AD0286848
:1022300020F440701C49C1F800800F6028602868B5
:10224000C0070FD0FFF7DEFA064641F2883706E0F6
:10225000FFF7D8FA801BB84201D903209FE728680E
:102260008007F5D5E0680E49C0F301220831032A42
:102270000BD0086820F4F81008602868A189C1F321
:102280000B0108432860002089E70A68074B22F405
:10229000F812184002430A60EFE7000000004742CE
:1022A0000038024000700040400E4742FFFCFF0F24
:1022B0002DE9F04704460D46002C13D0DFF8289195
:1022C000D9F80000EFB200F00700A8420CD289F85C
:1022D0000070D9F8000000F00700A84204D00120E7
:1022E000BDE8F0870120FBE72068404E810712D54A
:1022F000400703D5306840F4E05030602078000794
:1023000003D5306840F4604030603068A16820F048
:10231000F000084330602078C00731D0334960684E
:102320000839012808D002280BD0032809D00968F1
:1023300089070BD40120D3E70968890306D401205B
:10234000CEE70968890101D40120C9E7316821F08D
:10235000030101433160FFF755FA804641F2883AA4
:1023600007E0FFF74FFAA0EB0800504501D9032022
:10237000B6E73068616800F00C00B0EB810FF0D177
:10238000D9F8000000F00700A84209D989F80070C8
:10239000D9F8000000F00700A84201D001209FE713
:1023A0002078400705D53068E16820F4E050084304
:1023B00030602078000706D53068216920F460403D
:1023C00040EAC100306000F05DF83168084AC1F3AE
:1023D0000311515CC8400749086007480068FFF7CF
:1023E00039FA00207CE70000003C02400838024037
:1023F000308D000848000020400000200F220260BD
:102400000B4A136803F003034360136803F0F003FF
:102410008360136803F4E053C360126802F46042FF
:10242000D20802610348006800F0070008607047A6
:1024300008380240003C0240014800687047000034
:102440004800002000B5FFF7F7FF04490968044A77
:10245000C1F38221515CC84000BD00000838024031
:10246000408D000800B5FFF7E7FF04490968044AFA
:10247000C1F34231515CC84000BD00000838024041
:10248000408D000810B51748006810F00C01164880
:1024900016D04310042912D0082911D1114C241F41
:1024A000216801F03F02216849020AD52068C0F383
:1024B0008810A0FB03010023FDF7E4FE09E01846A5
:1024C00010BD21680023C1F38811A1FB0001FDF7B5
:1024D000D9FE2168C1F30141491C4900B0FBF1F06C
:1024E00010BD0000083802400024F4002DE9F84F28
:1024F0000446002C13D02078DFF8A083C007A8F191
:10250000040556D008F104000168C1F381010129D6
:102510000CD00068C0F38100022803D00DE0012038
:10252000BDE8F88FD8F80000400206D5286880037F
:102530003FD5606870BB0120F2E76068B0F5803F6E
:1025400010D0B0F5A02F12D0286820F48030286079
:10255000286820F4802028606068E0B1FFF752F915
:10256000064614E0286840F480302860F4E72868C4
:1025700040F480202860286840F480302860EBE731
:10258000FFF740F9801B642801D90320C8E72868B9
:102590008003F5D50DE0FFF735F9064606E0FFF7B5
:1025A00031F9801B642801D90320B9E7286880032A
:1025B000F5D42078BA4F80074FF0000948D5B748C6
:1025C000001D016811F00C0F08D00068C0F38100F5
:1025D000022813D1D8F8000040020FD428688007E1
:1025E00004D5E068012801D0012099E72868216915
:1025F00020F0F80040EAC100286029E0E068B8B1A6
:1026000001203860FFF7FEF8064606E0FFF7FAF80B
:10261000801B022801D9032082E728688007F5D5AE
:102620002868216920F0F80040EAC10028600FE026
:10263000C7F80090FFF7E6F8064606E0FFF7E2F875
:10264000801B022801D903206AE728688007F5D497
:102650002078000729D5DFF844A2924861690AF181
:10266000700A89B101210160FFF7CCF8064606E047
:10267000FFF7C8F8801B022801D9032050E7DAF8D9
:1026800000008007F4D510E0C0F80090FFF7BAF81A
:10269000064606E0FFF7B6F8801B022801D90320A2
:1026A0003EE7DAF800008007F4D42078400778D5B8
:1026B0004FF0000A79483C300068C0000BD47748DE
:1026C0003C30016841F080510160006800F08050AA
:1026D00000904FF0010ADFF8D0B1DBF80000C00530
:1026E00014D4DBF8000040F48070CBF80000FFF752
:1026F00089F8064606E0FFF785F8801B022801D915
:1027000003200DE7DBF80000C005F4D5634EA06898
:102710006C3601280FD0052812D0306820F0010057
:102720003060306820F004003060A068F8B1FFF736
:1027300069F8834617E0306840F001003060F4E744
:10274000306840F004003060306840F001003060D4
:10275000EBE7FFF757F8A0EB0B0141F2883081421D
:1027600001D90320DCE630688007F2D510E0FFF7DE
:1027700049F8834609E0FFF745F8A0EB0B0141F269
:102780008830814201D90320CAE630688007F2D43C
:10279000BAF1010F05D141483C30016821F0805168
:1027A0000160A069C0B33D49091D09684FF0FF36BB
:1027B000C1F38101022946D0022805D0C7F86090F4
:1027C000FFF720F804463AE0C7F86090FFF71AF8E0
:1027D000814607E0FFF716F8A0EB0900022801D9AF
:1027E00003209DE628688001F4D4D4E9070108435A
:1027F000616AA26A890106EB520241EA024108437A
:1028000094F82C1040EA0160C8F8000001203866F6
:10281000FEF7F8FF044607E03DE0FEF7F3FF001B7C
:10282000022801D903207BE628688001F5D532E033
:10283000FEF7E8FF001B022801D9032070E6286894
:102840008001F5D427E0012823D0D8F80000E26900
:1028500000F4800191421AD1226A00F03F019142B6
:1028600015D147F6C071626A0140B1EB821F0ED1EB
:10287000A26A00F4403106EB5202B1EB024F06D1DE
:1028800094F82C1000F07060B0EB016F03D00120C1
:1028900046E6012044E6002042E6000004380240FB
:1028A00000004742800E47420070004070470068B9
:1028B000503000EB8100006870470068503000EB3A
:1028C000810002607047704710B5044613494FF409
:1028D0000030086021688868C0040BD5C868C0054E
:1028E00008D5C86800F0800060F4C070C860204659
:1028F000FFF7E9FF2168886880040BD5C868800568
:1029000008D5C86800F0800060F42070C8602046D8
:10291000FFF7CCFF0120607710BD0000143C0140A0
:1029200010B50B46006841680D480140080CD8708E
:10293000C1F304245C7001F03F049C70C1F3423188
:102940001970002A0AD102F045F8D870587802F0C0
:1029500041F85870987802F03DF89870002010BD4A
:102960003FFFFF0010B50B460168896A5960016896
:102970000969C1F30E019960006801680D480140C2
:10298000C1F305401870C1F306245C7001F07F04A8
:102990009C70890DD970002A0AD102F01BF81870BA
:1029A000587802F017F85870987802F013F8987079
:1029B000002010BD7F7F7F0010B50446002C02D0A0
:1029C000607F10B106E0012010BD00202077204676
:1029D00000F042F8022060772068C168C943C90648
:1029E00031D5CA214162216853204862204602F055
:1029F00005F8C8B920688168164A114081602068CE
:102A0000816862681143D4E904231A431143816049
:102A10002168E068086120680169228941EA024171
:102A20000161204602F00DF848B921680A6C22F4D1
:102A300080220A6421680A6CA3691A430A64226826
:102A4000FF21516200E000200028BDD10121617703
:102A500010BD0000BFFF8FFF1FB500210091019145
:102A60000291039100680C49884214D10220009021
:102A7000C00103906846FFF777FB08B1FEF7FAF94B
:102A8000064901200860002205212920FEF762FF87
:102A90002920FEF751FF1FBD002800403C0E474291
:102AA0002DE9F84303460C46DFF894814FF4FA49C8
:102AB0004FF47A71D8F80000B0FBF9F04843009069
:102AC000187F01286AD001261E770220587700253A
:102AD000002A65D018688068400600D4E570E06977
:102AE000A1782278E77841EA02416278120242EA4C
:102AF0008752114394F8202041EA02610143606942
:102B000001436768A06907431A68CA2050621A68BF
:102B100053205062606AFF244FF0030CB0F5807FB1
:102B20005ED01868826822F4007282601868C268F9
:102B300002F0800262F42072C260D8F800004FF404
:102B40007A72B0FBF9F0504300901868009A521E58
:102B50000092009A002A6CD0C2689207F6D50162F2
:102B6000186887641868816841F40071816018688A
:102B7000816841F4005181603248016841F40031BC
:102B8000016030480830016841F400310160186884
:102B900044625E771D770020BDE8F8830220FBE7E2
:102BA00018688068400600D4E570207801F01BFFAB
:102BB0000204607801F017FF42EA0022A07801F0D9
:102BC00012FF0243E07842EA805294F8200001F0BC
:102BD0000AFF42EA0061E06901436069014390E74E
:102BE0001868826822F4807282601868C26802F0F5
:102BF000800262F4C072C2601868009A521E00928D
:102C0000009A82B1C268D207F7D0C16118684764E0
:102C10001868816841F4807181601868816841F4A6
:102C200080518160A8E7446283F81DC01D770320AE
:102C3000B2E7446283F81DC01D770320ACE70000B3
:102C400048000020003C014070B504460B46207F40
:102C5000012805D0012626770220607712B108E00E
:102C6000022070BD5878C10603D500F0EF000A308D
:102C70005870A2B19878D97840EA01455878197807
:102C8000000240EA413005432168CA2048622168B9
:102C900053204862204601F0B1FE88B117E0D87891
:102CA00001F0A1FE0204587801F09DFE42EA0022E4
:102CB000987801F098FE0243187842EA4035E3E73D
:102CC0000748054020684560204601F0BAFE00B97B
:102CD00066772268FF2151620021217770BD0000D4
:102CE0003FFFFF002DE9F04104460D46207F0128FB
:102CF00021D04FF0010884F81C8002206077002763
:102D0000E2B120688068400600D4EF70A878297886
:102D100040EA01466878E978000240EA81500643BB
:102D20002168CA204862216853204862204601F089
:102D300065FEC8B12BE00220BDE8F0812068806804
:102D4000400600D4EF70287801F04DFE0204687848
:102D500001F049FE42EA0022A87801F044FE024355
:102D6000E87842EA8056DBE70D48064020680660B6
:102D70002068816821F480218160D5E90310014336
:102D80002068826811438160204601F05AFE08B92C
:102D900084F81D802268FF2151622777CCE700006C
:102DA0007F7F7F0070B505460A482968C860FEF736
:102DB00029FD04464FF47A7606E0FEF723FD001B5A
:102DC000B04201D9032070BD2868C0688006F4D5E0
:102DD000002070BD5F7F010010B5FDF7D9FD10BD6B
:102DE0002DE9F0418AB004460D460026032084F800
:102DF0003400606C03281ED0B5F5805F08D0B5F5AF
:102E0000006F0AD085B1A06B40F00060A06316E0AF
:102E1000A06B40F08050A06311E0204602F0F7FB69
:102E2000A16B0143A1630AE0204602F0C7FBA16B3E
:102E30000143A16303E0A06B40F08050A063A06B4E
:102E4000174F4FF0010828B12068876384F8348059
:102E5000012613E060680490A0680590E068069081
:102E6000079560690890A069099007A807C88DE8D0
:102E7000070004A920680EC901F01AFE4FF4007182
:102E8000206801F079FE28B121688F63A16B0143AE
:102E9000A163012684F834800AB03046BDE8F08191
:102EA000FF05400070470000F0B550F8642F920F06
:102EB0000A700268C2F383624A700268C2F3016258
:102EC0008A700268120CCA700288120A0A710278AB
:102ED0004A714268120DCA804268C2F303420A7204
:102EE0008288C2F3C0324A728288C2F380328A7208
:102EF0008288C2F34032CA728288C2F300320A73F7
:102F000000264E7350F8203C643801244FF40075BD
:102F1000002B0CD0012B3AD0026847499163816B9A
:102F200041F08051816380F834400120F0BDB0F859
:102F30006820C36E9205120D42EA93720A61C26E56
:102F4000C2F3C2620A75C26EC2F302624A75C26EF1
:102F5000C2F342528A75C26EC2F38242CA75C26E11
:102F6000C2F3C2320A760B695B1C43650A7E02F02B
:102F70000702921C934043650A7A02F00F0704FA95
:102F800007F28265520A5343C36505660EE090F866
:102F90006820C36E9206920A42EA13420A610A69E5
:102FA000521C93024365C3658565056630F86C2F36
:102FB000C2F3803201F8192F0288C2F3C6124A7098
:102FC000027802F07F028A704268D20FCA704268AB
:102FD000C2F341720A714268C2F382624A71426866
:102FE000C2F383528A714268C2F34052CA710E72B0
:102FF0004268C2F300424A728288C2F3C0328A72C7
:103000008288C2F38032CA728288C2F340320A7365
:103010008288C2F300324A738288C2F381228A73A3
:103020008288C2F30122CA730079C0F34600087493
:103030004C740020F0BD0000FF054000426C0A60A7
:10304000826C4A60C26C8A60026DCA60426D0A611D
:10305000826D4A61C26D8A61006EC861002070474E
:1030600038B50446002000906946204602F08FFAE9
:1030700010B1A16B0143A1630098C0F3432038BD98
:103080002DE9F0410446256B2068416B090406D503
:10309000290704D52046BDE8F04102F05DBA416B36
:1030A0004FF00008C9054FF0010752D5390281637E
:1030B0002068C16B4CF23A329143C1632068C16A07
:1030C00021F00101C162280724D505F0020605F0B0
:1030D0002000304309D0206801F06CFE28B1A16BBC
:1030E0000143A1632046FFF7DDFE216840F23A501C
:1030F000886384F83470C4F8308005F001003043F0
:1031000004D0204600F062FABDE8F081204600F0CD
:1031100061FAF9E72806F7D5A80609D5206801F075
:1031200049FE28B1A16B0143A1632046FFF7BAFE17
:1031300005F0010005F002010843E5D12068C16AED
:1031400021F00801C16284F83470204600F042FA90
:10315000DAE7416B490406D5290704D52046BDE8C6
:10316000F04102F07DBA416B40F23A221142CBD0DD
:10317000416B890703D5A16B41F00201A163416B4B
:10318000090703D5A16B41F00801A163416B8906D2
:1031900003D5A16B41F02001A163416BC90603D5A2
:1031A000A16B41F01001A163416B890503D5A16BAF
:1031B00041F00801A16340F23A7181632068C16B5C
:1031C00040F23A329143C163206801F0F3FDA16BF4
:1031D0000843A063280707D584F83470C4F830800A
:1031E0002046FFF75FFE8FE728068DD505F010001B
:1031F00005F0200108430CD0E16B14480865E06B32
:10320000FEF751F8002884D0E06BBDE8F04102F0F1
:1032100025B805F0010005F0020108430CD0216C2F
:103220000B480865206CFEF73EF8002890D0206C13
:10323000BDE8F04101F0E9BFC4F8388084F834708B
:10324000C4F830802046FFF7C7FD5DE75D520008F7
:103250000B52000870B50446002C04D094F83400DA
:10326000002510B105E0012070BD2577204600F053
:103270005FF8032084F83400204600F00BF808B112
:10328000012070BDA5632563012084F8340000206F
:1032900070BD000070B58AB004460025294604952B
:1032A0000591069107910891762009900091CDE94A
:1032B00001100B460A46206801F0FAFB10B101200C
:1032C0000AB070BD184E3560206801F006FC01257B
:1032D00035600220FEF786F9204602F0E7F830B1AB
:1032E00084F83450A16B0143A1630120E8E7204634
:1032F00002F066F830B184F83450A16B0143A16349
:103300000120DDE74FF40071206801F035FC48B181
:10331000226806499163A16B0143A16384F834508C
:103320000120CDE70020CBE7A0802542FF0540002B
:103330002DE9F04F87B00546142102A8FCF7ECFFF9
:103340004D49286888427DD14C4800684B4940F47B
:10335000006008600846006800F40060019047487B
:1033600014380068454940F00400143908600846E4
:10337000006800F0040001900846006840F0080072
:1033800008600846006800F0080001904FF4F8500B
:1033900002900220039000200490032605960C243E
:1033A000069402A93648FEF72FF904270297022057
:1033B0000390002004900596069402A93148FEF778
:1033C00023F9324C30482060780660600020A0600D
:1033D000E060380220614FF48058C4F81480000186
:1033E000A0612020E0614FF40039C4F820906762AA
:1033F000A6624FF4000AC4F82CA04FF4001BC4F8D6
:1034000030B02046FEF74CF808B1FDF733FD2C64D0
:10341000A5631D481D4C4838603420604FF00060A3
:1034200060604020A0600020E0604FF48060206178
:10343000C4F814800001A0612020E061C4F820904D
:10344000676200E014E0A662C4F82CA0C4F830B0B3
:103450002046FEF725F808B1FDF70CFDEC63A563E7
:10346000002205213120FEF775FA3120FEF764FABB
:1034700007B0BDE8F08F0000002C01404438024046
:1034800000080240000C0240A0640240C00200207C
:103490002DE9F04786B004468C4615461E46BCF121
:1034A000000F07D094F83400012809D0022006B09C
:1034B000BDE8F087A06B40F00060A0630120F6E754
:1034C0004FF00008C4F83880E16DA819884205D98A
:1034D000A06B40F00070A0630120E8E7032084F8AF
:1034E00034002068C0F82C802068C16B40F22A327A
:1034F0001143C163216C3148C863216C3048C864F2
:10350000206CC0F85080206CC0F80880206C0068E7
:10351000016821F0C001016021687702BB08803199
:103520006246206CFEF726F8DFF898A04FF00109FC
:1035300078B12068C16B21F49571C1632068C0F82F
:1035400038A0A06B40F08040A06384F83490012044
:10355000ADE71D48C0F80090606C012800D06D02F6
:103560004FF0FF30009001979020029002200390CE
:10357000CDF81080CDF814906946206801F076FAF5
:10358000012E06D9822020632946206801F052FBD3
:1035900005E0812020632946206801F064FB58B1D2
:1035A0002168C1F838A0A16B0143A16384F834906D
:1035B000C4F8308001207AE7002078E7C95100087C
:1035C00065510008FF0540008C85254210B5FDF7C8
:1035D00025FA10BD10B5FDF73DFA10BD2DE9F04FED
:1035E0008A4687B0044611461D46BAF1000F07D03F
:1035F00094F83400012809D0022007B0BDE8F08F0C
:10360000A06B40F00060A0630120F6E70026A663EF
:10361000E26D4819904205D9A06B40F00070A0639C
:103620000120EAE7032084F834002068C66220689D
:10363000C26B40F21A2842EA0802C263E26B2F48CA
:10364000D063E26B2E48D064E06B0665606C0128A5
:1036500000D049024FF09009012D05D9A020206328
:10366000206801F0C1FB04E0C4F83090206801F04C
:10367000D4FBDFF890B0012750B12168C1F838B011
:10368000A16B0143A16384F8347026630120B4E781
:103690001D480760E16B40208860E06B00680168AE
:1036A00021F0C00141F04001016022686D02AB08C9
:1036B00080325146E06BFDF75DFF80B12068C16B41
:1036C00021EA0801C1632068C0F838B0A06B40F05F
:1036D0008040A06384F83470266301208DE74FF0AA
:1036E000FF3001900295CDF80C9004960596069750
:1036F00001A9206801F0BAF900207EE74F520008C6
:1037000065510008FF0540008C85254270B50446D0
:10371000002C09D0606A002540B125616561A56271
:1037200094F8510040B10CE0012070BD6068B0F524
:10373000827FF4D0E561F2E784F85050204600F033
:1037400045F8022084F851002068016821F040010A
:103750000160A088218900F4827001F404410843CB
:10376000A18901F400610843217C01F002010843B2
:10377000217D01F001010843218B01F40071084310
:10378000217F01F03801084394F8201001F08001F6
:103790000843218D01F40051084321680860A069A5
:1037A000042101EA104094F8241001F010010843AC
:1037B000216848602068C16921F40061C1616565C4
:1037C000012084F85100002070BD00002DE9F04375
:1037D00087B00546142102A8FCF79EFD2D492868F4
:1037E000884254D100262C48016841F48051016080
:1037F000006800F48050019027481438016841F0B7
:1038000001010160006800F001000190F0200290C9
:10381000022003900496032005900520069002A93B
:103820001E48FDF7F1FE1F4C1D4820604FF0C06997
:10383000C4F804904020A060E6600701276166613B
:10384000A661E6614FF40038C4F820806662204625
:10385000FDF726FE08B1FDF70DFBAC64A56310482B
:10386000104C783860342060C4F80490A660E6609C
:1038700027616661A661E661C4F820806662204621
:10388000FDF70EFE08B1FDF7F5FAEC64A56307B08D
:10389000BDE8F0830030014044380240000002409F
:1038A00088640240D80300207047704770B590F8D4
:1038B0003C20012A31D0012680F83C60022280F8A9
:1038C0003D2002685468936824F070050C682C430E
:1038D0005460134C0268A24214D0B2F1804F11D050
:1038E000104CA2420ED0104CA2420BD00F4CA24260
:1038F00008D00F4CA24205D00E4CA24202D00E4C72
:10390000A24204D123F080034968194391603C30FE
:10391000467000210170002070BD022070BD0000C3
:10392000000001400004004000080040000C00407E
:1039300000040140004001400018004010B504465A
:10394000002C03D094F83D0010B107E0012010BD19
:10395000002084F83C00204600F016F8022084F88D
:103960003D00211D206801F0C9FF01203D34607237
:103970006070A070E07020716071A071E0712072C1
:103980002070002010BD000008B50068B0F1804F25
:1039900008D10548016841F001010160006800F0AC
:1039A0000100009008BD00004038024090F83D1032
:1039B000012901D001207047022180F83D100168E3
:1039C000CA6842F00102CA6000681449884214D0F3
:1039D000B0F1804F11D0124988420ED0114988426F
:1039E0000BD01149884208D01049884205D01049AF
:1039F000884202D00F49884209D1816801F007014D
:103A0000062908D0016841F00101016003E0016866
:103A100041F00101016000207047000000000140FA
:103A20000004004000080040000C00400004014079
:103A3000004001400018004070B50446002594F88D
:103A40003C00012817D0012684F83C60022084F84D
:103A50003D002068826822F0770222F47F42826073
:103A60000868502838D00DDC202853D005DC90B3EE
:103A7000102811D14EE0022070BD30284AD04028D5
:103A80000AD13DE0602831D070280CD0B0F5805FBD
:103A900003D0B0F5005F12D001253C3466700020E1
:103AA0002070284670BDCB68D1E90121206801F063
:103AB00093FF2068816841F077018160EDE7CB6872
:103AC000D1E90121206801F087FF2068816841F475
:103AD00080418160E1E71DE0CA684968206801F023
:103AE0008DFF5021206801F081FFD6E7CA68496840
:103AF000206801F094FF6021206801F077FFCCE797
:103B0000CA684968206801F079FF4021206801F007
:103B10006DFFC2E722680146104601F067FFBCE76F
:103B200070472DE9F04104462068C56806694FF0EA
:103B30000007B10714D5A90712D5F91E01610120AC
:103B4000207720688069800703D02046FFF7E8FFD0
:103B500005E0204600F081F8204600F07FF8277746
:103B6000700717D5680715D521686FF00400086144
:103B7000022020772068806910F4407F03D020461F
:103B8000FFF7CEFF05E0204600F067F8204600F082
:103B900065F82777300716D5280714D521686FF008
:103BA00008000861042020772068C069800703D0DE
:103BB0002046FFF7B5FF05E0204600F04EF820460E
:103BC00000F04CF82777F00617D5E80615D52168E0
:103BD0006FF010000861082020772068C06910F499
:103BE000407F03D02046FFF79BFF05E0204600F012
:103BF00034F8204600F032F82777F00708D0E807BD
:103C000006D021686FF001000861204600F028F816
:103C1000300608D5280606D521686FF080000861B7
:103C20002046FFF741FE700608D5680606D52168D4
:103C30006FF040000861204600F034F8B0060AD565
:103C4000A80608D521686FF0200008612046BDE86D
:103C5000F041FFF72ABEBDE8F081704770470000D1
:103C600010B504460C492068884201D1FDF7D0FD0B
:103C70002068B0F1804F0ED108480168084821B192
:103C8000BDE810400421FDF7AEBD0122BDE81040A3
:103C90000421FDF7B0BD10BD001000400000002061
:103CA000000402407047704770470000F8B50446B2
:103CB00022681068D168536900F00F06002E08D101
:103CC000850606D58D0604D52046BDE8F84001F0EE
:103CD0009FBF0025002E66D003F0010601F4907707
:103CE000374360D0C20705D0CA0503D5626C42F0E5
:103CF00001026264420705D5DA0703D0626C42F024
:103D000002026264820705D5DA0703D0626C42F0D2
:103D100004026264020707D501F02002324303D097
:103D2000626C42F008026264626C002A31D0800644
:103D300004D5880602D5204601F06AFF2068406954
:103D4000C0F38010616C090700D438B3204601F03D
:103D50001DFF2068406940061CD52068143050E8DB
:103D6000001F21F0400140E80012002AF5D1E06B6D
:103D700060B159490165E06BFDF795FA002808D05C
:103D8000E06B016D01B0BDE8F04008472046FFF749
:103D90008BFFF8BD2046FFF787FFF8BD2046FFF7F1
:103DA00083FF6564F8BD236B012B7DD1C3067BD5F2
:103DB000CB067FD510685068009050694FF0200303
:103DC00040064FF0020644D5E16B0868406880B2B7
:103DD0000028E7D0A28D8242E4D9E085C869B0F519
:103DE000807F2DD020680C3050E8001F21F48071B6
:103DF00040E80012002AF5D12068143050E8001F76
:103E000021F0010140E80012002AF5D120681430A9
:103E100050E8001F21F0400140E80012002AF5D1CF
:103E200084F84230256320680C3050E8001F21F0F0
:103E3000100140E80012002AF5D1E06BFDF7ECF923
:103E40006663A08DE18D401A81B22046FFF72BFFFB
:103E5000F8BDA08DE18D401A81B2E08D0028F7D029
:103E60000029F5D020680C3050E8002F22F4907221
:103E700040E80027002FF5D12068143050E8002FCB
:103E800022F0010240E80027002FF5D184F84230EB
:103E9000256320680C3050E8002F22F0100240E823
:103EA0000023002BF5D100E004E066632046FFF715
:103EB000FAFEF8BD020606D50A0604D52046BDE87E
:103EC000F84001F0DDBF4006F3D54806F1D52046A5
:103ED000BDE8F84001F081BE435A000870B50446C1
:103EE000002C04D094F84100002510B106E0012018
:103EF00070BD84F84050204600F024F8242084F857
:103F000041002068C16821F40051C160204601F0E1
:103F1000E3FE2068016921F4904101612068416954
:103F200021F02A0141612068C16841F40051C1605B
:103F30006564202084F8410084F842006563002015
:103F400070BD00002DE9F04786B00446142101A899
:103F5000FCF7E2F9DFF890A102222068634903230D
:103F6000634D002697064FF0070C4FF040094FF4C1
:103F7000806850455AD15D481430D0F800A04AF00E
:103F8000100AC0F800A0006800F010000090086857
:103F900040F001000860086800F00100009058023D
:103FA0000190029203960493CDF814C001A928460B
:103FB000FDF72AFB504D4F4828606F60C5F8089008
:103FC000EE60C5F810806E61AE61EE614FF40039AD
:103FD000C5F820906E622846FDF762FA08B1FCF73A
:103FE00049FFA563AC634348434D7838603528608A
:103FF0006F60AE60EE60C5F810806E61AE61EE611C
:10400000C5F820906E622846FDF74AFA08B1FCF721
:1040100031FFE563AC63002205212520FDF79AFC02
:104020002520FDF789FC06B0BDE8F087DFF8CCA0BD
:104030005045F8D12D481030D0F800A04AF4003A8D
:10404000C0F800A0006800F400300090086840F05C
:1040500001000860086800F0010000900C20019049
:10406000029203960493CDF814C001A92846FDF7E7
:10407000CBFA214D2248C03528606F60AE60EE60FB
:10408000C5F810806E61AE61EE614FF4403AC5F83C
:1040900020A06E622846FDF703FA08B1FCF7EAFE9D
:1040A000E563AC631648174D183028606F60C5F89B
:1040B0000890EE60C5F810806E61AE61EE61C5F8E3
:1040C00020A06E622846FDF7EBF908B1FCF7D2FE9E
:1040D000A563AC63002205212620FDF73BFC2620CA
:1040E000FDF72AFC9FE70000001001403038024035
:1040F00000000240B8640240700500200044004007
:1041000088600240900600202DE9F84F04460E46D4
:104110001546984694F84200202802D00220BDE8B7
:10412000F88FBEB1B5B100206064222184F842103E
:104130002063FDF767FB8246A585E585A0684FF4FF
:104140008057B84201D1206930B1354600264FF082
:10415000200928E00120E2E70025F8E75346002285
:1041600020212046CDF8008001F0B9FE18B184F876
:1041700042900320D3E725B1A068B84219D038B1E6
:1041800008E020684068C0F3080026F8020B07E04A
:10419000206970B12068406800F07F0028706D1CB5
:1041A000E08D401EE085E08D0028D7D184F8429054
:1041B000B5E7206840682870F1E790F84230202B7E
:1041C00001D00220704721B11AB10023036301F02E
:1041D0000DBE01207047704770472DE9F843044633
:1041E0000E4615461F4694F84100202802D00220B2
:1041F000BDE8F8837EB175B100206064212084F8A9
:104200004100FDF7FFFA8146A584E584A068B0F57A
:10421000805F02D003E00120EAE7206920B1354643
:1042200000264FF0200815E00025FAE74B46002253
:1042300080212046009701F052FE18B184F8418099
:104240000320D5E7ADB1216815F8010B4860E08C7B
:10425000401EE084E08C0028E8D14B46002240213B
:104260002046009701F03BFE50B184F841800320C6
:10427000BEE736F8020B2168C0F308004860E6E7A5
:1042800084F841800020B3E737B5044694F8410034
:10429000202801D002203EBD019959B352B32162BA
:1042A000A284E28400206064212384F84130A56B5D
:1042B000114BEB63A56B114B2B64A56B104BEB649F
:1042C000A36B186520681346001DA56B024628469F
:1042D000FDF750F921686FF0400008602068143045
:1042E00050E8001F41F0800140E80012002AF5D19B
:1042F00000203EBD01203EBD415B0008835B0008FD
:10430000535A000870477047FEE700007FB500244D
:1043100000940194029403941348124901604FF4ED
:104320008031416084600461047680F82040C4627A
:104330000E498162C4600125C56180F83040456145
:10434000FCF707FF08B1FCF795FD00950195029475
:1043500069460548FCF7B6FD002801D0FCF78AFD48
:104360007FBD000000200140D40100200100000FAB
:1043700008B52948016841F480010160016801F431
:1043800080010091016841F400110160006800F4AF
:1043900000100090002205211020FDF7DBFA10200C
:1043A000FDF7CAFA002205211120FDF7D3FA1120EA
:1043B000FDF7C2FA002205213820FDF7CBFA38209C
:1043C000FDF7BAFA002205213A20FDF7C3FA3A2098
:1043D000FDF7B2FA002205213B20FDF7BBFA3B2096
:1043E000FDF7AAFA002205214420FDF7B3FA442084
:1043F000FDF7A2FA002205214520FDF7ABFA452082
:10440000FDF79AFA002205214620FDF7A3FABDE840
:1044100008404620FDF790BA3038024010B50449F4
:104420000448FCF729FD0249491E087010BD000030
:1044300035000020148D00082DE9F04387B01421C9
:1044400002A8FBF769FF00243348016841F004012A
:104450000160016801F004010191016841F08001EF
:104460000160016801F080010191016841F00101E2
:104470000160016801F001010191016841F0020150
:104480000160016801F002010191016841F0080139
:104490000160006800F008000190DFF880800122D0
:1044A000C4214046FDF7A7F90122DFF874901702F6
:1044B00039464846FDF79FF9012602960394049475
:1044C00002A94846FDF7A0F8042002900396049440
:1044D0000225059502A94046FDF796F80297039636
:1044E0000494059502A94846FDF78EF8082002902D
:1044F0000394049502A90B48FDF786F8C0200290AA
:10450000112003900494059502A94046FDF77CF81C
:1045100007B0BDE8F08300003038024000040240DC
:1045200000000240000C024070B592B014210DA8AA
:10453000FBF7F2FE00240C94282102A8FBF7ECFE06
:104540003848016841F080510160006800F08050F7
:104550000190FDF7FDFD35483349016044607F213E
:104560008160FF21C160046144618461FEF724FA27
:1045700008B1FCF77FFC00212C48FEF798F945F6BE
:104580005A26B0424BD012208DF834008DF83540B9
:104590008DF836401094119401220DA92348FEF79E
:1045A000A1FB08B1FCF766FC01258DF83050042012
:1045B0008DF8310022208DF8320024208DF8330050
:1045C00001220CA91948FEF73FFB08B1FCF752FC89
:1045D00023208DF8080055208DF8090056208DF80D
:1045E0000A000394059406944FF0803007904FF032
:1045F0001060089009948DF828504FF480700B904B
:10460000012202A90948FEF74BFA08B1FCF732FC77
:10461000324600210548FEF750F912B070BD00F097
:1046200097F9FAE740380240002800401C020020B9
:10463000074806490160002141608160C1604FF474
:104640000062026141610C2181617047002C0140D0
:104650003C02002010B50F480D4901604FF48271F3
:10466000416000218160C160016141614FF480229D
:104670008261C1610162416281620A21C162FFF708
:1046800045F8002803D0BDE81040FCF7F3BB10BD8F
:10469000003001408003002010B586B00024029451
:1046A0000394049405940094019413484FF08041BE
:1046B00001605321416084604FF6FF71C160046165
:1046C0008461FFF73BF908B1FCF7D4FB4FF480504D
:1046D000029002A90848FFF7AFF908B1FCF7CAFB3E
:1046E0000094019469460448FFF7E0F8002801D0DF
:1046F000FCF7C0FB06B010BD9804002010B50C48B4
:104700000A4901604FF4E131416000218160C160DC
:1047100001610C2242618161C161FFF7DFFB00286A
:1047200003D0BDE81040FCF7A5BB10BD0010014050
:10473000E004002010B50E4C0C4820604FF4E1302E
:1047400060600020A060E06020610C216161A061D8
:10475000E0612046FFF7C2FB08B1FCF78BFB206845
:10476000C16841F02001C16010BD0000004400405C
:1047700028050020FEE7FEE70148FDF70CBA00001F
:104780006409002070B504462068056C00EB4110F8
:10479000D0F8081B0C4EB54205D9090403D54FF4D7
:1047A0000041C0F8081B2046FDF7B3FCB54208D90C
:1047B000A079012805D104F29C420121206802F071
:1047C000EFF9002070BD00000A30544F2DE9F04190
:1047D00005460C462E68306C06EB4411D1F8083BB8
:1047E00095F806804FF400474FF0200C05F29C42EC
:1047F000B8F1010F08D0DFF8B080404545D118046A
:104800003AD5C1F8087B4CE0284E5FEA037806D51C
:10481000B04246D9180444D5C1F8087B41E05FEAAC
:10482000836802D5C1F808CB3BE013F0280F38D1DC
:10483000B04204D9180402D5C1F8087B31E004EB7A
:10484000C40005EB800000F51570D1F8101B036A59
:10485000C1F31201591A416124B903693BB1C2681D
:104860001144C160E1B22846FDF7B4F819E0012116
:10487000286802F095F9F5E7980601D5C1F808CB4C
:10488000E1B22846FDF7A6F80BE034B9D5F864028A
:1048900018B90021304602F083F9E1B22846FDF74D
:1048A00099F80020BDE8F0810A31544F0A30544F86
:1048B0002DE9F84F80460E46D8F8007006EBC6008A
:1048C00008EB80041434D4E90410884202D9012092
:1048D000BDE8F88F081AA168814200D20846C01CC2
:1048E0004FEA900A07EB461916E0151AA268AA4289
:1048F00000D21546E81C4FEA900A98F8060000908E
:10490000ABB2F2B23846E16802F04EFCE0682844EF
:10491000E060606928446061D9F8180980B25045A8
:1049200005D3D4E90420904201D2002ADDD1D4E994
:104930000401884208D806F00F0101208840D7F80A
:1049400034188143C7F834180020C1E770470000CD
:1049500000B58BB0282101A8FBF7DEFC0122174926
:104960001748FDF7FFFF012216491548FDF7D8FF4C
:1049700023208DF8040055208DF805000F4880781D
:10498000401C8DF8060000200290049005904FF026
:10499000803106914FF010610791089001208DF849
:1049A000240000020A90012201A90548FEF778F8C8
:1049B000002801D0FCF75EFA0BB000BDC00100205A
:1049C0001C020020100000200148FDF77DBF000000
:1049D0001C020020010901EB8101490000F00F00D9
:1049E0000844C0B27047002102E0491C0A38C0B236
:1049F0000A28FAD2090740EA116070472DE9F04110
:104A0000044600252068C168490617D4C16841F0F2
:104A10008001C160FCF7F6FE06464FF47A78042761
:104A200006E0FCF7EFFE801B404501D967770125C2
:104A30002068C068400601D4012DF2D12846BDE8A7
:104A4000F08170B5044600252068C16821F080011E
:104A5000C16020688068800606D42046FEF7A2F96F
:104A600010B1042060770125284670BD0A684262B3
:104A70004A688262D1E902231A43D1E904310B4327
:104A80001A43C16A21F0F7011143C1620020704747
:104A90000069C0B27047006800F003007047084426
:104AA000406970470148FEF7EBBA00003C02002065
:104AB0000FB4DDE901121143DDE903231A43114369
:104AC000059A1143069A1143426847F6FF639A43D9
:104AD0000A434260002004B07047032101600020B7
:104AE0007047D0F8800070470A688260D1E90123DE
:104AF0001A43D1E903310B431A43C1686FF30B0129
:104B00001143C160002070470968C0F88010002080
:104B1000704710B585B004460091372101914021BE
:104B20000291002103914FF480610491694620466F
:104B3000FFF7DAFF41F288323721204600F09EF974
:104B400005B010BD10B585B004460A4A1143009166
:104B5000292101914021029100210391510D0491DD
:104B600069462046FFF7C0FF204600F043FA05B033
:104B700010BD00000000108010B585B00446009103
:104B80001021019140210291002103914FF4806195
:104B9000049169462046FFF7A7FF41F288321021B1
:104BA000204600F06BF905B010BD10B585B0044685
:104BB00000910621019140210291002103914FF4BF
:104BC0008061049169462046FFF78EFF41F28832EA
:104BD0000621204600F052F905B010BD10B586B090
:104BE0000446002101910291039104914FF48061E8
:104BF000059101A92046FFF777FF204600F026F92E
:104C000006B010BD10B585B004464FF4D5710091C3
:104C10000821019140210291002103914FF480610C
:104C2000049169462046FFF75FFF204600F04AFAEC
:104C300005B010BD10B585B0044600911221019158
:104C400040210291002103914FF480610491694653
:104C50002046FFF749FF41F288321221204600F03A
:104C60000DF905B010BD10B585B0044600911121B5
:104C7000019140210291002103914FF48061049140
:104C800069462046FFF730FF41F288321121204665
:104C900000F0F4F805B010BD10B585B004460092E0
:104CA0000721019140210291002103914FF480607E
:104CB000049069462046FFF717FF41F2883207212A
:104CC000204600F0DBF805B010BD10B585B00446F5
:104CD0000021009102220192C022029203914FF41E
:104CE0008061049169462046FFF7FEFE204600F0F1
:104CF00057F905B010BD10B585B0044600910921E3
:104D00000191C0210291002103914FF4806104912F
:104D100069462046FFF7E8FE204600F041F905B05D
:104D200010BD10B585B004460021009133220192D8
:104D30004022029203911101049169462046FFF737
:104D4000D3FE41F288323321204600F097F805B0B7
:104D500010BD10B585B0044600910D210191402190
:104D60000291002103914FF480610491694620462D
:104D7000FFF7BAFE41F288320D21204600F07EF89E
:104D800005B010BD70B585B006460D4600230093F2
:104D9000032401944024029403932301049369465D
:104DA0003046FFF7A1FE2A460321304600F044F9C1
:104DB00005B070BD10B585B00446002100910C22ED
:104DC000019240220292039111010491694620460A
:104DD000FFF78AFE034A0C21204600F04FF805B089
:104DE00010BD000000E1F50510B585B00446009146
:104DF0001921019140210291002103914FF480611A
:104E0000049169462046FFF76FFE41F2883219216E
:104E1000204600F033F805B010BD10B585B004464B
:104E200000911821019140210291002103914FF43A
:104E30008061049169462046FFF756FE41F28832B0
:104E40001821204600F01AF805B010BD0A494FF4A9
:104E5000FA520968B1FBF2F141F288325143491E1E
:104E60004A1C06D0426B1206F9D5C5218163002089
:104E700070474FF0004070474800002010B50346CF
:104E800045484FF4FA540068B0FBF4F45443641EF0
:104E9000601C0BD0586B10F0450FF8D00005F6D40D
:104EA000586B400705D50420986310BD4FF00040B3
:104EB00010BD586BC00702D00120986310BDC520FB
:104EC00098631846FFF7E4FD884201D0012010BD29
:104ED00000211846FFF7E3FD3049084201D10020C8
:104EE00010BD002802DA4FF0007010BD410001D55E
:104EF000402010BD810001D5802010BDC10002D529
:104F00004FF4807010BD010102D54FF4007010BD48
:104F1000410102D54FF4806010BDC10102D54FF4AC
:104F2000006010BD010202D54FF4805010BD410257
:104F300002D54FF4005010BD810202D54FF48040DD
:104F400010BDC10202D54FF4004010BD410302D58F
:104F50004FF4003010BD810302D54FF4802010BD06
:104F6000C10302D54FF4002010BD010402D54FF457
:104F7000801010BD410402D54FF4001010BD810413
:104F800002D54FF4800010BD000702D54FF4000099
:104F900010BD4FF4803010BD4800002008E0FFFD38
:104FA00013494FF4FA520968B1FBF2F241F2883129
:104FB0004A43521E511C0CD0416B11F0450FF8D0E2
:104FC0000905F6D4416B490706D504218163042005
:104FD00070474FF000407047416BC90703D0012173
:104FE000816301207047C521816300207047000064
:104FF000480000200F494FF4FA520968B1FBF2F261
:1050000041F288314A43521E511C0CD0416B11F0C1
:10501000450FF8D00905F6D4416B490706D50421A0
:105020008163042070474FF000407047C5218163C1
:10503000002070474800002030B5034620484FF458
:10504000FA540068B0FBF4F441F288304443641E23
:10505000601C0BD0586B10F0450FF8D00005F6D44B
:10506000586B400705D50420986330BD4FF00040D1
:1050700030BD586BC00702D00120986330BD184680
:10508000FFF706FD884201D0012030BDC52098639E
:1050900000211846FFF703FD10F4604F04D04104CF
:1050A00006D54FF4005030BD000C1080002030BDFC
:1050B000000402D54FF4805030BD4FF4803030BD35
:1050C0004800002014494FF4FA520968B1FBF2F28B
:1050D00041F288314A43521E511C0CD0416B11F0F1
:1050E000450FF8D00905F6D4416B490706D50421D0
:1050F0008163042070474FF000407047416BC9073F
:1051000003D00121816301207047416B490601D51D
:1051100040218163002070474800002010B5064CF4
:1051200001202070FBF73CFC18B9207820F001002A
:105130002070207810BD00002C00002070B50546BE
:1051400002F0E6FD044602E0FBF72AFC38B102F06B
:10515000DFFD001BA842F7D34FF0FF3070BD0020E9
:1051600070BD000010B5846BFCF7AFF8022828D0A2
:10517000206C406DE16B496D012801D001291DD1E2
:105180002168104888632068C16B21F49D71C16358
:10519000A06B40F08040A0632046FDF761FF062829
:1051A00001D0052805D12068FFF704FEA16B084354
:1051B000A063012084F83400002020632046FDF71E
:1051C00071FE10BDFF05400010B5846B206B822876
:1051D00009D12068FFF7EEFD28B1A16B0143A1635F
:1051E0002046FDF75FFE2068C16A21F00801C16218
:1051F000216840F23A508863012084F8340000208E
:1052000020632046FEF7E2F910BD10B5846B40F232
:105210003A50216888632046FDF722FF012184F877
:10522000341000212163062801D0052805D120680B
:10523000FFF7C0FDA16B0843A063A06B18B1204627
:10524000FDF730FE10BD2046FDF7C6FD10BD806B9A
:105250000068C16B41F48071C163704710B5846B05
:1052600040F23A50216888632046FDF7F9FE01219B
:1052700084F8341000212163062801D0052805D1C7
:105280002068FFF797FDA16B0843A063A06B18B1DE
:105290002046FDF707FE10BD2046FDF79DFD10BD21
:1052A0002DE9F04788B004460E46FCF7ABFA0746F6
:1052B0000025AA46CDF800A0CDF804A0082120685A
:1052C000FFF75AFC002842D1B4F8500001042068CE
:1052D000FFF71FFC00283AD1401E02904FF008084B
:1052E000CDF80C80302004904FF00209CDF81490D6
:1052F000CDF818A00120079002A92068FFF7B6FB9F
:105300002068FFF70EFD002821D1EA4610E0416B2E
:10531000890205D5FFF7E5FB4AF825006D1C02E080
:10532000416B890409D5FCF76DFAC01B401C11D0F4
:105330002068416B11F02A0FE9D02168496B0907F9
:1053400002D4416B890508D5C0F83880082008B020
:10535000BDE8F0874FF00040F9E7416B890703D5BE
:10536000C0F838900220F2E7416B890603D520216E
:1053700081632020EBE740F23A5181630198019963
:10538000000601F47F4140EA0120019901F47F0108
:1053900040EA1120019940EA1160306000980099BC
:1053A000000601F47F4140EA0120009901F47F01E9
:1053B00040EA1120009940EA116070600020C6E7C1
:1053C00010B590B00446012004902068FFF763FBFD
:1053D000002854D0606C032819D02068FFF775FCB2
:1053E00000284AD100212068FFF759FB606704219B
:1053F0002068FFF754FBA06708212068FFF74FFBE8
:10540000E0670C212068FFF74AFBC4F88000606C5D
:10541000032805D004A92068FFF7B4FC00282CD18C
:10542000606C03281CD0BDF81000206501042068C2
:10543000FFF761FC002820D100212068FFF72FFB37
:10544000606604212068FFF72AFBA0660821206817
:10545000FFF725FBE0660C212068FFF720FB2067A3
:1054600004212068FFF71BFB000DE06405A920461E
:10547000FDF71AFD30B14FF0805010B010BD4FF065
:105480008060FAE7B4F85000002302042068FFF7B8
:1054900003FC0028F1D1D4E9051220698DE807004A
:1054A0000FCCFFF705FB0020E7E700002DE9F84FE0
:1054B000044600270097002600252068FFF78EFB92
:1054C000002819D12068FFF79DFB4FF0010930B18A
:1054D000A7642068FFF782FB00280DD101E0C4F823
:1054E0004890A06C4FF0805A012807D10021206815
:1054F000FFF70FFB10B15046BDE8F88F4FF6FF786D
:1055000015E000212068FFF704FB0028F4D11149C1
:105510002068FFF717FB08B15046EDE7002120682F
:10552000FFF7BDFA0646F50F0098401C0090009862
:10553000404501D2002DE4D00098404502D34FF001
:105540008070D9E7700002D5C4F8449000E0676429
:105550000020D1E7000010C12DE9F0410746BC6AE8
:10556000FD6A002D11D000263868FFF7BAFA2070C6
:10557000010A6170010CA170000EE070241D2D1F46
:10558000761C082EF0D3BC62FD62BDE8F08170B5D8
:1055900004460D46002D0ED0B4F8500001042068DA
:1055A000FFF7D7FB002805D100212068FFF777FA25
:1055B0002860002070BD4FF0006070BD1CB504462F
:1055C00000200090019000212068FFF768FA800118
:1055D00002D54FF400601CBD69462046FFF760FE0F
:1055E0000028F8D10198C0030ED5B4F8500001048A
:1055F0002068FFF78EFA0028EDD100212068FFF720
:10560000D4FA0028E7D11CBD4FF080601CBD1CB54A
:10561000044600200090019000212068FFF73FFA27
:10562000800102D54FF400601CBD69462046FFF79B
:1056300037FE0028F8D1019840030ED5B4F8500089
:1056400001042068FFF765FA0028EDD102212068E7
:10565000FFF7ABFA0028E7D11CBD4FF080601CBDFE
:10566000F8B507463C6A7D6A002D19D000262078DF
:105670000090617840EA01200090A17840EA014062
:105680000090E178241D40EA016000902D1F6946DA
:105690003868FFF739FA761C082EE8D33C627D6241
:1056A000F8BD000070B50546104C0120207002F0D6
:1056B0001BFB022817D1FBF77FF918B92846FFF723
:1056C0002DFD2070207801280DD0606828B90022B7
:1056D00002210A2002F05AFB6060606818B9207845
:1056E00040F001002070207870BD00002C000020E8
:1056F00010B588B0144614480078C00702D00320C3
:1057000008B010BD39B1012907D002290CD00329F6
:1057100011D00420F4E70020F2E76846FBF73AF9DD
:10572000069820600020EBE76846FBF733F90798FE
:1057300020800020E4E76846FBF72CF90798400A30
:1057400020600020DCE700002C0000202DE9F84359
:105750000D4617469846012647F230542046FFF77B
:10576000EDFC002802DA3046BDE8F88342463946AF
:105770002846FBF745F9B8B90D482346002269468B
:10578000406802F0CDFA78B9BDF8000001280BD1CD
:1057900002F0BEFA054602E0FBF702F930B102F072
:1057A000B7FA401BA042F7D33046DDE70026FBE7FF
:1057B0002C000020FFF7B2BC2DE9F8430D46174638
:1057C0009846012647F230542046FFF7B7FC0028E0
:1057D00002DA3046BDE8F883424639462846FBF7F0
:1057E0002BF9B8B90D48234600226946406802F0FB
:1057F00097FA78B9BDF8000002280BD102F088FAB8
:10580000054602E0FBF7CCF830B102F081FA401B0C
:10581000A042F7D33046DDE70026FBE72C0000204E
:105820000178407841EA0020704710B54FF0E02041
:10583000006903F00FF9012803D0BDE8104002F021
:1058400019BE10BD30B593B0302107A8FAF764FD3A
:10585000142102A8FAF760FD00251F48016841F0F5
:1058600080510160006800F0805001901B48016881
:1058700041F480410160006800F4804001900520FF
:1058800007904FF4803008900120099002240D9475
:1058900080050E9004200F90A820109011940720EE
:1058A000129007A8FCF722FE08B1FBF7E3FA0F20DD
:1058B0000290039404954FF4A05005904FF480504B
:1058C0000690052102A8FCF7F3FC002801D0FBF7A5
:1058D000D1FA13B030BD00004038024000700040E3
:1058E0000248016841F470010160704788ED00E0F2
:1058F0000148FEF716B90000F00600202DE9F0413E
:1059000002682A4D2A4E2B4FDFF8ACC02B4B4FF0CC
:105910008048A84209D0404507D0B04205D0B842DF
:1059200003D0604501D0984203D122F070044A6848
:105930002243A8421BD0404519D0B04217D0B842EC
:1059400015D0604513D0984211D01D4CA0420ED006
:105950001C4CA0420BD01C4CA04208D01B4CA042B7
:1059600005D01B4CA04202D01A4CA04203D122F415
:105970004074CA6822434C6922F0800222430260CC
:105980008A68C2620A688262A84201D0984201D144
:1059900009690163012141610169C90703D00169F6
:1059A00021F001010161BDE8F0810000000001402B
:1059B0000004004000080040000C004000040140CA
:1059C00000400140004401400048014000180040F0
:1059D000001C00400020004010B5846824F47F447F
:1059E00042EA03220A432243826010BD826822F009
:1059F00070020A4342F007018160704710B5036AE4
:105A0000046A24F001040462846924F0F00444EA86
:105A1000021423F00A020A438461026210BD10B529
:105A2000036A046A24F010040462846924F4704454
:105A300044EA023223F0A00343EA011182610162C9
:105A400010BD10B5806B0021C185C184FEF72CF913
:105A500010BD70B5846B20684069C0F3C01094F825
:105A600041100025212904D118B1E584204600F019
:105A7000C1F820684069C0F3801094F842102229D0
:105A800004D118B1E585204600F080F8606C40F044
:105A9000100060642046FEF707F970BD10B501469E
:105AA000886B096809684FF00003C9052ED4C385C7
:105AB00001680C3151E8002F22F4807241E8002483
:105AC000002CF5D10168143151E8002F22F00102B9
:105AD00041E80024002CF5D10168143151E8002F71
