:020000040800F2
:100000004856002061020008374800089D42000859
:1000100035480008610A0008256E0008000000004D
:10002000000000000000000000000000A101000826
:10003000510B000800000000FD010008DB5600081D
:100040007B0200087B0200087B0200087B0200089C
:100050007B020008B34900087B0200087B0200080D
:100060007B0200087B0200087B0200087B0200087C
:100070007B0200087B0200087B0200087B0200086C
:100080007B0200087B020008310800087B020008A0
:100090007B0200087B0200087B0200087B0200084C
:1000A0007B0200087B0200087B0200087B0200083C
:1000B0007B0200087B020008A15700087B020008B1
:1000C0007B0200087B0200087B0200087B0200081C
:1000D0007B0200087B020008C95D00087B02000863
:1000E0007B0200082D4A00087B0200087B02000802
:1000F0007B0200087B0200087B0200087B020008EC
:100100007B020008094B00087B0200087B02000804
:100110007B0200087B020008AD5700087B02000844
:10012000650A00087B020008710A00087D0A0008C1
:100130007B0200087B0200087B0200087B020008AB
:100140007B0200087B0200087B0200083948000897
:10015000890A0008950A0008A10A00087B02000825
:100160007B0200087B0200087B0200087B0200087B
:100170007B0200087B0200087B02000800000000F0
:100180007B0200087B020008DFF810D000F03EFB85
:1001900000480047397A0008AFF300804856002035
:1001A0002C4B19680868B0E8F04F80F30988BFF35A
:1001B0006F8F4FF0000080F311887047000000003F
:1001C00008480068006880F308884FF0000080F35A
:1001D000148862B661B6BFF34F8FBFF36F8F00DF35
:1001E00000BF00BF08ED00E0DFF80C00016841F43B
:1001F00070010160704700BF88ED00E0EFF30980F7
:10020000BFF36F8F134B1A681EF0100F08BF20ED5D
:10021000108A20E9F04F106009B44FF0500080F3CD
:100220001188BFF34F8FBFF36F8F07F051FF4FF06F
:10023000000080F3118809BC19680868B0E8F04F25
:100240001EF0100F08BFB0EC108A80F30988BFF3CE
:100250006F8F704744000020EFF305807047000067
:100260000648804706480047FEE7FEE7FEE7FEE750
:10027000FEE7FEE7FEE7FEE7FEE7FEE79157000830
:10028000890100082DE9F05F0546002092469B4653
:1002900088460646814640241BE02846414647469C
:1002A000224600F01CFA53465A46C01A914110D318
:1002B00011461846224600F003FA2D1A67EB010892
:1002C0004F4622460120002100F0FAF917EB000901
:1002D0004E41201EA4F10104DFDC484631462A4687
:1002E0004346BDE8F09F40EA01039B0703D009E0C5
:1002F00008C9121F08C0042AFAD203E011F8013B12
:1003000000F8013B521EF9D27047D2B201E000F86A
:10031000012B491EFBD270470022F6E710B51346A9
:100320000A4604461946FFF7F0FF204610BD30B5D7
:1003300005462A460B4612F8010B13F8014B08B18B
:10034000A042F8D01CB1002802D06D1CF1E728466D
:1003500030BD2DE9FE4F804681EA0300C00F0C46F8
:10036000009021F0004123F00045B8EB0200A941C4
:1003700005D24046214690461C460B46024623F0D5
:100380000040104347D0270DC7F30A00C3F30A51BA
:100390000290401A019040286BDAC3F3130040F436
:1003A000801B0098924620B10023D2EB030A63EB36
:1003B0000B0B01985946C0F14002504600F080F9FD
:1003C00006460D4650465946019A00F098F910EB42
:1003D00008006141002487EA115284EAE7731A4356
:1003E00040D0009A62B3019A012A4FEA075215DC05
:1003F000001B61EB02014FF0004202EA0752CDE917
:100400000042001C41F5801132462B4600F098F95D
:1004100003B0BDE8F08F40462146F9E7001B61EBD1
:100420000201001C41F5801300185B412018A2F561
:10043000001747EB030140EAD570B6196D4111E092
:100440006D084FEA360645EAC0754FEA0752001BB1
:1004500061EB0201001C41F5801149084FEA3000B0
:100460000019514132462B4603B0BDE8F04F00F071
:1004700058B90098012240000023D0EB020263EB40
:10048000E073009821464FEAE074B8EB000061EB9E
:100490000401E9E783F000435BE781F0004158E79E
:1004A0002DE9FE4F81EA030404F0004421F00041ED
:1004B00000944FF0000B23F0004350EA01045ED09B
:1004C00052EA03045BD0C3F30A54C1F30A552C4427
:1004D000A4F2F3340194A0FB0254C1F3130141F4DC
:1004E0008011C3F3130343F4801301FB024400FBA8
:1004F000034E840A970A44EA815447EA8357A4FBCF
:10050000076802958D0A05FB07854FEA932C04FBCB
:100510000C542705029D4FEA065847EA1637B5EBFB
:1005200008056EEB070C870E920E47EA811742EA28
:100530008312A7FB0201B6EB0B0164EB00042B0D49
:1005400043EA0C335E1844EB1C50DA465146E7FB95
:100550000201C5F313044FEA0B3343EA14534FEA85
:100560000432019C43EA0603A4F10C040294009CAB
:10057000CDE900B400F0E4F803B0BDE8F08F00204E
:100580000146F9E72DE9F04D81EA030404F0004B40
:1005900021F0004514464FF0000A23F0004150EAD4
:1005A000050220D054EA01021DD0C5F30A570246C5
:1005B000C5F31303C1F31300C1F30A5640F48015C9
:1005C00043F48013A7EB0608101BD64608F2FD384B
:1005D00073EB050002D308F1010801E092185B41BA
:1005E000B8F1000F03DA00200146BDE8F08D0020CD
:1005F0004FF48011064684460EE0171B73EB050787
:1006000005D3121B63EB050306434CEA010C4908B2
:100610004FEA300092185B4150EA0107EDD152EAEF
:10062000030012D082EA040083EA0501084305D0E2
:10063000101BAB4106D20122002306E000224FF03E
:10064000004302E06FF0010253101AEB06004CEB7E
:10065000085110EB0A0041EB0B01BDE8F04D00F032
:1006600060B8000030B5041E71F1000404DB4FF0E7
:100670000044404264EB0101141E73F1000405DBE9
:100680001C464FF00043524263EB0403994208BFFB
:10069000904230BD30B50B46014600202022012497
:1006A00009E021FA02F59D4205D303FA02F5491B40
:1006B00004FA02F52844151EA2F10102F1DC30BD56
:1006C000202A04DB203A00FA02F100207047914012
:1006D000C2F1200320FA03F3194390407047202A07
:1006E00004DB203A21FA02F00021704721FA02F3DC
:1006F000D040C2F120029140084319467047202A99
:1007000006DBCB17203A41FA02F043EAE07306E039
:1007100041FA02F3D040C2F1200291400843194649
:10072000704710B5141E73F1000408DA401C41F143
:10073000000192185B411A4301D120F0010010BD65
:100740002DE9F04D92469B4611B1B1FA81F202E0DB
:10075000B0FA80F220329046FFF7B2FF04460F460F
:1007600040EA0A0041EA0B0153465A46084313D0B7
:10077000114653EA010019D0C8F140025046FFF774
:10078000AEFF05460E46504659464246FFF798FFD3
:10079000084305D0012004E020463946BDE8F08D2D
:1007A0000020054346EAE0762C4337430A98630568
:1007B000E40AA0EB08000022FD0A44EA47540A308C
:1007C00002D500200146E9E7010510196941DDE97C
:1007D000084500196941BDE8F04DA2E7C1F30A528E
:1007E000C1F3130140F2FF3341F480119A4202DA5F
:1007F00000200146704740F233439A42A2F233424E
:1008000002DC5242FFF76BBFFFF75ABF064C074DA1
:1008100006E0E06840F0010394E8070098471034D0
:10082000AC42F6D3FFF7B4FC088A0008288A000817
:10083000014800F05DBA0000DC000020464910B518
:100840004A6822F440324A604A6843681A434A6060
:1008500001684A6822F480724A6001684A68036944
:1008600042EA03224A6001684A6822F040724A6004
:1008700001684A6883681A434A6001688A6822F4FA
:1008800000628A6001688A68C3681A438A60816A64
:100890006FF07062D14201688A6822F070628A60EB
:1008A00001688A680CD0836A1A438A6001688A6882
:1008B00022F040528A6001688A68C36A1A4301E0E4
:1008C00022F040528A6001688A6822F002028A603F
:1008D00001688A68037E42EA43028A6090F8201029
:1008E000002901684A680FD042F400624A6001683A
:1008F0004A6822F460424A6001684A68174C436AB9
:1009000004EB43331A4301E022F400624A600168B9
:10091000CA6A22F47002CA620168CA6A838B104CE8
:1009200004EB03531A43CA6201688A6822F4007216
:100930008A6001688A6890F8303042EA43228A600F
:1009400001688A6822F480628A6001688A68406966
:1009500042EA8020886010BD0023014000E0FFFFD4
:100960000000F0FF10B501240821034800F094FDB9
:1009700000B10024204610BD000C0240704700006A
:100980000146014802F0D4B94401002010B50448E2
:1009900002F0E0F9042801D0012010BD002010BDB4
:1009A0004401002010B500F015F8012801D0012005
:1009B00010BD074802F0E8FA040006D14FF40061C8
:1009C000034802F05BF800B10124204610BD00008E
:1009D0004401002008B501208DF80000FFF7C2FF98
:1009E00010B900208DF800009DF8000008BD00003F
:1009F000134610B50A4601460024034802F0C0FB26
:100A000000B10124204610BD4401002008B501209A
:100A1000ADF80000034800231A466946406807F015
:100A2000A9F808BD20000020134610B50A4601466B
:100A30000024034802F03EFC00B10124204610BD12
:100A40004401002008B50220ADF80000034800234F
:100A50001A466946406807F08DF808BD200000205E
:100A6000FEE70000014800F09BBA000040030020B0
:100A7000014800F095BA000060050020014800F030
:100A80008FBA000028020020014800F089BA000057
:100A9000E0020020014800F083BA0000C8010020F5
:100AA000014800F07DBA000000050020016818230D
:100AB000CAB2103AB2FBF3F2054B6FF30901032AF5
:100AC0009B5CC36500D9091D81650846704700001D
:100AD000E889000810B5014600208B698A6A4FF04A
:100AE000C07453B1B3F5005F15D072B1012A0CD0B8
:100AF000022A0AD0032A09D104E01AB1012A06D039
:100B0000022A03D1C96AC90100D5012010BDC96AF2
:100B1000A142FAD010BD002AF7D0012AF2D0022A51
:100B2000F3D0032AF3D010BD30B50468256825F44E
:100B300080252560046863608368402B036803D0C8
:100B400099600068C26030BD9A600068C16030BDC5
:100B5000704772B6FEE70022AFF3008030B50E4B4F
:100B6000054601205C7A002C14D1587A1C54587A1E
:100B700003EB800045605D7A03F108002A54587A3F
:100B8000421C5A72303008703A2048702F2088700A
:100B9000CC70002030BD0000080600207047000027
:100BA00078B50024009490F83C20012A19D0012245
:100BB00080F83C200A6807230568092A13D9EE68E3
:100BC0000A3A02EB420293409E43EE600B788A6839
:100BD0000A3B03EB43039A400368DD682A43DA606B
:100BE00010E0022078BD2E6902EB420293409E4342
:100BF0002E610B788A6803EB43039A4003681D69F2
:100C00002A431A614A681F23072A13D205686E6BAC
:100C1000521E02EB820293409E436E630B790A8858
:100C20005B1E92B203EB83039A4003685D6B2A4319
:100C30005A6327E005680D2A12D22E6BD21F02EBF1
:100C4000820293409E432E630B790A88DB1F92B287
:100C500003EB83039A4003681D6B2A431A6311E078
:100C6000EE6A0D3A02EB820293409E43EE620B79EC
:100C70000A880D3B92B203EB83039A400368DD6A56
:100C80002A43DA62164B0568144A9D4206D10D6864
:100C9000122D03D1556845F48005556005689D42C5
:100CA00018D10B68102B01D0112B13D1536843F4CA
:100CB00000035360096810290CD10A490A4A0968DF
:100CC000B1FBF2F101EB8101490000E0491E009106
:100CD0000029FBD180F83C40002078BD0023014072
:100CE000002001403C00002040420F007047704748
:100CF00070B5044600680668456816F0020F05F0F6
:100D000020012AD049B3216CC90603D4216C41F4D7
:100D100000712164816811F0405F17D1217EA9B96B
:100D2000C16A11F4700F02D0816849050ED4416880
:100D300021F020014160206C20F480702064206C40
:100D4000C00403D4206C40F0010020642046FFF76B
:100D5000CDFF21686FF01200086016F0040F05F057
:100D6000800132D089B3206CC00603D4206C40F4DB
:100D7000005020642068816811F4401F1ED1816BEF
:100D800011F4401F02D08168490517D44168490514
:100D900014D4816811F0405F10D1217E71B941688F
:100DA00021F080014160206C20F480502064206C90
:100DB000C00503D4206C40F0010020642046FFF7FA
:100DC000EDFE21686FF00C00086016F0010F05F0D1
:100DD00040010FD071B120680068C0070AD0206CB4
:100DE00040F480302064204600F043F821686FF022
:100DF0000100086016F0200F05F080610ED0002978
:100E00000CD0606C40F00200606420686FF0200538
:100E100005602046FFF76BFF2068056070BD70B568
:100E200004004FF0000503D0206C002610B107E04D
:100E3000012070BD204600F01DF8666484F83C6017
:100E4000206CC00610D4206C20F4885040F00200C2
:100E500020642046FFF7F2FC6664206C20F002005C
:100E600040F00100206400E0012584F83C60284641
:100E700070BD704710B586B0044614216846FFF770
:100E80004BFA15492068884224D114480021026891
:100E900042F480720260006800F4807005900F4890
:100EA0001438026842F001020260006800F001009C
:100EB0000590022000900320CDE901016946084811
:100EC00000F0F2F900220521122000F097FB122019
:100ED00000F086FB06B010BD0020014044380240FF
:100EE000000002402DE9F0410446876D00F0DEFA73
:100EF000064694F835000025022806D0802060655B
:100F000084F834500120BDE8F0812068016821F0A8
:100F1000160101602068416921F080014161206C67
:100F200008B9A06C20B12068016821F008010160B7
:100F30002068016821F0010101600CE000F0B6FAC0
:100F4000801B052807D920206065032084F8350020
:100F500084F83450D7E720680068C007EED194F8D1
:100F60005C103F208840B860012084F8350084F888
:100F700034500020C7E790F83510022903D08021B3
:100F8000416501207047052180F83510006801682F
:100F900021F00101016000207047406D70470000A2
:100FA0002DE9F84304464FF00009CDF8009063485E
:100FB0004FF41651A56D0068B0FBF1F72E6894F858
:100FC0005C10082000FA01F131420FD021680A6854
:100FD00052070BD50A6822F004020A6094F85C10EC
:100FE0008840A860606D40F00100606594F85C1076
:100FF0004FF0010808FA01F0304208D02168496931
:10100000090604D5A860606D40F00200606594F8A0
:101010005C1004208840304208D0216809688907A4
:1010200004D5A860606D40F00400606594F85C1021
:1010300010208840304218D021680968090714D56B
:10104000A86020680168490304D50068000308D53A
:10105000A16C07E00168C90503D4016821F008010B
:101060000160216C09B12046884794F85C1020206B
:101070008840304231D021680968C9062DD5A86062
:1010800094F8350005282068016806D0490347D543
:10109000006800031DD4616C1CE021F016010160A2
:1010A0002068416921F080014161206C08B9A06C81
:1010B00020B12068016821F00801016094F85C10FB
:1010C0003F208840A86084F8358084F83490216DF2
:1010D0001FE0E16B09B120468847606D00282BD0E6
:1010E000606DC00714D0052084F8350020680168C1
:1010F00021F0010101600098401C0090B84203D823
:1011000020680068C007F6D184F8358084F83490F0
:10111000E16C002910D001B02046BDE8F04308473B
:101120000168C905D5D4016821F01001016084F877
:10113000358084F83490CCE7BDE8F8833C0000208B
:101140002DE9F041044600F0B1F906465CB10220F9
:1011500084F83500002584F834502068016821F0B7
:10116000010101600DE00120BDE8F08100F09EF971
:10117000801B052805D920206065032084F83500F0
:10118000F2E720680068C007F0D1226811682048A3
:101190000140D4E901031843D4E90336334318432B
:1011A00063691843A3691843E3691843236A184322
:1011B0000843616A042903D1D4E90B131943084396
:1011C000106020684069666A20F0070130460E43CF
:1011D000012704280CD1A06A0643E06A40B12046EA
:1011E000FFF778FC20B14020606584F83570BAE7DD
:1011F000206846612046FFF759FC94F85C203F21A7
:1012000091408160656584F835700020ACE700008E
:101210003F8010F02DE9F0410446866D90F83400CF
:10122000002501280DD0012084F8340094F8357091
:101230000020012F07D084F8340002252846BDE89D
:10124000F0810220FBE7022784F8357060652046B4
:10125000FFF76AFC94F85C103F208840B06020687B
:10126000016841F016010160206C20B1206801681E
:1012700041F0080101602068016841F0010101604E
:10128000DCE7000070B5044600F010F90546601C6C
:1012900002D004480078044400F008F9401BA04242
:1012A000FAD370BD300000202DE9F84FDFF8BCA163
:1012B0000022012503264FF00F090AF1040BAAF1C1
:1012C000040E00BF0B6805FA02F42340A34270D15C
:1012D0000F7907F00307012F01D0022F16D187687D
:1012E0004FEA420806FA08FC27EA0C07D1F80CC0BE
:1012F0000CFA08FC4CEA070CC0F808C04768A74382
:101300000C79C4F3001494403C4344600C79E443EA
:10131000A4070AD0C4684FEA420C06FA0CF7BC4393
:101320008F6807FA0CF72743C7600C7904F00304B1
:10133000022C12D1D40800EB840CDCF820405707B3
:10134000FF0E09FA07F824EA0804D1F8108008FA19
:1013500007F848EA0408CCF8208004684FEA420CF9
:1013600006FA0CF7BC430F7907F0030707FA0CF7EE
:10137000274307604C6814F4403F70D03C4C27680A
:1013800047F480472760246822F0030704F4804470
:101390000094384C07EB040CDCF8084897074FEA38
:1013A000177809FA08F7BC43334FB84202D1002737
:1013B00024E054E0314FB84201D101271EE0304F04
:1013C000B84201D1022719E02E4FB84201D10327BC
:1013D00014E02D4FB84201D104270FE02B4FB84243
:1013E00001D105270AE02A4FB84201D1062705E0BE
:1013F000284FB84201D1072700E0082707FA08F76D
:101400002743CCF80878DAF800405746D1F804C0F2
:101410009C435FEACC2C00D51C433C60DBF80040C9
:101420005F46D1F804C09C435FEA8C2C00D51C4376
:101430003C60DEF800407746D1F804C09C435FEA88
:101440008C3C00D51C433C60084F083F3C68D1F8F9
:1014500004C09C435FEACC3C00D51C433C60521C5A
:10146000102AFFF42FAFBDE8F88F0000083C0140C0
:1014700044380240003001400000024000040240B5
:1014800000080240000C024000100240001402401C
:1014900000180240001C02400069084000D00120F2
:1014A00070470AB1816170470904FBE70148806811
:1014B0007047000030000020024881680278114423
:1014C00081607047300000200B4810B5016841F47E
:1014D00000710160016841F480610160016841F4BC
:1014E00080710160032000F0A9F80F2000F006F8D9
:1014F00000F050F8002010BD003C024030B5054619
:101500001F4887B00024016841F0100101600068A5
:1015100006A900F01000009001A800F0F7FD049863
:10152000A8B100F019FE40001649174AB0FBF1F1CE
:101530001648491E026040F2E732C0E90324C0E9C0
:101540000114846102F05AF8040003D015E000F0A1
:1015500003FEE9E70D4802F0D3F804000DD1362070
:1015600000F03EF8102D07D200222946362000F068
:1015700045F80748056000E0012407B0204630BD6B
:101580004038024040420F0000100040C0050020DB
:1015900034000020114808B5016841F48041016021
:1015A000006800F4804000900C48001F016841F082
:1015B000805101600068002200F0805000900F21EF
:1015C000901E00F01BF805210022084600F016F8D6
:1015D000BDE80840052000F003B800004438024090
:1015E000002809DB00F01F02012191404009800022
:1015F00000F1E020C0F8001170470000F0B40E4B7D
:101600001B680C46C3F30223C3F10705042D00D960
:101610000425191D072901D2002300E0DB1E012645
:1016200006FA05F1491E214099409E40761E16405B
:101630003143F0BC05F008BC0CED00E0064900F0B9
:10164000070208684FF6FF03184040EA0220034AE9
:1016500010430860704700000CED00E00000FA0540
:101660007047D0F8080504F02FBD01EBC10200EB74
:101670008202D0F80805D26C04F084BC01EBC102F0
:1016800000EB8202D0F80805D2F88C2204F0D5BC19
:10169000D0F8080504F01ABD0A0601F00F0101EBAD
:1016A000C10100EB810101D53C3101E001F51F7161
:1016B000006805F051BA70B5044601F00F00626889
:1016C000904201D9012070BD0B0601F00F0101EB22
:1016D000C10104EB81014FF001024FF0000503D579
:1016E00081F83D203C3103E081F87D5201F51F7106
:1016F0008D70087094F8BC04012808D084F8BC24CC
:10170000206805F0DFF884F8BC54002070BD02208A
:1017100070BD2DE9F04104460F0601F00F0000EB0B
:10172000C00104EB81014FF001064FF0000503D525
:1017300081F83D603C3103E081F87D5201F51F7175
:101740000870CA600B714A7802B10881022B00D17F
:101750004D7194F8BC04012809D084F8BC64206859
:1017600004F0A8FF284684F8BC54BDE8F0810220AC
:10177000FBE770B50C4601F00F0505EBC50100EB6A
:101780008101C1F89432C1F88C220023C1F89C3247
:1017900081F87D3281F87C52036901F51F71012BBC
:1017A00000D14A612207027C006803D005F0E2F80C
:1017B000002070BD04F0CCFFFAE770B504460D467A
:1017C00001F00F006168884201D9012070BD29062F
:1017D0004FF000064FF0010207D500EBC00104EB0B
:1017E000810181F83D203C3107E005EBC50104EBA8
:1017F000810181F87D6201F51F718A70087094F88B
:10180000BC04012807D084F8BC24206805F086F8C1
:10181000280702D007E0022070BD217C04F2C442F8
:10182000206805F023F884F8BC64002070BD70B512
:101830000C4601F00F0505EBC50100EB81014B657E
:10184000CA640023CB65012381F83D3001F83C5F79
:101850000369012B00D14A612207027C006803D092
:1018600005F088F8002070BD04F072FFFAE7000070
:101870002DE9FC5F05680446284605F0EAF90028D2
:101880007DD1206805F011FA002878D0D5F8080835
:10189000C0F30D20C4F8FC04206805F006FA8007A8
:1018A00004D52068416901F002014161206805F01A
:1018B000FCF9C10604F2C440009034D52068816967
:1018C00021F0100181612F6A07F00F0000EBC000CA
:1018D00004EB8006C7F3434006F51F76022802D0CA
:1018E000062811D01AE047F6F070074216D0C7F369
:1018F0000A1217462846316905F0DBF93069384489
:101900003061306A384408E008222846009905F022
:10191000D0F9306AC7F30A1108443062206881693F
:1019200041F010018161206805F0BFF900034FF01C
:10193000080B4FF0000A4FF001097CD50026206803
:1019400005F092F9074674E0F80770D0F1B220680C
:1019500005F0A3F98046C00707D005EB4611C1F892
:10196000089B3146204602F06DFF5FEA087024D5DF
:1019700005EB4611C1F808BB2068016C00E025E2C8
:1019800000EB46100191D0F8082BFC4B994205D989
:10199000110403D54FF40041C0F8081B204600F0A5
:1019A00051FAF6490198884207D92069012804D1E3
:1019B00020680121009A04F059FF5FEAC86004D54D
:1019C00005EB46111020C1F8080B5FEA88701DD5A1
:1019D0006869000605D5D5F8040840F48061C5F8AB
:1019E000041806EBC60004EB800090F87F1200F5A7
:1019F0001F70012905D180F803A0F1B2204600F044
:101A0000EBF905EB46110220C1F8080B5FEA88608C
:101A100004D505EB46102021C0F8081B5FEA88407A
:101A200005D505EB46104FF40051C0F8081B7F08A0
:101A3000761C002F88D1206805F037F940036FD558
:101A4000206805F00AF90746002667E0F80763D02A
:101A5000F1B2206805F00FF98046C00723D006F0E8
:101A60000F0209FA02F0D5F834288243C5F8342869
:101A700005EB4610C0F80899206901280FD106EB44
:101A8000C60004EB8000D0E912211144C16436B9CC
:101A9000606D20B920680121009A04F0E7FEF1B2E0
:101AA0002046FFF7E2FD5FEA087003D505EB46111B
:101AB000C1F808B95FEAC86004D505EB46111020EB
:101AC000C1F808095FEA486004D505EB46104021DB
:101AD000C0F808195FEA887017D53146284605F026
:101AE0008BF806EBC60004EB800090F83F103C300A
:101AF000012905D180F803A0F1B2204600F068F971
:101B000005EB46110220C1F808095FEA086003D519
:101B10003146204602F0FCFE7F08761C002F95D14E
:101B2000206805F0C2F8002811DAD5F8040820F082
:101B30000101C5F8041894F8F40401282BD02046BC
:101B400000F064F92068416901F0004141612068BA
:101B500005F0ABF800050BD5D5F80808C00702D092
:101B6000204600F077F92068416901F40061416185
:101B7000206805F09AF8C00466D5D5F8040820F06E
:101B80000100C5F804081021206805F035F800218F
:101B90004FF67F321FE084F8F4A400212046FFF7BF
:101BA0005FFDCFE705EB4110C0F80829D0F80039F8
:101BB00023F40013C0F80039C0F8082BD0F8003B1C
:101BC00023F40013C0F8003BD0F8003B43F000635F
:101BD000C0F8003B491C60688842E3D8D5F81C086F
:101BE00040F00111C5F81C18206B002828460DD0C4
:101BF000D0F8840840F00B01C5F88418D5F84408E3
:101C000040F00B012846C5F844180DE0D0F8140840
:101C100042F22B010843C5F81408D5F8100840F02B
:101C20000B012846C5F81018D0F8000820F4FE6112
:101C3000C5F80018217C2068009A04F017FE20687F
:101C4000416901F480514161206805F02EF880045B
:101C500015D5206804F06EFD206804F0EDFFE0600B
:101C600000F074FA0146227B206805F053F8204604
:101C700000F0B6F82068416901F400514161206824
:101C800005F013F8000707D5204600F0C3F82068D8
:101C9000416901F008014161206805F006F800067D
:101CA00016D5A86920F08000A86101260DE000BFCC
:101CB00006EBC60004EB800090F87F02012803D1F8
:101CC000F1B22046FFF7E8FC761C6068B042EFD81E
:101CD000206804F0EAFFC00221D501264F4616E035
:101CE00005EB4610D0F8001906EBC60004EB8000A7
:101CF00090F84020012A09D1002907DA80F83F70C6
:101D0000F0B240F080012046FFF7C6FC761C606808
:101D1000B042E5D82068416901F480114161206832
:101D200004F0C3FF800234D501204B4629E000BFF8
:101D300005EB4011D1F8001B00EBC00204EB82065A
:101D400096F88022012A1BD1002919DA94F8FC2484
:101D500001F4803102F00102914211D186F87F3204
:101D6000A96941F08002AA616969090608D4D5F819
:101D7000040840F40070C5F8040805E00A30544F28
:101D8000401C61688142D3D82068416901F4001188
:101D90004161206804F089FF400007D52046FFF725
:101DA00060FC2068416901F080414161206804F0D5
:101DB0007CFF40070AD520684568680702D52046A1
:101DC000FFF766FC2068416829434160BDE8FC9F3D
:101DD000D0F8080504F099B9D0F8080504F0A9B9BD
:101DE00070B50446C068012570B1022801D0FEF725
:101DF000B0FE2946D4F8080504F009FAD4F808051D
:101E0000BDE8704004F0BEB90025F2E7D0F808053F
:101E100004F0E6B9D0F8080504F0ECB910B50446B2
:101E200090F8BC0401280BD0012084F8BC0484F88D
:101E30003810206804F05CFF002084F8BC0410BD5A
:101E4000022010BDD0F8082500F2C441104604F06D
:101E5000EAB9000010B50446D0F8080504F01CFAF1
:101E60002068D0F8001E41F00101C0F8001E206A71
:101E7000002804D00248016841F00601016010BD4D
:101E800010ED00E0034908B501200862024800682F
:101E9000009008BD00000E42007000402DE9F8439C
:101EA000054600684FF00109C1074FF0000601D157
:101EB000400727D5DFF80C81C8F86860FFF7F6FA0D
:101EC0000746414C05E000BFFFF7F0FAC01B0228AF
:101ED00057D820680001F7D468688101287A41EA60
:101EE0000070394984310860C8F86890FFF7DEFA5D
:101EF000074604E0FFF7DAFAC01B022841D8206841
:101F00000001F7D52878800752D52F484030016866
:101F100041F08051016000682C4C00F0805000902E
:101F2000206840F480702060FFF7C0FA074604E0A4
:101F3000FFF7BCFAC01B022823D82068C005F7D5DC
:101F4000214C7034206810F4407020D0A98901F42D
:101F5000407181421BD020681D4920F44070C1F8B7
:101F600000900E6020602068C00710D0FFF79EFA36
:101F7000064641F2883707E0FFF798FA801BB8421F
:101F800002D90320BDE8F88320688007F4D5E9680A
:101F90000D48C1F301220830032A0BD0016821F457
:101FA000F81101602068A989C1F30B010843206082
:101FB0000020E7E70268074B22F4F81219400A43B1
:101FC0000260EFE700004742003802400070004026
:101FD000400E4742FFFCFF0F2DE9F0470E4605007B
:101FE00065D0DFF81481D8F80000F7B200F00700E0
:101FF000B04207D288F80070D8F8000000F007005F
:10200000B04254D128683D4C810712D5400703D512
:10201000206840F4E05020602878000703D520684D
:1020200040F4604020602068A96820F0F000084378
:1020300020602878C0072DD0304968680839012809
:1020400012D0022813D0032811D00968890700296B
:102050002DDA216821F0030101432160FFF726FA00
:10206000814641F2883A0EE009688903EFE7096882
:102070008901ECE7FFF71AFAA0EB0901514502D9F3
:102080000320BDE8F0872068696800F00C00B0EB21
:10209000810FEFD1D8F80010404601F00701B1429E
:1020A00007D90770006800F00700B04201D0012096
:1020B000E7E72878400705D52068E96820F4E05074
:1020C000084320602878000706D52068296920F495
:1020D000604040EAC100206000F05EF82168084AD4
:1020E000C1F30311515CC840064908600648006806
:1020F000FFF704FA0020C4E7003C02400838024021
:10210000F08900083C000020340000200F2202600B
:102110000C4A136803F003034360136803F0F003F1
:102120008360136803F4E053C36012684FF4E05314
:1021300003EAD20202610448006800F00700086068
:102140007047000008380240003C02400148006827
:10215000704700003C0000200448054900680968F9
:10216000044AC1F38221515CC84070473C00002002
:1021700008380240008A00080448054900680968D8
:10218000044AC1F34231515CC84070473C00002012
:1021900008380240008A0008154810B5006810F0A1
:1021A0000C02144813D04110042A0FD0082A0ED173
:1021B0000F4C241F2268236802F03F025B0207D500
:1021C0002068C0F38810A0FB010106E0084610BD9E
:1021D0002168C1F38811A1FB00010023FEF752F82A
:1021E0002168C1F30141491C4900B0FBF1F010BD69
:1021F000083802400024F4002DE9F84F04006ED0A6
:102200002078DFF84C93C007A9F104054AD009F102
:1022100004000168C1F38101012908D00068C0F3FE
:10222000810002280AD1D9F80000400206D52868AA
:10223000800337D560680028E1D033E06068B0F5EE
:10224000803F10D0B0F5A02F286810D020F4803047
:102250002860286820F4802028606068A8B1FFF713
:1022600025F906460DE0286840F48030F4E740F494
:1022700080202860F7E700BFFFF718F9801B64286B
:1022800073D828688003F7D50CE0FFF70FF90646EE
:1022900005E000BFFFF70AF9801B6428F0D8286822
:1022A0008003F7D42078DFF8AC8280074FF0000A73
:1022B0003ED5A748001D016811F00C0F08D000683A
:1022C000C0F3810002280BD1D9F80000400207D4E6
:1022D0002868800716D5E068012800D112E033E1B4
:1022E000E068B8B10120C8F80000FFF7DFF8064643
:1022F00005E000BFFFF7DAF8801B0228C0D8286885
:102300008007F7D52868216920F0F80040EAC1006D
:1023100028600DE0C8F800A0FFF7C8F8064604E002
:10232000FFF7C4F8801B02281FD828688007F7D45D
:102330002078000722D5864F87486169703771B1D0
:1023400001210160FFF7B2F8064604E0FFF7AEF89E
:10235000801B022809D838688007F7D50EE0C0F83E
:1023600000A0FFF7A3F8064605E082E0FFF79EF81D
:10237000801B02287DD838688007F7D42078400772
:1023800068D5DFF8CCB100270BF13C0BDBF800007F
:10239000C0000BD4DBF8001041F08051CBF80010E6
:1023A000DBF80000012700F0805000906B4E306891
:1023B000C00510D4306840F480703060FFF776F8C4
:1023C000009005E0FFF772F80099401A022850D8F3
:1023D0003068C005F6D55E4EA0686C3601280FD077
:1023E0000528306810D020F001003060306820F0FF
:1023F00004003060A068B8B1FFF758F800900FE013
:10240000306840F00100F4E740F004003060F7E786
:10241000FFF74CF80099411A41F28830814266D8A2
:1024200030688007F4D50EE0FFF740F8009007E031
:10243000FFF73CF80099411A41F28830814256D8A2
:1024400030688007F4D42FB1DBF8001021F0805100
:10245000CBF80010A069C8B33D49091D0968C1F354
:10246000810102294AD00228504607D0C8F86000EE
:1024700000E03CE0FFF71AF804463BE04746C8F8A6
:102480006000FFF713F8064605E000BFFFF70EF8FF
:10249000801B02282BD828688001F7D4D4E90701D3
:1024A0000843A16A2E4A490802EB0141626A41EAE7
:1024B0008211084394F82C1040EA0161C9F8001019
:1024C00001203866FEF7F2FF044606E03EE000BF5A
:1024D000FEF7ECFF001B022809D828688001F7D519
:1024E00034E000BFFEF7E2FF001B022802D9032000
:1024F000BDE8F88F28688001F4D427E00128F7D0E0
:10250000D9F80000E26900F4800191421CD1226AEE
:1025100000F03F01914217D147F6C071626A014055
:10252000B1EB821F10D1A26A4FF0FF3300F44031AB
:1025300003EB5202B1EB024F06D194F82C1000F0DD
:102540007060B0EB016F01D00120D1E70020CFE730
:102550000438024000004742800E474200700040AD
:102560000000FFFF70470068503050F821007047AE
:102570000068503040F821207047704710B504467D
:1025800000688168C9040CD5C068C00509D520461B
:10259000FFF7F3FF2068C16801F0800161F4C071AA
:1025A000C1602068816889040CD5C068800509D5A0
:1025B0002046FFF7D7FF2068C16801F0800161F471
:1025C0002071C16003494FF400300860012060773A
:1025D00010BD0000143C014010B500680B46416876
:1025E0000D480140080CD870C1F304245C7001F060
:1025F0003F049C70C1F34231197052B902F01CFAC9
:10260000D870587802F018FA5870987802F014FAD6
:102610009870002010BD00003FFFFF0010B50B4672
:102620000168896A596001680969C1F30E019960FE
:10263000006801680D480140C1F305401870C1F3FE
:1026400006245C7001F07F049C70890DD97052B92A
:1026500002F0F2F91870587802F0EEF95870987894
:1026600002F0EAF99870002010BD00007F7F7F0023
:1026700010B5040002D0607F10B106E0012010BD4B
:1026800000202077204600F039F80220607721688A
:10269000CA204862216853204862204602F0E2F9CD
:1026A00030BB20688168144A1140816021688868C5
:1026B00062681043D4E904231A43104388602168F8
:1026C000E068086120680169228941EA02410161EC
:1026D000204602F0EBF958B921680A6C22F48022F6
:1026E0000A6421680A6CA3691A430A6401216177AC
:1026F0002268FF21516210BDBFFF8FFF1FB500216F
:10270000009101910291039100680C49884214D113
:1027100002200090C00103906846FFF7BFFB08B19C
:10272000FEF717FA0649012008600022052129203A
:10273000FEF764FF2920FEF753FF1FBD002800406D
:102740003C0E47422DE9F843644E03464FF4FA47E6
:1027500030680C46B0FBF7F0791148430090187FC1
:10276000012877D04FF0010983F81C900220587798
:1027700018680025002A80684FEA40606CD0002865
:1027800000DBE570A078227894F803C040EA0240AC
:102790006278E169120242EA8C52104394F82020D8
:1027A00040EA026008436169A26908436168D3F89E
:1027B00000C01143CA22CCF82420D3F800C0532211
:1027C000CCF82420626AFF24B2F5807F1A684FF0AB
:1027D000030C5CD0D2F8088028F40078C2F8088096
:1027E0001A68D2F80C8008F0800868F42078C2F8E3
:1027F0000C8032684FF47A76B2FBF7F272430092A3
:102800001A68009E771E009761D3D668B607F8D580
:102810001062186881641868816841F400718160F1
:102820001868816841F4005181602D48016841F4C5
:10283000003101602A480830016841F4003101602C
:102840001868446283F81D901D770020BDE8F88366
:1028500000E001E00220F9E7002800DBE5702078C5
:1028600002F0F3F80204607802F0EFF842EA002286
:10287000A07802F0EAF80243E07842EA805294F845
:10288000200002F0E2F842EA0060E1698AE7966817
:1028900026F4807696601A68D66806F0800666F49C
:1028A000C076D6601A68009E771E00970FD3D66850
:1028B000F607F8D0D061186841641868816841F45F
:1028C000807181601868816841F48051ACE754627E
:1028D00083F81DC01D770320B8E700003C000020EE
:1028E000003C014070B50446007F0B46012819D01A
:1028F0000126267702206077B2B19878D97840EA2D
:10290000014558781978000240EA413005432168B2
:10291000CA204862216853204862204602F0A2F88B
:10292000D0B122E0022070BD5878C10603D500F076
:10293000EF000A305870D87802F087F8020458780F
:1029400002F083F842EA0022987802F07EF802430F
:10295000187842EA4035DAE70748054020684560C4
:10296000204602F0A3F800B966772268FF21516281
:102970000021217770BD00003FFFFF002DE9F041ED
:102980000446007F0D46012823D04FF0010884F84B
:102990001C80022060772068002780684FEA406032
:1029A000D2B1002800DBEF70A878297840EA014610
:1029B0006878E978000240EA815006432168CA201D
:1029C0004862216853204862204602F04BF8B8B1B3
:1029D0002CE00220BDE8F081002800DBEF702878B1
:1029E00002F033F80204687802F02FF842EA00227D
:1029F000A87802F02AF80243E87842EA8056DDE738
:102A00000D480640206806602068816821F4802116
:102A10008160D5E90301084321688A681043886012
:102A2000204602F043F808B984F81D802268FF218F
:102A300051622777CEE700007F7F7F0070B50446A4
:102A40000068C16821F0A001C160FEF72FFD0546B6
:102A50004FF47A7607E000BFFEF728FD401BB04236
:102A600001D9032070BD2068C0688006F4D500201D
:102A700070BD10B5FDF782FF10BD00002DE9FE43CB
:102A80000446002603200D4684F83400606C0328B9
:102A90005ED0B5F5805F5BD04FF4006700204FF04B
:102AA0008068BD421FD181460090019000212068BE
:102AB00002F027F8800113D46946204602F014FC86
:102AC00007000DD10198400334D5B4F8500001043B
:102AD000206802F04DF8070002D10221206823E0AF
:102AE000A06B384328E01DB1A06B40F0006023E0EC
:102AF0008146009001900021206802F002F88001D8
:102B0000EED46946204602F0EFFB0700E8D10198B9
:102B1000C0030FD5B4F850000104206802F028F873
:102B20000700DDD10021206802F06FF80700D7D13F
:102B30004F46D5E74746D3E7A063A06B144F4FF04D
:102B4000010848B12068876384F8348001260EE0CC
:102B5000A06B40F08050EFE7211DD4E9050C0EC9B1
:102B6000CDE90050CDF808C0206801F0D3FF4FF444
:102B70000071206802F030F828B121688F63A16BE2
:102B80000143A163012684F834803046BDE8FE830A
:102B9000FF05400070470000F0B5426E920F0A70CA
:102BA000426EC2F383624A70426EC2F301628A705F
:102BB000426E120CCA70B0F86420120A0A7190F8C2
:102BC00064204A71826E120DCA80826EC2F3034283
:102BD0000A72B0F86820C2F3C0324A72B0F86820B6
:102BE000C2F380328A72B0F86820C2F34032CA72EF
:102BF000B0F86820C2F300320A7300264E73426CAC
:102C00004FF40075012462B1012A3AD002684749A5
:102C10009163816B41F08051816380F834400120E1
:102C2000F0BDB0F86820C36E9205120D42EA9372AF
:102C30000A61C26EC2F3C2620A75C26EC2F3026258
:102C40004A75C26EC2F342528A75C26EC2F38242A4
:102C5000CA75C26EC2F3C2320A760A69521C426554
:102C60000B7E03F007039B1C9A4042650B7A03F02E
:102C70000F0704FA07F383655B0A5A43C0E9172577
:102C80000EE090F86820C36E9206920A42EA134260
:102C90000A610A69521C92024265C0E91652056631
:102CA00030F86C2FC2F3803201F8192F0288C2F37A
:102CB000C6124A70027802F07F028A704268D20F10
:102CC000CA704268C2F341720A714268C2F38262FA
:102CD0004A714268C2F383528A714268C2F3405219
:102CE000CA710E724268C2F300424A728288C2F30D
:102CF000C0328A728288C2F38032CA728288C2F37A
:102D000040320A738288C2F300324A738288C2F367
:102D100081228A738288C2F30122CA730079C0F3C8
:102D2000460008744C740020F0BD0000FF05400010
:102D3000426C0A60826C4A60C26C8A60026DCA6032
:102D4000426D0A61826D4A61C26D8A61006EC8611E
:102D50000020704770B50446B0F85000002501040B
:102D6000206802F03AF818B1A16B0143A16304E0B6
:102D70000021206801F0C5FE0546C5F3432070BD63
:102D8000F8B5056B04460068416B09041BD529079B
:102D900019D5D4E90A56002E14D00027206801F076
:102DA000CFFE05F8010B010A05F8011B010C05F81F
:102DB000021B000E361F7F1C05F8010C082FEDD3F7
:102DC000C4E90A56F8BD416B4FF00006C9054FF043
:102DD000010744D5390281632068C16B4CF23A3255
:102DE0009143C1632068C16A21F00101C1622807D3
:102DF0001DD515F0220F09D0206802F01FF828B168
:102E0000A16B0143A1632046FFF7C4FE216840F295
:102E10003A50886384F834702663A80703D02046AC
:102E200000F040FAF8BD204600F040FAF8BD280650
:102E3000FCD5A80609D5206802F000F828B1A16BDE
:102E40000143A1632046FFF7A5FEA807EED1206845
:102E5000C16A21F00801C16284F83470E3E7416B74
:102E6000490424D5290722D5D4E90856002EDDD0FF
:102E70005FF0000715F8010B009015F8011B361FD5
:102E800040EA0120009015F8021B40EA0140009042
:102E900015F8011C40EA016000906946206801F0C5
:102EA00062FE7F1C082FE5D3C4E90856F8BD416BCC
:102EB00040F23A221142F9D0416B890703D5A16B48
:102EC00041F00201A163416B090703D5A16B41F0F9
:102ED0000801A163416B890603D5A16B41F0200174
:102EE000A163416BC90603D5A16B41F01001A16339
:102EF000416B890503D5A16B41F00801A16340F244
:102F00003A7181632068C16B40F23A329143C163E8
:102F1000206801F093FFA16B0843A063280706D542
:102F200084F8347026632046FFF734FEF8BD280687
:102F3000FCD515F0300F0CD0E16B11480865E06B43
:102F4000FEF719F80028F1D0E06BBDE8F84002F078
:102F5000A9B9A8070CD0216C0A480865206CFEF7B7
:102F60000AF80028E2D0206CBDE8F84002F071B900
:102F7000A66384F8347026632046FFF77AFDF8BD17
:102F8000A55200085352000870B504000ED094F802
:102F90003400002518B92577204600F04FF80320AB
:102FA00084F83400204600F00BF808B1012070BD11
:102FB000A5632563012084F83400002070BD000063
:102FC000FEB50025044676200095CDE9015029463E
:102FD0000B460A46206801F09DFD48BB154E46F899
:102FE000A05F206801F0A8FD012535600220FEF7F2
:102FF00049F9204602F05CFA30B100BF84F8345041
:10300000A16B0143A16313E0204602F0DAF9002826
:10301000F4D14FF40071206801F0DEFD002808D0E3
:10302000226805499163A16B0143A16384F8345080
:103030000120FEBD00802542FF0540002DE9F04F34
:1030400087B0054614216846FDF766F946492868A9
:1030500088427DD145480068444940F400600860DA
:10306000086800F4006005904048143800683F4943
:1030700040F0040014390860086800F0040005906E
:10308000086840F0080008600868032600F008009F
:1030900005904FF4F8500090022001900020CDE9F7
:1030A00002060C24694604943148FEF7FDF8042713
:1030B0000220CDE900700020CDE9020669460494A3
:1030C0002C48FEF7F1F82D4C2B484FF00068C4E96E
:1030D00000080020A060E06038022061C4E90976A1
:1030E000800004F114014FF480494FF0200A4FF49E
:1030F000003B81E8010EC60247022046C4E90B6787
:10310000FEF71EF808B1FDF724FD2C64A5631B4CE7
:10311000194860344838C4E900084020A060002005
:10312000E0604FF48060206104F11401800081E8C8
:10313000010E042060621431032081E8C1002046A2
:10314000FDF7FEFF08B1FDF704FDEC63002200E08F
:1031500007E005213120A563FEF750FA3120FEF784
:103160003FFA07B0BDE8F08F002C01404438024020
:1031700000080240000C0240A0640240C801002088
:103180002DE9F04786B01F460446154639B194F83C
:103190003400012807D0022006B0BDE8F087A06BFC
:1031A00040F0006008E00020A063E36DEA199A4255
:1031B00004D9A06B40F00070A06369E0032284F89A
:1031C000342022688146D0622268D36B40F22A36CE
:1031D0003343D363236C2F4ADA63236C2E4ADA64B9
:1031E000226C1065226C9060206C0068026822F0EE
:1031F000C002026020680A46266C4FEA472800F1A8
:1032000080014FEA98033046FEF704F8DFF88CA0FF
:10321000012670B12068C16B21F49571C1632168EA
:10322000C1F838A0A06B40F08040A06384F83460FF
:103230002EE01B480660606C012800D06D024FF044
:10324000FF30CDE900089020029002200596CDE9DC
:1032500003096946206801F03EFC012F06D982204F
:1032600020632946206801F029FD05E081202063C4
:103270002946206801F03BFD00288DD02268C2F865
:1032800038A0A16B0143A16384F83460C4F8309086
:10329000012081E711520008AD510008FF054000F0
:1032A0008C85254210B5FDF7B1FB10BD10B5FDF7BB
:1032B000C9FB10BD2DE9F04F5FEA010B87B01E4638
:1032C0000446114607D094F83400012807D00220A4
:1032D00007B0BDE8F08FA06B40F0006008E000256B
:1032E000A563E26D8819904204D9A06B40F000708C
:1032F000A06356E0032084F834002068C56220688B
:10330000C26B40F21A2942EA0902C263E26B2D48FD
:10331000D063E26B2C48D064E06B0565606C0128DB
:1033200000D049024FF09008012E05D9A02020635B
:10333000206801F09DFD04E0C4F83080206801F0B1
:10334000B0FDDFF888A0012730B12268C2F838A0AC
:10335000A16B0143A16321E01D480760E16B4020A0
:103360008860E06B0068016821F0C00141F0400115
:10337000016022687602B30859468032E06BFDF79F
:1033800049FF80B12068C16B21EA0901C16321684E
:10339000C1F838A0A06B40F08040A06384F834707E
:1033A0002563012094E74FF0FF30CDE90006CDE919
:1033B0000285CDE904576946206801F08CFB0020A6
:1033C00086E7000097520008AD510008FF05400055
:1033D0008C85254270B5040009D0606A002540B193
:1033E00025616561A56294F8510040B10CE00120AF
:1033F00070BD6068B0F5827FF4D0E561F2E784F8D3
:103400005050204600F044F8022084F85100206813
:10341000016821F040010160A088218900F48270D8
:1034200001F404410843A18901F400610843217CAF
:1034300001F002010843217D01F001010843218BC5
:1034400001F400710843217F01F03801084394F82A
:10345000201001F080010843218D01F40051084340
:1034600021680860A069042101EA104094F8241042
:1034700001F010010843216848602068C16921F407
:103480000061C1616565012084F85100002070BDB4
:103490002DE9F04387B0064614216846FCF73CFF4F
:1034A0002C493068884251D12B480024016841F4EE
:1034B00080510160006800F480500590264814385F
:1034C000016841F0010101600068694600F00100F7
:1034D0000590F02000900220CDE901040320039024
:1034E000052004901D48FDF7DFFE1E4D1C484FF0DF
:1034F000C067E5E8020740204FF48068A5E81101A5
:103500004FF4003945F814491648AC61C5E907493C
:103510006C62FDF715FE08B1FDF71BFBB564AE63E9
:10352000104D0F48603578382860C5E90174C5E949
:1035300003486C61AC61C5E9074928466C62FDF738
:10354000FFFD08B1FDF705FBF564AE6307B0BDE80C
:10355000F083000000300140443802400000024087
:1035600088640240E00200207047704770B590F810
:103570003C20012A32D0012480F83C40022280F80D
:103580003D2003685A689D6822F070060A6832433D
:103590005A60134B02689A4214D0B2F1804F11D096
:1035A000104B9A420ED0104B9A420BD00F4B9A42BE
:1035B00008D00F4B9A4205D00E4B9A4202D00E4BC8
:1035C0009A4204D1496825F080031943916080F83C
:1035D0003D40002180F83C10084670BD022070BDBF
:1035E000000001400004004000080040000C0040C2
:1035F00000040140004001400018004010B50400E4
:1036000003D094F83D0010B107E0012010BD002068
:1036100084F83C00204600F01FF8022084F83D00AA
:10362000211D206802F0C8F8012084F8460084F8C3
:103630003E0084F83F0084F8400084F8410084F89C
:10364000420084F8430084F8440084F8450084F87C
:103650003D00002010BD000010B586B004461421C6
:103660006846FCF759FE226800212148B2F1804FDC
:103670000CD0204B9A4211D1016841F00201016047
:10368000006800F00200059006B010BD016841F02E
:1036900001010160006800F00100F4E7164B9A4256
:1036A000F2D1026842F004020260006800F00400F7
:1036B00005900F481038026842F008020260006866
:1036C00000F008000590981400900220CDE9010157
:1036D000CDE9031069460948FDF7E6FD0022052102
:1036E0001E20FDF78BFF1E20FDF77AFFCCE70000C0
:1036F000403802400004004000080040000C024036
:1037000090F83D10012901D001207047022180F876
:103710003D100168CA6842F00102CA6000681149A0
:10372000884214D0B0F1804F11D00F4988420ED09A
:103730000E4988420BD00E49884208D00D49884274
:1037400005D00D49884202D00C49884204D18168D5
:1037500001F00701062903D0016841F00101016071
:1037600000207047000001400004004000080040B5
:10377000000C0040000401400040014000180040DF
:1037800070B5044690F83C000025012817D00126AA
:1037900084F83C60022084F83D002068826822F0B2
:1037A000770222F47F4282600868502838D00DDC0E
:1037B00020284FD005DC90B3102811D14AE0022018
:1037C00070BD302846D040280AD13BE060282FD079
:1037D00070280DD0B0F5805F03D0B0F5005F12D037
:1037E000012584F83D60002084F83C00284670BD27
:1037F000CB68D1E90121206802F042F82068816895
:1038000041F0770109E0CB68D1E90121206802F09D
:1038100037F82068816841F480418160E1E719E070
:10382000CA684968206802F0FFF85021206806E065
:10383000CA684968206802F049F96021206802F0EE
:1038400029F8CEE7CA684968206802F0EDF84021FF
:103850002068F4E7226801461046F0E710B50068DA
:10386000104988420CD110481049831C04780A681A
:10387000012C06D0022C03D1516A5980032101701A
:1038800010BD002454620A68546A1C80136A23F035
:103890000A03136209680A6A42F002020A620221FC
:1038A000EDE7000000080040B000002030040020D8
:1038B0002DE9F041054690F83C0000260C46012811
:1038C00010D0012085F83C0072B1042A1CD0082ACF
:1038D0002CD00C2A50D00126002085F83C00304620
:1038E000BDE8F0810220FBE7D4E90012E368286814
:1038F00002F0ACF82868816921F00C018161286828
:103900008169A26811430FE0D4E90012E3682868D6
:1039100002F0EEF82868816921F44061816128682D
:103920008169A26841EA02218161D5E72868D4E96A
:10393000002C277B016A21F480710162C169036A4E
:1039400021F0030141EA0C0121F0F00C39074FF49A
:1039500020674CEA116123F4206307EA02221A432C
:10396000C16102622868C16921F00C01C161286847
:10397000C169A268114328E02868D4E90027E168FA
:10398000036A23F480530362D0F81CC0036A2CF44A
:10399000407C4CEA07274FF6FF7C27F470470CEA7F
:1039A000013139434FF4204723F4204307EA023220
:1039B0001A43C16102622868C16921F44061C16192
:1039C0002868C169A26841EA0221C16184E710B593
:1039D000040003D094F83D0010B107E0012010BDB1
:1039E000002084F83C00204600F01EF8022084F8F5
:1039F0003D00211D206801F0DFFE012084F8460013
:103A000084F83E0084F83F0084F8400084F84100C8
:103A100084F8420084F8430084F8440084F84500A8
:103A200084F83D00002010BD704770B50446006862
:103A300001694FF00005C943890715D4C168C9431E
:103A4000890711D4E91E016101202077206880696F
:103A50008007204602D0FFF701FF04E000F0C0F825
:103A6000204600F052F9257720680169C9434907CB
:103A700017D4C168C943490713D46FF00401016129
:103A8000022020772068806910F4407F204602D011
:103A9000FFF7E4FE04E000F0A3F8204600F035F95B
:103AA000257720680169C943090716D4C168C9434D
:103AB000090712D46FF00801016104202077206803
:103AC000C0698007204602D0FFF7C8FE04E000F07E
:103AD00087F8204600F019F9257720680169C94365
:103AE000C90617D4C168C943C90613D46FF01001C1
:103AF0000161082020772068C06910F4407F2046CB
:103B000002D0FFF7ABFE04E000F06AF8204600F0B8
:103B1000FCF8257720680169C943C90708D1C16845
:103B2000C943C90704D1891E0161204600F0EEF89F
:103B300020680169C943090609D4C168C943090657
:103B400005D46FF0800101612046FFF70DFD20686C
:103B50000169C943490609D4C168C943490605D466
:103B60006FF040010161204600F0DAF82068016939
:103B7000C94389060BD4C168C943890607D46FF0CD
:103B8000200101612046BDE87040FFF7EEBC70BD2A
:103B900010B586B0044614216846FCF7BDFB0D49FC
:103BA0002068884214D10C480021026842F00402C7
:103BB0000260006800F004000590402000900220A0
:103BC000CDE90101CDE9031069460448FDF76CFB1E
:103BD00006B010BD0004004030380240000802402A
:103BE000704770B5044690F83C0000260D46012849
:103BF0000FD0012084F83C006AB1042A1DD0082AA5
:103C00002FD00C2A3FD00126002084F83C003046FB
:103C100070BD022070BD206801F044FE20688169FB
:103C200041F0080181612068816921F0040181610E
:103C3000206881692A69114311E0206801F062FE61
:103C40002068816941F4006181612068816921F403
:103C500080618161206881692A6941EA022181616C
:103C6000D2E7206801F084FE2068C16941F00801B4
:103C7000C1612068C16921F00401C1612068C16986
:103C80002A69114311E0206801F0A6FE2068C1698D
:103C900041F40061C1612068C16921F48061C161A2
:103CA0002068C1692A6941EA0221C161ACE710B507
:103CB000040003D094F83D0010B107E0012010BDCE
:103CC000002084F83C00204600F01EF8022084F812
:103CD0003D00211D206801F06FFD012084F84600A1
:103CE00084F83E0084F83F0084F8400084F84100E6
:103CF00084F8420084F8430084F8440084F84500C6
:103D000084F83D00002010BD7047704700680349EB
:103D1000884201D1FDF7D0BB704700000010004081
:103D20007047704770470000F8B50168044608689E
:103D3000CA684B6910F00F0F4FF0000559D003F01F
:103D4000010602F49077374365D0C10705D0D1054D
:103D500003D5216C41F001012164410705D5D90744
:103D600003D0216C41F002012164810705D5D907F8
:103D700003D0216C41F004012164010707D502F052
:103D80002001314303D0216C41F008012164216CF2
:103D900000293AD0800604D5900602D5204601F0CD
:103DA000F1FE20684069216CC0F38010090700D43F
:103DB00060B3204601F0BFFE20684069400621D56F
:103DC0002068143050E8001F21F0400140E8001244
:103DD000002AF5D1A06BA8B16C490165A06BFDF775
:103DE000CAF8002811D0A06B016D01B0BDE8F04009
:103DF000084783060FD593060DD52046BDE8F84049
:103E000001F0C0BE2046FFF78DFFF8BD2046FFF74A
:103E100089FF2564F8BD266B2023012E79D1C606C3
:103E200077D5D60675D50868486800904869400679
:103E300040D5A16B086840680004000CEAD0A28D50
:103E40008242E7D9E085C869B0F5807F2DD020682F
:103E50000C3050E8001F21F4807140E80012002A65
:103E6000F5D12068143050E8001F21F0010140E82E
:103E70000012002AF5D12068143050E8001F21F00C
:103E8000400140E80012002AF5D184F83E30256355
:103E900020680C3050E8001F21F0100140E80012AB
:103EA000002AF5D1A06BFDF71DF8A08DE18D401A19
:103EB00081B229E0A08DE18D401A81B2E08D002809
:103EC000A8D00029A6D020680C3050E8002F22F49A
:103ED000907240E80026002EF5D12068143050E89A
:103EE000002F22F0010240E80026002EF5D184F8D0
:103EF0003E30256320680C3050E8002F22F010027D
:103F000040E80023002BF5D12046FFF70AFFF8BD5B
:103F1000FFE705062BD5150629D594F83D00212885
:103F2000F5D1A068B0F5805F01D12069B0B1206AF9
:103F3000411C2162216800784860E08C401E00042A
:103F4000000CE084E3D12068C16821F08001C160E9
:103F50002068C16841F04001C160D8E7206A00884C
:103F6000C0F308004860206A801C2062E5E7400634
:103F7000CDD55006CBD5CA68204622F04002CA6093
:103F800084F83D3000F089F9C1E70000275B0008A4
:103F900070B5040004D094F83D00002510B106E08F
:103FA000012070BD84F83C50204600F023F8242006
:103FB00084F83D002068C16821F40051C1602046AA
:103FC00001F040FE2068016921F490410161206800
:103FD000416921F02A0141612068C16841F4005122
:103FE000C1602564202084F83D0084F83E00002054
:103FF00070BD00002DE9F04387B0064614216846E5
:10400000FCF78AF9DFF804C1316841480222032332
:104010000727404D0024614550D13D491431D1F866
:1040200000C04CF0100CC1F800C0096801F010018C
:104030000591016841F0010101600068694600F0E6
:104040000100059058028DE81500CDE90337284698
:10405000FDF72AF9314D30484FF00067E5E80207D7
:1040600040204FF48068A5E811014FF4003945F86D
:1040700014492A48AC61C5E907496C62FDF760F84C
:1040800008B1FCF766FD7563AE63244D22486035C8
:1040900078382860C5E90174C5E903486C61AC61F2
:1040A000C5E9074928466C62FDF74AF808B1FCF7F4
:1040B00050FDB563AE6307B0BDE8F083184EB14262
:1040C000F9D1134910310E6846F400360E600968C4
:1040D00001F400310591016841F0010101600068BF
:1040E000694600F0010005900C208DE81500CDE92F
:1040F00003372846FDF7D8F8002205212620FDF7D2
:104100007DFA2620FDF76CFAD5E70000001001408B
:104110003038024000000240B86402400005002030
:10412000004400402DE9F84F044690F83E009A46BE
:1041300016460D46202853D1FDB1F6B194F83C0047
:1041400001284DD0012084F83C000027276422205C
:1041500084F83E002763FDF7A9F9A6858146E68528
:10416000A0684FF48058404501D1206940B12E46E7
:104170005FF0000584F83C7027E00120BDE8F88F6F
:104180000026F7E74B46002220212046CDF800A06C
:1041900001F0DEFD08B10320F0E726B1A06840453C
:1041A0001BD038B108E020684068C0F3080025F84B
:1041B000020B07E0206980B12068406800F07F00B2
:1041C00006F8010BE08D401EE085E08D0028D9D176
:1041D000202084F83E000020D0E720684068EFE708
:1041E0000220CBE7704700002DE9F843044690F821
:1041F0003D001F4616460D4620284CD1C5B1BEB124
:1042000094F83C00012846D0012084F83C004FF08F
:104210000008C4F84080212084F83D00FDF746F9ED
:10422000A6848146E684A068B0F5805F03D004E0F0
:104230000120BDE8F883206928B12E465FF0000513
:1042400084F83C800EE00026FAE78021204601F049
:104250007FFDA0B9AEB116F8010B21684860E08C73
:10426000401EE084E08C4B464FF00002009700288F
:10427000EBD14FF04001204601F06AFD30B1032040
:10428000D7E735F8020BC0F30800E6E7202084F8F2
:104290003D000020CDE70220CBE77047FEE700009D
:1042A0007FB50024154800940194029412490394A8
:1042B00001604FF48031C0E901140461047680F894
:1042C00020400F49C0E90A140125C561C46080F887
:1042D00030404561FCF7A3FD08B1FCF73AFC0095BE
:1042E000CDE9015469460548FCF75AFC002801D085
:1042F000FCF72FFC7FBD000000200140DC00002007
:104300000100000F1D4808B5016841F480010160FB
:104310000068002200F48000009005213820FDF79D
:104320006DF93820FDF75CF9002205213A20FDF7F0
:1043300065F93A20FDF754F9002205213B20FDF7ED
:104340005DF93B20FDF74CF9002205214420FDF7E3
:1043500055F94420FDF744F9002205214520FDF7D9
:104360004DF94520FDF73CF9002205214620FDF7D7
:1043700045F9BDE808404620FDF732B93038024023
:1043800010B504490448FCF7E6FB0249491E0870D1
:1043900010BD000029000020D48900082DE9F04755
:1043A00086B014216846FBF7B7FF3C48002401683B
:1043B00041F004010160016801F004010591016808
:1043C00041F080010160016801F080010591016800
:1043D00041F001010160016801F0010105910168EE
:1043E00041F002010160016801F0020105910168DC
:1043F00041F0080101600068DFF8A48000F00800C7
:104400000590002210214046FDF74BF8DFF894A0FC
:104410000122C4215046FDF744F8DFF88C904FF498
:104420000067002239464846FDF73BF80125CDE9F3
:10443000005469461D480294FCF736FF1020CDE970
:1044400000050226CDE9025669464046FCF72CFFDE
:104450000420CDE90005CDE9024669465046FCF747
:1044600023FF00970396CDE9015469464846FCF7BF
:104470001BFF08208DE8510069464846FCF714FFF1
:10448000C020009001AA112082E8510069465046E0
:10449000FCF70AFF06B0BDE8F087000030380240A4
:1044A0000008024000040240000C024000000240EC
:1044B00070B592B014210AA8FBF72EFF0024282122
:1044C00068460F94FBF728FF3848016841F0805197
:1044D0000160006800F080501090FDF7D3FC354873
:1044E0003349C0E900147F218160FF21C0E9031432
:1044F00044618461FEF7BCF808B1FCF72AFB002197
:104500002C48FEF730F845F65A25A8424BD0122029
:104510008DF828008DF829408DF82A400D9401224D
:104520000AA924480E94FEF729FA08B1FCF711FBFA
:1045300001268DF83C6004208DF83D0022208DF886
:104540003E0024208DF83F0032460FA91948FEF79F
:10455000C9F908B1FCF7FDFA23208DF800005520B9
:104560008DF8010056208DF802004FF08030CDE923
:10457000044001944FF01060CDE906044FF48070C0
:10458000039409908DF82060012269460948FEF7DE
:10459000D9F808B1FCF7DDFA2A4600210548FDF7F5
:1045A000E7FF12B070BD00F005FAFAE740380240AC
:1045B0000028004024010020074806494FF400620B
:1045C0000160002141608160C0E9031241610C215A
:1045D00081617047002C0140440100200F4810B554
:1045E0000D4901604FF48271416000218160C1601A
:1045F0004FF480220161C0E90512C161016241628C
:1046000081620A21C162FEF7E5FE002803D0BDE801
:104610001040FCF79EBA10BD003001408802002017
:1046200010B586B0002416480094019402940394B7
:1046300004944FF08041059401605321C0E90114B6
:104640004FF6FF71C0E903148461FEF7D7FF08B18C
:10465000FCF77FFA4FF48050009069460848FFF756
:104660008FF808B1FCF775FA049404A9044805947E
:10467000FEF77CFF002801D0FCF76BFA06B010BDF6
:10468000A003002010B58EB000240794089409946C
:104690000A940B941C2168460C94FBF73DFE2048BD
:1046A0001E49016040F24731C0E901144FF4FA613C
:1046B000C0E9031480218161FEF7A0FF08B1FCF777
:1046C00048FA4FF48050079007A91548FFF758F8AB
:1046D00008B1FCF73EFA1248FFF7E9FA08B1FCF717
:1046E00038FA0B940BA90E480C94FEF73FFF08B163
:1046F000FCF72FFA6020009040F2E730CDE901048A
:104700000022694606480494FFF76BFA08B1FCF7EB
:1047100020FA0348FFF73CFA0EB010BD0004004039
:10472000E803002010B58AB00024234804940594BF
:1047300006940794089409940094019402941D49E6
:10474000039401605321C0E901144FF6FF71C0E9E1
:10475000031480218161FEF751FF08B1FCF7F9F9DC
:104760004FF48050049004A91348FFF709F808B1EA
:10477000FCF7EFF91048FFF72AF908B1FCF7E9F95F
:10478000089408A90C480994FEF7F0FE08B1FCF75C
:10479000E0F90120CDE90040029400226946064874
:1047A0000394FFF785F8002801D0FCF7D2F90AB08E
:1047B00010BD000000080040300400200C4810B577
:1047C0000A4901604FF4E1314160002181600C220F
:1047D000C160C0E904128161C161FFF7D9FB002803
:1047E00003D0BDE81040FCF7B4B910BD0010014083
:1047F0007804002010B50E4C0C480C2120604FF4BA
:10480000E13060600020A060E060C4E90401A061C4
:10481000E0612046FFF7BCFB08B1FCF79AF920687D
:10482000C16841F02001C16010BD0000004400409B
:10483000BC040020FEE7FEE70148FDF719B80000C0
:10484000340800202DE9F04103680D4604461E6C33
:1048500003EB4511D1F8080BD4F810E04FF40047F2
:104860004FF0200C04F2C442BEF1010F09D0DFF872
:1048700098E0764539D1020432D500BFC1F8087BF3
:104880003FE0224B5FEA007E04D59E4239D9000406
:10489000F4D436E05FEA806E02D5C1F808CB30E090
:1048A00010F0280F2DD19E4201D90004E6D405EB6B
:1048B000C50004EB8000D1F8101BD0F89832C1F38A
:1048C0001201591AC0F89C1200F51F70ADB9836926
:1048D0001BB10269114401610FE0012120680AE067
:1048E00080060AD5C1F808CB07E035B9D4F89402A0
:1048F00018B90021184601F0B9FFE9B22046FCF7CB
:10490000BDFE0020BDE8F0810A31544F0A30544FFB
:104910002DE9F84F0E4601EBC60100EB81048146FC
:104920000568616DE06D3C34884202D90120BDE824
:10493000F88F081AE168814200D20846C01C870837
:1049400005EB46181BE000BFA0EB010AE0685045EC
:1049500000D282460AF10300870899F810000090FF
:104960001FFA8AF3F2B22846216902F047FA216958
:1049700001EB0A002061216A01EB0A002062D8F8ED
:10498000180980B2B84205D3216AA069814201D2D8
:104990000028D9D1216AA069884208D806F00F0101
:1049A00001208840D5F834188143C5F83418002018
:1049B000BDE7704700B58BB028216846FBF7ACFC1B
:1049C000012217491748FDF729FE0122164915480B
:1049D000FDF702FE23208DF8000055208DF8010020
:1049E0000F484FF0803101228078401C8DF8020082
:1049F0000020CDE9040101904FF01061CDE90610CF
:104A0000039001208DF820000002099069460548B6
:104A1000FDF798FE002801D0FCF79BF80BB000BD15
:104A2000C800002024010020040000200148FDF7F8
:104A3000A5BD000024010020010901EB810100F067
:104A40000F0000EB4100C0B27047002103E0491C99
:104A50000A38C9B2C0B20A28F9D2090740EA11607F
:104A6000704700002DE9F041044600680025C16848
:104A7000490618D4C16841F08001C160FCF716FDF9
:104A800006464FF47A78042707E000BFFCF70EFDD6
:104A9000801B404501D9677701252068C068400622
:104AA00001D4002DF2D02846BDE8F08170B504464F
:104AB00000680025C16821F08001C160206880681D
:104AC000800606D42046FDF7B9FF10B104206077B8
:104AD0000125284670BD0A6842624A688262D1E9AF
:104AE00002231A43D1E904310B43C16A1A4321F06E
:104AF000F7011143C16200207047006800F0030015
:104B000070470844406970470148FEF739B9000012
:104B10004401002070B50DF1100C11439CE87000A9
:104B20002343194329434268314347F6FF639A43BD
:104B30000A434260002070BD0321016000207047DD
:104B4000D0F8800070470A688260D1E901231A43D7
:104B5000D1E903310B43C1681A436FF30B011143D1
:104B6000C160002070470968C0F8801000207047BD
:104B700010B585B004463720CDE9001040200290E2
:104B8000002003904FF48060049069462046FFF7B0
:104B9000DAFF41F288323721204600F09BF905B058
:104BA00010BD000010B504460A4885B00143292015
:104BB000CDE9001040200290002003904FF4806067
:104BC000049069462046FFF7BEFF204600F03AFAFF
:104BD00005B010BD0000108010B585B0044610204F
:104BE000CDE9001040200290002003904FF4806037
:104BF000049069462046FFF7A6FF41F28832102153
:104C0000204600F067F905B010BD10B585B0044628
:104C10000620CDE9001040200290002003904FF4C0
:104C20008060049069462046FFF78DFF41F288328C
:104C30000621204600F04EF905B010BD30B585B014
:104C400000240546009401944FF480600294CDE95D
:104C5000034069462846FFF776FF0B484FF4FA51A8
:104C60000068B0FBF1F041F288314843401E03D2A6
:104C70004FF0004005B030BD696B0906F6D5C52080
:104C8000A8632046F6E700003C00002010B585B080
:104C900004464FF4D5700090082001904020029007
:104CA000002003904FF48060049069462046FFF78F
:104CB0004AFF204600F02CFA05B010BD10B585B0B3
:104CC00004461220CDE900104020029000200390FD
:104CD0004FF48060049069462046FFF734FF41F2AC
:104CE00088321221204600F0F5F805B010BD10B54D
:104CF00085B004461120CDE900104020029000202C
:104D000003904FF48060049069462046FFF71BFF34
:104D100041F288321121204600F0DCF805B010BDC8
:104D200010B585B004460720CDE900204020029050
:104D3000002003904FF48060049069462046FFF7FE
:104D400002FF41F288320721204600F0C3F805B087
:104D500010BD10B585B0044600210220CDE9001039
:104D6000C020CDE902014FF48060049069462046DE
:104D7000FFF7E9FE204600F03DF905B010BD10B583
:104D800085B004460920CDE90010C0200290002023
:104D900003904FF48060049069462046FFF7D3FEED
:104DA000204600F027F905B010BD10B585B00446C7
:104DB00000213320CDE900104020CDE9020100019F
:104DC000049069462046FFF7BEFE41F28832332147
:104DD000204600F07FF805B010BD10B585B0044640
:104DE0000D20CDE9001040200290002003904FF4E8
:104DF0008060049069462046FFF7A5FE41F28832A4
:104E00000D21204600F066F805B010BD30B585B024
:104E10000C46054600210320CDE900104020CDE9D5
:104E200002010001049069462846FFF78CFE2246E5
:104E30000321284600F028F905B030BD10B585B033
:104E4000044600210C20CDE900104020CDE90201EC
:104E50000001049069462046FFF775FE034A0C21C5
:104E6000204600F037F805B010BD000000E1F50560
:104E700010B585B004461920CDE9001040200290FD
:104E8000002003904FF48060049069462046FFF7AD
:104E90005AFE41F288321921204600F01BF805B075
:104EA00010BD10B585B004461820CDE90010402093
:104EB0000290002003904FF48060049069462046E1
:104EC000FFF741FE41F288321821204600F002F837
:104ED00005B010BD454B10B51B684FF4FA54B3FB39
:104EE000F4F353435B1E02D24FF0004010BD426BFF
:104EF00012F0450FF6D01205F4D4426B520703D5D9
:104F000004218163084610BD426BD20702D0012103
:104F1000816305E0C52282630269D2B28A4201D070
:104F2000012010BD0021FFF7ECFD3149084201D1FD
:104F3000002010BD002802DA4FF0007010BD4100C3
:104F400001D5402010BD810001D5802010BDC100D9
:104F500002D54FF4807010BD010102D54FF40070EE
:104F600010BD410102D54FF4806010BDC10102D5D2
:104F70004FF4006010BD010202D54FF4805010BD07
:104F8000410202D54FF4005010BD810202D54FF40A
:104F9000804010BDC10202D54FF4004010BD410356
:104FA00002D54FF4003010BD810302D54FF48020AC
:104FB00010BDC10302D54FF4002010BD010402D57D
:104FC0004FF4801010BD410402D54FF4001010BD05
:104FD000810402D54FF4800010BD000702D54FF4C4
:104FE000000010BD4FF4803010BD00003C000020D8
:104FF00008E0FFFD12494FF4FA520968B1FBF2F1E3
:1050000041F288325143491E02D24FF000407047AE
:10501000426B12F0450FF6D01205F4D4416B4907EC
:1050200003D50421816308467047416BC90703D04B
:105030000121816308467047C521816300207047C4
:105040003C0000200F494FF4FA520968B1FBF2F11D
:1050500041F288325143491E02D24FF0004070475E
:10506000426B12F0450FF6D01205F4D4416B49079C
:1050700003D50421816308467047C5218163002060
:10508000704700003C00002030B5204B4FF4FA542C
:105090001B68B3FBF4F341F2883463435B1E02D216
:1050A0004FF0004030BD446B14F0450FF6D024059E
:1050B000F4D4436B5B0703D504218163084630BDFC
:1050C000436BDB0702D00121816303E00369DBB29C
:1050D0008B4201D0012030BDC52181630021FFF743
:1050E00010FD10F4604F04D0410406D54FF4005079
:1050F00030BD000C1080002030BD000402D54FF4FC
:10510000805030BD4FF4803030BD00003C000020A6
:1051100014494FF4FA520968B1FBF2F141F28832B6
:105120005143491E02D24FF000407047426B12F0CB
:10513000450FF6D01205F4D4416B490703D504217D
:10514000816308467047416BC90703D00121816321
:1051500008467047416B490601D540218163002014
:10516000704700003C00002010B5064C0120207064
:10517000FBF70CFC18B9207820F001002070207893
:1051800010BD00002000002070B5054602F08CFC28
:10519000044603E0FBF7FAFB002806D002F084FC8B
:1051A000001BA842F6D34FF0FF3070BD10B5846BE2
:1051B000FBF7F3FE022828D0206C416DE06B406DB8
:1051C000012901D001281DD1216810488863206879
:1051D000C16B21F49D71C163A06B40F08040A0635E
:1051E0002046FDF7B7FD062801D0052805D1206827
:1051F000FFF724FEA16B0843A063012084F834006C
:10520000002020632046FDF7C5FC10BDFF054000CF
:1052100010B5846B206B822809D12068FFF70EFE41
:1052200028B1A16B0143A1632046FDF7B3FC2068C0
:10523000C16A21F00801C162216840F23A508863D6
:10524000012084F83400002020632046FEF72AF86D
:1052500010BD10B5846B40F23A5021688863204637
:10526000FDF778FD012184F8341000212163062820
:1052700001D0052805D12068FFF7E0FDA16B0843A8
:10528000A063A06B0028204602D0FDF783FC10BD70
:10529000FDF7EFFB10BD806B0068C16B41F48071BE
:1052A000C163704710B5846B40F23A50216888633F
:1052B0002046FDF74FFD012184F8341000212163C1
:1052C000062801D0052805D12068FFF7B7FDA16B9E
:1052D0000843A063A06B0028204602D0FDF75AFCCB
:1052E00010BDFDF7C6FB10BD2DE9F04788B00D4697
:1052F0000446FCF7DBF80026824600960196374606
:1053000008212068FFF768FC002829D1B4F8500074
:1053100001042068FFF72CFC002821D1401E4FF02B
:105320000808CDE9020830204FF00209CDE9040950
:105330000120CDE9067002A92068FFF7CCFB2068A8
:10534000FFF733FD00280BD16F462068416B11F049
:105350002A0F08D0416B09071AD5C0F838800820F9
:1053600008B0BDE8F087416B890205D5FFF7E8FB7F
:1053700047F82600761C02E0416B8904EAD5FCF769
:1053800095F8A0EB0A00401CDFD14FF00040E7E7A2
:10539000416B890703D5C0F838900220E0E7416BE4
:1053A000890603D5202181630846D9E740F23A51A6
:1053B0008163019800BA2860009800BA68600020F4
:1053C000CEE710B590B004460120ADF83800206853
:1053D000FFF793FB002854D0606C032842D020686C
:1053E000FFF7B7FC00284AD100212068FFF789FBAE
:1053F000606704212068FFF784FBA067082120680C
:10540000FFF77FFBE0670C212068FFF77AFBC4F809
:105410008000606C032825D00EA92068FFF7F6FCF9
:1054200000282CD1606C03281CD0BDF83800206502
:1054300001042068FFF7A3FC002820D10021206888
:10544000FFF75FFB606604212068FFF75AFBA06648
:1054500008212068FFF755FBE0660C212068FFF764
:1054600050FB206704212068FFF74BFB000DE06430
:1054700003A92046FDF790FB30B14FF0805010B0EB
:1054800010BD4FF08060FAE7B4F85000002302042A
:105490002068FFF745FC0028F1D104F1100007C88F
:1054A0008DE8070094E80F00FFF734FB0020E6E7E3
:1054B0002DE9F84F0026044600963546B0460068B0
:1054C000FFF7BCFB002827D12068FFF7DFFB4FF078
:1054D000805B4FF001094FF6FF7748B1A664206862
:1054E000FFF7ACFB002817D1A06C012802D020E008
:1054F000C4F8489000212068FFF73AFB58B918E03B
:1055000000212068FFF734FB002805D151462068B0
:10551000FFF748FB10B15846BDE8F88F002120681E
:10552000FFF7EFFA05464FEAD0780098401C00904C
:1055300002E0DFF82CA00098B84202D2B8F1000FC8
:10554000DED00098B84202D34FF08070E4E76800E4
:1055500002D5C4F8449000E066640020DCE7000057
:10556000000010C170B5104C05460120207002F0FB
:105570008BFA022816D1FBF715FA18B92846FFF75F
:10558000F3FD2070207801280CD0606850B900220B
:1055900002210A2002F0C2FA606018B9207840F0B7
:1055A00001002070207870BD2000002010B5124846
:1055B00088B014460078C00702D0032008B010BDA0
:1055C000C1B1012905D0022908D003290CD004203B
:1055D000F4E76846FBF7D4F906980AE06846FBF75B
:1055E000CFF90798208005E06846FBF7C9F90798CE
:1055F000400A20600020E1E7200000202DE9F84368
:1056000047F230541E461746884601252046FFF7CC
:10561000BBFD00281EDB324639464046FBF7E8F961
:10562000C0B90F48234600226946406802F044FA98
:1056300080B9BDF8000001280CD102F035FA064609
:1056400003E000BFFBF7A2F938B102F02DFA801B8E
:10565000A042F7D32846BDE8F8830025FAE700000A
:1056600020000020FFF780BD2DE9F84347F23054B9
:105670001E461746884601252046FFF785FD00286F
:105680001EDB324639464046FBF7CEF9C0B90F481B
:10569000234600226946406802F00EFA80B9BDF840
:1056A000000002280CD102F0FFF9064603E000BF1B
:1056B000FBF76CF938B102F0F7F9801BA042F7D381
:1056C0002846BDE8F8830025FAE700002000002006
:1056D0000178407841EA0020704710B54FF0E02093
:1056E000006903F01DF8012803D0BDE8104002F066
:1056F00035BD10BD30B593B030216846FAF70CFEC9
:1057000014210CA8FAF708FE1F480025016841F093
:1057100080510160006800F0805011901B480168C2
:1057200041F4804101600068022400F4804011903F
:10573000052000904FF480300190012002908005F8
:10574000CDE9064004200890A820CDE909040720EF
:105750000B906846FCF750FD08B172B6FEE70CA945
:105760000F2081E831004FF4A0500F904FF480508B
:10577000109005210CA8FCF72FFC002801D072B670
:10578000FEE713B030BD000040380240007000401A
:105790000248016841F470010160704788ED00E043
:1057A0000148FEF742B90000300400200148FEF72E
:1057B0003CB90000C0050020F0B50268254C264D1C
:1057C000264E274F274B4FF0804CA04209D0604512
:1057D00007D0A84205D0B04203D0B84201D09842C9
:1057E00004D122F0700E4A6842EA0E02A0421BD099
:1057F000604519D0A84217D0B04215D0B84213D096
:10580000984211D0184DA8420ED0184DA8420BD086
:10581000174DA84208D0174DA84205D0164DA842F2
:1058200002D0164DA84203D122F44075CA682A431B
:105830004D6922F080022A4302608A68C2620A68C7
:105840008262A04201D0984201D10969016301211D
:105850004161F0BD0000014000040040000800402C
:10586000000C0040000401400040014000440140A1
:105870000048014000180040001C0040002000408B
:1058800010B5846842EA032224F47F440A43224389
:10589000826010BD826822F070020A4342F0070164
:1058A00081607047F0B5026A22F001020262036A69
:1058B00042688469124E24F073050C682C4323F06F
:1058C00002058B682B430D4DA84201D0B04205D193
:1058D00023F00807CB683B4323F00403A84201D020
:1058E000B04205D14D6922F4407215438A692A43BA
:1058F00042608461496841630362F0BD0000014079
:1059000000040140F0B5026A22F010020262026A4D
:10591000436884690D6824F4E64444EA05248D68EC
:1059200022F0200242EA05120F4D104EA84201D08B
:10593000B04206D1CF6822F0800242EA071222F07C
:105940004002A84201D0B04207D14D6923F4406320
:1059500043EA85038D6943EA8503436084614968AE
:1059600081630262F0BD00000000014000040140BC
:10597000F0B5026A22F480720262026A4368C46966
:1059800022F4007224F073050C68124E2C438D68CB
:1059900042EA05220E4DA84201D0B04206D1CF689E
:1059A00022F4006242EA072222F48062A84201D077
:1059B000B04207D14D6923F4405343EA05138D6982
:1059C00043EA05134360C4614968C1630262F0BDE4
:1059D000000001400004014030B5026A22F4805208
:1059E0000262046A4268C3690D6823F4E64343EA2D
:1059F00005238D6824F4005444EA0534084DA84278
:105A000002D0084DA84204D14D6922F4804242EAF6
:105A100085124260C36149680164046230BD0000C0
:105A2000000001400004014010B5036A046A24F03C
:105A300001040462846924F0F00444EA021423F0AF
:105A40000A020A438461026210BD000070B5046A54
:105A500024F0010404628469056A154EB04214D032
:105A6000B0F1804F11D0134EB0420ED0124EB04262
:105A70000BD0124EB04208D0114EB04205D0114E9C
:105A8000B04202D0104EB04203D124F003041443BC
:105A900001E044F001041A0724F0F00444EA126221
:105AA00025F00A0301F00A0119438261016270BD09
:105AB000000001400004004000080040000C0040CD
:105AC00000040140004001400018004010B5036A86
:105AD00023F0100303628369046A23F4704343EAEA
