:020000040800F2
:10000000C05300206102000883400008C13A000884
:1000100081400008C1050008CD650008000000000F
:10002000000000000000000000000000A101000826
:10003000C906000800000000FD010008274F000865
:100040007B0200087B0200087B0200087B0200089C
:100050007B020008FF4100087B0200087B020008C9
:100060007B0200087B0200087B0200087B0200087C
:100070007B0200087B0200087B0200087B0200086C
:10008000C5050008D1050008910300087B0200089F
:100090007B0200087B0200087B0200087B0200084C
:1000A0007B0200087B0200087B0200087B0200083C
:1000B0007B0200087B020008ED4F00087B0200086D
:1000C0007B0200087B0200087B0200087B0200081C
:1000D0007B0200087B020008F95400087B0200083C
:1000E0007B020008794200087B0200087B020008BE
:1000F0007B0200087B0200087B0200087B020008EC
:100100007B020008554300087B0200087B020008C0
:100110007B0200087B020008F94F00087B02000800
:10012000DD0500087B020008E9050008F505000868
:100130007B0200087B0200087B0200087B020008AB
:100140007B0200087B0200087B0200088540000853
:10015000010600080D060008190600087B020008C9
:100160007B0200087B0200087B0200087B0200087B
:100170007B0200087B0200087B02000800000000F0
:100180007B0200087B020008DFF810D000F0EEF8D8
:10019000004800470D660008AFF30080C053002000
:1001A0002C4B19680868B0E8F04F80F30988BFF35A
:1001B0006F8F4FF0000080F311887047000000003F
:1001C00008480068006880F308884FF0000080F35A
:1001D000148862B661B6BFF34F8FBFF36F8F00DF35
:1001E00000BF00BF08ED00E0DFF80C00016841F43B
:1001F00070010160704700BF88ED00E0EFF30980F7
:10020000BFF36F8F134B1A681EF0100F08BF20ED5D
:10021000108A20E9F04F106009B44FF0500080F3CD
:100220001188BFF34F8FBFF36F8F06F031FD4FF092
:10023000000080F3118809BC19680868B0E8F04F25
:100240001EF0100F08BFB0EC108A80F30988BFF3CE
:100250006F8F704744000020EFF305807047000067
:100260000648804706480047FEE7FEE7FEE7FEE750
:10027000FEE7FEE7FEE7FEE7FEE7FEE7DD4F0008EC
:10028000890100082DE9F05F0546002092469B4653
:1002900088460646814640241BE02846414647469C
:1002A000224600F053F853465A46C01A914110D3E3
:1002B00011461846224600F03AF82D1A67EB01085D
:1002C0004F4622460120002100F031F817EB0009CB
:1002D0004E41201EA4F10104DFDC484631462A4687
:1002E0004346BDE8F09F40EA01039B0703D009E0C5
:1002F00008C9121F08C0042AFAD203E011F8013B12
:1003000000F8013B521EF9D27047D2B201E000F86A
:10031000012B491EFBD270470022F6E710B51346A9
:100320000A4604461946FFF7F0FF204610BD202A72
:1003300004DB203A00FA02F1002070479140C2F13C
:10034000200320FA03F3194390407047202A04DB6E
:10035000203A21FA02F00021704721FA02F3D0403E
:10036000C2F120029140084319467047064C074DE0
:1003700006E0E06840F0010394E807009847103475
:10038000AC42F6D3FFF704FFA0750008C075000863
:10039000014800F069BA0000D0000020464910B5BD
:1003A0004A6822F440324A604A6843681A434A6005
:1003B00001684A6822F480724A6001684A680369E9
:1003C00042EA03224A6001684A6822F040724A60A9
:1003D00001684A6883681A434A6001688A6822F49F
:1003E00000628A6001688A68C3681A438A60816A09
:1003F0006FF07062D14201688A6822F070628A6090
:1004000001688A680CD0836A1A438A6001688A6826
:1004100022F040528A6001688A68C36A1A4301E088
:1004200022F040528A6001688A6822F002028A60E3
:1004300001688A68037E42EA43028A6090F82010CD
:10044000002901684A680FD042F400624A600168DE
:100450004A6822F460424A6001684A68174C436A5D
:1004600004EB43331A4301E022F400624A6001685E
:10047000CA6A22F47002CA620168CA6A838B104C8D
:1004800004EB03531A43CA6201688A6822F40072BB
:100490008A6001688A6890F8303042EA43228A60B4
:1004A00001688A6822F480628A6001688A6840690B
:1004B00042EA8020886010BD0023014000E0FFFF79
:1004C0000000F0FF10B501240821034800F056FD9C
:1004D00000B10024204610BD000C0240704700000F
:1004E0000146014802F096B93801002010B50448D1
:1004F00002F0A2F9042801D0012010BD002010BD97
:100500003801002010B500F015F8012801D00120B5
:1005100010BD074802F0AAFA040006D14FF40061AA
:10052000034802F01DF800B10124204610BD000070
:100530003801002008B501208DF80000FFF7C2FF48
:1005400010B900208DF800009DF8000008BD0000E3
:10055000134610B50A4601460024034802F082FB08
:1005600000B10124204610BD3801002008B501204B
:10057000ADF80000034800231A466946406806F0BB
:10058000D9F808BD20000020134610B50A460146E0
:100590000024034802F000FC00B10124204610BDF5
:1005A0003801002008B50220ADF800000348002300
:1005B0001A466946406806F0BDF808BD20000020D4
:1005C000FEE70000014800F05DBA000014060020BC
:1005D000014800F057BA0000B4050020014800F0BF
:1005E00051BA000034030020014800F04BBA00006B
:1005F00054050020014800F045BA00001C0200200C
:10060000014800F03FBA0000D4020020014800F089
:1006100039BA0000BC010020014800F033BA0000E4
:10062000F404002001681823CAB2103AB2FBF3F2B6
:10063000054B6FF30901032A9B5CC36500D9091DB3
:1006400081650846704700008075000810B50146B6
:1006500000208B698A6A4FF0C07453B1B3F5005F14
:1006600015D072B1012A0CD0022A0AD0032A09D16E
:1006700004E01AB1012A06D0022A03D1C96AC901CD
:1006800000D5012010BDC96AA142FAD010BD002AD0
:10069000F7D0012AF2D0022AF3D0032AF3D010BDFA
:1006A00030B50468256825F48025256004686360FA
:1006B0008368402B036803D099600068C26030BD36
:1006C0009A600068C16030BD704772B6FEE70022D4
:1006D000AFF3008030B50E4B054601205C7A002C4C
:1006E00014D1587A1C54587A03EB800045605D7A27
:1006F00003F108002A54587A421C5A7230300870AC
:100700003A2048702F208870CC70002030BD000047
:10071000BC0600207047000078B50024009490F8D3
:100720003C20012A19D0012280F83C200A680723C6
:100730000568092A13D9EE680A3A02EB420293408F
:100740009E43EE600B788A680A3B03EB43039A40B2
:100750000368DD682A43DA6010E0022078BD2E6964
:1007600002EB420293409E432E610B788A6803EBB2
:1007700043039A4003681D692A431A614A681F238C
:10078000072A13D205686E6B521E02EB8202934059
:100790009E436E630B790A885B1E92B203EB830360
:1007A0009A4003685D6B2A435A6327E005680D2A67
:1007B00012D22E6BD21F02EB820293409E432E6315
:1007C0000B790A88DB1F92B203EB83039A4003681C
:1007D0001D6B2A431A6311E0EE6A0D3A02EB8202A6
:1007E00093409E43EE620B790A880D3B92B203EB75
:1007F00083039A400368DD6A2A43DA62164B056870
:10080000144A9D4206D10D68122D03D1556845F456
:100810008005556005689D4218D10B68102B01D0EA
:10082000112B13D1536843F4000353600968102956
:100830000CD10A490A4A0968B1FBF2F101EB8101C6
:10084000490000E0491E00910029FBD180F83C409E
:10085000002078BD00230140002001403C00002022
:1008600040420F007047704770B504460068066844
:10087000456816F0020F05F020012AD049B3216C1B
:10088000C90603D4216C41F400712164816811F020
:10089000405F17D1217EA9B9C16A11F4700F02D04F
:1008A000816849050ED4416821F020014160206C27
:1008B00020F480702064206CC00403D4206C40F0CD
:1008C000010020642046FFF7CDFF21686FF0120081
:1008D000086016F0040F05F0800132D089B3206C57
:1008E000C00603D4206C40F4005020642068816866
:1008F00011F4401F1ED1816B11F4401F02D081689A
:10090000490517D44168490514D4816811F0405F46
:1009100010D1217E71B9416821F080014160206CC5
:1009200020F480502064206CC00503D4206C40F07B
:10093000010020642046FFF7EDFE21686FF00C00F7
:10094000086016F0010F05F040010FD071B120686A
:100950000068C0070AD0206C40F480302064204634
:1009600000F043F821686FF00100086016F0200FD6
:1009700005F080610ED000290CD0606C40F00200C0
:10098000606420686FF0200505602046FFF76BFF6C
:100990002068056070BD70B504004FF0000503D0FD
:1009A000206C002610B107E0012070BD204600F049
:1009B0001DF8666484F83C60206CC00610D4206C7E
:1009C00020F4885040F0020020642046FFF7E6FC47
:1009D0006664206C20F0020040F00100206400E01A
:1009E000012584F83C60284670BD704710B586B07C
:1009F000044614216846FFF78FFC15492068884299
:100A000024D114480021026842F480720260006818
:100A100000F4807005900F481438026842F001021B
:100A20000260006800F001000590022000900320A1
:100A3000CDE901016946084800F0A8F90022052126
:100A4000122000F04DFB122000F03CFB06B010BD60
:100A500000200140443802400000024090F8351068
:100A6000022903D08021416501207047052180F8CB
:100A700035100068016821F0010101600020704715
:100A8000406D70472DE9F84304464FF00009CDF85A
:100A9000009063484FF41651A56D0068B0FBF1F764
:100AA0002E6894F85C10082000FA01F131420FD052
:100AB00021680A6852070BD50A6822F004020A600E
:100AC00094F85C108840A860606D40F0010060659B
:100AD00094F85C104FF0010808FA01F0304208D099
:100AE00021684969090604D5A860606D40F00200DC
:100AF000606594F85C1004208840304208D021687A
:100B00000968890704D5A860606D40F0040060653D
:100B100094F85C1010208840304218D02168096891
:100B2000090714D5A86020680168490304D5006846
:100B3000000308D5A16C07E00168C90503D401686A
:100B400021F008010160216C09B12046884794F822
:100B50005C1020208840304231D021680968C906E5
:100B60002DD5A86094F8350005282068016806D0C6
:100B7000490347D5006800031DD4616C1CE021F0D7
:100B8000160101602068416921F080014161206CFB
:100B900008B9A06C20B12068016821F0080101604B
:100BA00094F85C103F208840A86084F8358084F871
:100BB0003490216D1FE0E16B09B120468847606DDC
:100BC00000282BD0606DC00714D0052084F83500B4
:100BD0002068016821F0010101600098401C00902C
:100BE000B84203D820680068C007F6D184F8358081
:100BF00084F83490E16C002910D001B02046BDE8A3
:100C0000F04308470168C905D5D4016821F01001F7
:100C1000016084F8358084F83490CCE7BDE8F8832F
:100C20003C0000202DE9F041044600F0B1F90646F1
:100C30005CB1022084F83500002584F83450206827
:100C4000016821F0010101600DE00120BDE8F081A3
:100C500000F09EF9801B052805D92020606503203F
:100C600084F83500F2E720680068C007F0D12268F8
:100C7000116820480140D4E901031843D4E9033640
:100C80003343184363691843A3691843E36918435E
:100C9000236A18430843616A042903D1D4E90B137A
:100CA00019430843106020684069666A20F0070114
:100CB00030460E43012704280CD1A06A0643E06A9F
:100CC00040B12046FFF7C2FC20B14020606584F8A7
:100CD0003570BAE7206846612046FFF7A3FC94F818
:100CE0005C203F2191408160656584F8357000206B
:100CF000ACE700003F8010F02DE9F0410446866D1E
:100D000090F83400002501280DD0012084F834002B
:100D100094F835700020012F07D084F834000225A4
:100D20002846BDE8F0810220FBE7022784F83570F1
:100D300060652046FFF7B4FC94F85C103F208840C3
:100D4000B0602068016841F016010160206C20B19C
:100D50002068016841F0080101602068016841F0E5
:100D600001010160DCE7000070B5044600F010F9F5
:100D70000546601C02D004480078044400F008F9DD
:100D8000401BA042FAD370BD300000202DE9F84F7F
:100D9000DFF8BCA10022012503264FF00F090AF15C
:100DA000040BAAF1040E00BF0B6805FA02F42340FD
:100DB000A34270D10F7907F00307012F01D0022F52
:100DC00016D187684FEA420806FA08FC27EA0C07A2
:100DD000D1F80CC00CFA08FC4CEA070CC0F808C0AB
:100DE0004768A7430C79C4F3001494403C43446023
:100DF0000C79E443A4070AD0C4684FEA420C06FA0F
:100E00000CF7BC438F6807FA0CF72743C7600C79CF
:100E100004F00304022C12D1D40800EB840CDCF89B
:100E200020405707FF0E09FA07F824EA0804D1F812
:100E3000108008FA07F848EA0408CCF82080046813
:100E40004FEA420C06FA0CF7BC430F7907F0030790
:100E500007FA0CF7274307604C6814F4403F70D042
:100E60003C4C276847F480472760246822F003073A
:100E700004F480440094384C07EB040CDCF8084878
:100E800097074FEA177809FA08F7BC43334FB8427F
:100E900002D1002724E054E0314FB84201D10127AC
:100EA0001EE0304FB84201D1022719E02E4FB84260
:100EB00001D1032714E02D4FB84201D104270FE0E0
:100EC0002B4FB84201D105270AE02A4FB84201D181
:100ED000062705E0284FB84201D1072700E0082780
:100EE00007FA08F72743CCF80878DAF800405746A5
:100EF000D1F804C09C435FEACC2C00D51C433C6075
:100F0000DBF800405F46D1F804C09C435FEA8C2CBC
:100F100000D51C433C60DEF800407746D1F804C0A1
:100F20009C435FEA8C3C00D51C433C60084F083F63
:100F30003C68D1F804C09C435FEACC3C00D51C431C
:100F40003C60521C102AFFF42FAFBDE8F88F000060
:100F5000083C01404438024000300140000002409B
:100F60000004024000080240000C02400010024051
:100F70000014024000180240001C024000690840B2
:100F800000D0012070470AB1816170470904FBE776
:100F900001488068704700003000002002488168E6
:100FA0000278114481607047300000200B4810B572
:100FB000016841F400710160016841F480610160E1
:100FC000016841F480710160032000F0A9F80F204E
:100FD00000F006F800F050F8002010BD003C024080
:100FE00030B505461F4887B00024016841F0100164
:100FF0000160006806A900F01000009001A800F050
:10100000F7FD0498A8B100F019FE40001649174AF0
:10101000B0FBF1F11648491E026040F2E732C0E928
:101020000324C0E90114846102F05AF8040003D0DB
:1010300015E000F003FEE9E70D4802F0D3F80400E4
:101040000DD1362000F03EF8102D07D2002229469F
:10105000362000F045F80748056000E0012407B09D
:10106000204630BD4038024040420F000010004092
:101070007406002034000020114808B5016841F4CE
:1010800080410160006800F4804000900C48001F1F
:10109000016841F0805101600068002200F080503A
:1010A00000900F21901E00F01BF805210022084639
:1010B00000F016F8BDE80840052000F003B8000075
:1010C00044380240002809DB00F01F020121914052
:1010D0004009800000F1E020C0F8001170470000D6
:1010E000F0B40E4B1B680C46C3F30223C3F1070593
:1010F000042D00D90425191D072901D2002300E081
:10110000DB1E012606FA05F1491E214099409E404A
:10111000761E16403143F0BC05F059BA0CED00E0E4
:10112000064900F0070208684FF6FF03184040EA3E
:101130000220034A10430860704700000CED00E0F5
:101140000000FA057047D0F8080504F091BB01EBE8
:10115000C10200EB8202D0F80805D26C04F0E6BAB6
:1011600001EBC10200EB8202D0F80805D2F88C2214
:1011700004F037BBD0F8080504F07CBB0A0601F088
:101180000F0101EBC10100EB810101D53C3101E010
:1011900001F51F71006805F0B3B870B5044601F0A1
:1011A0000F006268904201D9012070BD0B0601F06A
:1011B0000F0101EBC10104EB81014FF001024FF07F
:1011C000000503D581F83D203C3103E081F87D52D4
:1011D00001F51F718D70087094F8BC04012808D0C7
:1011E00084F8BC24206804F041FF84F8BC5400203B
:1011F00070BD022070BD2DE9F04104460F0601F0DC
:101200000F0000EBC00104EB81014FF001064FF02D
:10121000000503D581F83D603C3103E081F87D5243
:1012200001F51F710870CA600B714A7802B108811C
:10123000022B00D14D7194F8BC04012809D084F828
:10124000BC64206804F00AFE284684F8BC54BDE85B
:10125000F0810220FBE770B50C4601F00F0505EBAD
:10126000C50100EB8101C1F89432C1F88C22002342
:10127000C1F89C3281F87D3281F87C52036901F516
:101280001F71012B00D14A612207027C006803D044
:1012900004F044FF002070BD04F02EFEFAE770B5A4
:1012A00004460D4601F00F006168884201D9012013
:1012B00070BD29064FF000064FF0010207D500EB84
:1012C000C00104EB810181F83D203C3107E005EBD2
:1012D000C50104EB810181F87D6201F51F718A70FF
:1012E000087094F8BC04012807D084F8BC24206856
:1012F00004F0E8FE280702D007E0022070BD217C40
:1013000004F2C442206804F085FE84F8BC64002026
:1013100070BD70B50C4601F00F0505EBC50100EB83
:1013200081014B65CA640023CB65012381F83D3000
:1013300001F83C5F0369012B00D14A612207027C5E
:10134000006803D004F0EAFE002070BD04F0D4FD74
:10135000FAE700002DE9FC5F05680446284605F021
:101360004CF800287DD1206805F073F8002878D06B
:10137000D5F80808C0F30D20C4F8FC04206805F077
:1013800068F8800704D52068416901F002014161D5
:10139000206805F05EF8C10604F2C440009034D520
:1013A0002068816921F0100181612F6A07F00F0028
:1013B00000EBC00004EB8006C7F3434006F51F7640
:1013C000022802D0062811D01AE047F6F070074232
:1013D00016D0C7F30A1217462846316905F03DF8C2
:1013E000306938443061306A384408E008222846C1
:1013F000009905F032F8306AC7F30A1108443062E8
:101400002068816941F010018161206805F021F8B0
:1014100000034FF0080B4FF0000A4FF001097CD594
:101420000026206804F0F4FF074674E0F80770D047
:10143000F1B2206805F005F88046C00707D005EB3B
:101440004611C1F8089B3146204602F021FE5FEAB2
:10145000087024D505EB4611C1F808BB2068016C63
:1014600000E025E200EB46100191D0F8082BFC4B80
:10147000994205D9110403D54FF40041C0F8081B67
:10148000204600F051FAF6490198884207D92069B0
:10149000012804D120680121009A04F0BBFD5FEA15
:1014A000C86004D505EB46111020C1F8080B5FEAAF
:1014B00088701DD56869000605D5D5F8040840F484
:1014C0008061C5F8041806EBC60004EB800090F8B4
:1014D0007F1200F51F70012905D180F803A0F1B239
:1014E000204600F0EBF905EB46110220C1F8080B8D
:1014F0005FEA886004D505EB46102021C0F8081B80
:101500005FEA884005D505EB46104FF40051C0F85E
:10151000081B7F08761C002F88D1206804F099FFF3
:1015200040036FD5206804F06CFF0746002667E093
:10153000F80763D0F1B2206804F071FF8046C0075D
:1015400023D006F00F0209FA02F0D5F834288243BE
:10155000C5F8342805EB4610C0F808992069012821
:101560000FD106EBC60004EB8000D0E91221114434
:10157000C16436B9606D20B920680121009A04F079
:1015800049FDF1B22046FFF7E2FD5FEA087003D59E
:1015900005EB4611C1F808B95FEAC86004D505EB50
:1015A00046111020C1F808095FEA486004D505EB30
:1015B00046104021C0F808195FEA887017D53146F7
:1015C000284604F0EDFE06EBC60004EB800090F820
:1015D0003F103C30012905D180F803A0F1B220462C
:1015E00000F068F905EB46110220C1F808095FEA2E
:1015F000086003D53146204602F0B0FD7F08761C16
:10160000002F95D1206804F024FF002811DAD5F8C6
:10161000040820F00101C5F8041894F8F404012826
:101620002BD0204600F064F92068416901F00041A8
:101630004161206804F00DFF00050BD5D5F80808BE
:10164000C00702D0204600F077F92068416901F414
:1016500000614161206804F0FCFEC00466D5D5F845
:10166000040820F00100C5F804081021206804F0E7
:1016700097FE00214FF67F321FE084F8F4A400218A
:101680002046FFF75FFDCFE705EB4110C0F80829C2
:10169000D0F8003923F40013C0F80039C0F8082B43
:1016A000D0F8003B23F40013C0F8003BD0F8003B17
:1016B00043F00063C0F8003B491C60688842E3D8EF
:1016C000D5F81C0840F00111C5F81C18206B002843
:1016D00028460DD0D0F8840840F00B01C5F88418D6
:1016E000D5F8440840F00B012846C5F844180DE031
:1016F000D0F8140842F22B010843C5F81408D5F8B5
:10170000100840F00B012846C5F81018D0F8000862
:1017100020F4FE61C5F80018217C2068009A04F0CE
:1017200079FC2068416901F480514161206804F02E
:1017300090FE800415D5206804F0D0FB206804F0EA
:101740004FFEE06000F074FA0146227B206804F04E
:10175000B5FE204600F0B6F82068416901F400515A
:101760004161206804F075FE000707D5204600F0AF
:10177000C3F82068416901F008014161206804F064
:1017800068FE000616D5A86920F08000A861012631
:101790000DE000BF06EBC60004EB800090F87F026E
:1017A000012803D1F1B22046FFF7E8FC761C6068FF
:1017B000B042EFD8206804F04CFEC00221D50126CB
:1017C0004F4616E005EB4610D0F8001906EBC600B0
:1017D00004EB800090F84020012A09D1002907DAA3
:1017E00080F83F70F0B240F080012046FFF7C6FC61
:1017F000761C6068B042E5D82068416901F4801128
:101800004161206804F025FE800234D501204B465A
:1018100029E000BF05EB4011D1F8001B00EBC0022E
:1018200004EB820696F88022012A1BD1002919DADE
:1018300094F8FC2401F4803102F00102914211D1AC
:1018400086F87F32A96941F08002AA6169690906B8
:1018500008D4D5F8040840F40070C5F8040805E081
:101860000A30544F401C61688142D3D820684169D6
:1018700001F400114161206804F0EBFD400007D540
:101880002046FFF760FC2068416901F0804141611A
:10189000206804F0DEFD40070AD520684568680727
:1018A00002D52046FFF766FC206841682943416065
:1018B000BDE8FC9FD0F8080503F0FBBFD0F8080591
:1018C00004F00BB870B50446C068012570B1022859
:1018D00001D0FEF7FAFE2946D4F8080504F06BF8AB
:1018E000D4F80805BDE8704004F020B80025F2E700
:1018F000D0F8080504F048B8D0F8080504F04EB850
:1019000010B5044690F8BC0401280BD0012084F8DF
:10191000BC0484F83810206804F0BEFD002084F870
:10192000BC0410BD022010BDD0F8082500F2C4414F
:10193000104604F04CB8000010B50446D0F8080575
:1019400004F07EF82068D0F8001E41F00101C0F8D4
:10195000001E206A002804D00248016841F00601F8
:10196000016010BD10ED00E0034908B501200862D8
:1019700002480068009008BD00000E420070004060
:101980002DE9F843054600684FF00109C1074FF003
:10199000000601D1400727D5DFF80C81C8F8686040
:1019A000FFF7F6FA0746414C05E000BFFFF7F0FAF3
:1019B000C01B022857D820680001F7D4686881014D
:1019C000287A41EA0070394984310860C8F8689083
:1019D000FFF7DEFA074604E0FFF7DAFAC01B022839
:1019E00041D820680001F7D52878800752D52F48C4
:1019F0004030016841F08051016000682C4C00F0DB
:101A000080500090206840F480702060FFF7C0FA9A
:101A1000074604E0FFF7BCFAC01B022823D8206861
:101A2000C005F7D5214C7034206810F4407020D0E8
:101A3000A98901F4407181421BD020681D4920F41E
:101A40004070C1F800900E6020602068C00710D080
:101A5000FFF79EFA064641F2883707E0FFF798FA4B
:101A6000801BB84202D90320BDE8F88320688007B4
:101A7000F4D5E9680D48C1F301220830032A0BD0E0
:101A8000016821F4F81101602068A989C1F30B01F4
:101A9000084320600020E7E70268074B22F4F812B1
:101AA00019400A430260EFE7000047420038024055
:101AB00000700040400E4742FFFCFF0F2DE9F04749
:101AC0000E46050065D0DFF81481D8F80000F7B2A3
:101AD00000F00700B04207D288F80070D8F8000084
:101AE00000F00700B04254D128683D4C810712D560
:101AF000400703D5206840F4E050206028780007B4
:101B000003D5206840F4604020602068A96820F078
:101B1000F000084320602878C0072DD0304968685D
:101B20000839012812D0022813D0032811D00968DF
:101B3000890700292DDA216821F003010143216082
:101B4000FFF726FA814641F2883A0EE009688903D8
:101B5000EFE709688901ECE7FFF71AFAA0EB090142
:101B6000514502D90320BDE8F0872068696800F07C
:101B70000C00B0EB810FEFD1D8F80010404601F017
:101B80000701B14207D90770006800F00700B042B2
:101B900001D00120E7E72878400705D52068E968EB
:101BA00020F4E050084320602878000706D520681C
:101BB000296920F4604040EAC100206000F05EF82E
:101BC0002168084AC1F30311515CC8400649086006
:101BD00006480068FFF704FA0020C4E7003C024012
:101BE00008380240887500083C00002034000020BE
:101BF0000F2202600C4A136803F00303436013686A
:101C000003F0F0038360136803F4E053C3601268C9
:101C10004FF4E05303EAD20202610448006800F086
:101C2000070008607047000008380240003C02408E
:101C300001480068704700003C0000200448054946
:101C400000680968044AC1F38221515CC8407047AA
:101C50003C000020083802409875000804480549F7
:101C600000680968044AC1F34231515CC8407047BA
:101C70003C0000200838024098750008154810B54F
:101C8000006810F00C02144813D04110042A0FD041
:101C9000082A0ED10F4C241F2268236802F03F024D
:101CA0005B0207D52068C0F38810A0FB010106E0A5
:101CB000084610BD2168C1F38811A1FB0001002373
:101CC000FEF7E0FA2168C1F30141491C4900B0FB6D
:101CD000F1F010BD083802400024F4002DE9F84F5F
:101CE00004006ED02078DFF84C93C007A9F10405FA
:101CF0004AD009F104000168C1F38101012908D02B
:101D00000068C0F3810002280AD1D9F8000040021F
:101D100006D52868800337D560680028E1D033E015
:101D20006068B0F5803F10D0B0F5A02F286810D0C3
:101D300020F480302860286820F4802028606068C3
:101D4000A8B1FFF725F906460DE0286840F4803079
:101D5000F4E740F480202860F7E700BFFFF718F9A8
:101D6000801B642873D828688003F7D50CE0FFF740
:101D70000FF9064605E000BFFFF70AF9801B64284B
:101D8000F0D828688003F7D42078DFF8AC82800789
:101D90004FF0000A3ED5A748001D016811F00C0F56
:101DA00008D00068C0F3810002280BD1D9F80000E8
:101DB000400207D42868800716D5E068012800D1C2
:101DC00012E033E1E068B8B10120C8F80000FFF785
:101DD000DFF8064605E000BFFFF7DAF8801B0228AF
:101DE000C0D828688007F7D52868216920F0F80056
:101DF00040EAC10028600DE0C8F800A0FFF7C8F86D
:101E0000064604E0FFF7C4F8801B02281FD82868A4
:101E10008007F7D42078000722D5864F874861696C
:101E2000703771B101210160FFF7B2F8064604E096
:101E3000FFF7AEF8801B022809D838688007F7D56D
:101E40000EE0C0F800A0FFF7A3F8064605E082E028
:101E5000FFF79EF8801B02287DD838688007F7D4EA
:101E60002078400768D5DFF8CCB100270BF13C0B98
:101E7000DBF80000C0000BD4DBF8001041F080510B
:101E8000CBF80010DBF80000012700F08050009034
:101E90006B4E3068C00510D4306840F480703060FC
:101EA000FFF776F8009005E0FFF772F80099401A06
:101EB000022850D83068C005F6D55E4EA0686C3652
:101EC00001280FD00528306810D020F001003060C4
:101ED000306820F004003060A068B8B1FFF758F80F
:101EE00000900FE0306840F00100F4E740F004009B
:101EF0003060F7E7FFF74CF80099411A41F288305B
:101F0000814266D830688007F4D50EE0FFF740F8CC
:101F1000009007E0FFF73CF80099411A41F2883041
:101F2000814256D830688007F4D42FB1DBF8001016
:101F300021F08051CBF80010A069C8B33D49091DBC
:101F40000968C1F3810102294AD00228504607D00E
:101F5000C8F8600000E03CE0FFF71AF804463BE0F8
:101F60004746C8F86000FFF713F8064605E000BFD3
:101F7000FFF70EF8801B02282BD828688001F7D4C1
:101F8000D4E907010843A16A2E4A490802EB01413E
:101F9000626A41EA8211084394F82C1040EA016118
:101FA000C9F8001001203866FEF7F2FF044606E08B
:101FB0003EE000BFFEF7ECFF001B022809D82868AE
:101FC0008001F7D534E000BFFEF7E2FF001B0228D6
:101FD00002D90320BDE8F88F28688001F4D427E0F7
:101FE0000128F7D0D9F80000E26900F4800191429D
:101FF0001CD1226A00F03F01914217D147F6C0710F
:10200000626A0140B1EB821F10D1A26A4FF0FF3328
:1020100000F4403103EB5202B1EB024F06D194F8C9
:102020002C1000F07060B0EB016F01D00120D1E7FF
:102030000020CFE70438024000004742800E4742AC
:10204000007000400000FFFF70470068503050F8FB
:10205000210070470068503040F8212070477047D9
:1020600010B5044600688168C9040CD5C068C00575
:1020700009D52046FFF7F3FF2068C16801F0800111
:1020800061F4C071C1602068816889040CD5C068A2
:10209000800509D52046FFF7D7FF2068C16801F009
:1020A000800161F42071C16003494FF40030086081
:1020B0000120607710BD0000143C014010B500689D
:1020C0000B4641680D480140080CD870C1F3042448
:1020D0005C7001F03F049C70C1F34231197052B939
:1020E00002F0D0F8D870587802F0CCF85870987890
:1020F00002F0C8F89870002010BD00003FFFFF00FC
:1021000010B50B460168896A596001680969C1F315
:102110000E019960006801680D480140C1F3054057
:102120001870C1F306245C7001F07F049C70890D67
:10213000D97052B902F0A6F81870587802F0A2F8D7
:102140005870987802F09EF89870002010BD00003A
:102150007F7F7F0010B5040002D0607F10B106E0E1
:10216000012010BD00202077204600F039F8022021
:1021700060772168CA20486221685320486220465F
:1021800002F096F830BB20688168144A11408160E3
:102190002168886862681043D4E904231A43104315
:1021A00088602168E068086120680169228941EA45
:1021B00002410161204602F09FF858B921680A6C7B
:1021C00022F480220A6421680A6CA3691A430A6413
:1021D000012161772268FF21516210BDBFFF8FFF8F
:1021E0001FB50021009101910291039100680C49F3
:1021F000884214D102200090C00103906846FFF786
:10220000BFFB08B1FEF761FA064901200860002211
:1022100005212920FEF764FF2920FEF753FF1FBD8B
:10222000002800403C0E47422DE9F843644E034627
:102230004FF4FA4730680C46B0FBF7F07911484389
:102240000090187F012877D04FF0010983F81C9087
:102250000220587718680025002A80684FEA4060FD
:102260006CD0002800DBE570A078227894F803C0D9
:1022700040EA02406278E169120242EA8C5210435D
:1022800094F8202040EA026008436169A26908438B
:102290006168D3F800C01143CA22CCF82420D3F8D7
:1022A00000C05322CCF82420626AFF24B2F5807F5C
:1022B0001A684FF0030C5CD0D2F8088028F400783C
:1022C000C2F808801A68D2F80C8008F0800868F418
:1022D0002078C2F80C8032684FF47A76B2FBF7F2BD
:1022E000724300921A68009E771E009761D3D668E9
:1022F000B607F8D51062186881641868816841F4DF
:10230000007181601868816841F4005181602D4836
:10231000016841F4003101602A480830016841F445
:10232000003101601868446283F81D901D77002019
:10233000BDE8F88300E001E00220F9E7002800DBB7
:10234000E570207801F0A7FF0204607801F0A3FF98
:1023500042EA0022A07801F09EFF0243E07842EAC0
:10236000805294F8200001F096FF42EA0060E16993
:102370008AE7966826F4807696601A68D66806F032
:10238000800666F4C076D6601A68009E771E0097B5
:102390000FD3D668F607F8D0D06118684164186882
:1023A000816841F4807181601868816841F48051CE
:1023B000ACE7546283F81DC01D770320B8E7000026
:1023C0003C000020003C014070B50446007F0B46F5
:1023D000012819D00126267702206077B2B19878BB
:1023E000D97840EA014558781978000240EA41302E
:1023F00005432168CA20486221685320486220466C
:1024000001F056FFD0B122E0022070BD5878C1061D
:1024100003D500F0EF000A305870D87801F03BFF88
:102420000204587801F037FF42EA0022987801F060
:1024300032FF0243187842EA4035DAE707480540A0
:1024400020684560204601F057FF00B96677226892
:10245000FF2151620021217770BD00003FFFFF0086
:102460002DE9F0410446007F0D46012823D04FF0AE
:10247000010884F81C8002206077206800278068AB
:102480004FEA4060D2B1002800DBEF70A8782978CD
:1024900040EA01466878E978000240EA8150064344
:1024A0002168CA204862216853204862204601F012
:1024B000FFFEB8B12CE00220BDE8F081002800DB6F
:1024C000EF70287801F0E7FE0204687801F0E3FE7F
:1024D00042EA0022A87801F0DEFE0243E87842EAF0
:1024E0008056DDE70D480640206806602068816858
:1024F00021F480218160D5E90301084321688A68BD
:1025000010438860204601F0F7FE08B984F81D806A
:102510002268FF2151622777CEE700007F7F7F008E
:1025200070B504460068C16821F0A001C160FEF7E3
:102530002FFD05464FF47A7607E000BFFEF728FD31
:10254000401BB04201D9032070BD2068C0688006DE
:10255000F4D5002070BD10B5FDF7C0FF10BD000020
:102560002DE9FE430446002603200D4684F834007E
:10257000606C03285ED0B5F5805F5BD04FF40067D8
:1025800000204FF08068BD421FD18146009001902D
:102590000021206801F0DBFE800113D4694620464B
:1025A00002F0C8FA07000DD10198400334D5B4F801
:1025B00050000104206801F001FF070002D1022150
:1025C000206823E0A06B384328E01DB1A06B40F0E9
:1025D000006023E08146009001900021206801F016
:1025E000B6FE8001EED46946204602F0A3FA070049
:1025F000E8D10198C0030FD5B4F850000104206859
:1026000001F0DCFE0700DDD10021206801F023FF8E
:102610000700D7D14F46D5E74746D3E7A063A06B65
:10262000144F4FF0010848B12068876384F8348064
:1026300001260EE0A06B40F08050EFE7211DD4E9A9
:10264000050C0EC9CDE90050CDF808C0206801F096
:1026500087FE4FF40071206801F0E4FE28B1216884
:102660008F63A16B0143A163012684F83480304657
:10267000BDE8FE83FF05400070470000F0B5426EE4
:10268000920F0A70426EC2F383624A70426EC2F3C6
:1026900001628A70426E120CCA70B0F86420120A8D
:1026A0000A7190F864204A71826E120DCA80826E9F
:1026B000C2F303420A72B0F86820C2F3C0324A7211
:1026C000B0F86820C2F380328A72B0F86820C2F392
:1026D0004032CA72B0F86820C2F300320A73002692
:1026E0004E73426C4FF40075012462B1012A3AD056
:1026F000026847499163816B41F08051816380F8A2
:1027000034400120F0BDB0F86820C36E9205120D70
:1027100042EA93720A61C26EC2F3C2620A75C26E65
:10272000C2F302624A75C26EC2F342528A75C26E29
:10273000C2F38242CA75C26EC2F3C2320A760A6915
:10274000521C42650B7E03F007039B1C9A404265B6
:102750000B7A03F00F0704FA07F383655B0A5A4309
:10276000C0E917250EE090F86820C36E9206920A21
:1027700042EA13420A610A69521C92024265C0E9A8
:102780001652056630F86C2FC2F3803201F8192F0B
:102790000288C2F3C6124A70027802F07F028A7081
:1027A0004268D20FCA704268C2F341720A7142682D
:1027B000C2F382624A714268C2F383528A714268EC
:1027C000C2F34052CA710E724268C2F300424A72AA
:1027D0008288C2F3C0328A728288C2F38032CA729F
:1027E0008288C2F340320A738288C2F300324A738D
:1027F0008288C2F381228A738288C2F30122CA735B
:102800000079C0F3460008744C740020F0BD00004D
:10281000FF054000426C0A60826C4A60C26C8A60AC
:10282000026DCA60426D0A61826D4A61C26D8A6141
:10283000006EC8610020704770B50446B0F85000C3
:1028400000250104206801F0EEFE18B1A16B0143E0
:10285000A16304E00021206801F079FD0546C5F37D
:10286000432070BDF8B5056B04460068416B090450
:102870001BD5290719D5D4E90A56002E14D00027F4
:10288000206801F083FD05F8010B010A05F8011B22
:10289000010C05F8021B000E361F7F1C05F8010C09
:1028A000082FEDD3C4E90A56F8BD416B4FF000067E
:1028B000C9054FF0010744D5390281632068C16B17
:1028C0004CF23A329143C1632068C16A21F00101A0
:1028D000C16228071DD515F0220F09D0206801F02C
:1028E000D3FE28B1A16B0143A1632046FFF7C4FECC
:1028F000216840F23A50886384F834702663A80750
:1029000003D0204600F040FAF8BD204600F040FA1F
:10291000F8BD2806FCD5A80609D5206801F0B4FE4C
:1029200028B1A16B0143A1632046FFF7A5FEA807CC
:10293000EED12068C16A21F00801C16284F83470C8
:10294000E3E7416B490424D5290722D5D4E9085689
:10295000002EDDD05FF0000715F8010B009015F890
:10296000011B361F40EA0120009015F8021B40EAC7
:102970000140009015F8011C40EA01600090694692
:10298000206801F016FD7F1C082FE5D3C4E9085626
:10299000F8BD416B40F23A221142F9D0416B8907F0
:1029A00003D5A16B41F00201A163416B090703D577
:1029B000A16B41F00801A163416B890603D5A16BAE
:1029C00041F02001A163416BC90603D5A16B41F021
:1029D0001001A163416B890503D5A16B41F008018A
:1029E000A16340F23A7181632068C16B40F23A32D0
:1029F0009143C163206801F047FEA16B0843A063C7
:102A0000280706D584F8347026632046FFF734FE85
:102A1000F8BD2806FCD515F0300F0CD0E16B11483D
:102A20000865E06BFEF71AF80028F1D0E06BBDE80E
:102A3000F84002F05DB8A8070CD0216C0A48086580
:102A4000206CFEF70BF80028E2D0206CBDE8F840BF
:102A500002F025B8A66384F8347026632046FFF799
:102A60007AFDF8BDF14A00089F4A000870B50400DD
:102A70000ED094F83400002518B92577204600F0D0
:102A80004FF8032084F83400204600F00BF808B11A
:102A9000012070BDA5632563012084F83400002067
:102AA00070BD0000FEB50025044676200095CDE9F6
:102AB000015029460B460A46206801F051FC48BBEC
:102AC000154E46F8A05F206801F05CFC01253560DA
:102AD0000220FEF749F9204602F010F930B100BF9C
:102AE00084F83450A16B0143A16313E0204602F047
:102AF0008EF80028F4D14FF40071206801F092FCA8
:102B0000002808D0226805499163A16B0143A163A5
:102B100084F834500120FEBD00802542FF054000AE
:102B20002DE9F04F87B0054614216846FDF7F4FB08
:102B30004649286888427DD145480068444940F4A8
:102B400000600860086800F4006005904048143890
:102B500000683F4940F0040014390860086800F03C
:102B600004000590086840F0080008600868032623
:102B700000F0080005904FF4F850009002200190FA
:102B80000020CDE902060C24694604943148FEF782
:102B9000FDF804270220CDE900700020CDE90206EF
:102BA000694604942C48FEF7F1F82D4C2B484FF061
:102BB0000068C4E900080020A060E06038022061DD
:102BC000C4E90976800004F114014FF480494FF004
:102BD000200A4FF4003B81E8010EC602470220465E
:102BE000C4E90B67FEF71EF808B1FDF76EFD2C6413
:102BF000A5631B4C194860344838C4E900084020DC
:102C0000A0600020E0604FF48060206104F11401B6
:102C1000800081E8010E042060621431032081E805
:102C2000C1002046FDF7FEFF08B1FDF74EFDEC6345
:102C3000002200E007E005213120A563FEF750FAED
:102C40003120FEF73FFA07B0BDE8F08F002C0140BD
:102C50004438024000080240000C0240A0640240D8
:102C6000BC0100202DE9F04786B01F4604461546FA
:102C700039B194F83400012807D0022006B0BDE82D
:102C8000F087A06B40F0006008E00020A063E36DD7
:102C9000EA199A4204D9A06B40F00070A06369E081
:102CA000032284F8342022688146D0622268D36BE4
:102CB00040F22A363343D363236C2F4ADA63236C02
:102CC0002E4ADA64226C1065226C9060206C0068D9
:102CD000026822F0C002026020680A46266C4FEAB1
:102CE000472800F180014FEA98033046FEF704F8C8
:102CF000DFF88CA0012670B12068C16B21F49571BA
:102D0000C1632168C1F838A0A06B40F08040A06387
:102D100084F834602EE01B480660606C012800D007
:102D20006D024FF0FF30CDE90008902002900220A4
:102D30000596CDE903096946206801F0F2FA012FF2
:102D400006D9822020632946206801F0DDFB05E0DA
:102D5000812020632946206801F0EFFB00288DD0F8
:102D60002268C2F838A0A16B0143A16384F83460E3
:102D7000C4F83090012081E75D4A0008F949000855
:102D8000FF0540008C85254210B5FDF7EFFB10BD17
:102D900010B5FDF707FC10BD2DE9F04F5FEA010B00
:102DA00087B01E460446114607D094F83400012827
:102DB00007D0022007B0BDE8F08FA06B40F00060A4
:102DC00008E00025A563E26D8819904204D9A06B44
:102DD00040F00070A06356E0032084F834002068BF
:102DE000C5622068C26B40F21A2942EA0902C26336
:102DF000E26B2D48D063E26B2C48D064E06B056534
:102E0000606C012800D049024FF09008012E05D9CE
:102E1000A0202063206801F051FC04E0C4F8308059
:102E2000206801F064FCDFF888A0012730B1226837
:102E3000C2F838A0A16B0143A16321E01D480760DF
:102E4000E16B40208860E06B0068016821F0C00100
:102E500041F04001016022687602B3085946803291
:102E6000E06BFDF749FF80B12068C16B21EA0901E1
:102E7000C1632168C1F838A0A06B40F08040A06316
:102E800084F834702563012094E74FF0FF30CDE9DA
:102E90000006CDE90285CDE904576946206801F0B6
:102EA00040FA002086E70000E34A0008F9490008DC
:102EB000FF0540008C85254270B5040009D0606A8A
:102EC000002540B125616561A56294F8510040B1CB
:102ED0000CE0012070BD6068B0F5827FF4D0E56140
:102EE000F2E784F85050204600F044F8022084F8BD
:102EF00051002068016821F040010160A08821890B
:102F000000F4827001F404410843A18901F40061D6
:102F10000843217C01F002010843217D01F00101F9
:102F20000843218B01F400710843217F01F038012F
:102F3000084394F8201001F080010843218D01F42A
:102F40000051084321680860A069042101EA10408B
:102F500094F8241001F010010843216848602068AB
:102F6000C16921F40061C1616565012084F85100E7
:102F7000002070BD2DE9F04387B006461421684655
:102F8000FDF7CAF92C493068884251D12B480024FA
:102F9000016841F480510160006800F480500590A0
:102FA00026481438016841F0010101600068694653
:102FB00000F001000590F02000900220CDE901040E
:102FC00003200390052004901D48FDF7DFFE1E4DF1
:102FD0001C484FF0C067E5E8020740204FF48068C6
:102FE000A5E811014FF4003945F814491648AC61C1
:102FF000C5E907496C62FDF715FE08B1FDF765FBF1
:10300000B564AE63104D0F48603578382860C5E967
:103010000174C5E903486C61AC61C5E907492846FC
:103020006C62FDF7FFFD08B1FDF74FFBF564AE6381
:1030300007B0BDE8F0830000003001404438024092
:103040000000024088640240D402002070477047AC
:1030500070B590F83C20012A32D0012480F83C4021
:10306000022280F83D2003685A689D6822F07006AD
:103070000A6832435A60134B02689A4214D0B2F184
:10308000804F11D0104B9A420ED0104B9A420BD069
:103090000F4B9A4208D00F4B9A4205D00E4B9A42E2
:1030A00002D00E4B9A4204D1496825F0800319439F
:1030B000916080F83D40002180F83C10084670BDCA
:1030C000022070BD000001400004004000080040E4
:1030D000000C004000040140004001400018004086
:1030E00010B5040003D094F83D0010B107E00120B2
:1030F00010BD002084F83C00204600F01FF802209C
:1031000084F83D00211D206801F07CFF012084F837
:10311000460084F83E0084F83F0084F8400084F8BC
:10312000410084F8420084F8430084F8440084F8A5
:10313000450084F83D00002010BD000010B586B0A9
:10314000044614216846FDF7E7F82268002121486B
:10315000B2F1804F0CD0204B9A4211D1016841F05E
:1031600002010160006800F00200059006B010BD89
:10317000016841F001010160006800F00100F4E71E
:10318000164B9A42F2D1026842F0040202600068D3
:1031900000F0040005900F481038026842F0080261
:1031A0000260006800F0080005909814009002206A
:1031B000CDE90101CDE9031069460948FDF7E6FDB7
:1031C000002205211E20FDF78BFF1E20FDF77AFF50
:1031D000CCE70000403802400004004000080040F6
:1031E000000C024090F83D10012901D001207047E9
:1031F000022180F83D100168CA6842F00102CA60ED
:1032000000681149884214D0B0F1804F11D00F49A5
:1032100088420ED00E4988420BD00E49884208D011
:103220000D49884205D00D49884202D00C49884298
:1032300004D1816801F00701062903D0016841F03B
:1032400001010160002070470000014000040040BF
:1032500000080040000C0040000401400040014014
:103260000018004070B5044690F83C000025012885
:1032700017D0012684F83C60022084F83D002068C5
:10328000826822F0770222F47F4282600868502828
:1032900038D00DDC20284FD005DC90B3102811D198
:1032A0004AE0022070BD302846D040280AD13BE0D9
:1032B00060282FD070280DD0B0F5805F03D0B0F516
:1032C000005F12D0012584F83D60002084F83C00A6
:1032D000284670BDCB68D1E90121206801F0F6FED7
:1032E0002068816841F0770109E0CB68D1E90121CC
:1032F000206801F0EBFE2068816841F48041816024
:10330000E1E719E0CA684968206801F0B3FF50217D
:10331000206806E0CA684968206801F0FDFF602166
:10332000206801F0DDFECEE7CA684968206801F038
:10333000A1FF40212068F4E7226801461046F0E72B
:1033400010B50068104988420CD110481049831C00
:1033500004780A68012C06D0022C03D1516A5980E6
:103360000321017010BD002454620A68546A1C8055
:10337000136A23F00A03136209680A6A42F0020220
:103380000A620221EDE7000000080040B0000020C2
:10339000240400202DE9F041054690F83C00002669
:1033A0000C46012810D0012085F83C0072B1042A97
:1033B0001CD0082A2CD00C2A50D00126002085F8D9
:1033C0003C003046BDE8F0810220FBE7D4E9001262
:1033D000E368286801F060FF2868816921F00C012A
:1033E000816128688169A26811430FE0D4E9001265
:1033F000E368286801F0A2FF2868816921F4406130
:10340000816128688169A26841EA02218161D5E76A
:103410002868D4E9002C277B016A21F480710162BD
:10342000C169036A21F0030141EA0C0121F0F00CAB
:1034300039074FF420674CEA116123F4206307EA4F
:1034400002221A43C16102622868C16921F00C019D
:10345000C1612868C169A268114328E02868D4E9DD
:103460000027E168036A23F480530362D0F81CC08C
:10347000036A2CF4407C4CEA07274FF6FF7C27F4C4
:1034800070470CEA013139434FF4204723F42043BD
:1034900007EA02321A43C16102622868C16921F455
:1034A0004061C1612868C169A26841EA0221C16125
:1034B00084E710B5040003D094F83D0010B107E094
:1034C000012010BD002084F83C00204600F01EF8CA
:1034D000022084F83D00211D206801F093FD0120A9
:1034E00084F8460084F83E0084F83F0084F84000E9
:1034F00084F8410084F8420084F8430084F84400D2
:1035000084F8450084F83D00002010BD704770B578
:103510000446006801694FF00005C943890715D4C6
:10352000C168C943890711D4E91E016101202077D0
:10353000206880698007204602D0FFF701FF04E081
:1035400000F0C0F8204600F052F9257720680169A4
:10355000C943490717D4C168C943490713D46FF059
:1035600004010161022020772068806910F4407F07
:10357000204602D0FFF7E4FE04E000F0A3F8204666
:1035800000F035F9257720680169C943090716D489
:10359000C168C943090712D46FF008010161042012
:1035A00020772068C0698007204602D0FFF7C8FE58
:1035B00004E000F087F8204600F019F9257720682C
:1035C0000169C943C90617D4C168C943C90613D4E0
:1035D0006FF010010161082020772068C06910F4A5
:1035E000407F204602D0FFF7ABFE04E000F06AF80F
:1035F000204600F0FCF8257720680169C943C90717
:1036000008D1C168C943C90704D1891E0161204698
:1036100000F0EEF820680169C943090609D4C168C1
:10362000C943090605D46FF0800101612046FFF708
:103630000DFD20680169C943490609D4C168C94321
:10364000490605D46FF040010161204600F0DAF828
:1036500020680169C94389060BD4C168C94389063A
:1036600007D46FF0200101612046BDE87040FFF7EC
:10367000EEBC70BD10B586B0044614216846FCF758
:103680004BFE0D492068884214D10C480021026885
:1036900042F004020260006800F00400059040203F
:1036A00000900220CDE90101CDE9031069460448EC
:1036B000FDF76CFB06B010BD00040040303802403E
:1036C00000080240704770B5044690F83C000026A0
:1036D0000D4601280FD0012084F83C006AB1042A6D
:1036E0001DD0082A2FD00C2A3FD00126002084F8B4
:1036F0003C00304670BD022070BD206801F0F8FC2F
:103700002068816941F0080181612068816921F0A8
:1037100004018161206881692A69114311E02068F0
:1037200001F016FD2068816941F400618161206823
:10373000816921F480618161206881692A6941EA97
:1037400002218161D2E7206801F038FD2068C1695B
:1037500041F00801C1612068C16921F00401C16123
:103760002068C1692A69114311E0206801F05AFDFF
:103770002068C16941F40061C1612068C16921F418
:103780008061C1612068C1692A6941EA0221C16181
:10379000ACE710B5040003D094F83D0010B107E089
:1037A000012010BD002084F83C00204600F01EF8E7
:1037B000022084F83D00211D206801F023FC012037
:1037C00084F8460084F83E0084F83F0084F8400006
:1037D00084F8410084F8420084F8430084F84400EF
:1037E00084F8450084F83D00002010BD7047704704
:1037F00000680349884201D1FDF7D0BB7047000043
:1038000000100040704770B5040004D094F83D00EB
:10381000002510B106E0012070BD84F83C50204620
:1038200000F022F8242084F83D002068C16821F4CB
:103830000051C160204601F09DFD2068016921F41E
:10384000904101612068416921F02A0141612068AD
:10385000C16841F40051C1602564202084F83D0016
:1038600084F83E00002070BD2DE9F04F87B004467B
:1038700014216846FCF750FDDFF864C10221266878
:10388000584803220723DFF8608100258F064FF098
:10389000400A4FF4806B66454CD1524E1436D6F830
:1038A00000C04CF0100CC6F800C0366806F01006D8
:1038B0000596066846F001060660006800F0010003
:1038C000059050028DE8230069464046CDE9032368
:1038D000FDF75CFA464E4FF400384448C6E9035BF6
:1038E0007561B561C6E90758B946756286E8010693
:1038F0005F463046FDF796F908B1FCF7E6FE6663D1
:10390000B4633B4E3948603678383060C6E901957B
:10391000C6E903577561B561C6E907583046756257
:10392000FDF780F908B1FCF7D0FEA663B46307B0D9
:10393000BDE8F08FDFF8BCC06645F8D1294E1036DF
:10394000D6F800C04CF4003CC6F800C0366806F457
:1039500000360596066846F001060660006800F02D
:10396000010005900C208DE8230069464046CDE912
:103970000323FDF70BFA1E4E4FF40038C0361E48E5
:10398000C6E9035B7561B561C6E90758756286E8EB
:103990008104D9463046FDF745F908B1FCF795FE9C
:1039A0006663B4631448154E18383060C6E9017573
:1039B000C6E903597561B561C6E9075830467562B5
:1039C000FDF730F908B1FCF780FEA663002205215F
:1039D0002620B463FDF784FB2620FDF773FBA6E7E2
:1039E000001001403038024000000240B86402403C
:1039F000F404002000440040A060024014060020AF
:103A00002DE9F84F044690F83E009A4616460D46BA
:103A1000202853D1FDB1F6B194F83C0001284DD0D7
:103A2000012084F83C0000272764222084F83E000F
:103A30002763FDF7ADFAA6858146E685A0684FF4B9
:103A40008058404501D1206940B12E465FF0000505
:103A500084F83C7027E00120BDE8F88F0026F7E7E6
:103A60004B46002220212046CDF800A001F008FDA1
:103A700008B10320F0E726B1A06840451BD038B15B
:103A800008E020684068C0F3080025F8020B07E052
:103A9000206980B12068406800F07F0006F8010BC3
:103AA000E08D401EE085E08D0028D9D1202084F8EB
:103AB0003E000020D0E720684068EFE70220CBE717
:103AC000FEE700007FB5002415480094019402949D
:103AD0001249039401604FF48031C0E9011404617C
:103AE000047680F820400F49C0E90A140125C56119
:103AF000C46080F830404561FCF74DFF08B1FCF729
:103B0000E4FD0095CDE9015469460548FCF704FE43
:103B1000002801D0FCF7D9FD7FBD00000020014046
:103B2000D00000200100000F294808B5016841F4C9
:103B300080010160016801F480010091016841F495
:103B4000001101600068002200F4001000900521BF
:103B50001020FDF7C5FA1020FDF7B4FA0022052168
:103B60001120FDF7BDFA1120FDF7ACFA0022052166
:103B70003820FDF7B5FA3820FDF7A4FA0022052118
:103B80003A20FDF7ADFA3A20FDF79CFA0022052114
:103B90003B20FDF7A5FA3B20FDF794FA0022052112
:103BA0004420FDF79DFA4420FDF78CFA0022052100
:103BB0004520FDF795FA4520FDF784FA00220521FE
:103BC0004620FDF78DFABDE808404620FDF77ABA99
:103BD0003038024010B504490448FCF778FD02492A
:103BE000491E087010BD0000290000206C750008F7
:103BF0002DE9F04786B014216846FCF78DFB3C4860
:103C00000024016841F004010160016801F0040131
:103C10000591016841F080010160016801F08001B7
:103C20000591016841F001010160016801F00101A5
:103C30000591016841F002010160016801F0020193
:103C40000591016841F0080101600068DFF8A48077
:103C500000F008000590002210214046FDF793F97E
:103C6000DFF894A00122C4215046FDF78CF9DFF85B
:103C70008C904FF40067002239464846FDF783F9DF
:103C80000125CDE9005469461D480294FDF77EF8F0
:103C90001020CDE900050226CDE9025669464046CE
:103CA000FDF774F80420CDE90005CDE90246694628
:103CB0005046FDF76BF800970396CDE9015469462D
:103CC0004846FDF763F808208DE8510069464846EC
:103CD000FDF75CF8C020009001AA112082E8510095
:103CE00069465046FDF752F806B0BDE8F08700007F
:103CF000303802400008024000040240000C02403C
:103D00000000024070B592B014210AA8FCF704FB31
:103D10000024282168460F94FCF7FEFA3848016811
:103D200041F080510160006800F080501090FDF774
:103D30001BFE35483349C0E900147F218160FF2113
:103D4000C0E9031444618461FEF704FA08B1FCF78A
:103D5000BCFC00212C48FEF778F945F65A25A8420C
:103D60004BD012208DF828008DF829408DF82A407C
:103D70000D9401220AA924480E94FEF771FB08B1A4
:103D8000FCF7A3FC01268DF83C6004208DF83D0073
:103D900022208DF83E0024208DF83F0032460FA9E6
:103DA0001948FEF711FB08B1FCF78FFC23208DF8B2
:103DB000000055208DF8010056208DF802004FF0CC
:103DC0008030CDE9044001944FF01060CDE9060445
:103DD0004FF48070039409908DF8206001226946A9
:103DE0000948FEF721FA08B1FCF76FFC2A460021CA
:103DF0000548FEF72FF912B070BD00F001FAFAE79E
:103E000040380240002800401801002007480649B9
:103E10004FF400620160002141608160C0E903123B
:103E200041610C2181617047002C01403801002064
:103E30000F4810B50D4901604FF4827141600021B7
:103E40008160C1604FF480220161C0E90512C16147
:103E50000162416281620A21C162FFF72DF80028E8
:103E600003D0BDE81040FCF730BC10BD003001406D
:103E70007C02002010B586B00024164800940194FE
:103E80000294039404944FF08041059401605321FF
:103E9000C0E901144FF6FF71C0E903148461FFF714
:103EA0001FF908B1FCF711FC4FF4805000906946EF
:103EB0000848FFF7D7F908B1FCF707FC049404A9F8
:103EC00004480594FFF7C4F8002801D0FCF7FDFB77
:103ED00006B010BD9403002010B58EB000240794E6
:103EE000089409940A940B941C2168460C94FCF7DE
:103EF00013FA20481E49016040F24731C0E901141D
:103F00004FF4FA61C0E9031480218161FFF7E8F8FA
:103F100008B1FCF7DAFB4FF48050079007A9154869
:103F2000FFF7A0F908B1FCF7D0FB1248FFF731FC0E
:103F300008B1FCF7CAFB0B940BA90E480C94FFF7D1
:103F400087F808B1FCF7C1FB6020009040F2E73031
:103F5000CDE901040022694606480494FFF7B3FB4B
:103F600008B1FCF7B2FB0348FFF784FB0EB010BDAD
:103F700000040040DC03002010B58AB00024234870
:103F80000494059406940794089409940094019469
:103F900002941D49039401605321C0E901144FF6B6
:103FA000FF71C0E9031480218161FFF799F808B11E
:103FB000FCF78BFB4FF48050049004A91348FFF7E3
:103FC00051F908B1FCF781FB1048FFF772FA08B10C
:103FD000FCF77BFB089408A90C480994FFF738F814
:103FE00008B1FCF772FB0120CDE9004002940022E9
:103FF000694606480394FFF7CDF9002801D0FCF785
:1040000064FB0AB010BD000000080040240400203A
:104010000C4810B50A4901604FF4E13141600021BC
:1040200081600C22C160C0E904128161C161FFF7A7
:10403000EAFB002803D0BDE81040FCF746BB10BDEA
:10404000001001406C0400200C4810B50A490160C2
:104050004FF461214160002181600C22C160C0E900
:1040600004128161C161FFF7CEFB002803D0BDE8D7
:104070001040FCF72ABB10BD00440040B0040020F3
:10408000FEE7FEE70148FDF765B90000E8080020FB
:104090002DE9F04103680D4604461E6C03EB451103
:1040A000D1F8080BD4F810E04FF400474FF0200C83
:1040B00004F2C442BEF1010F09D0DFF898E0764562
:1040C00039D1020432D500BFC1F8087B3FE0224B52
:1040D0005FEA007E04D59E4239D90004F4D436E06C
:1040E0005FEA806E02D5C1F808CB30E010F0280FEF
:1040F0002DD19E4201D90004E6D405EBC50004EBA6
:104100008000D1F8101BD0F89832C1F31201591A6F
:10411000C0F89C1200F51F70ADB983691BB102692C
:10412000114401610FE0012120680AE080060AD5F0
:10413000C1F808CB07E035B9D4F8940218B90021CA
:10414000184601F067FFE9B22046FDF709F80020A4
:10415000BDE8F0810A31544F0A30544F2DE9F84F31
:104160000E4601EBC60100EB810481460568616DD6
:10417000E06D3C34884202D90120BDE8F88F081A6E
:10418000E168814200D20846C01C870805EB46184A
:104190001BE000BFA0EB010AE068504500D2824658
:1041A0000AF10300870899F8100000901FFA8AF3BB
:1041B000F2B22846216902F0F5F9216901EB0A0003
:1041C0002061216A01EB0A002062D8F8180980B248
:1041D000B84205D3216AA069814201D20028D9D111
:1041E000216AA069884208D806F00F0101208840A2
:1041F000D5F834188143C5F834180020BDE770475E
:1042000000B58BB028216846FCF786F801221749D3
:104210001748FDF775FF012216491548FDF74EFFB7
:1042200023208DF8000055208DF801000F484FF035
:10423000803101228078401C8DF802000020CDE9F9
:10424000040101904FF01061CDE9061003900120A8
:104250008DF820000002099069460548FDF7E4FF4B
:10426000002801D0FCF731FA0BB000BDBC000020E3
:1042700018010020040000200148FDF7F1BE0000F5
:1042800018010020010901EB810100F00F0000EB93
:104290004100C0B27047002103E0491C0A38C9B28E
:1042A000C0B20A28F9D2090740EA1160704700003D
:1042B0002DE9F041044600680025C168490618D47C
:1042C000C16841F08001C160FCF762FE06464FF410
:1042D0007A78042707E000BFFCF75AFE801B4045B0
:1042E00001D9677701252068C068400601D4002DF8
:1042F000F2D02846BDE8F08170B50446006800257C
:10430000C16821F08001C16020688068800606D401
:104310002046FEF705F910B10420607701252846F4
:1043200070BD0A6842624A688262D1E902231A4378
:10433000D1E904310B43C16A1A4321F0F70111435B
:10434000C16200207047006800F003007047084415
:10435000406970470148FEF785BA00003801002027
:1043600070B50DF1100C11439CE870002343194304
:1043700029434268314347F6FF639A430A43426048
:10438000002070BD0321016000207047D0F880003C
:1043900070470A688260D1E901231A43D1E90331E9
:1043A0000B43C1681A436FF30B011143C160002036
:1043B00070470968C0F880100020704710B585B0BC
:1043C00004463720CDE900104020029000200390E1
:1043D0004FF48060049069462046FFF7DAFF41F20F
:1043E00088323721204600F09BF905B010BD00004F
:1043F00010B504460A4885B001432920CDE90010D4
:1044000040200290002003904FF4806004906946A1
:104410002046FFF7BEFF204600F03AFA05B010BD77
:104420000000108010B585B004461020CDE90010C2
:1044300040200290002003904FF480600490694671
:104440002046FFF7A6FF41F288321021204600F0F7
:1044500067F905B010BD10B585B004460620CDE95A
:10446000001040200290002003904FF480600490E0
:1044700069462046FFF78DFF41F28832062120462B
:1044800000F04EF905B010BD30B585B000240546EA
:10449000009401944FF480600294CDE90340694692
:1044A0002846FFF776FF0B484FF4FA510068B0FB3F
:1044B000F1F041F288314843401E03D24FF00040F2
:1044C00005B030BD696B0906F6D5C520A863204646
:1044D000F6E700003C00002010B585B004464FF41C
:1044E000D570009008200190402002900020039099
:1044F0004FF48060049069462046FFF74AFF20464B
:1045000000F02CFA05B010BD10B585B0044612209D
:10451000CDE9001040200290002003904FF480600D
:10452000049069462046FFF734FF41F28832122199
:10453000204600F0F5F805B010BD10B585B0044672
:104540001120CDE9001040200290002003904FF48C
:104550008060049069462046FFF71BFF41F28832D5
:104560001121204600F0DCF805B010BD10B585B073
:1045700004460720CDE9002040200290002003904F
:104580004FF48060049069462046FFF702FF41F235
:1045900088320721204600F0C3F805B010BD10B5E1
:1045A00085B0044600210220CDE90010C020CDE9ED
:1045B00002014FF48060049069462046FFF7E9FE4F
:1045C000204600F03DF905B010BD10B585B0044699
:1045D0000920CDE90010C0200290002003904FF484
:1045E0008060049069462046FFF7D3FE204600F025
:1045F00027F905B010BD10B585B004460021332061
:10460000CDE900104020CDE9020100010490694687
:104610002046FFF7BEFE41F288323321204600F0EB
:104620007FF805B010BD10B585B004460D20CDE96A
:10463000001040200290002003904FF4806004900E
:1046400069462046FFF7A5FE41F288320D2120463B
:1046500000F066F805B010BD30B585B00C460546D3
:1046600000210320CDE900104020CDE90201000126
:10467000049069462846FFF78CFE2246032128460F
:1046800000F028F905B030BD10B585B00446002112
:104690000C20CDE900104020CDE90201000104907A
:1046A00069462046FFF775FE034A0C21204600F0BC
:1046B00037F805B010BD000000E1F50510B585B074
:1046C00004461920CDE900104020029000200390FC
:1046D0004FF48060049069462046FFF75AFE41F28D
:1046E00088321921204600F01BF805B010BD10B526
:1046F00085B004461820CDE900104020029000202B
:1047000003904FF48060049069462046FFF741FE15
:1047100041F288321821204600F002F805B010BDA1
:10472000454B10B51B684FF4FA54B3FBF4F35343F5
:104730005B1E02D24FF0004010BD426B12F0450FDD
:10474000F6D01205F4D4426B520703D504218163DD
:10475000084610BD426BD20702D00121816305E0FB
:10476000C52282630269D2B28A4201D0012010BD03
:104770000021FFF7ECFD3149084201D1002010BDB6
:10478000002802DA4FF0007010BD410001D5402032
:1047900010BD810001D5802010BDC10002D54FF4AD
:1047A000807010BD010102D54FF4007010BD4101B1
:1047B00002D54FF4806010BDC10102D54FF40060F6
:1047C00010BD010202D54FF4805010BD410202D548
:1047D0004FF4005010BD810202D54FF4804010BD4F
:1047E000C10202D54FF4004010BD410302D54FF481
:1047F000003010BD810302D54FF4802010BDC103ED
:1048000002D54FF4002010BD010402D54FF48010F2
:1048100010BD410402D54FF4001010BD810402D533
:104820004FF4800010BD000702D54FF4000010BD0A
:104830004FF4803010BD00003C00002008E0FFFD78
:1048400012494FF4FA520968B1FBF2F141F2883291
:104850005143491E02D24FF000407047426B12F0A4
:10486000450FF6D01205F4D4416B490703D5042156
:10487000816308467047416BC90703D001218163FA
:1048800008467047C5218163002070473C00002026
:104890000F494FF4FA520968B1FBF2F141F2883244
:1048A0005143491E02D24FF000407047426B12F054
:1048B000450FF6D01205F4D4416B490703D5042106
:1048C000816308467047C52181630020704700005E
:1048D0003C00002030B5204B4FF4FA541B68B3FB6A
:1048E000F4F341F2883463435B1E02D24FF0004080
:1048F00030BD446B14F0450FF6D02405F4D4436B5F
:104900005B0703D504218163084630BD436BDB0799
:1049100002D00121816303E00369DBB28B4201D045
:10492000012030BDC52181630021FFF710FD10F487
:10493000604F04D0410406D54FF4005030BD000C48
:104940001080002030BD000402D54FF4805030BDEF
:104950004FF4803030BD00003C00002014494FF47B
:10496000FA520968B1FBF2F141F288325143491E13
:1049700002D24FF000407047426B12F0450FF6D064
:104980001205F4D4416B490703D50421816308461D
:104990007047416BC90703D0012181630846704706
:1049A000416B490601D5402181630020704700001A
:1049B0003C00002010B5064C01202070FBF796FD4E
:1049C00018B9207820F001002070207810BD000078
:1049D0002000002070B5054601F046FE044603E0C5
:1049E000FBF784FD002806D001F03EFE001BA84224
:1049F000F6D34FF0FF3070BD10B5846BFCF740F874
:104A0000022828D0206C416DE06B406D012901D057
:104A100001281DD12168104888632068C16B21F4EA
:104A20009D71C163A06B40F08040A0632046FDF7FC
:104A300003FF062801D0052805D12068FFF724FED2
:104A4000A16B0843A063012084F834000020206398
:104A50002046FDF711FE10BDFF05400010B5846B28
:104A6000206B822809D12068FFF70EFE28B1A16BC8
:104A70000143A1632046FDF7FFFD2068C16A21F0D4
:104A80000801C162216840F23A508863012084F82D
:104A90003400002020632046FEF776F910BD10B5E3
:104AA000846B40F23A50216888632046FDF7C4FECB
:104AB000012184F8341000212163062801D0052843
:104AC00005D12068FFF7E0FDA16B0843A063A06B50
:104AD0000028204602D0FDF7CFFD10BDFDF73BFDBD
:104AE00010BD806B0068C16B41F48071C163704779
:104AF00010B5846B40F23A50216888632046FDF778
:104B00009BFE012184F8341000212163062801D086
:104B1000052805D12068FFF7B7FDA16B0843A06306
:104B2000A06B0028204602D0FDF7A6FD10BDFDF7C2
:104B300012FD10BD2DE9F04788B00D460446FCF784
:104B400027FA0026824600960196374608212068FB
:104B5000FFF768FC002829D1B4F850000104206850
:104B6000FFF72CFC002821D1401E4FF00808CDE9AA
:104B7000020830204FF00209CDE904090120CDE9F7
:104B8000067002A92068FFF7CCFB2068FFF733FD11
:104B900000280BD16F462068416B11F02A0F08D016
:104BA000416B09071AD5C0F83880082008B0BDE865
:104BB000F087416B890205D5FFF7E8FB47F826002F
:104BC000761C02E0416B8904EAD5FCF7E1F9A0EB21
:104BD0000A00401CDFD14FF00040E7E7416B890736
:104BE00003D5C0F838900220E0E7416B890603D571
:104BF000202181630846D9E740F23A518163019848
:104C000000BA2860009800BA68600020CEE710B5AE
:104C100090B004460120ADF838002068FFF793FB00
:104C2000002854D0606C032842D02068FFF7B7FCFE
:104C300000284AD100212068FFF789FB6067042122
:104C40002068FFF784FBA06708212068FFF77FFB3F
:104C5000E0670C212068FFF77AFBC4F88000606CE5
:104C6000032825D00EA92068FFF7F6FC00282CD1D8
:104C7000606C03281CD0BDF8380020650104206852
:104C8000FFF7A3FC002820D100212068FFF75FFB7D
:104C9000606604212068FFF75AFBA066082120689F
:104CA000FFF755FBE0660C212068FFF750FB2067FB
:104CB00004212068FFF74BFB000DE06403A92046A8
:104CC000FDF7DCFC30B14FF0805010B010BD4FF05C
:104CD0008060FAE7B4F85000002302042068FFF770
:104CE00045FC0028F1D104F1100007C88DE8070049
:104CF00094E80F00FFF734FB0020E6E72DE9F84FBA
:104D00000026044600963546B0460068FFF7BCFB17
:104D1000002827D12068FFF7DFFB4FF0805B4FF0C2
:104D200001094FF6FF7748B1A6642068FFF7ACFB96
:104D3000002817D1A06C012802D020E0C4F84890C8
:104D400000212068FFF73AFB58B918E000212068DD
:104D5000FFF734FB002805D151462068FFF748FBD8
:104D600010B15846BDE8F88F00212068FFF7EFFA30
:104D700005464FEAD0780098401C009002E0DFF82A
:104D80002CA00098B84202D2B8F1000FDED00098F3
:104D9000B84202D34FF08070E4E7680002D5C4F84F
:104DA000449000E066640020DCE70000000010C1D1
:104DB00070B5104C05460120207001F045FC02281A
:104DC00016D1FBF79FFB18B92846FFF7F3FD2070BB
:104DD000207801280CD0606850B9002202210A20F6
:104DE00001F07CFC606018B9207840F00100207070
:104DF000207870BD2000002010B5124888B01446FD
:104E00000078C00702D0032008B010BDC1B101294D
:104E100005D0022908D003290CD00420F4E7684605
:104E2000FBF75EFB06980AE06846FBF759FB07981C
:104E3000208005E06846FBF753FB0798400A206096
:104E40000020E1E7200000202DE9F84347F230542C
:104E50001E461746884601252046FFF7BBFD002861
:104E60001EDB324639464046FBF772FBC0B90F489D
:104E7000234600226946406801F0FEFB80B9BDF878
:104E8000000001280CD101F0EFFB064603E000BF53
:104E9000FBF72CFB38B101F0E7FB801BA042F7D3F6
:104EA0002846BDE8F8830025FAE70000200000202E
:104EB000FFF780BD2DE9F84347F230541E461746F0
:104EC000884601252046FFF785FD00281EDB324677
:104ED00039464046FBF758FBC0B90F48234600222D
:104EE0006946406801F0C8FB80B9BDF8000002289F
:104EF0000CD101F0B9FB064603E000BFFBF7F6FA60
:104F000038B101F0B1FB801BA042F7D32846BDE8C1
:104F1000F8830025FAE7000020000020017840789F
:104F200041EA0020704710B54FF0E020006902F020
:104F3000C3F9012803D0BDE8104001F0DBBE10BD6D
:104F400030B593B030216846FBF7E6F914210CA880
:104F5000FBF7E2F91F480025016841F0805101602C
:104F6000006800F0805011901B48016841F48041B6
:104F700001600068022400F4804011900520009038
:104F80004FF480300190012002908005CDE9064069
:104F900004200890A820CDE9090407200B9068465A
:104FA000FCF79CFE08B172B6FEE70CA90F2081E861
:104FB00031004FF4A0500F904FF480501090052115
:104FC0000CA8FCF77BFD002801D072B6FEE713B0F9
:104FD00030BD0000403802400070004002480168C7
:104FE00041F470010160704788ED00E00148FEF770
:104FF0008EBA0000240400200148FEF788BA0000A1
:1050000074060020F0B50268254C264D264E274F29
:10501000274B4FF0804CA04209D0604507D0A842F2
:1050200005D0B04203D0B84201D0984204D122F05A
:10503000700E4A6842EA0E02A0421BD0604519D0A9
:10504000A84217D0B04215D0B84213D0984211D020
:10505000184DA8420ED0184DA8420BD0174DA842AB
:1050600008D0174DA84205D0164DA84202D0164DC3
:10507000A84203D122F44075CA682A434D6922F040
:1050800080022A4302608A68C2620A688262A04281
:1050900001D0984201D10969016301214161F0BD4C
:1050A000000001400004004000080040000C0040E7
:1050B000000401400040014000440140004801401C
:1050C00000180040001C00400020004010B584681B
:1050D00042EA032224F47F440A432243826010BD43
:1050E000826822F070020A4342F007018160704733
:1050F000F0B5026A22F001020262036A4268846922
:10510000124E24F073050C682C4323F002058B68C3
:105110002B430D4DA84201D0B04205D123F0080722
:10512000CB683B4323F00403A84201D0B04205D131
:105130004D6922F4407215438A692A4342608461B2
:10514000496841630362F0BD000001400004014072
:10515000F0B5026A22F010020262026A43688469B2
:105160000D6824F4E64444EA05248D6822F0200208
:1051700042EA05120F4D104EA84201D0B04206D1AE
:10518000CF6822F0800242EA071222F04002A842D1
:1051900001D0B04207D14D6923F4406343EA85034F
:1051A0008D6943EA850343608461496881630262D3
:1051B000F0BD00000000014000040140F0B5026AAB
:1051C00022F480720262026A4368C46922F40072A7
:1051D00024F073050C68124E2C438D6842EA0522B8
:1051E0000E4DA84201D0B04206D1CF6822F4006231
:1051F00042EA072222F48062A84201D0B04207D1DD
:105200004D6923F4405343EA05138D6943EA0513BE
:105210004360C4614968C1630262F0BD000001409F
:105220000004014030B5026A22F480520262046A2E
:105230004268C3690D6823F4E64343EA05238D6899
:1052400024F4005444EA0534084DA84202D0084D25
:10525000A84204D14D6922F4804242EA851242609C
:10526000C36149680164046230BD00000000014070
:105270000004014010B5036A046A24F001040462CA
:10528000846924F0F00444EA021423F00A020A4379
:105290008461026210BD000070B5046A24F001044C
:1052A00004628469056A154EB04214D0B0F1804F93
:1052B00011D0134EB0420ED0124EB0420BD0124E4F
:1052C000B04208D0114EB04205D0114EB04202D0CB
:1052D000104EB04203D124F00304144301E044F023
:1052E00001041A0724F0F00444EA126225F00A03CC
:1052F00001F00A0119438261016270BD00000140A2
:105300000004004000080040000C00400004014080
:10531000004001400018004010B5036A23F010035C
:1053200003628369046A23F4704343EA023224F07F
:10533000A00343EA01118261016210BD30B5046A25
:1053400024F0100404628469056A24F4407444EA79
:10535000022222F470444FF6FF7202EA0332224323
:10536000A02425F0A00304EA01111943826101621F
:1053700030BD000070B5044600680169E26821F4A0
:105380004051114301612169A068E26908436169E4
:10539000114308432168CA6849F20C639A430243E7
:1053A000CA6020684169A26921F4407111434161DA
:1053B00031492068884202D03049884202D1FCF746
:1053C0004DFC01E0FCF73AFCE26900231921642559
:1053D0003226B2F5004F626828D0A0FB0101930F7E
:1053E0009200FAF74FFF0146B0FBF5F06FF018029C
:1053F000504301EB800006EB0010B0FBF5F000F02D
:10540000F002B1FBF5F002EB0012B1FBF5F06FF02A
:105410001803584301EB800006EB0010B0FBF5F0D9
:1054200000F00F0021681044886070BDA0FB0101EE
:1054300092185B41FAF726FF0146B0FBF5F0020136
:10544000B1FBF5F06FF01803584301EB800006EB59
:10545000C000B0FBF5F000F0F80002EB4002B1FB39
:10546000F5F0584301EB800006EBC000B0FBF5F00F
:1054700000F00700D6E700000010014000140140D2
:105480002DE9F041984617460E460446069D27E052
:10549000681C25D02DB1FBF77BFDA0EB0800A842CE
:1054A0001ED920680C3050E8001F21F4D07140E86C
:1054B0000012002AF5D12068143050E8001F21F0B6
:1054C000010140E80012002AF5D1202084F83D00B7
:1054D00084F83E00002084F83C000320BDE8F08101
:1054E0002068006836EA000004D00020B842CFD01F
:1054F0000020F3E70120F9E77CB5214D2868016819
:10550000C943090704D401684168019101684168F1
:1055100000681B4CC0438006A4F1440422D44FF021
:10552000FF33012269461648FEF76AFAB4F84020B4
:105530004FF40030C2F30E013F2902D29DF8002043
:1055400007E0D10BC903A4F840109DF80020C1F377
:105550000E016254B4F8401000EBF1304FEA704095
:10556000A4F8400028680168C943C90607D434F884
:10557000401F41F4004121800168406801907CBDDA
:105580003C4F002010B5D0F8B82200245268904754
:1055900000B10324204610BD002070470020704752
:1055A000134610B50A46002100F0B7F9002010BDDF
:1055B000134610B50A46002100F04BFA002010BD3A
:1055C00010B50446802100F032FA2046BDE81040B4
:1055D000002100F02CBA10B50521C0F89412002368
:1055E0001A46194600F099F9002010BD10B50223A3
:1055F000C0F8943282611346C2610A46002100F06D
:1056000028FA002010BD10B50421C0F89412002320
:105610001A46194600F01DFA002010BDF8B50446E0
:105620000020ADF8000048880D46010A08295FD225
:10563000DFE801F05E0409175E5E3C45D4F8B41261
:10564000207C0A6819E0207C02260028D4F8B802E1
:1056500005D0C16A684688470146467039E0816ACC
:10566000F8E7C0B2062843D2DFE800F0030A1014BE
:10567000181CD4F8B402426805E0694690471CE063
:10568000D4F8B402826892B3207CF6E7D4F8B4026E
:10569000C268F8E7D4F8B4020269F4E7D4F8B402B7
:1056A0004269F0E7D4F8B4028269ECE7207CF0B9F3
:1056B000D4F8B802416B68468847014609E0207C6F
:1056C000A8B9D4F8B802016B68468847014607209C
:1056D0004870EA888AB1BDF8000040B1824200D922
:1056E0000246ADF800202046FFF780FFF8BDFFE737
:1056F00029462046FFF764FFF8E72046FFF783FFBF
:10570000F4E701004FF0000004D0012901D0022984
:1057100001D0032070470120704710B5D0F8C802AF
:10572000FBF73BFDBDE81040FFF7EBBF2DE9F04173
:1057300017460446002521B194F89C02032842D064
:105740004CE0D4F8941204F11400022935D1D0E9C8
:1057500002639E4206D9F21A826039462046FFF75C
:1057600027FF0FE0B34214D14068984211D3D4F818
:10577000981288420DD2002211462046FFF718FFEA
:10578000C4F8985200231A461946204600F0C5F87E
:1057900013E094F89C02032808D1D4F8B802C16839
:1057A00021B1C4F8D452C1682046884780212046E0
:1057B00000F03DF92046FFF70EFF94F8A00268B113
:1057C00084F8A0520AE0D4F8B802426932B1C4F8B1
:1057D000D452426920469047002800D10020BDE8FD
:1057E000F08170B513460446002221B194F89C0262
:1057F000032830D03AE0D4F8941204F5AA700329B3
:1058000034D1D0E902518D420AD96A1A8260084621
:10581000824200D3024619462046FFF7C1FE25E02A
:1058200094F8AA0210F01F0003D0012802D0022829
:1058300000D0002294F89C02032808D1D4F8B802C2
:10584000016921B1C4F8D422016920468847204665
:10585000FFF7D9FE0AE0D4F8B802836933B1C4F87F
:10586000D422826920469047002800D1002070BDD4
:105870000020704710B50024012180F89C12D0F858
:10588000B82222B152680179904700B10324204622
:1058900010BD0A0601F07F01D0F8C80201EBC1017A
:1058A00000EB810002D590F83E00704790F87E0230
:1058B000704710B5D0F8D42200EB8202D2F8B8229B
:1058C00022B190F89C32032B02D004E0032010BDDB
:1058D000126A02B19047002010BD10B5D0F8D42252
:1058E00000EB8202D2F8B82222B190F89C32032B4E
:1058F00002D004E0032010BD526A02B1904700209C
:1059000010BD10B51C461346D0F8C8022246FBF75E
:1059100072FCBDE81040FFF7F4BE10B5D0F8C80225
:10592000FBF799FCBDE81040FFF7EBBE2DE9F04115
:1059300000260125044680F89C52C4F894626660F3
:10594000C4F8A46280F8A062D0F8B80230B142680E
:1059500022B100212046904700B1032600224023B7
:1059600011462046FFF7CDFF4027A4F864513B467F
:10597000002280212046C4F86071FFF7C2FFA58491
:1059800030462762BDE8F08190F89C12042903D1CB
:1059900090F89D1280F89C120020704710B590F886
:1059A0009C12032905D1D0F8B81211B1C96901B10F
:1059B0008847002010BD01740020704710B5D0F852
:1059C000C802FBF79DFFBDE81040FFF79ABE70B517
:1059D000044600F2AA20054600F044F80120C4F86D
:1059E0009402B4F8B002C4F8980294F8AA0210F035
:1059F0001F010AD001290ED0022912D000F0800127
:105A00002046BDE8704000F012B829462046BDE8A7
:105A1000704000F0A3B829462046BDE8704000F071
:105A2000E3B929462046BDE8704000F02DB910B515
:105A3000D0F8C802FBF733FCBDE81040FFF761BEA9
:105A400090F89C1280F89D12042180F89C1200208E
:105A5000704710B5D0F8C802FBF75BFCBDE81040FA
:105A6000FFF74FBE70B5054611F8010B2870087896
:105A700068704C1C2046FFF751FA6880A41C204631
:105A8000FFF74CFAA880A01CFFF748FAE88070BD29
:105A900002460020D2F8B832002B02D01B68104614
:105AA000184770472DE9F04188462B4E897800252C
:105AB00004463170012906D941462046FFF780FD92
:105AC0000320BDE8F08194F89C02022702280CD044
:105AD00003281DD041462046FFF772FD317820464D
