:020000040800F2
:10800000D03300206182000897BC0008F3B7000855
:1080100095BC000885890008F5DB00080000000019
:10802000000000000000000000000000A181000826
:10803000B78A000800000000FD81000899C200080E
:108040007B8200087B8200087B8200087B8200081C
:108050007B8200086DBE00087B8200087B820008DE
:108060007B8200087B8200087B8200087B820008FC
:108070007B8200087B8200087B8200087B820008EC
:1080800089890008958900080D8800087B8200080E
:108090007B8200087B8200087B8200087B820008CC
:1080A0007B8200087B8200087B8200087B820008BC
:1080B0007B8200087B8200087B8200087B820008AC
:1080C0007B8200087B8200087B8200087B8200089C
:1080D0007B82000879C9000885C900087B820008F6
:1080E0007B820008E9BE00087B8200087B820008D2
:1080F0007B8200087B8200087B8200087B8200086C
:108100007B82000899BF00087B8200087B82000800
:108110007B8200087B82000861C300087B82000824
:10812000A18900087B820008AD890008B989000890
:108130007B8200087B8200087B8200087B8200082B
:108140007B8200087B8200087B82000899BC0008C3
:10815000C5890008D1890008DD8900087B820008F4
:108160007B8200087B8200087B8200087B820008FB
:108170007B8200087B8200087B82000800000000F0
:108180007B8200087B820008DFF810D000F02CFB17
:1081900000480047FDE40008AFF30080D033002022
:1081A0002C4B19680868B0E8F04F80F30988BFF3DA
:1081B0006F8F4FF0000080F31188704700000000BF
:1081C00008480068006880F308884FF0000080F3DA
:1081D000148862B661B6BFF34F8FBFF36F8F00DFB5
:1081E00000BF00BF08ED00E0DFF80C00016841F4BB
:1081F00070010160704700BF88ED00E0EFF3098077
:10820000BFF36F8F134B1A681EF0100F08BF20EDDD
:10821000108A20E9F04F106009B44FF0500080F34D
:108220001188BFF34F8FBFF36F8F06F077FB4FF0CE
:10823000000080F3118809BC19680868B0E8F04FA5
:108240001EF0100F08BFB0EC108A80F30988BFF34E
:108250006F8F704740000020EFF3058070470000EB
:108260000648804706480047FEE7FEE7FEE7FEE7D0
:10827000FEE7FEE7FEE7FEE7FEE7FEE751C3000884
:10828000898100082DE9F05F0546002092469B4653
:1082900088460646814640241BE02846414647461C
:1082A000224600F00AFA53465A46C01A914110D3AA
:1082B00011461846224600F0F1F92D1A67EB010825
:1082C0004F4622460120002100F0E8F917EB000993
:1082D0004E41201EA4F10104DFDC484631462A4607
:1082E0004346BDE8F09F40EA01039B0703D009E045
:1082F00008C9121F08C0042AFAD203E011F8013B92
:1083000000F8013B521EF9D27047D2B201E000F8EA
:10831000012B491EFBD270470022F6E710B5134629
:108320000A4604461946FFF7F0FF204610BD2DE926
:10833000FE4F804681EA0300C00F0C46009021F0FA
:10834000004123F00045B8EB0200A94105D24046A8
:10835000214690461C460B46024623F0004010433F
:1083600047D0270DC7F30A00C3F30A510290401A01
:10837000019040286BDAC3F3130040F4801B00988F
:10838000924620B10023D2EB030A63EB0B0B01985A
:108390005946C0F14002504600F080F906460D46AD
:1083A00050465946019A00F098F910EB08006141D7
:1083B000002487EA115284EAE7731A4340D0009AF6
:1083C00062B3019A012A4FEA075215DC001B61EBE8
:1083D00002014FF0004202EA0752CDE90042001CC0
:1083E00041F5801132462B4600F098F903B0BDE804
:1083F000F08F40462146F9E7001B61EB0201001CAB
:1084000041F5801300185B412018A2F5001747EBD7
:10841000030140EAD570B6196D4111E06D084FEACD
:10842000360645EAC0754FEA0752001B61EB0201B0
:10843000001C41F5801149084FEA300000195141F4
:1084400032462B4603B0BDE8F04F00F058B9009813
:10845000012240000023D0EB020263EBE07300989E
:1084600021464FEAE074B8EB000061EB0401E9E754
:1084700083F000435BE781F0004158E72DE9FE4FB0
:1084800081EA030404F0004421F0004100944FF01D
:10849000000B23F0004350EA01045ED052EA0304CB
:1084A0005BD0C3F30A54C1F30A552C44A4F2F3344D
:1084B0000194A0FB0254C1F3130141F48011C3F3F2
:1084C000130343F4801301FB024400FB034E840AB0
:1084D000970A44EA815447EA8357A4FB0768029548
:1084E0008D0A05FB07854FEA932C04FB0C542705E6
:1084F000029D4FEA065847EA1637B5EB08056EEBC2
:10850000070C870E920E47EA811742EA8312A7FBF7
:108510000201B6EB0B0164EB00042B0D43EA0C33B4
:108520005E1844EB1C50DA465146E7FB0201C5F3E6
:1085300013044FEA0B3343EA14534FEA0432019C0D
:1085400043EA0603A4F10C040294009CCDE900B4B4
:1085500000F0E4F803B0BDE8F08F00200146F9E731
:108560002DE9F04D81EA030404F0004B21F00045B1
:1085700014464FF0000A23F0004150EA050220D0D3
:1085800054EA01021DD0C5F30A570246C5F313038E
:10859000C1F31300C1F30A5640F4801543F480136D
:1085A000A7EB0608101BD64608F2FD3873EB050052
:1085B00002D308F1010801E092185B41B8F1000F05
:1085C00003DA00200146BDE8F08D00204FF4801151
:1085D000064684460EE0171B73EB050705D3121BF6
:1085E00063EB050306434CEA010C49084FEA3000EF
:1085F00092185B4150EA0107EDD152EA030012D014
:1086000082EA040083EA0501084305D0101BAB4150
:1086100006D20122002306E000224FF0004302E0D0
:108620006FF0010253101AEB06004CEB085110EBEF
:108630000A0041EB0B01BDE8F04D00F060B800000E
:1086400030B5041E71F1000404DB4FF000444042D9
:1086500064EB0101141E73F1000405DB1C464FF0AE
:108660000043524263EB0403994208BF904230BD7D
:1086700030B50B46014600202022012409E021FAF2
:1086800002F59D4205D303FA02F5491B04FA02F5EF
:108690002844151EA2F10102F1DC30BD202A04DBC2
:1086A000203A00FA02F1002070479140C2F1200305
:1086B00020FA03F3194390407047202A04DB203A44
:1086C00021FA02F00021704721FA02F3D040C2F1F2
:1086D00020029140084319467047202A06DBCB1739
:1086E000203A41FA02F043EAE07306E041FA02F36D
:1086F000D040C2F12002914008431946704710B59E
:10870000141E73F1000408DA401C41F100019218B4
:108710005B411A4301D120F0010010BD2DE9F04D5D
:1087200092469B4611B1B1FA81F202E0B0FA80F2B2
:1087300020329046FFF7B2FF04460F4640EA0A0097
:1087400041EA0B0153465A46084313D0114653EAF7
:10875000010019D0C8F140025046FFF7AEFF0546B0
:108760000E46504659464246FFF798FF084305D04B
:10877000012004E020463946BDE8F08D0020054385
:1087800046EAE0762C4337430A986305E40AA0EBF7
:1087900008000022FD0A44EA47540A3002D50020AE
:1087A0000146E9E7010510196941DDE908450019AD
:1087B0006941BDE8F04DA2E7C1F30A52C1F31301CC
:1087C00040F2FF3341F480119A4202DA0020014660
:1087D000704740F233439A42A2F2334202DC5242E3
:1087E000FFF76BBFFFF75ABF064C074D06E0E06886
:1087F00040F0010394E8070098471034AC42F6D3E8
:10880000FFF7C6FC14EF000834EF0008014800F041
:1088100055BA0000A00100204A494A6822F44032BB
:108820004A604A6843681A434A6001684A6822F409
:1088300080724A6001684A68036942EA03224A601A
:1088400001684A6822F040724A6001684A68836899
:108850001A434A6001688A6822F400628A600168EB
:108860008A68C3681A438A60816A6FF07062D14275
:1088700014D001688A6822F070628A6001688A6890
:10888000836A1A438A6001688A6822F040528A60CB
:1088900001688A68C36A1A438A6009E001688A68C5
:1088A00022F070628A6001688A6822F040528A6011
:1088B00001688A6822F002028A6001688A68037E81
:1088C00042EA43028A6090F8201089B101684A6840
:1088D00042F400624A6001684A6822F460424A60D9
:1088E00001684B68426A521E43EA42324A6004E021
:1088F00001684A6822F400624A600168CA6A22F488
:108900007002CA620168CB6A828B521E43EA02522D
:10891000CA6201688A6822F400728A6001688A6803
:1089200090F8303042EA43228A6001688A6822F473
:1089300080628A6001688A68406942EA80208860B3
:1089400070470000002301407047000008B5012077
:108950000090044800231A466946406805F022FE4C
:1089600008BD00002400002008B502200090044843
:1089700000231A466946406805F014FE08BD000051
:1089800024000020FEE70000014800F0EDBA0000DE
:10899000FC050020014800F0E7BA00005C0600205A
:1089A000014800F0E1BA000004040020014800F092
:1089B000DBBA00009C050020014800F0D5BA000099
:1089C000EC020020014800F0CFBA0000A403002010
:1089D000014800F0C9BA00008C020020014800F0F4
:1089E000C3BA00003C0500200168CAB2103A18233F
:1089F000B2FBF3F2064B9B5CC3656FF30901032ADC
:108A000002D9091D816500E08165806D7047000015
:108A1000F4EE000810B5014600208A6A8B694FF019
:108A2000C074002B0ED0B3F5005F1AD062B3012AD8
:108A30002AD0022A28D0032A03D1C96AC90100D545
:108A4000012010BD1AB1012A06D0022AF9D1C96A43
:108A5000C901F6D5012010BDC96AA142FBD1012090
:108A600010BD52B1012A0AD0022A06D0032AF7D13A
:108A7000C96AA142F4D1012010BD012010BDC96A0C
:108A8000C901FBD5012010BD012010BD30B504681F
:108A9000256825F480252560046863608368402B81
:108AA00004D0036899600068C26030BD03689A60B2
:108AB0000068C16030BD70477CB5254D28680168ED
:108AC000C943090704D401684168009101684168FD
:108AD0000068204CC04380062BD44FF0FF330122A6
:108AE00001A91B4802F0C4FDB4F800014FF40032A4
:108AF000C0F30E01FF290BD29DF804006054B4F8B6
:108B0000000102EBF0304FEA7040A4F8000110E0E1
:108B10006FF30E00A4F80001C0F30E009DF80410DE
:108B20002154B4F8000102EBF0304FEA7040A4F891
:108B3000000128680168C943C90608D4B4F80011C7
:108B400041F40041A4F800110168406800907CBD28
:108B5000F4040020CC12002072B6FEE7704700003B
:108B600078B50024009490F83C20012A19D0012205
:108B700080F83C200A680725092A14D90368DE68B2
:108B80000A3A02EB42029540AE43DE600A788B68F7
:108B90000A3A02EB420293400268D5682B43D36045
:108BA00011E0022078BD03681E6902EB4202954085
:108BB000AE431E610A788B6802EB42029340026862
:108BC00015692B4313614A681F25072A13D20368CE
:108BD0005E6B521E02EB82029540AE435E630A88D2
:108BE00093B20A79521E02EB820293400268556BDF
:108BF0002B43536328E00D2A13D203681E6BD21F48
:108C000002EB82029540AE431E630A8893B20A7952
:108C1000D21F02EB820293400268156B2B43136351
:108C200012E00368DE6A0D3A02EB82029540AE4321
:108C3000DE620A8893B20A790D3A02EB820293400F
:108C40000268D56A2B43D362174A184B05689D42C8
:108C500006D10D68122D03D1556845F48005556085
:108C600005689D421BD10B68102B01D0112B16D12A
:108C7000536843F400035360096810290FD10C496D
:108C80000C4A0968B1FBF2F101EB81014900009146
:108C900002E00099491E009100990029F9D180F85D
:108CA0003C40002078BD000000230140002001402E
:108CB0003800002040420F007047704770B50446EE
:108CC00020680568466805F0020106F020020029C8
:108CD0002AD04AB3216CC90603D4216C41F4007137
:108CE0002164816811F0405F17D1217EA9B9C16A62
:108CF00011F4700F02D0816849050ED4416821F04B
:108D000020014160206C20F480702064206CC0043D
:108D100003D4206C40F0010020642046FFF7CCFF14
:108D200021686FF01200086005F0040006F0800171
:108D300090B389B3206CC00603D4206C40F400507B
:108D400020642068816811F4401F1ED1816B11F4EA
:108D5000401F02D08168490517D44168490514D4E1
:108D6000816811F0405F10D1217E71B9416821F016
:108D700080014160206C20F480502064206CC0058C
:108D800003D4206C40F0010020642046FFF7E6FE8B
:108D900021686FF00C00086005F0010006F040014A
:108DA00078B171B120680068C0070AD0206C40F427
:108DB00080302064204600F044F821686FF0010004
:108DC000086005F0200006F0806100280ED0002920
:108DD0000CD0606C40F00200606420686FF02005E9
:108DE00005602046FFF769FF2068056070BD70B51B
:108DF00004460026002C03D0206C002510B107E0AB
:108E0000012070BD204600F01DF8656484F83C50D8
:108E1000206CC00610D4206C20F4885040F0020072
:108E200020642046FFF7F8FC6564206C20F0020007
:108E300040F00100206400E0012684F83C503046F8
:108E400070BD704710B586B00446142101A8FFF725
:108E500063FA15492068884224D10021134802682A
:108E600042F480720260006800F4807000900F4845
:108E70001438026842F001020260006800F001004C
:108E800000900220019003200290039101A908485C
:108E900000F006FA00220521122000F0A1FB1220AA
:108EA00000F090FB06B010BD0020014044380240A5
:108EB000000002402DE9F0410446A76D00F0E8FAF9
:108EC000054694F835000026022806D0802060650B
:108ED00084F834600120BDE8F0812068016821F049
:108EE000160101602068416921F080014161206C18
:108EF00008B9A06C20B12068016821F00801016068
:108F00002068016821F0010101600BE000F0C0FA67
:108F1000401B052806D920203434206203206070CD
:108F20002670D8E720680068C007EFD134343F20AE
:108F300094F828108840B8600120607026700020E6
:108F4000C9E790F83510022903D08021416501203E
:108F50007047052180F835100068016821F0010193
:108F600001600020704700002DE9F84304464FF0EF
:108F70000009CDF800906F484FF416510068B0FB1F
:108F8000F1F7A56D2E6894F85C00082202FA00F152
:108F9000314210D02068016849070CD5016821F0E2
:108FA0000401016094F85C0002FA00F1A960606DB0
:108FB00040F00100606594F85C104FF0010808FA79
:108FC00001F0304208D021684969090604D5A8603B
:108FD000606D40F00200606594F85C1004208840E9
:108FE000304208D021680968890704D5A860606DFF
:108FF00040F00400606594F85C1010208840304216
:1090000020D02168096809071CD5A860206801687C
:1090100049030CD50068000304D4216C91B12046AB
:1090200088470FE0A16C69B1204688470AE00168D3
:10903000C90503D4016821F008010160216C09B160
:109040002046884794F85C102020884030424CD05D
:1090500021680968C90648D5A86094F83500052834
:109060000BD020680168490330D50068000328D47C
:10907000616C51B32046884737E02068016821F0D1
:10908000160101602068416921F080014161206C76
:1090900008B9A06C20B12068016821F008010160C6
:1090A00094F85C103F208840A86084F8358084F8EC
:1090B0003490216D00293BD001B02046BDE8F0433B
:1090C0000847E16B09B1204688470EE00168C905F1
:1090D00007D4016821F01001016084F8358084F81C
:1090E0003490E16B09B120468847606D00281FD09D
:1090F000606DC00714D0052084F835002068016831
:1091000021F0010101600098401C0090B84203D892
:1091100020680068C007F6D184F8358084F8349060
:10912000E16C002904D001B02046BDE8F0430847B7
:10913000BDE8F883380000202DE9F041044600F036
:10914000A7F905465CB1022084F83500002684F8B2
:1091500034602068016821F0010101600DE0012008
:10916000BDE8F08100F094F9401B052805D92020C6
:109170006065032084F83500F2E720680068C007C6
:10918000F0D121680A6820480240D4E9010318435D
:10919000D4E903352B43184363691843A369184383
:1091A000E3691843236A18431043626A042A03D10F
:1091B000D4E90B231A43104308602068406920F06B
:1091C0000700656A29460543012704290DD1A06AD5
:1091D0000543E06A48B12046FFF71CFC28B1402057
:1091E000606584F835700120BAE720684561204643
:1091F000FFF7FAFB94F85C203F219140816066659F
:1092000084F835700020ABE73F8010F02DE9F04185
:1092100004460025A66D94F8340001280DD00120E5
:1092200084F8340094F835700020012F07D084F8BA
:10923000340002252846BDE8F0810220FBE7022722
:1092400084F8357060652046FFF720FC94F85C10C8
:109250003F208840B0602068016841F0160101603D
:10926000206C20B12068016841F00801016020688D
:10927000016841F001010160DCE7000070B50446BF
:1092800000F006F90546601C02D00448007804444A
:1092900000F0FEF8401BA042FAD370BD2C00002065
:1092A0002DE9F84F0022DFF89C914FF001080327C9
:1092B0004FF00F0C09F1040AA9F1040B08FA02F5AA
:1092C0000B682B40AB426ED10C7904F00304012CE7
:1092D00001D0022C15D18668540007FA04FE26EA54
:1092E0000E06D1F80CE00EFA04FE4EEA060EC0F8A7
:1092F00008E04468AC430D79C5F30015954025435B
:1093000045600C79E443A40708D0C568540007FA07
:1093100004F6B5438E68A6402E43C6600C7904F06F
:109320000304022C11D1D40800EB8406356A5407DB
:10933000E40E0CFA04FE25EA0E05D1F810E00EFA50
:1093400004FE4EEA050EC6F820E00568540007FA50
:1093500004F6B5430E7906F00306A6402E430660D8
:109360004C6814F4403F67D0374C256845F480457D
:109370002560246804F480440094344C22F00305F2
:109380002E19D6F8085894074FEA147E0CFA0EF4FA
:10939000A5432F4CA04201D1002424E02D4CA04233
:1093A00002D101241FE047E02B4CA04201D102244E
:1093B00019E02A4CA04201D1032414E0284CA04219
:1093C00001D104240FE0274CA04201D105240AE07A
:1093D000254CA04201D1062405E0244CA04201D135
:1093E000072400E0082404FA0EF42C43C6F80848C9
:1093F000D9F800409C434D68ED0200D51C43C9F8E4
:109400000040DAF800409C434D68AD0200D51C4393
:10941000CAF80040DBF800409C434D68AD0300D51E
:109420001C43CBF80040074D083D2C689C434E6818
:10943000F60300D51C432C60521C102AFFF43EAFEB
:10944000BDE8F88F083C014044380240003001403C
:10945000000002400004024000080240000C0240EC
:10946000001002400014024000180240001C02409C
:10947000426921EA02030A4043EA024181617047DE
:10948000002A01D0816170470904816170470000A2
:1094900001488068704700002C0000200248816865
:1094A00002781144816070472C00002010B50B48F1
:1094B000016841F400710160016841F4806101605C
:1094C000016841F480710160032000F0A9F80F20C9
:1094D00000F006F800F050F8002010BD003C0240FB
:1094E00030B587B0054600241E48016841F01001E0
:1094F0000160006800F01000009001A902A800F0CF
:10950000C3FD0598A8B100F0E3FD40001649B0FB8B
:10951000F1F1491E1648154A026040F2E732C26076
:10952000416004618460846101F0BCFC04461CB1AC
:1095300015E000F0CDFDE9E70D4801F0EBFC044635
:109540006CB9362000F03EF8102D07D200222946D3
:10955000362000F045F80748056000E0012407B018
:10956000204630BD4038024040420F00001000400D
:10957000BC0600203000002008B51148016841F405
:1095800080410160006800F4804000900C48001F9A
:10959000016841F080510160006800F08050009047
:1095A00000220F21901E00F01BF805210022084622
:1095B00000F016F8BDE80840052000F003B80000F0
:1095C00044380240002809DB00F01F0201219140CD
:1095D0004009800000F1E020C0F800117047000051
:1095E000F0B40D460D4B1B68C3F30223C3F107040F
:1095F000042C00D90424191D072901D2002300E0FE
:10960000DB1E012606FA04F1491E294099409E40BE
:10961000761E16403143F0BC04F0FEBA0CED00E0BB
:1096200000F00701054A10684FF6FF03184040EAB2
:109630000120034908431060704700000CED00E072
:109640000000FA057047D0F8E00403F006BC01EB17
:10965000C10200EB8202D0F8E004126A03F02ABBD8
:1096600001EBC10200EB8202D0F8E004D2F86022E4
:1096700003F08EBBD0F8E00403F0F1BB0A0601F062
:109680000F0101EBC10100EB810101D5143101E0B3
:1096900001F51571006804F03DB970B5044601F09C
:1096A0000F002279904201D9012070BD0B0601F014
:1096B0000F0101EBC10104EB81014FF001024FF0FA
:1096C000000502D514314A7002E001F515714D70A4
:1096D0008D70087094F89404012808D084F89424BC
:1096E000206803F099FF84F89454002070BD022094
:1096F00070BD2DE9F04104460F0601F00F0000EBAC
:10970000C00104EB81014FF001064FF0000502D5C6
:1097100014314E7002E001F515714D7008708A60C9
:109720000B714A7802B14883022B00D14D7194F835
:109730009404012809D084F89464206803F0F2FEB0
:10974000284684F89454BDE8F0810220FBE710B568
:1097500001F00F0404EBC40100EB810101F5157168
:10976000CA600B6100234B614B700C708379012B35
:1097700000D1CA618279006803F0A6FF002010BD05
:1097800070B504460D46217905F00F00884201D9D5
:10979000012070BD29064FF000064FF0010206D5EA
:1097A00000EBC00104EB810114314A7006E005EBC7
:1097B000C50104EB810101F515714E708A700870C6
:1097C00094F89404012807D084F89424206803F0C6
:1097D0004FFF280702D007E0022070BDA17904F2F4
:1097E0009C42206803F0EEFE84F89464002070BD73
:1097F00010B501F00F0404EBC40100EB810114313A
:10980000CA600B6100234B6101234B700C7083799C
:10981000012B00D1CA618279006803F055FF002056
:1098200010BD2DE9F84F04462568284604F0F6F8E7
:1098300000287ED1206804F01DF9002879D0D5F8E1
:109840000808C0F30D20C4F8D404206804F012F90D
:10985000800704D52068416901F002014161206858
:1098600004F008F9C10604F29C40009035D5206848
:10987000816921F0100181612F6A07F00F0000EB70
:10988000C00004EB800606F51576C7F343400228B6
:1098900002D0062812D01BE047F6F070074217D01E
:1098A000C7F30A1217462846F16804F0E7F8F06893
:1098B0003844F06070693844706109E00822284635
:1098C000009904F0DBF87069C7F30A11084470616D
:1098D0002068816941F010018161206804F0CAF8B4
:1098E00000034FF0080B4FF000094FF001085ED560
:1098F0000026206804F09DF8824655E05FEACA70B1
:109900004FD0F1B2206804F0ADF80746F80707D051
:1099100005EB4610C0F8088B3146204602F0E6F908
:10992000380709D505EB4610C0F808BB314620467C
:1099300000E0F8E102F0B6F9F80604D505EB4610B0
:109940001021C0F8081BB8071CD56869000605D5AA
:10995000D5F8040840F48061C5F8041806EBC60089
:1099600004EB800000F51570C178012905D180F85D
:109970000390F1B2204600F0DCF905EB461102201D
:10998000C1F8080BB80604D505EB46102021C0F835
:10999000081BB80405D505EB46104FF40051C0F87C
:1099A000081B761C4FEA5A0ABAF1000FA6D12068AC
:1099B00004F060F840036CD5206804F033F8824668
:1099C000002663E05FEACA705DD0F1B2206804F05F
:1099D00037F80746F80723D006F00F0108FA01F020
:1099E000D5F834188143C5F8341805EB4610C0F893
:1099F0000889A07901280FD106EBC60004EB80008E
:109A0000D0E907211144016236B9606A20B92068A3
:109A10000121009A03F0D6FDF1B22046FFF717FEB0
:109A2000380703D505EB4610C0F808B9F80604D589
:109A300005EB46101021C0F80819780604D505EB8F
:109A400046104021C0F80819B80716D531462846F7
:109A500003F0B2FF06EBC60004EB80001430C178BF
:109A6000012905D180F80390F1B2204600F05DF99C
:109A700005EB46110220C1F80809380603D5314626
:109A8000204602F0A5F9761C4FEA5A0ABAF1000FF7
:109A900098D1206803F0EEFF002811DAD5F8040809
:109AA00020F00101C5F8041894F8CC04012829D04D
:109AB000204600F059F92068416901F000414161F8
:109AC000206803F0D7FF00050BD5D5F80808C007BC
:109AD00002D0204600F06AF92068416901F4006173
:109AE0004161206803F0C6FFC00461D5D5F80408C1
:109AF00020F00101C5F804181021206803F05CFF74
:109B0000002120E084F8CC9400212046FFF79AFD44
:109B1000D1E705EB411000F510604FF67F3282600F
:109B2000036823F400130360C0F80822D0F8002271
:109B300022F40012C0F80022D0F8002242F00062A5
:109B4000C0F80022491C20798842E2D8D5F81C08C8
:109B500040F00111C5F81C18E07B60B1D5F884080D
:109B600040F00B01C5F88418D5F8440840F00B010B
:109B7000C5F844180CE0D5F8140842F22B0108434C
:109B8000C5F81408D5F8100840F00B01C5F81018F6
:109B9000D5F8000820F4FE61C5F80018A179206806
:109BA000009A03F00FFD2068416901F48051416182
:109BB000206803F05FFF800415D5206803F0F4FCF3
:109BC000206803F01BFFE07100F07CFA0146E279A7
:109BD000206803F081FF204600F0AFF8206841695B
:109BE00001F400514161206803F044FF000707D5EC
:109BF000204600F0BDF82068416901F0080141618C
:109C0000206803F037FF000615D5A86920F0800111
:109C1000A96101260CE006EBC60004EB800090F879
:109C20005702012803D1F1B22046FFF727FD761C29
:109C30002079B042EFD8206803F01CFFC0021FD586
:109C4000012615E005EB4610D0F8001906EBC6001A
:109C500004EB8000027E012A09D1002907DA80F88E
:109C60001780F0B240F080012046FFF707FD761C18
:109C70002079B042E6D82068416901F48011416141
:109C8000206803F0F7FE800230D5012026E005EBC6
:109C90004011D1F8001B00EBC00204EB820292F8E5
:109CA0005832012B19D1002917DA94F8D43401F471
:109CB000803103F0010399420FD182F85782A969DC
:109CC00041F08002AA616969090606D4D5F8040842
:109CD00040F40070C5F8040803E0401C217981427B
:109CE000D5D82068416901F400114161206803F072
:109CF000C1FE400007D52046FFF7A5FC206841695A
:109D000001F080414161206803F0B4FE40070AD5AC
:109D100020684568680702D52046FFF7ABFC20683D
:109D2000416829434160BDE8F88FD0F8E00403F0B2
:109D3000B5B8D0F8E00403F0C6B870B50446012504
:109D4000E07900280ED0022801D0FEF705FF294651
:109D5000D4F8E00403F028F9D4F8E004BDE870403A
:109D600003F0DBB80025F2E7D0F8E00403F005B912
:109D7000D0F8E00403F00BB910B5044694F894044D
:109D800001280AD0012084F894046174206803F04B
:109D900094FE002084F8940410BD022010BDD0F879
:109DA000E02400F29C41104603F00AB910B50446C5
:109DB000D4F8E00403F03DF92068D0F8001E41F02B
:109DC0000101C0F8001EE07A002804D002480168B2
:109DD00041F00601016010BD10ED00E008B5034937
:109DE0000120086202480068009008BD00000E4291
:109DF000007000402DE9F84304464FF00108206848
:109E00004FF00007C10701D140072BD5DFF81891AB
:109E1000C9F86870FFF73CFB0646444D07E0FFF7C2
:109E200037FB801B022802D90320BDE8F88328688D
:109E30000001F4D46068217A800140EA01703B4956
:109E400084310860C9F86880FFF722FB064606E007
:109E5000FFF71EFB801B022801D90320E5E72868D5
:109E60000001F5D52078800753D53048403001688F
:109E700041F080510160006800F0805000902C4D4E
:109E8000286840F480702860FFF702FB064606E071
:109E9000FFF7FEFA801B022801D90320C5E72868D6
:109EA000C005F5D5214D7035286800F44070F8B133
:109EB000A18901F4407181421AD0286820F44070D1
:109EC0001C49C1F800800F6028602868C0070FD0C7
:109ED000FFF7DEFA064641F2883706E0FFF7D8FAC8
:109EE000801BB84201D903209FE728688007F5D579
:109EF000E0680E49C0F301220831032A0BD008683C
:109F000020F4F81008602868A189C1F30B01084308
:109F10002860002089E70A68074B22F4F8121840ED
:109F200002430A60EFE700000000474200380240A9
:109F300000700040400E4742FFFCFF0F2DE9F04744
:109F400004460D46002C13D0DFF82891D9F8000004
:109F5000EFB200F00700A8420CD289F80070D9F8DF
:109F6000000000F00700A84204D00120BDE8F087FF
:109F70000120FBE72068404E810712D5400703D53A
:109F8000306840F4E05030602078000703D5306836
:109F900040F4604030603068A16820F0F000084371
:109FA00030602078C00731D0334960680839012813
:109FB00008D002280BD0032809D0096889070BD4E0
:109FC0000120D3E70968890306D40120CEE7096898
:109FD000890101D40120C9E7316821F0030101435F
:109FE0003160FFF755FA804641F2883A07E0FFF703
:109FF0004FFAA0EB0800504501D90320B6E73068BE
:10A00000616800F00C00B0EB810FF0D1D9F80000CE
:10A0100000F00700A84209D989F80070D9F80000BB
:10A0200000F00700A84201D001209FE720784007F8
:10A0300005D53068E16820F4E050084330602078AE
:10A04000000706D53068216920F4604040EAC1006D
:10A05000306000F05DF83168084AC1F30311515CCB
:10A06000C8400749086007480068FFF739FA002030
:10A070007CE70000003C024008380240FCEE00088B
:10A0800038000020300000200F2202600B4A1368C5
:10A0900003F003034360136803F0F0038360136865
:10A0A00003F4E053C360126802F46042D208026114
:10A0B0000348006800F00700086070470838024055
:10A0C000003C024001480068704700003800002052
:10A0D00000B5FFF7F7FF04490968044AC1F382217C
:10A0E000515CC84000BD0000083802400CEF000879
:10A0F00000B5FFF7E7FF04490968044AC1F342319C
:10A10000515CC84000BD0000083802400CEF000858
:10A1100010B51748006810F00C01164816D043100F
:10A12000042912D0082911D1114C241F216801F0F3
:10A130003F02216849020AD52068C0F38810A0FBBD
:10A1400003010023FEF79EF809E0184610BD2168C0
:10A150000023C1F38811A1FB0001FEF793F82168E9
:10A16000C1F30141491C4900B0FBF1F010BD0000F2
:10A17000083802400024F4002DE9F84F0446002C72
:10A1800013D02078DFF8A083C007A8F1040556D0CB
:10A1900008F104000168C1F3810101290CD00068B5
:10A1A000C0F38100022803D00DE00120BDE8F88F44
:10A1B000D8F80000400206D5286880033FD56068C3
:10A1C00070BB0120F2E76068B0F5803F10D0B0F5B9
:10A1D000A02F12D0286820F480302860286820F44E
:10A1E000802028606068E0B1FFF752F9064614E06D
:10A1F000286840F480302860F4E7286840F4802024
:10A200002860286840F480302860EBE7FFF740F9C9
:10A21000801B642801D90320C8E728688003F5D58E
:10A220000DE0FFF735F9064606E0FFF731F9801B30
:10A23000642801D90320B9E728688003F5D4207881
:10A24000BA4F80074FF0000948D5B748001D016894
:10A2500011F00C0F08D00068C0F38100022813D160
:10A26000D8F8000040020FD42868800704D5E068C1
:10A27000012801D0012099E72868216920F0F80021
:10A2800040EAC100286029E0E068B8B101203860E8
:10A29000FFF7FEF8064606E0FFF7FAF8801B0228F3
:10A2A00001D9032082E728688007F5D5286821694D
:10A2B00020F0F80040EAC10028600FE0C7F80090E5
:10A2C000FFF7E6F8064606E0FFF7E2F8801B0228F3
:10A2D00001D903206AE728688007F5D420780007B1
:10A2E00029D5DFF844A2924861690AF1700A89B160
:10A2F00001210160FFF7CCF8064606E0FFF7C8F839
:10A30000801B022801D9032050E7DAF800008007FB
:10A31000F4D510E0C0F80090FFF7BAF8064606E062
:10A32000FFF7B6F8801B022801D903203EE7DAF8D0
:10A3300000008007F4D42078400778D54FF0000A59
:10A3400079483C300068C0000BD477483C30016845
:10A3500041F080510160006800F0805000904FF0A3
:10A36000010ADFF8D0B1DBF80000C00514D4DBF837
:10A37000000040F48070CBF80000FFF789F8064633
:10A3800006E0FFF785F8801B022801D903200DE7BE
:10A39000DBF80000C005F4D5634EA0686C360128D8
:10A3A0000FD0052812D0306820F0010030603068EE
:10A3B00020F004003060A068F8B1FFF769F8834628
:10A3C00017E0306840F001003060F4E7306840F09A
:10A3D00004003060306840F001003060EBE7FFF7C8
:10A3E00057F8A0EB0B0141F28830814201D90320DC
:10A3F000DCE630688007F2D510E0FFF749F88346C5
:10A4000009E0FFF745F8A0EB0B0141F288308142EB
:10A4100001D90320CAE630688007F2D4BAF1010FEF
:10A4200005D141483C30016821F080510160A069AC
:10A43000C0B33D49091D09684FF0FF36C1F38101E2
:10A44000022946D0022805D0C7F86090FFF720F80F
:10A4500004463AE0C7F86090FFF71AF8814607E033
:10A46000FFF716F8A0EB0900022801D903209DE6AA
:10A4700028688001F4D4D4E907010843616AA26A1C
:10A48000890106EB520241EA0241084394F82C107C
:10A4900040EA0160C8F8000001203866FEF7F8FFC6
:10A4A000044607E03DE0FEF7F3FF001B022801D958
:10A4B00003207BE628688001F5D532E0FEF7E8FF4F
:10A4C000001B022801D9032070E628688001F5D41A
:10A4D00027E0012823D0D8F80000E26900F48001C9
:10A4E00091421AD1226A00F03F01914215D147F6FC
:10A4F000C071626A0140B1EB821F0ED1A26A00F402
:10A50000403106EB5202B1EB024F06D194F82C1009
:10A5100000F07060B0EB016F03D0012046E601202F
:10A5200044E6002042E600000438024000004742B2
:10A53000800E47420070004070470068503000EBCA
:10A540008100006870470068503000EB81000260B5
:10A550007047704710B5044613494FF40030086047
:10A5600021688868C0040BD5C868C00508D5C868CC
:10A5700000F0800060F4C070C8602046FFF7E9FF7B
:10A580002168886880040BD5C868800508D5C8682C
:10A5900000F0800060F42070C8602046FFF7CCFF18
:10A5A0000120607710BD0000143C014010B50B463F
:10A5B000006841680D480140080CD870C1F30424BC
:10A5C0005C7001F03F049C70C1F342311970002AA5
:10A5D0000AD101F08FFCD870587801F08BFC5870CC
:10A5E000987801F087FC9870002010BD3FFFFF00B5
:10A5F00010B50B460168896A596001680969C1F3A1
:10A600000E019960006801680D480140C1F30540E2
:10A610001870C1F306245C7001F07F049C70890DF2
:10A62000D970002A0AD101F065FC1870587801F041
:10A6300061FC5870987801F05DFC9870002010BDA6
:10A640007F7F7F0010B50446002C02D0607F10B1E0
:10A6500006E0012010BD00202077204600F042F8DF
:10A66000022060772068C168C943C90631D5CA2174
:10A670004162216853204862204601F04FFCC8B96E
:10A6800020688168164A114081602068816862688C
:10A690001143D4E904231A43114381602168E0681F
:10A6A000086120680169228941EA0241016120466E
:10A6B00001F057FC48B921680A6C22F480220A6430
:10A6C00021680A6CA3691A430A642268FF21516257
:10A6D00000E000200028BDD10121617710BD0000FD
:10A6E000BFFF8FFF1FB500210091019102910391DF
:10A6F00000680C49884214D102200090C0010390E8
:10A700006846FFF777FB08B1FEF726FA06490120F5
:10A710000860002205212920FEF762FF2920FEF7AC
:10A7200051FF1FBD002800403C0E47422DE9F84371
:10A7300003460C46DFF894814FF4FA494FF47A71DE
:10A74000D8F80000B0FBF9F048430090187F0128CA
:10A750006AD001261E77022058770025002A65D08E
:10A7600018688068400600D4E570E069A178227816
:10A77000E77841EA02416278120242EA87521143C5
:10A7800094F8202041EA026101436069014367684F
:10A79000A06907431A68CA2050621A6853205062A1
:10A7A000606AFF244FF0030CB0F5807F5ED018681C
:10A7B000826822F4007282601868C26802F0800227
:10A7C00062F42072C260D8F800004FF47A72B0FBD5
:10A7D000F9F0504300901868009A521E0092009AB7
:10A7E000002A6CD0C2689207F6D5016218688764A7
:10A7F0001868816841F4007181601868816841F4CB
:10A80000005181603248016841F4003101603048F4
:10A810000830016841F400310160186844625E77D5
:10A820001D770020BDE8F8830220FBE718688068E8
:10A83000400600D4E570207801F065FB02046078E2
:10A8400001F061FB42EA0022A07801F05CFB0243C8
:10A85000E07842EA805294F8200001F054FB42EA8A
:10A860000061E06901436069014390E7186882680C
:10A8700022F4807282601868C26802F0800262F47A
:10A88000C072C2601868009A521E0092009A82B18B
:10A89000C268D207F7D0C161186847641868816838
:10A8A00041F4807181601868816841F48051816051
:10A8B000A8E7446283F81DC01D770320B2E7446215
:10A8C00083F81DC01D770320ACE70000380000208E
:10A8D000003C014070B504460B46207F012805D09E
:10A8E000012626770220607712B108E0022070BDB1
:10A8F0005878C10603D500F0EF000A305870A2B1B5
:10A900009878D97840EA014558781978000240EAE9
:10A91000413005432168CA204862216853204862BB
:10A92000204601F0FBFA88B117E0D87801F0EBFA85
:10A930000204587801F0E7FA42EA0022987801F020
:10A94000E2FA0243187842EA4035E3E70748054057
:10A9500020684560204601F004FB00B96677226854
:10A96000FF2151620021217770BD00003FFFFF00F1
:10A970002DE9F04104460D46207F012821D04FF0FB
:10A98000010884F81C80022060770027E2B120686B
:10A990008068400600D4EF70A878297840EA014624
:10A9A0006878E978000240EA815006432168CA20AD
:10A9B0004862216853204862204601F0AFFAC8B1CE
:10A9C0002BE00220BDE8F08120688068400600D4BA
:10A9D000EF70287801F097FA0204687801F093FA92
:10A9E00042EA0022A87801F08EFA0243E87842EAAF
:10A9F0008056DBE70D4806402068066020688168C5
:10AA000021F480218160D5E9031001432068826828
:10AA100011438160204601F0A4FA08B984F81D8032
:10AA20002268FF2151622777CCE700007F7F7F00FB
:10AA300070B505460A482968C860FEF729FD044636
:10AA40004FF47A7606E0FEF723FD001BB04201D9F1
:10AA5000032070BD2868C0688006F4D5002070BD52
:10AA60005F7F010010B5FDF76FFF10BD704738B56F
:10AA70000446002000906946204601F0D0FB10B14A
:10AA8000A16B0143A1630098C0F3432038BD0000CF
:10AA90002DE9F0410446256B2068416B090406D579
:10AAA000290704D52046BDE8F04101F09DBB416B6C
:10AAB0004FF00008C9054FF0010752D539028163F4
:10AAC0002068C16B4CF23A329143C1632068C16A7D
:10AAD00021F00101C162280724D505F0020605F026
:10AAE0002000304309D0206801F08EFA28B1A16B14
:10AAF0000143A1632046FFF7B9FF216840F23A50B5
:10AB0000886384F83470C4F8308005F00100304365
:10AB100004D0204600F0A6F8BDE8F081204600F001
:10AB2000A5F8F9E72806F7D5A80609D5206801F0A9
:10AB30006BFA28B1A16B0143A1632046FFF796FF92
:10AB400005F0010005F002010843E5D12068C16A63
:10AB500021F00801C16284F83470204600F086F8C4
:10AB6000DAE7416B490406D5290704D52046BDE83C
:10AB7000F04101F06BBB416B40F23A221142CBD065
:10AB8000416B890703D5A16B41F00201A163416BC1
:10AB9000090703D5A16B41F00801A163416B890648
:10ABA00003D5A16B41F02001A163416BC90603D518
:10ABB000A16B41F01001A163416B890503D5A16B25
:10ABC00041F00801A16340F23A7181632068C16BD2
:10ABD00040F23A329143C163206801F015FAA16B4B
:10ABE0000843A063280707D584F83470C4F8308080
:10ABF0002046FFF73BFF8FE728068DD505F01000B4
:10AC000005F0200108430CD0E16B14480865E06BA7
:10AC1000FEF797F9002884D0E06BBDE8F04101F021
:10AC2000C1BA05F0010005F0020108430CD0216C07
:10AC30000B480865206CFEF784F9002890D0206C42
:10AC4000BDE8F04101F08CBAC4F8388084F8347063
:10AC5000C4F830802046FFF705FF5DE7A5C1000876
:10AC600061C1000810B5FDF771FE10BD10B5FDF70C
:10AC70007BFE10BD70B50446002C09D0606A00252B
:10AC800040B125616561A56294F8510040B10CE0C6
:10AC9000012070BD6068B0F5827FF4D0E561F2E715
:10ACA00084F85050204600F045F8022084F8510006
:10ACB0002068016821F040010160A088218900F42A
:10ACC000827001F404410843A18901F40061084342
:10ACD000217C01F002010843217D01F001010843BC
:10ACE000218B01F400710843217F01F038010843F2
:10ACF00094F8201001F080010843218D01F40051E7
:10AD0000084321680860A069042101EA104094F812
:10AD1000241001F010010843216848602068C169CF
:10AD200021F40061C1616565012084F851000020B3
:10AD300070BD00002DE9F04387B00546142102A83C
:10AD4000FDF7EAFA2D492868884254D100262C489C
:10AD5000016841F480510160006800F48050019066
:10AD600027481438016841F001010160006800F0D3
:10AD700001000190F020029002200390049603202D
:10AD800005900520069002A91E48FEF789FA1F4C7F
:10AD90001D4820604FF0C069C4F804904020A060B6
:10ADA000E660070127616661A661E6614FF400383D
:10ADB000C4F8208066622046FEF7BEF908B1FDF7B0
:10ADC000CBFEAC64A5631048104C7838603420602A
:10ADD000C4F80490A660E66027616661A661E6613A
:10ADE000C4F8208066622046FEF7A6F908B1FDF798
:10ADF000B3FEEC64A56307B0BDE8F083003001400A
:10AE0000443802400000024088640240A40300204D
:10AE10007047704770B590F83C20012A31D0012668
:10AE200080F83C60022280F83D20026854689368F4
:10AE300024F070050C682C435460134C0268A24245
:10AE400014D0B2F1804F11D0104CA2420ED0104C51
:10AE5000A2420BD00F4CA24208D00F4CA24205D008
:10AE60000E4CA24202D00E4CA24204D123F0800329
:10AE70004968194391603C30467000210170002000
:10AE800070BD022070BD00000000014000040040C1
:10AE900000080040000C0040000401400040014058
:10AEA0000018004010B50446002C03D094F83D0073
:10AEB00010B107E0012010BD002084F83C002046BE
:10AEC00000F016F8022084F83D00211D206801F0F2
:10AED0004DFA01203D3460726070A070E070207106
:10AEE0006071A071E07120722070002010BD000020
:10AEF00008B50068B0F1804F08D10548016841F0FD
:10AF000001010160006800F00100009008BD000030
:10AF10004038024090F83D10012901D001207047CF
:10AF2000022180F83D100168CA6842F00102CA603F
:10AF300000681449884214D0B0F1804F11D01249F2
:10AF400088420ED0114988420BD01149884208D05E
:10AF50001049884205D01049884202D00F498842E2
:10AF600009D1816801F00701062908D0016841F084
:10AF70000101016003E0016841F00101016000206E
:10AF8000704700000000014000040040000800403D
:10AF9000000C004000040140004001400018004047
:10AFA00070B50446002594F83C00012817D001260E
:10AFB00084F83C60022084F83D002068826822F01A
:10AFC000770222F47F4282600868502838D00DDC76
:10AFD000202853D005DC90B3102811D14EE0022078
:10AFE00070BD30284AD040280AD13DE0602831D0D9
:10AFF00070280CD0B0F5805F03D0B0F5005F12D0A0
:10B0000001253C34667000202070284670BDCB6856
:10B01000D1E90121206801F017FA2068816841F028
:10B0200077018160EDE7CB68D1E90121206801F06B
:10B030000BFA2068816841F480418160E1E71DE0FE
:10B04000CA684968206801F011FA5021206801F0AF
:10B0500005FAD6E7CA684968206801F018FA602145
:10B06000206801F0FBF9CCE7CA684968206801F064
:10B07000FDF94021206801F0F1F9C2E7226801469C
:10B08000104601F0EBF9BCE770472DE9F0410446AA
:10B090002068C56806694FF00007B10714D5A907F5
:10B0A00012D5F91E01610120207720688069800790
:10B0B00003D02046FFF7E8FF05E0204600F081F8C6
:10B0C000204600F07FF82777700717D5680715D559
:10B0D00021686FF0040008610220207720688069F1
:10B0E00010F4407F03D02046FFF7CEFF05E0204656
:10B0F00000F067F8204600F065F82777300716D58E
:10B10000280714D521686FF0080008610420207713
:10B110002068C069800703D02046FFF7B5FF05E02F
:10B12000204600F04EF8204600F04CF82777F00655
:10B1300017D5E80615D521686FF0100008610820C2
:10B1400020772068C06910F4407F03D02046FFF7C5
:10B150009BFF05E0204600F034F8204600F032F86E
:10B160002777F00708D0E80706D021686FF00100C4
:10B170000861204600F028F8300608D5280606D5D4
:10B1800021686FF0800008612046FFF741FE7006DD
:10B1900008D5680606D521686FF040000861204692
:10B1A00000F034F8B0060AD5A80608D521686FF07B
:10B1B000200008612046BDE8F041FFF72ABEBDE847
:10B1C000F08170477047000010B504460C492068B4
:10B1D000884201D1FEF762F92068B0F1804F0ED1AC
:10B1E00008480168084821B1BDE810400421FEF775
:10B1F0003FB90122BDE810400421FEF741B910BD5E
:10B20000001000400000002000040240704770471A
:10B2100070470000F8B5044622681068D168536989
:10B2200000F00F06002E08D1850606D58D0604D540
:10B230002046BDE8F84001F0FDB90025002E66D09B
:10B2400003F0010601F49077374360D0C20705D0C0
:10B25000CA0503D5626C42F001026264420705D55B
:10B26000DA0703D0626C42F002026264820705D5FD
:10B27000DA0703D0626C42F004026264020707D569
:10B2800001F02002324303D0626C42F00802626493
:10B29000626C002A31D0800604D5880602D520468B
:10B2A00001F0C8F920684069C0F38010616C09079B
:10B2B00000D438B3204601F07BF92068406940068D
:10B2C0001CD52068143050E8001F21F0400140E8F0
:10B2D0000012002AF5D1E06B60B159490165E06BBD
:10B2E000FDF72FFE002808D0E06B016D01B0BDE82E
:10B2F000F04008472046FFF78BFFF8BD2046FFF7D8
:10B3000087FFF8BD2046FFF783FF6564F8BD236B18
:10B31000012B7DD1C3067BD5CB067FD51068506845
:10B32000009050694FF0200340064FF0020644D5CC
:10B33000E16B0868406880B20028E7D0A28D8242A5
:10B34000E4D9E085C869B0F5807F2DD020680C3045
:10B3500050E8001F21F4807140E80012002AF5D166
:10B360002068143050E8001F21F0010140E800126D
:10B37000002AF5D12068143050E8001F21F0400168
:10B3800040E80012002AF5D184F842302563206895
:10B390000C3050E8001F21F0100140E80012002A94
:10B3A000F5D1E06BFDF786FD6663A08DE18D401A57
:10B3B00081B22046FFF72BFFF8BDA08DE18D401A2A
:10B3C00081B2E08D0028F7D00029F5D020680C303C
:10B3D00050E8002F22F4907240E80027002FF5D1AA
:10B3E0002068143050E8002F22F0010240E80027C6
:10B3F000002FF5D184F84230256320680C3050E8E6
:10B40000002F22F0100240E80023002BF5D100E0CD
:10B4100004E066632046FFF7FAFEF8BD020606D593
:10B420000A0604D52046BDE8F84001F03BBA4006C4
:10B43000F3D54806F1D52046BDE8F84001F0DFB865
:10B44000B3C4000870B50446002C04D094F8410041
:10B45000002510B106E0012070BD84F84050204660
:10B4600000F024F8242084F841002068C16821F409
:10B470000051C160204601F041F92068016921F4C2
:10B48000904101612068416921F02A0141612068F1
:10B49000C16841F40051C1606564202084F8410016
:10B4A00084F842006563002070BD00002DE9F0477C
:10B4B00086B00446142101A8FCF72EFFDFF890A106
:10B4C0000222206863490323634D002697064FF04C
:10B4D000070C4FF040094FF4806850455AD15D4841
:10B4E0001430D0F800A04AF0100AC0F800A000689C
:10B4F00000F010000090086840F001000860086843
:10B5000000F001000090580201900292039604930B
:10B51000CDF814C001A92846FDF7C2FE504D4F4892
:10B5200028606F60C5F80890EE60C5F810806E6105
:10B53000AE61EE614FF40039C5F820906E62284686
:10B54000FDF7FAFD08B1FDF707FBA563AC634348BF
:10B55000434D7838603528606F60AE60EE60C5F8A6
:10B5600010806E61AE61EE61C5F820906E62284673
:10B57000FDF7E2FD08B1FDF7EFFAE563AC630022E9
:10B5800005212520FEF72CF82520FEF71BF806B034
:10B59000BDE8F087DFF8CCA05045F8D12D48103039
:10B5A000D0F800A04AF4003AC0F800A0006800F407
:10B5B00000300090086840F001000860086800F062
:10B5C000010000900C200190029203960493CDF8A4
:10B5D00014C001A92846FDF763FE214D2248C0355D
:10B5E00028606F60AE60EE60C5F810806E61AE617D
:10B5F000EE614FF4403AC5F820A06E622846FDF790
:10B600009BFD08B1FDF7A8FAE563AC631648174D3A
:10B61000183028606F60C5F80890EE60C5F810809B
:10B620006E61AE61EE61C5F820A06E622846FDF73E
:10B6300083FD08B1FDF790FAA563AC6300220521F4
:10B640002620FDF7CDFF2620FDF7BCFF9FE7000079
:10B65000001001403038024000000240B86402404F
:10B660003C05002000440040886002405C06002049
:10B670002DE9F84F04460E461546984694F84200C8
:10B68000202802D00220BDE8F88FBEB1B5B100205D
:10B690006064222184F842102063FDF7F9FE82469F
:10B6A000A585E585A0684FF48057B84201D120698F
:10B6B00030B1354600264FF0200928E00120E2E7AE
:10B6C0000025F8E75346002220212046CDF80080CF
:10B6D00001F017F918B184F842900320D3E725B19F
:10B6E000A068B84219D038B108E020684068C0F3BB
:10B6F000080026F8020B07E0206970B12068406856
:10B7000000F07F0028706D1CE08D401EE085E08D0C
:10B710000028D7D184F84290B5E7206840682870A7
:10B72000F1E790F84230202B01D00220704721B180
:10B730001AB10023036301F06BB801207047704712
:10B7400070472DE9F84304460E4615461F4694F807
:10B750004100202802D00220BDE8F8837EB175B1F7
:10B7600000206064212084F84100FDF791FE8146AD
:10B77000A584E584A068B0F5805F02D003E00120D5
:10B78000EAE7206920B1354600264FF0200815E091
:10B790000025FAE74B46002280212046009701F061
:10B7A000B0F818B184F841800320D5E7ADB1216825
:10B7B00015F8010B4860E08C401EE084E08C002806
:10B7C000E8D14B46002240212046009701F099F82D
:10B7D00050B184F841800320BEE736F8020B21689F
:10B7E000C0F308004860E6E784F841800020B3E732
:10B7F0007047FEE77FB500240094019402940394FF
:10B800001348124901604FF4803141608460046143
:10B81000047680F82040C4620E498162C46001252C
:10B82000C56180F830404561FDF7E1FA08B1FDF7E8
:10B8300093F900950195029469460548FDF790F942
:10B84000002801D0FDF788F97FBD000000200140ED
:10B85000A00100200100000F08B52948016841F44B
:10B8600080010160016801F480010091016841F4E8
:10B8700000110160006800F4001000900022052112
:10B880001020FDF7ADFE1020FDF79CFE00220521E3
:10B890001120FDF7A5FE1120FDF794FE00220521E1
:10B8A0003820FDF79DFE3820FDF78CFE0022052193
:10B8B0003A20FDF795FE3A20FDF784FE002205218F
:10B8C0003B20FDF78DFE3B20FDF77CFE002205218D
:10B8D0004420FDF785FE4420FDF774FE002205217B
:10B8E0004520FDF77DFE4520FDF76CFE0022052179
:10B8F0004620FDF775FEBDE808404620FDF762BE14
:10B90000303802402DE9F04F87B0142102A8FCF72F
:10B9100003FD00244F48016841F0100101600168F7
:10B9200001F010010191016841F00401016001681A
:10B9300001F004010191016841F08001016001689A
:10B9400001F080010191016841F00101016001688D
:10B9500001F001010191016841F0020101600168FB
:10B9600001F002010191016841F0080101600068E5
:10B9700000F008000190DFF8E0900122C421484661
:10B98000FDF77EFDDFF8D4A04FF480780122414618
:10B990005046FDF775FD4FF6FF70029003250395A5
:10B9A000049402A92E48FDF77BFC42F2FF000290AE
:10B9B0000395049402A92B48FDF772FC0127029716
:10B9C0000394049402A95046FDF76AFC4FF63B70BD
:10B9D00002900395049402A94846FDF761FC0420F7
:10B9E0000290039704940226059602A94846FDF7A3
:10B9F00057FC4FF6F370029003950494DFF868B09B
:10BA000002A95846FDF74CFCCDF808800397049432
:10BA1000059602A95046FDF743FCB003029003953A
:10BA2000049402A95046FDF73BFC082002900394C1
:10BA3000049602A95846FDF733FCC020029011205D
:10BA400003900494059602A94846FDF729FC07B027
:10BA5000BDE8F08F30380240000402400000024090
:10BA60000010024000080240000C024070B592B085
:10BA700014210DA8FCF750FC00240C94282102A8E6
:10BA8000FCF74AFC3848016841F0805101600068C9
:10BA900000F080500190FEF7A1F93548334901606C
:10BAA00044607F218160FF21C16004614461846141
:10BAB000FEF7C8FD08B1FDF74FF800212C48FEF74E
:10BAC0003CFD45F65A26B0424BD012208DF834008A
:10BAD0008DF835408DF836401094119401220DA94F
:10BAE0002348FEF745FF08B1FDF736F801258DF82C
:10BAF000305004208DF8310022208DF832002420AF
:10BB00008DF8330001220CA91948FEF7E3FE08B1B5
:10BB1000FDF722F823208DF8080055208DF8090044
:10BB200056208DF80A000394059406944FF0803057
:10BB300007904FF01060089009948DF828504FF44A
:10BB400080700B90012202A90948FEF7EFFD08B1B1
:10BB5000FDF702F8324600210548FEF7F4FC12B06A
:10BB600070BD00F085F9FAE7403802400028004037
:10BB7000E801002010B50F480D4901604FF48271B3
:10BB8000416000218160C160016141614FF4802208
:10BB90008261C1610162416281620A21C162FFF773
:10BBA00069F8002803D0BDE81040FCF7D5BF10BDF0
:10BBB000003001404C03002010B586B000240294F0
:10BBC0000394049405940094019413484FF0804129
:10BBD00001605321416084604FF6FF71C1600461D0
:10BBE0008461FFF75FF908B1FCF7B6FF4FF48050AE
:10BBF000029002A90848FFF7D3F908B1FCF7ACFF9F
:10BC00000094019469460448FFF704F9002801D024
:10BC1000FCF7A2FF06B010BD6404002010B50C486C
:10BC20000A4901604FF4E131416000218160C16047
:10BC300001610C2242618161C161FFF703FC0028B0
:10BC400003D0BDE81040FCF787BF10BD00100140D5
:10BC5000AC04002010B50E4C0C4820604FF4E130CD
:10BC600060600020A060E06020610C216161A06143
:10BC7000E0612046FFF7E6FB08B1FCF76DFF2068A6
:10BC8000C16841F02001C16010BD000000440040C7
:10BC9000F4040020FEE7FEE70148FDF7C2BD000006
:10BCA0002409002070B504462068056C00EB4110A3
:10BCB000D0F8081B0C4EB54205D9090403D54FF442
:10BCC0000041C0F8081B2046FEF769F8B54208D9C4
:10BCD000A079012805D104F29C420121206801F0DD
:10BCE00071FC002070BD00000A30544F2DE9F04176
:10BCF00005460C462E68306C06EB4411D1F8083B23
:10BD000095F806804FF400474FF0200C05F29C4256
:10BD1000B8F1010F08D0DFF8B080404545D11804D4
:10BD20003AD5C1F8087B4CE0284E5FEA037806D587
:10BD3000B04246D9180444D5C1F8087B41E05FEA17
:10BD4000836802D5C1F808CB3BE013F0280F38D147
:10BD5000B04204D9180402D5C1F8087B31E004EBE5
:10BD6000C40005EB800000F51570D1F8101B036AC4
:10BD7000C1F31201591A416124B903693BB1C26888
:10BD80001144C160E1B22846FDF76AFC19E00121C7
:10BD9000286801F017FCF5E7980601D5C1F808CB33
:10BDA000E1B22846FDF75CFC0BE034B9D5F864023B
:10BDB00018B90021304601F005FCE1B22846FDF734
:10BDC0004FFC0020BDE8F0810A31544F0A30544F37
:10BDD0002DE9F84F80460E46D8F8007006EBC600F5
:10BDE00008EB80041434D4E90410884202D90120FD
:10BDF000BDE8F88F081AA168814200D20846C01C2D
:10BE00004FEA900A07EB461916E0151AA268AA42F3
:10BE100000D21546E81C4FEA900A98F806000090F8
:10BE2000ABB2F2B23846E16801F0D0FEE0682844D7
:10BE3000E060606928446061D9F8180980B2504513
:10BE400005D3D4E90420904201D2002ADDD1D4E9FF
:10BE50000401884208D806F00F0101208840D7F875
:10BE600034188143C7F834180020C1E77047000038
:10BE700000B58BB0282101A8FCF74EFA0122174922
:10BE80001748FEF7B5FB012216491548FEF78EFB51
:10BE900023208DF8040055208DF805000F48807888
:10BEA000401C8DF8060000200290049005904FF091
:10BEB000803106914FF010610791089001208DF8B4
:10BEC000240000020A90012201A90548FEF72EFC79
:10BED000002801D0FCF740FE0BB000BD8C01002013
:10BEE000E8010020080000200148FEF733BB0000F5
:10BEF000E8010020010901EB8101490000F00F0079
:10BF00000844C0B27047002102E0491C0A38C0B2A0
:10BF10000A28FAD2090740EA116070472DE9F0417A
:10BF2000044600252068C168490617D4C16841F05D
:10BF30008001C160FDF7ACFA06464FF47A78042719
:10BF400006E0FDF7A5FA801B404501D9677701257A
:10BF50002068C068400601D4012DF2D12846BDE812
:10BF6000F08170B5044600252068C16821F0800189
:10BF7000C16020688068800606D42046FEF758FD20
:10BF800010B1042060770125284670BD0069C0B259
:10BF900070470844406970470148FEF779BD0000CA
:10BFA00008020020D0F8800070470A688260D1E95A
:10BFB00001231A43D1E903310B431A43C1686FF3DC
:10BFC0000B011143C160002070470968C0F8801060
:10BFD0000020704710B585B0044600910D210191F5
:10BFE00040210291002103914FF480610491694640
:10BFF0002046FFF7DAFF41F288320D21204600F09B
:10C000001DF805B010BD000010B585B00446002134
:10C0100000910C220192402202920391110104919D
:10C0200069462046FFF7C1FF034A0C21204600F075
:10C0300005F805B010BD000000E1F50510B5034698
:10C0400045484FF4FA540068B0FBF4F45443641EBE
:10C05000601C0BD0586B10F0450FF8D00005F6D4DB
:10C06000586B400705D50420986310BD4FF0004081
:10C0700010BD586BC00702D00120986310BDC520C9
:10C0800098631846FFF782FF884201D0012010BD57
:10C0900000211846FFF77DFF3049084201D10020FA
:10C0A00010BD002802DA4FF0007010BD410001D52C
:10C0B000402010BD810001D5802010BDC10002D5F7
:10C0C0004FF4807010BD010102D54FF4007010BD17
:10C0D000410102D54FF4806010BDC10102D54FF47B
:10C0E000006010BD010202D54FF4805010BD410226
:10C0F00002D54FF4005010BD810202D54FF48040AC
:10C1000010BDC10202D54FF4004010BD410302D55D
:10C110004FF4003010BD810302D54FF4802010BDD4
:10C12000C10302D54FF4002010BD010402D54FF425
:10C13000801010BD410402D54FF4001010BD8104E1
:10C1400002D54FF4800010BD000702D54FF4000067
:10C1500010BD4FF4803010BD3800002008E0FFFD16
:10C1600010B5846B40F23A50216888632046FEF790
:10C170007EFC012184F8341000212163062801D0BF
:10C18000052805D12068FFF73FFFA16B0843A06396
:10C19000A06B18B12046FEF769FC10BD2046FEF7E3
:10C1A00061FC10BD10B5846B40F23A502168886381
:10C1B0002046FEF75CFC012184F834100021216345
:10C1C000062801D0052805D12068FFF71DFFA16BC7
:10C1D0000843A063A06B18B12046FEF747FC10BDD2
:10C1E0002046FEF73FFC10BD2DE9F0410746BC6A32
:10C1F000FD6A002D11D000263868FFF7D3FE2070AD
:10C20000010A6170010CA170000EE070241D2D1F49
:10C21000761C082EF0D3BC62FD62BDE8F08170B5DB
:10C2200004460D46002D0ED0B4F8500001042068DD
:10C23000FFF7D0FE002805D100212068FFF7A9FEF6
:10C240002860002070BD4FF0006070BDF8B5074653
:10C250003C6A7D6A002D19D0002620780090617814
:10C2600040EA01200090A17840EA01400090E17886
:10C27000241D40EA016000902D1F69463868FFF7D1
:10C28000A4FE761C082EE8D33C627D62F8BD0178DE
:10C29000407841EA0020704710B54FF0E020006977
:10C2A00002F0D6FC012803D0BDE8104002F06ABBC2
:10C2B00010BD000030B593B0302107A8FCF72CF872
:10C2C000142102A8FCF728F800251F48016841F056
:10C2D00080510160006800F0805001901B480168A7
:10C2E00041F480410160006800F480400190052025
:10C2F00007904FF4803008900120099002240D949B
:10C3000080050E9004200F90A82010901194072013
:10C31000129007A8FDF730FF08B1FCF71DFC0F20B5
:10C320000290039404954FF4A05005904FF4805070
:10C330000690052102A8FDF701FE002801D0FCF7B8
:10C340000BFC13B030BD00004038024000700040CC
:10C350000248016841F470010160704788ED00E017
:10C360000148FEF792BE0000BC0600202DE9F04116
:10C3700002682A4D2A4E2B4FDFF8ACC02B4B4FF0F2
:10C380008048A84209D0404507D0B04205D0B84205
:10C3900003D0604501D0984203D122F070044A686E
:10C3A0002243A8421BD0404519D0B04217D0B84212
:10C3B00015D0604513D0984211D01D4CA0420ED02C
:10C3C0001C4CA0420BD01C4CA04208D01B4CA042DD
:10C3D00005D01B4CA04202D01A4CA04203D122F43B
:10C3E0004074CA6822434C6922F0800222430260F2
:10C3F0008A68C2620A688262A84201D0984201D16A
:10C4000009690163012141610169C90703D001691B
:10C4100021F001010161BDE8F08100000000014050
:10C420000004004000080040000C004000040140EF
:10C430000040014000440140004801400018004015
:10C44000001C00400020004010B5846824F47F44A4
:10C4500042EA03220A432243826010BD826822F02E
:10C4600070020A4342F007018160704710B5036A09
:10C47000046A24F001040462846924F0F00444EAAC
:10C48000021423F00A020A438461026210BD10B54F
:10C49000036A046A24F010040462846924F470447A
:10C4A00044EA023223F0A00343EA011182610162EF
:10C4B00010BD10B5806B0021C185C184FEF7A8FEB8
:10C4C00010BD70B5846B20684069C0F3C01094F84B
:10C4D00041100025212904D118B1E584204600F03F
:10C4E0009BF820684069C0F3801094F8421022291C
:10C4F00004D118B1E585204600F05AF8606C40F090
:10C50000100060642046FEF783FE70BD10B5014642
:10C51000886B096809684FF00003C9052ED4C385EC
:10C5200001680C3151E8002F22F4807241E80024A8
:10C53000002CF5D10168143151E8002F22F00102DE
:10C5400041E80024002CF5D10168143151E8002F96
:10C5500022F0400241E80024002CF5D1202180F88F
:10C560004210016B012909D101680C3151E8002FFB
:10C5700022F0100241E80024002CF5D14363016B46
:10C58000012902D0FFF7DBF810BD818DFEF73FFED9
:10C5900010BD10B5806B01214163016B012902D0F0
:10C5A000FFF7CEF810BD818D4908FEF730FE10BDB3
:10C5B00001680C3151E8002F22F4907241E8002309
:10C5C000002BF5D10168143151E8002F22F001024F
:10C5D00041E80023002BF5D1016B012909D1016845
:10C5E0000C3151E8002F22F0100241E80023002B0B
:10C5F000F5D1202180F8421000210163704710B569
:10C600000168CA6822F04002CA60202180F8411007
:10C61000FFF7EEF8002010BD01680C3151E8002F43
:10C6200022F0C00241E80023002BF5D1202180F840
:10C630004110704708B590F84210222901D002201D
:10C6400008BD82684FF480539A4201D1016921B13B
:10C65000816A9A421DD052B10BE0816A0268526829
:10C66000C2F308020A80816A891C816209E00269BA
:10C670007AB10268526802F07F020A70816A491C2E
:10C680008162C18D491E0904090CC18505D00020B5
:10C6900008BD026852680A70F0E70168CA6822F0B3
:10C6A0002002CA600168CA6822F48072CA60016808
:10C6B0004A6922F001024A61202180F842100021DB
:10C6C0004163026B012A03D0FFF739F8002008BD4F
:10C6D000016301680C3151E8002F22F0100241E89B
:10C6E0000023002BF5D101680A68D20602D50A683A
:10C6F00049680091818DFEF78AFDE7E72DE9F04159
:10C70000044620680169E26821F440511143016147
:10C71000A1682069E2690143606910430143206810
:10C72000C26849F20C639A430A43C26020684169B7
:10C73000A26921F440711143416133492068884264
:10C7400002D03249884202D1FDF7D2FC01E0FDF768
:10C75000BFFCE1690023192764253226B1F5004F9B
:10C7600028D061688B0F8A00A0FB0701FBF78AFDC8
:10C770000146B0FBF5F07A42504301EB800006EB36
:10C780000010B0FBF5F000F0F002B1FBF5F002EBA9
:10C790000012B1FBF5F07B42584301EB800006EB41
:10C7A0000010B0FBF5F0216800F00F001044886025
:10C7B000BDE8F08161684A18A0FB07015B41FBF707
:10C7C00061FD0146B0FBF5F00201B1FBF5F06FF041
:10C7D0001803584301EB800006EBC000B0FBF5F0F6
:10C7E00000F0F80002EB4002B1FBF5F0584301EB1A
:10C7F000800006EBC000B0FBF5F0216800F00700F8
:10C8000010448860D4E7000000100140001401408B
:10C8100037B582B004461346039AA262A38500206E
:10C820006064222184F84210E56B1B49E963E56BE3
:10C830001A492964E56B1A49E964E16B08652168C6
:10C84000E06B091DFCF7E2FC20680168406801907C
:10C85000206948B120680C3050E8001F41F4807115
:10C8600040E80012002AF5D12068143050E8001F7B
:10C8700041F0010140E80012002AF5D1206814308F
:10C8800050E8001F41F0400140E80012002AF5D1B5
:10C8900005B0002030BD00000DC5000893C500089C
:10C8A000C3C4000890F84110212901D0022070472C
:10C8B0008168B1F5805F01D1016961B1016A4A1CEB
:10C8C0000262026809785160C18C491E0904090C92
:10C8D000C1840AD013E0016A02680988C1F3080123
:10C8E0005160016A891C0162EEE70168CA6822F0A2
:10C8F0008002CA600068C16841F04001C160002048
:10C9000070472DE9F84304460D4617469846089EA1
:10C9100025E0701C23D0FCF7BBFDA0EB0800B04263
:10C920001BD8D6B12068C168490718D5802D16D00C
:10C93000402D14D00168C943090710D4002521688F
:10C940000968406800902046FFF732FE08206064C6
:10C9500084F840500120BDE8F8830320FBE72068FD
:10C96000006835EA000004D00020B842D1D0002091
:10C97000F1E70120F9E700000148FEF74BBC000099
:10C98000AC04002010B5FCF797F8BDE81040014852
:10C99000FEF740BCF404002010B50024D0F8B82203
:10C9A0005268904700B10324204610BD90F89C22A5
:10C9B000012A05D0022A03D0032A01D000F01DB8B5
:10C9C0004988012904D10021C0F8A41200F039B827
:10C9D0007047002070470020704710B513460A4684
:10C9E000002100F091FA002010BD10B513460A4650
:10C9F000002100F02BFB002010BD10B50446802163
:10CA0000204600F00DFB2046BDE81040002100F05C
:10CA100007BB10B50521C0F8941200231A46194629
:10CA200000F072FA002010BD10B50223C0F8943255
:10CA30008261C26113460A46002100F007FB002014
:10CA400010BD10B50421C0F8941200231A461946EF
:10CA500000F0FCFA002010BD0A46D188012902D05E
:10CA60001146FFF7CABF90F89C12012906D002298F
:10CA700004D0032909D01146FFF7BFBF0021816010
:10CA8000012200F10801FFF7CFBF0122011DFFF7CE
:10CA9000CBBF2DE9F84304460F4600200090002646
:10CAA00000257888010A082970D2DFE801F0AB047C
:10CAB0000C22ABAB8B9AD4F8B412207C0A6869467E
:10CAC00090470646A3E0207C4FF0020840B1D4F81E
:10CAD000B802C16A68468847064686F8018096E033
:10CAE000D4F8B802816A68468847064686F801800D
:10CAF0008DE0C0B206285FD2DFE800F003122130DB
:10CB00003F4FD4F8B402426822B1207C6946904776
:10CB100006467CE039462046FFF76FFF012576E0A8
:10CB2000D4F8B402826822B1207C69469047064658
:10CB30006DE039462046FFF760FF012567E0D4F835
:10CB4000B402C26822B1207C6946904706465EE086
:10CB500039462046FFF751FF012558E0D4F8B402CA
:10CB6000026922B1207C6946904706464FE039466B
:10CB70002046FFF742FF012549E0D4F8B40242699C
:10CB80002AB1207C69469047064640E03AE03946A3
:10CB90002046FFF732FF012539E0D4F8B40282695C
:10CBA00022B1207C69469047064630E0394620464F
:10CBB000FFF723FF01252AE039462046FFF71DFF36
:10CBC000012524E0207C28B139462046FFF715FFD7
:10CBD00001251CE0D4F8B802416B68468847064638
:10CBE00015E0207C28B139462046FFF706FF0125D5
:10CBF0000DE0D4F8B802016B684688470646072165
:10CC0000717004E039462046FFF7F7FE0125002D3C
:10CC10000CD1FA888AB1BDF8000048B1824200D92F
:10CC20000246009231462046FFF7FEFEBDE8F8833B
:10CC300039462046FFF7E1FEF8E72046FFF701FFFF
:10CC4000F4E70A4690F89C12012906D0022904D084
:10CC5000032902D01146FFF7D0BED188022902D0A5
:10CC60001146FFF7CABE0121C160D0F8A41209B174
:10CC70000321C160022200F10C01FFF7D5BE01467D
:10CC80000020002906D0012905D0022905D003295A
:10CC900005D0032070470320704701207047032010
:10CCA000704710B5D0F8C802FCF7F7FCBDE810409B
:10CCB000FFF7E5BF70B504460B461646002B08D0BB
:10CCC00043F080012046FFF784FEFF285ED078B352
:10CCD0005CE004F11400D4F89412002502293CD140
:10CCE000D0E902218A420CD9521A8260314620468C
:10CCF000FFF77BFE00231A461946204600F004F990
:10CD00002BE0914215D14068884212D3D4F8981292
:10CD100088420ED2002211462046FFF766FEC4F874
:10CD2000985200231A461946204600F0EDF814E008
:10CD30001CE094F89C02032808D1D4F8B802C1681A
:10CD400021B1C4F8D452C1682046884780212046CA
:10CD500000F066F92046FFF75CFE94F8A002A8B147
:10CD6000204600F095F984F8A0520FE094F89C1248
:10CD700003290BD1D4F8B8124A693AB1C4F8D402E5
:10CD80004A69194620469047002800D1002070BD0E
:10CD900070B504460B4615460022002B08D003F060
:10CDA0007F012046FFF715FEFF2854D078B352E0EC
:10CDB00004F5AA70D4F8941203294CD1D0E90221C9
:10CDC0008A420AD9521A8260C068824200D302465F
:10CDD00029462046FFF701FE3DE094F8AA0210F034
:10CDE0001F0006D0012806D002280AD0002078B102
:10CDF0001BE00020FBE794F8AE122046FFF7EBFDA6
:10CE0000F5E794F8AE122046FFF7E3FDEFE710E0F8
:10CE100094F89C12032908D1D4F8B8120A6922B1F7
:10CE2000C4F8D4020969204688472046FFF709FE66
:10CE300011E094F89C1203290AD1D4F8B8128D6934
:10CE400035B1C4F8D4028A69194620469047024693
:10CE50000AB1104670BD002070BD0020704710B5AB
:10CE60000024012180F89C12D0F8B822002A04D0B6
:10CE700052680179904700B10324204610BD0A068C
:10CE800001F07F01D0F8C80201EBC10100EB810085
:10CE900001D5807D704790F85602704710B5D0F8E4
:10CEA000D42200EB8202D2F8B822002A04D090F8F3
:10CEB0009C32032B02D004E0032010BD126A02B1A1
:10CEC0009047002010BD10B5D0F8D42200EB8202AC
:10CED000D2F8B822002A04D090F89C32032B02D05A
:10CEE00004E0032010BD526A02B19047002010BD3B
:10CEF00010B514461A46D0F8C8022346FCF7F9FBD1
:10CF0000BDE81040FFF7BBBE10B5D0F8C802FCF773
:10CF10001EFCBDE81040FFF7B2BE2DE9F04104460B
:10CF20000025012684F89C620020C4F89402606009
:10CF3000C4F8A40284F8A002D4F8B802002806D0ED
:10CF4000426822B100212046904700B1032500220B
:10CF5000402311462046FFF7CBFFA4F86461402729
:10CF6000C4F860714023002280212046FFF7C0FFF3
:10CF7000A68427622846BDE8F08190F89C12042917
:10CF800003D190F89D1280F89C120020704710B5D4
:10CF900090F89C12032905D1D0F8B81211B1C969D3
:10CFA00001B18847002010BD01740020704710B502
:10CFB000D0F8C802FCF7E0FEBDE81040FFF75FBE06
:10CFC00070B5044604F2AA20054600F048F8012096
:10CFD000C4F89402B4F8B002C4F8980294F8AA22F3
:10CFE00012F01F000AD001280ED0022812D02046CD
:10CFF000BDE8704002F0800100F012B829462046DA
:10D00000BDE8704000F0FCB829462046BDE87040FD
:10D0100000F041BA29462046BDE8704000F02BB927
:10D0200010B5D0F8C802FCF7ABFBBDE81040FFF725
:10D0300026BE90F89C12042903D090F89C1280F828
:10D040009D12042180F89C120020704710B5D0F882
:10D05000C802FCF7CDFBBDE81040FFF710BE70B56D
:10D0600004460846017821704178801C61700546AD
:10D070002846FFF70CF960802846851C2846FFF7F4
:10D0800006F9A0802846801CFFF701F9E08070BDFA
:10D090000020704770B504468888002821D1C888D0
:10D0A000F8B9488880281CD200F07F0594F89C02CB
:10D0B00003280DD084F89E5229462046FFF777FFBB
:10D0C0002046FFF7BEFC45B1022084F89C0270BDEB
:10D0D0002046BDE87040FFF790BC012084F89C0218
:10D0E00070BD2046BDE87040FFF787BC03460020B6
:10D0F000D3F8B822002A02D01268184610477047A9
:10D100002DE9F04104460F460025334EB9783170C1
:10D11000012906D939462046FFF76FFC0320BDE8F8
:10D12000F08194F89C024FF0020802280CD00328EA
:10D1300024D039462046FFF760FC31782046FFF7BF
:10D140002BFC03252846EAE7A1B161602046FFF7E2
:10D15000CDFF0546280006D039462046FFF74DFC96
:10D1600084F89C82EEE72046FFF76BFC032084F8EE
:10D170009C02E7E72046FFF764FCE3E7C9B160687B
:10D18000884224D0C1B22046FFF706FC31786160A6
:10D190002046FFF7ABFF0546280014D0394620464D
:10D1A000FFF72BFC21792046FFF7F6FB84F89C82E1
:10D1B000C8E784F89C8261602046FFF7EDFB2046BB
:10D1C000FFF73FFCBEE72046FFF73BFCBAE72046EF
:10D1D000FFF737FCB6E700003C0000204A88012A30
:10D1E00003D0022A06D0FFF708BC0121C0F8A41220
:10D1F000FFF727BC8988090A80F8A012FFF721BC35
:10D2000010B500240A7812F0600211D0202A05D04F
:10D21000402A03D0FFF7F1FB204610BDD0F8D422FE
:10D2200000EB8202D2F8B822926890470446F3E7F6
:10D230004A780A2A1CD2DFE802F012181B151B08D4
:10D24000051B0F0BFFF725FCE6E7FFF723FFE3E7DE
:10D25000FFF756FF0446DFE7FFF7FEFBDCE7FFF7CB
:10D26000F0FCD9E7FFF7BAFFD6E7FFF79FFBD3E75C
:10D27000FFF7C3FBD0E72DE9F04105460E46002736
:10D280003479307810F060001ED0202808D0402873
:10D2900006D031462846FFF7B0FB3846BDE8F0819E
:10D2A00021462846FFF795FBFF28F6D00028F4D149
:10D2B000C5F8D402D5F8B8028268002AEDD031460C
:10D2C000284690470746E8E77078002870D0012884
:10D2D00031D0032804D031462846FFF78EFBDCE727
:10D2E00095F89C02022806D0032815D0314628461E
:10D2F000FFF783FBD1E754B1802C08D021462846A4
:10D30000FFF78EFE80212846FFF78AFEC5E73146EB
:10D310002846FFF772FBC0E7708840B93CB1802C0B
:10D3200005D0F08818B921462846FFF779FE28462F
:10D33000FFF787FBB1E795F89C02022806D0032887
:10D3400015D031462846FFF758FBA6E754B1802C8C
:10D3500008D021462846FFF763FE80212846FFF7C4
:10D360005FFE9AE731462846FFF747FB95E770884E
:10D37000002892D1600603D021462846FFF791FC91
:10D380002846FFF75EFB21462846FFF722FBFF28D1
:10D3900083D0002881D1C5F8D402D5F8B8028268BC
:10D3A000002A90D0314628469047074675E7FFE7A8
:10D3B00095F89C024FF00008022806D0032825D0DB
:10D3C00031462846FFF719FB67E734B1802C04D0BB
:10D3D00031462846FFF711FB5FE7200607D504F02A
:10D3E0007F0000EB800005EB8001143107E004F0C2
:10D3F0007F0000EB800005EB800101F5AA71C1F808
:10D40000008002222846FFF70FFB46E720060CD5D6
:10D4100004F00F0000EB800005EB8000808C68B901
:10D4200031462846FFF7E9FA37E704F00F0000EB32
:10D43000800005EB8000B0F8640148B120060CD5EF
:10D4400004F07F0000EB800005EB800614360CE052
:10D4500031462846FFF7D1FA1FE704F07F0000EBC2
:10D46000800005EB800606F5AA764CB1802C07D02B
:10D4700021462846FFF703FD28B10120306004E073
:10D48000C6F8008001E0C6F8008002223146284636
:10D49000FFF7CAFA01E770B505460E46002430785A
:10D4A00010F0600009D0202807D0402805D0314670
:10D4B0002846FFF7A2FA204670BD95F89C02012885
:10D4C00008D0022806D0032804D031462846FFF7AA
:10D4D00094FAF0E7B088C1B201291ED8C1B228463B
:10D4E000FFF779FAFF2800D048B10324F08800281C
:10D4F000E1D1002CDFD12846FFF7A3FADBE7D5F80E
:10D50000B8128A683AB1C5F8D4028A68314628460A
:10D5100090470446EAE70324E8E731462846FFF748
:10D520006CFAC8E770B50A784E78012302F00F0450
:10D530001C4DA340012E19D0D0F81C4844EA0343E7
:10D54000C0F81C3800EB4210D0F8002B12040BD4AA
:10D55000D0F8002B0B890979C3F30A031A4345EA73
:10D5600081410A43C0F8002B002070BDD0F81C4850
:10D570009BB21C43C0F81C4800EB4210D0F80039A5
:10D580001B04F1D4D0F800390C890979C4F30A04DA
:10D590008904234341EA82510B432B43C0F80039ED
:10D5A000E2E7000000800010D0F800196FF30A01D4
:10D5B000C0F80019D0F8041841F48071C0F80418BC
:10D5C0000020704710B5036C124CA34205D9D0F867
:10D5D000003B002B01DA002010BD00F53160002374
:10D5E0000360036843F400230360036843F01803F7
:10D5F0000360036843F0C0430360A0F53160012974
:10D6000006D100F530604261016841F0802101607F
:10D61000002010BD0A30544F4A780B78012A00EBE5
:10D6200043100BD0D0F8002B22F40012C0F8002BCE
:10D630000979032914D0022912D017E0D0F8002963
:10D6400022F40012C0F800290979032901D0022927
:10D650000CD1D0F8001941F08051C0F8001905E054
:10D66000D0F8001B41F08051C0F8001B002070472B
:10D670000A784B780978012B00EB411012D0D0F8D2
:10D68000001B002906DB2AB1D0F8001B21F08041E5
:10D69000C0F8001BD0F8001B41F40011C0F8001BBB
:10D6A00000207047D0F80019002906DB2AB1D0F815
:10D6B000001921F08041C0F80019D0F8001941F498
:10D6C0000011C0F80019EBE7F8B50C784F780B782B
:10D6D0008F4D6FF0604600EB4313012F29D0D3F834
:10D6E000107B6FF31207C3F8107BD3F8107B2F4029
:10D6F000C3F8107B002C7DD00D69002D7BD08C6889
:10D7000025446D1EB5FBF4F5ADB26C430C62D3F845
:10D71000104B06EAC5452C43C3F8104BD3F8104B09
:10D720000D6AC5F312052C43C3F8104B012A7DD0B6
:10D73000D1E00F6927B3D3F810796FF31207C3F85C
:10D740001079D3F810792F40C3F8107934B30F69EA
:10D750008D682F447F1EB7FBF5F506EAC545D3F863
:10D7600010693543C3F81059D3F810590E69C6F340
:10D7700012063543C3F810590D79012D1AD023E054
:10D7800003F511631E682E401E601D6845F40025D8
:10D790001D601D686FF312051D6015E00E698D6830
:10D7A000AE4200D90D61D0F8105945F40026C0F8FA
:10D7B0001069D9E703F511631D6825F0C0451D60A8
:10D7C0001D6845F000551D60012A1BD000EB441375
:10D7D000D3F8004944F00444C3F800490C79012C03
:10D7E00039D00A69002A0CD0D0F83428097801F021
:10D7F0000F0301E048E05BE0012199400A43C0F8D3
:10D80000342882E0CA691AB100EB4413C3F8142922
:10D810000979012916D1D0F80818C9050AD400EBF6
:10D820004411D1F8002942F0005200E04FE0C1F865
:10D83000002907E000EB4411D1F8002942F08052A2
:10D84000C1F8002900EB4410D0F8001941F0044160
:10D85000C0F8001959E0D0F80848E40506D4D3F818
:10D86000004944F00054C3F8004905E0D3F80049EA
:10D8700044F08054C3F8004900920A8A93B20A78AF
:10D88000C96800F0A3F940E00C690CB18C680C6128
:10D890008C680C62D0F8105BC4F312042543C0F806
:10D8A000105BD0F8104B44F40024C0F8104B3DE757
:10D8B000D3F8104B8D68C5F312052C43C3F8104BF9
:10D8C000D3F8104B44F40024C3F8104B2EE7CA6879
:10D8D0000AB1C3F8142B0979012910D1D0F808082E
:10D8E000C00506D4D3F8000B40F00050C3F8000B7D
:10D8F00005E0D3F8000B40F08050C3F8000BD3F8DC
:10D90000000B40F00440C3F8000B0020F8BD0000FD
:10D91000FFFF07E038B5002200920B784D7800EB4E
:10D92000431442F21073012D1AD0D4F8005B002D7D
:10D9300040DAD4F8005B45F00065C4F8005B0C7871
:10D9400000EB4414D4F8005B45F08045C4F8005B5C
:10D95000009C641C0094009C9C4224D9012229E074
:10D96000D4F80059002D25DAD4F8005945F00065A7
:10D97000C4F800590C7800EB4414D4F8005945F071
:10D980008045C4F80059009C641C0094009C9C4293
:10D9900001D901220EE00C7800EB4414D4F80049C0
:10D9A000002CF0DB06E00C7800EB4414D4F8004BBC
:10D9B000002CCDDB104638BD18B5002400944FF084
:10D9C0007063009A521C0092009A9A4201D9032077
:10D9D00018BD0269002AF4DA0094202242EA81117B
:10D9E00001610099491C00910099994201D90320D5
:10D9F00018BD01698906F4D4002018BDD0F80808C4
:10DA000000F00600002805D0022805D0062803D023
:10DA10000F2070470020704702207047406900F0D7
:10DA200001007047D0F81818D0F81C08084080B2E0
:10DA30007047D0F81818D0F81C080840000C704740
:10DA400010B5D0F81038D0F8342801F00F04E240B7
:10DA500002F0010243EAC21200EB4110D0F80809BB
:10DA6000104010BD00EB4111D1F8081BD0F814088C
:10DA700008407047416980690840704730B50346E7
:10DA80000846940802F00301002203F5805303E0E6
:10DA90001D6840F8045B521CA242F9D300290BD048
:10DAA00000221C68D50024FA05F300F8013B521C43
:10DAB000491E89B20029F5D130BD00F50060026829
:10DAC00022F4FE62026002684FF4FE6303EA011171
:10DAD0000A43026000207047022A0ED082B3092157
