:020000040800F2
:10800000485400206182000867C4000887BF000848
:1080100065C400083D8A0008CFE8000800000000A1
:10802000000000000000000000000000A181000826
:10803000458B000800000000FD810008E3D2000825
:108040007B8200087B8200087B8200087B8200081C
:108050007B820008D9C500087B8200087B8200086B
:108060007B8200087B8200087B8200087B820008FC
:108070007B8200087B8200087B8200087B820008EC
:10808000418A00084D8A00080D8800087B8200089C
:108090007B8200087B8200087B8200087B820008CC
:1080A0007B8200087B8200087B8200087B820008BC
:1080B0007B8200087B8200087B8200087B820008AC
:1080C0007B8200087B8200087B8200087B8200089C
:1080D0007B82000831D900083DD900087B82000866
:1080E0007B82000855C600087B8200087B8200085E
:1080F0007B8200087B8200087B8200087B8200086C
:108100007B8200082DC700087B8200087B82000864
:108110007B8200087B820008A9D300087B820008CC
:10812000598A00087B820008658A0008718A000865
:108130007B8200087B8200087B8200087B8200082B
:108140007B8200087B8200087B82000869C40008EB
:108150007D8A0008898A0008958A00087B820008C9
:108160007B8200087B8200087B8200087B820008FB
:108170007B8200087B8200087B82000800000000F0
:108180007B8200087B820008DFF810D000F02CFB17
:1081900000480047D5F10008AFF3008048540020A4
:1081A0002C4B19680868B0E8F04F80F30988BFF3DA
:1081B0006F8F4FF0000080F31188704700000000BF
:1081C00008480068006880F308884FF0000080F3DA
:1081D000148862B661B6BFF34F8FBFF36F8F00DFB5
:1081E00000BF00BF08ED00E0DFF80C00016841F4BB
:1081F00070010160704700BF88ED00E0EFF3098077
:10820000BFF36F8F134B1A681EF0100F08BF20EDDD
:10821000108A20E9F04F106009B44FF0500080F34D
:108220001188BFF34F8FBFF36F8F07F049FB4FF0FB
:10823000000080F3118809BC19680868B0E8F04FA5
:108240001EF0100F08BFB0EC108A80F30988BFF34E
:108250006F8F704748000020EFF3058070470000E3
:108260000648804706480047FEE7FEE7FEE7FEE7D0
:10827000FEE7FEE7FEE7FEE7FEE7FEE799D300082C
:10828000898100082DE9F05F0546002092469B4653
:1082900088460646814640241BE02846414647461C
:1082A000224600F00AFA53465A46C01A914110D3AA
:1082B00011461846224600F0F1F92D1A67EB010825
:1082C0004F4622460120002100F0E8F917EB000993
:1082D0004E41201EA4F10104DFDC484631462A4607
:1082E0004346BDE8F09F40EA01039B0703D009E045
:1082F00008C9121F08C0042AFAD203E011F8013B92
:1083000000F8013B521EF9D27047D2B201E000F8EA
:10831000012B491EFBD270470022F6E710B5134629
:108320000A4604461946FFF7F0FF204610BD2DE926
:10833000FE4F804681EA0300C00F0C46009021F0FA
:10834000004123F00045B8EB0200A94105D24046A8
:10835000214690461C460B46024623F0004010433F
:1083600047D0270DC7F30A00C3F30A510290401A01
:10837000019040286BDAC3F3130040F4801B00988F
:10838000924620B10023D2EB030A63EB0B0B01985A
:108390005946C0F14002504600F080F906460D46AD
:1083A00050465946019A00F098F910EB08006141D7
:1083B000002487EA115284EAE7731A4340D0009AF6
:1083C00062B3019A012A4FEA075215DC001B61EBE8
:1083D00002014FF0004202EA0752CDE90042001CC0
:1083E00041F5801132462B4600F098F903B0BDE804
:1083F000F08F40462146F9E7001B61EB0201001CAB
:1084000041F5801300185B412018A2F5001747EBD7
:10841000030140EAD570B6196D4111E06D084FEACD
:10842000360645EAC0754FEA0752001B61EB0201B0
:10843000001C41F5801149084FEA300000195141F4
:1084400032462B4603B0BDE8F04F00F058B9009813
:10845000012240000023D0EB020263EBE07300989E
:1084600021464FEAE074B8EB000061EB0401E9E754
:1084700083F000435BE781F0004158E72DE9FE4FB0
:1084800081EA030404F0004421F0004100944FF01D
:10849000000B23F0004350EA01045ED052EA0304CB
:1084A0005BD0C3F30A54C1F30A552C44A4F2F3344D
:1084B0000194A0FB0254C1F3130141F48011C3F3F2
:1084C000130343F4801301FB024400FB034E840AB0
:1084D000970A44EA815447EA8357A4FB0768029548
:1084E0008D0A05FB07854FEA932C04FB0C542705E6
:1084F000029D4FEA065847EA1637B5EB08056EEBC2
:10850000070C870E920E47EA811742EA8312A7FBF7
:108510000201B6EB0B0164EB00042B0D43EA0C33B4
:108520005E1844EB1C50DA465146E7FB0201C5F3E6
:1085300013044FEA0B3343EA14534FEA0432019C0D
:1085400043EA0603A4F10C040294009CCDE900B4B4
:1085500000F0E4F803B0BDE8F08F00200146F9E731
:108560002DE9F04D81EA030404F0004B21F00045B1
:1085700014464FF0000A23F0004150EA050220D0D3
:1085800054EA01021DD0C5F30A570246C5F313038E
:10859000C1F31300C1F30A5640F4801543F480136D
:1085A000A7EB0608101BD64608F2FD3873EB050052
:1085B00002D308F1010801E092185B41B8F1000F05
:1085C00003DA00200146BDE8F08D00204FF4801151
:1085D000064684460EE0171B73EB050705D3121BF6
:1085E00063EB050306434CEA010C49084FEA3000EF
:1085F00092185B4150EA0107EDD152EA030012D014
:1086000082EA040083EA0501084305D0101BAB4150
:1086100006D20122002306E000224FF0004302E0D0
:108620006FF0010253101AEB06004CEB085110EBEF
:108630000A0041EB0B01BDE8F04D00F060B800000E
:1086400030B5041E71F1000404DB4FF000444042D9
:1086500064EB0101141E73F1000405DB1C464FF0AE
:108660000043524263EB0403994208BF904230BD7D
:1086700030B50B46014600202022012409E021FAF2
:1086800002F59D4205D303FA02F5491B04FA02F5EF
:108690002844151EA2F10102F1DC30BD202A04DBC2
:1086A000203A00FA02F1002070479140C2F1200305
:1086B00020FA03F3194390407047202A04DB203A44
:1086C00021FA02F00021704721FA02F3D040C2F1F2
:1086D00020029140084319467047202A06DBCB1739
:1086E000203A41FA02F043EAE07306E041FA02F36D
:1086F000D040C2F12002914008431946704710B59E
:10870000141E73F1000408DA401C41F100019218B4
:108710005B411A4301D120F0010010BD2DE9F04D5D
:1087200092469B4611B1B1FA81F202E0B0FA80F2B2
:1087300020329046FFF7B2FF04460F4640EA0A0097
:1087400041EA0B0153465A46084313D0114653EAF7
:10875000010019D0C8F140025046FFF7AEFF0546B0
:108760000E46504659464246FFF798FF084305D04B
:10877000012004E020463946BDE8F08D0020054385
:1087800046EAE0762C4337430A986305E40AA0EBF7
:1087900008000022FD0A44EA47540A3002D50020AE
:1087A0000146E9E7010510196941DDE908450019AD
:1087B0006941BDE8F04DA2E7C1F30A52C1F31301CC
:1087C00040F2FF3341F480119A4202DA0020014660
:1087D000704740F233439A42A2F2334202DC5242E3
:1087E000FFF76BBFFFF75ABF064C074D06E0E06886
:1087F00040F0010394E8070098471034AC42F6D3E8
:10880000FFF7C6FCCC010108EC010108014800F0AB
:10881000B3BA0000CC010020464910B54A6822F4E2
:1088200040324A604A6843681A434A6001684A68AD
:1088300022F480724A6001684A68036942EA0322AE
:108840004A6001684A6822F040724A6001684A68DA
:1088500083681A434A6001688A6822F400628A6069
:1088600001688A68C3681A438A60816A6FF070621F
:10887000D14201688A6822F070628A6001688A6861
:108880000CD0836A1A438A6001688A6822F04052D9
:108890008A6001688A68C36A1A4301E022F0405284
:1088A0008A6001688A6822F002028A6001688A6828
:1088B000037E42EA43028A6090F820100029016892
:1088C0004A680FD042F400624A6001684A6822F4A4
:1088D00060424A6001684A68174C436A04EB4333BC
:1088E0001A4301E022F400624A600168CA6A22F475
:1088F0007002CA620168CA6A838B104C04EB03538E
:108900001A43CA6201688A6822F400728A600168A8
:108910008A6890F8303042EA43228A6001688A68A7
:1089200022F480628A6001688A68406942EA802095
:10893000886010BD0023014000E0FFFF0000F0FF51
:1089400010B501240821034800F0DAFD00B100242D
:10895000204610BD000C024070470000014601484F
:1089600002F0FEB93402002010B5044802F00AFA01
:10897000042801D0012010BD002010BD34020020C9
:1089800010B500F015F8012801D0012010BD0748EE
:1089900002F016FB040006D14FF40061034802F018
:1089A00085F800B10124204610BD000034020020EB
:1089B00008B501208DF80000FFF7C2FF10B90020B4
:1089C0008DF800009DF8000008BD0000134610B5AA
:1089D0000A4601460024034802F0EEFB00B10124E0
:1089E000204610BD3402002008B50120ADF800007B
:1089F000034800231A466946406806F0B7FC08BDE4
:108A000024000020134610B50A46014600240348FE
:108A100002F070FC00B10124204610BD3402002099
:108A200008B50220ADF80000034800231A46694645
:108A3000406806F09BFC08BD24000020FEE7000013
:108A4000014800F0F1BA000028060020014800F0BB
:108A5000EBBA000088060020014800F0E5BA0000EB
:108A600030040020014800F0DFBA0000C8050020F3
:108A7000014800F0D9BA000018030020014800F0B6
:108A8000D3BA0000D0030020014800F0CDBA0000A6
:108A9000B8020020014800F0C7BA000068050020B5
:108AA00001681823CAB2103AB2FBF3F2054B6FF318
:108AB0000901032A9B5CC36500D9091D816508462D
:108AC00070470000AC01010810B5014600208B6919
:108AD0008A6A4FF0C07453B1B3F5005F15D072B11C
:108AE000012A0CD0022A0AD0032A09D104E01AB1C3
:108AF000012A06D0022A03D1C96AC90100D5012082
:108B000010BDC96AA142FAD010BD002AF7D0012ACF
:108B1000F2D0022AF3D0032AF3D010BD30B5046896
:108B2000256825F480252560046863608368402BF0
:108B3000036803D099600068C26030BD9A60006825
:108B4000C16030BD704700007CB5214D28680168C8
:108B5000C943090704D4016841680191016841686B
:108B600000681C4CC043800623D44FF0FF33012221
:108B70006946174803F04EF9B4F800014FF400328B
:108B8000C0F30E01FF2903D29DF80000605408E0F5
:108B90006FF30E00A4F80001C0F30E009DF8001062
:108BA0002154B4F8000102EBF0304FEA7040A4F811
:108BB000000128680168C943C90608D4B4F8001147
:108BC00041F40041A4F800110168406801907CBDA7
:108BD00020050020444F002072B6FEE7002200F07E
:108BE00001B8000030B50E4B054601205C7A002C20
:108BF00014D1587A1C54587A03EB800045605D7A92
:108C000003F108002A54587A421C5A723030087016
:108C10003A2048702F208870CC70002030BD0000B2
:108C2000300700207047000078B50024009490F8C9
:108C30003C20012A19D0012280F83C200A6807252F
:108C40000368092A13D9DE680A3A02EB420295400A
:108C5000AE43DE600A788B680A3A02EB4202934028
:108C60000268D5682B43D36010E0022078BD1E69EE
:108C700002EB42029540AE431E610A788B6802EB1C
:108C800042029340026815692B4313614A681F250D
:108C9000072A13D203685E6B521E02EB82029540D4
:108CA000AE435E630A8893B20A79521E02EB8202D7
:108CB00093400268556B2B43536327E003680D2AEA
:108CC00012D21E6BD21F02EB82029540AE431E638E
:108CD0000A8893B20A79D21F02EB8202934002689B
:108CE000156B2B43136311E0DE6A0D3A02EB82022F
:108CF0009540AE43DE620A8893B20A790D3A02EBE0
:108D0000820293400268D56A2B43D362164B0568F2
:108D1000144A9D4206D10D68122D03D1556845F4C1
:108D20008005556005689D4218D10B68102B01D055
:108D3000112B13D1536843F40003536009681029C1
:108D40000CD10A490A4A0968B1FBF2F101EB810131
:108D5000490000E0491E00910029FBD180F83C4009
:108D6000002078BD00230140002001404000002089
:108D700040420F007047704770B5044600680668AF
:108D8000456816F0020F05F020022AD04AB3216C84
:108D9000C90603D4216C41F400712164816811F08B
:108DA000405F17D1217EA9B9C16A11F4700F02D0BA
:108DB000816849050ED4416821F020014160206C92
:108DC00020F480702064206CC00403D4206C40F038
:108DD000010020642046FFF7CDFF21686FF01200EC
:108DE000086016F0040F05F0800132D089B3206CC2
:108DF000C00603D4206C40F40050206420688168D1
:108E000011F4401F1ED1816B11F4401F02D0816804
:108E1000490517D44168490514D4816811F0405FB1
:108E200010D1217E71B9416821F080014160206C30
:108E300020F480502064206CC00503D4206C40F0E6
:108E4000010020642046FFF7EDFE21686FF00C0062
:108E5000086016F0010F05F040010FD071B12068D5
:108E60000068C0070AD0206C40F48030206420469F
:108E700000F043F821686FF00100086016F0200F41
:108E800005F080610ED000290CD0606C40F002002B
:108E9000606420686FF0200505602046FFF76BFFD7
:108EA0002068056070BD70B504004FF0000603D067
:108EB000206C002510B107E0012070BD204600F0B5
:108EC0001DF8656484F83C50206CC00610D4206CFA
:108ED00020F4885040F0020020642046FFF79CFCFC
:108EE0006564206C20F0020040F00100206400E086
:108EF000012684F83C50304670BD704710B586B0EE
:108F0000044614216846FFF707FA1549206888428D
:108F100024D114480021026842F480720260006883
:108F200000F4807005900F481438026842F0010286
:108F30000260006800F0010005900220009003200C
:108F4000CDE901016946084800F0F2F90022052147
:108F5000122000F08FFB122000F07EFB06B010BD47
:108F60000020014044380240000002402DE9F04159
:108F70000446876D00F0D6FA054694F835000026C1
:108F8000022806D08020606584F834600120BDE8A6
:108F9000F0812068016821F01601016020684169B4
:108FA00021F080014161206C08B9A06C20B12068DB
:108FB000016821F0080101602068016821F00101C9
:108FC00001600CE000F0AEFA401B052807D9202014
:108FD0006065032084F8350084F83460D7E72068A2
:108FE0000068C007EED194F85C103F208840B8605C
:108FF000012084F8350084F834600020C7E790F839
:109000003510022903D080214165012070470521D8
:1090100080F835100068016821F00101016000202E
:109020007047406D704700002DE9F84304464FF04B
:109030000009CDF8009063484FF41651A56D006803
:10904000B0FBF1F72E6894F85C20082101FA02F0D9
:1090500030420FD02068026852070BD5026822F018
:109060000402026094F85C008140A960606D40F0E9
:109070000100606594F85C104FF0010808FA01F0F7
:10908000304208D021684969090604D5A860606D9E
:1090900040F00200606594F85C1004208840304283
:1090A00008D021680968890704D5A860606D40F080
:1090B0000400606594F85C1010208840304218D09D
:1090C00021680968090714D5A86020680168490368
:1090D00004D50068000308D5A16C07E00168C90544
:1090E00003D4016821F008010160216C09B1204618
:1090F000884794F85C1020208840304231D02168A5
:109100000968C9062DD5A86094F83500052820689F
:10911000016806D0490347D5006800031DD4616C7F
:109120001CE021F0160101602068416921F08001F6
:109130004161206C08B9A06C20B12068016821F061
:109140000801016094F85C103F208840A86084F812
:10915000358084F83490216D1FE0E16B09B1204621
:109160008847606D00282BD0606DC00714D00520A3
:1091700084F835002068016821F001010160009841
:10918000401C0090B84203D820680068C007F6D1A0
:1091900084F8358084F83490E16C002910D001B057
:1091A0002046BDE8F04308470168C905D5D40168E9
:1091B00021F01001016084F8358084F83490CCE708
:1091C000BDE8F883400000202DE9F041044600F09E
:1091D000A9F905465CB1022084F83500002684F820
:1091E00034602068016821F0010101600DE0012078
:1091F000BDE8F08100F096F9401B052805D9202034
:109200006065032084F83500F2E720680068C00735
:10921000F0D121680A6820480240D4E901031843CC
:10922000D4E903352B43184363691843A3691843F2
:10923000E3691843236A18431043626A042A03D17E
:10924000D4E90B231A431043086020684069656A1B
:1092500020F0070128460D43012704280CD1A06AFD
:109260000543E06A40B12046FFF72EFC20B14020C4
:10927000606584F83570BAE7206845612046FFF7DD
:109280000FFC94F85C203F2191408160666584F872
:1092900035700020ACE700003F8010F02DE9F04170
:1092A0000446866D90F83400002501280DD0012079
:1092B00084F8340094F835700020012F07D084F82A
:1092C000340002252846BDE8F0810220FBE7022792
:1092D00084F8357060652046FFF720FC94F85C1038
:1092E0003F208840B0602068016841F016010160AD
:1092F000206C20B12068016841F0080101602068FD
:10930000016841F001010160DCE7000070B504462E
:1093100000F008F90546601C02D0044800780444B7
:1093200000F000F9401BA042FAD370BD34000020C9
:109330002DE9F84FDFF89C910022A9F1040B0327D7
:109340004FF00F0C09F1040AABF1040E01250B6874
:1093500095402B40AB426ED10C7904F00304012CF4
:1093600001D0022C15D18668540007FA04F826EAC9
:109370000806D1F80C8008FA04F848EA0608C0F894
:1093800008804468AC430D79C5F30015954025432A
:1093900045600C79E443A40708D0C568540007FA77
:1093A00004F6B5438E68A6402E43C6600C7904F0DF
:1093B0000304022C11D1D40800EB8406356A54074B
:1093C000E40E0CFA04F825EA0805D1F8108008FA32
:1093D00004F848EA0508C6F820800568540007FA32
:1093E00004F6B5430E7906F00306A6402E43066048
:1093F0004C6814F4403F66D0374C256845F48045EE
:109400002560246822F0030504F480440094334C62
:1094100005EB0408D8F808589407260F0CFA06F450
:10942000A5432F4CA04201D1002424E02D4CA042A2
:1094300002D101241FE046E02B4CA04201D10224BE
:1094400019E02A4CA04201D1032414E0284CA04288
:1094500001D104240FE0274CA04201D105240AE0E9
:10946000254CA04201D1062405E0244CA04201D1A4
:10947000072400E00824B4402C43C8F80848D9F871
:1094800000404D464E689C43F60200D51C432C60BC
:10949000DAF8004055464E689C43B60200D51C439E
:1094A0002C60DBF800405D464E689C43B60300D557
:1094B0001C432C60DEF8004075464E689C43F60362
:1094C00000D51C432C60521C102AFFF43FAFBDE8AE
:1094D000F88F0000083C0140443802400030014051
:1094E000000002400004024000080240000C02405C
:1094F000001002400014024000180240001C02400C
:109500000069084000D001207047426921EA020347
:109510000A4043EA0241816170470AB181617047A4
:109520000904FBE701488068704700003400002010
:10953000024881680278114481607047340000203D
:109540000B4810B5016841F400710160016841F4F5
:1095500080610160016841F480710160032000F0C6
:10956000A9F80F2000F006F800F050F8002010BD18
:10957000003C024030B505461F4887B00024016812
:1095800041F010010160006806A900F0100005908C
:10959000684600F0D9FD0398A8B100F0FBFD40003B
:1095A0001649174AB0FBF1F11648491E026040F215
:1095B000E732C0E90324C0E90114846102F03EF8F7
:1095C000040003D015E000F0E5FDE9E70D4802F0E6
:1095D00075F804000DD1362000F03EF8102D07D2AA
:1095E00000222946362000F045F80748056000E0D3
:1095F000012407B0204630BD4038024040420F00F1
:1096000000100040E806002038000020114808B58E
:10961000016841F480410160006800F480400090DE
:109620000C48001F016841F0805101600068002271
:1096300000F0805000900F21901E00F01BF80521D3
:109640000022084600F016F8BDE80840052000F0AA
:1096500003B8000044380240002809DB00F01F0274
:10966000012191404009800000F1E020C0F8001184
:1096700070470000F0B40E4B1B68C3F30223C3F124
:109680000704042C00D904241D1D072D01D200233A
:1096900000E0DB1E012606FA04F56D1E0D409D401C
:1096A0009E40761E164045EA0601F0BC05F020B942
:1096B0000CED00E0064A00F0070110684FF6FF03CA
:1096C000184040EA01200349084310607047000039
:1096D0000CED00E00000FA057047D0F8E00404F05B
:1096E000AFBA01EBC10200EB8202D0F8E004126ACB
:1096F00004F002BA01EBC10200EB8202D0F8E004F0
:10970000D2F8602204F051BAD0F8E00404F09ABA1A
:109710000A0601F00F0101EBC10100EB810101D547
:10972000143101E001F51571006804F06FBF70B5E8
:10973000044601F00F002279904201D9012070BD4A
:109740000B0601F00F0101EBC10104EB81014FF0A9
:1097500001024FF0000502D54A75143103E081F88B
:10976000555201F515718D70087094F89404012814
:1097700008D084F89424206804F0D8FD84F8945428
:10978000002070BD022070BD2DE9F04104460F0697
:1097900001F00F0000EBC00104EB81014FF0010666
:1097A0004FF0000502D54E75143103E081F8555293
:1097B00001F5157108708A600B714A7802B148830F
:1097C000022B00D14D7194F89404012809D084F83B
:1097D0009464206804F030FD284684F89454BDE871
:1097E000F0810220FBE710B501F00F0404EBC40187
:1097F00000EB8101C1E998230023C1F8683281F8A8
:10980000553281F85442837901F51571012B00D14D
:10981000CA618279006804F0E1FD002010BD70B5D6
:1098200004460D4601F00F002179884201D901203C
:1098300070BD29064FF000064FF0010206D500EB7F
:10984000C00104EB81014A75143107E005EBC50145
:1098500004EB810181F8556201F515718A70087079
:1098600094F89404012807D084F89424206804F024
:1098700089FD280702D007E0022070BDA17904F21B
:109880009C42206804F026FD84F89464002070BD9A
:1098900010B501F00F0404EBC40100EB8101C1E934
:1098A000082300238B6201234B7501F8144F837941
:1098B000012B00D1CA618279006804F08FFD00207D
:1098C00010BD00002DE9F84F05680446284604F055
:1098D00016FF00287DD1206804F03DFF002878D0D5
:1098E000D5F80808C0F30D20C4F8D404206804F0AB
:1098F00032FF800704D52068416901F0020141610F
:10990000206804F028FFC10604F29C40009034D582
:109910002068816921F0100181612F6A07F00F0032
:1099200000EBC00004EB8006C7F3434006F5157654
:10993000022802D0062811D01AE047F6F07007423C
:1099400016D0C7F30A1217462846F16804F007FF3D
:10995000F0683844F0607069384408E0082228460E
:10996000009904F0FCFE7069C7F30A1108447061A5
:109970002068816941F010018161206804F0EBFEEC
:1099800000034FF0010B7AD50026206804F0C2FED8
:109990008046DFF878A46FE05FEAC87069D0F1B262
:1099A000206804F0D0FE0746C00707D005EB46113B
:1099B000C1F808BB3146204602F05CFD380722D5CD
:1099C00005EB46110820C1F8080B2068D0F840903C
:1099D00000E018E200EB4610D0F8082BD14505D97D
:1099E000110403D54FF40041C0F8081B204600F0D5
:1099F00048FAD14507D9A079012804D1206801216E
:109A0000009A04F067FCF80604D505EB4611102017
:109A1000C1F8080BB8071DD56869000605D5D5F84B
:109A2000040840F48061C5F8041806EBC60004EB96
:109A3000800090F8571200F51570012905D100211A
:109A4000C170F1B2204600F0E7F905EB46110220A3
:109A5000C1F8080BB80604D505EB46102021C0F864
:109A6000081BB80405D505EB46104FF40051C0F8AB
:109A7000081B4FEA5808761CB8F1000F8CD12068FB
:109A800004F069FE40036DD5206804F03CFE80467A
:109A9000002664E05FEAC8705ED0F1B2206804F08E
:109AA00040FE0746C00723D006F00F010BFA01F075
:109AB000D5F834188143C5F8341805EB4610C0F8C2
:109AC00008B9A07901280FD106EBC60004EB80008D
:109AD000D0E907211144016236B9606A20B92068D3
:109AE0000121009A04F0F6FBF1B22046FFF7F9FDE0
:109AF000380704D505EB46110820C1F80809F80617
:109B000004D505EB46111020C1F80809780604D5E4
:109B100005EB46104021C0F80819B80716D53146A4
:109B2000284604F0C1FD06EBC60004EB8000C17DB1
:109B30001430012905D10021C170F1B2204600F096
:109B400067F905EB46110220C1F80809380603D56C
:109B50003146204602F0F4FC4FEA5808761CB8F172
:109B6000000F97D1206804F0F6FD002811DAD5F82F
:109B7000040820F00101C5F8041894F8CC04012869
:109B80002BD0204600F062F92068416901F00041C5
:109B90004161206804F0DFFD00050BD5D5F8080809
:109BA000C00702D0204600F073F92068416901F433
:109BB00000614161206804F0CEFDC00467D5D5F88E
:109BC000040820F00101C5F804181021206804F0F1
:109BD0006BFD00214FF67F3220E0002084F8CC049A
:109BE00001462046FFF778FDCEE705EB4110C0F8AF
:109BF0000829D0F8003923F40013C0F80039C0F860
:109C0000082BD0F8003B23F40013C0F8003BD0F839
:109C1000003B43F00063C0F8003B491C20798842B8
:109C2000E3D8D5F81C0840F00111C5F81C18E07BFA
:109C3000002828460DD0D0F8840840F00B01C5F864
:109C40008418D5F8440840F00B012846C5F844189C
:109C50000DE0D0F8140842F22B010843C5F81408AF
:109C6000D5F8100840F00B012846C5F81018D0F8B8
:109C7000000820F4FE61C5F80018A1792068009A58
:109C800004F028FB2068416901F48051416120689B
:109C900004F061FD800415D5206804F00DFB2068F8
:109CA00004F020FDE07100F06FFA0146E2792068CF
:109CB00004F086FD204600F0B3F82068416901F405
:109CC00000514161206804F046FD000707D5204699
:109CD00000F0C0F82068416901F008014161206886
:109CE00004F039FD000615D5A86920F08001A961AE
:109CF00001260CE006EBC60004EB800090F857024A
:109D0000012803D1F1B22046FFF702FD761C20792D
:109D1000B042EFD8206804F01EFDC0021FD5012616
:109D20005F4614E005EB4610D0F8001906EBC600BC
:109D300004EB8000027E012A08D1002906DAC775EB
:109D4000F0B240F080012046FFF7E2FC761C20795B
:109D5000B042E7D82068416901F480114161206870
:109D600004F0F9FC800231D501205B4626E005EBCA
:109D70004011D1F8001B00EBC00204EB820292F804
:109D80005862012E19D1002917DA94F8D46401F42D
:109D9000803106F00106B1420FD182F85732A9692D
:109DA00041F08002AA616969090606D4D5F8040861
:109DB00040F40070C5F8040803E0401C217981429A
:109DC000D5D82068416901F400114161206804F090
:109DD000C2FC400007D52046FFF77FFC20684169A0
:109DE00001F080414161206804F0B5FC40070AD5CC
:109DF00020684568680702D52046FFF785FC206883
:109E0000416829434160BDE8F88F00000A30544F93
:109E1000D0F8E00403F034BFD0F8E00403F044BF0E
:109E200070B50446C079012570B1022801D0FEF753
:109E3000D3FE2946D4F8E00403F0A4FFD4F8E004EC
:109E4000BDE8704003F059BF0025F2E7D0F8E00408
:109E500003F081BFD0F8E00403F087BF10B50446DB
:109E600090F8940401280AD0012084F894046174C5
:109E7000206804F093FC002084F8940410BD0220B4
:109E800010BDD0F8E02400F29C41104603F086BFDC
:109E900010B50446D0F8E00403F0B9FF2068D0F80C
:109EA000001E41F00101C0F8001EE07A002804D035
:109EB0000248016841F00601016010BD10ED00E0AC
:109EC000034908B50120086202480068009008BDF7
:109ED00000000E42007000402DE9F843044600687F
:109EE0004FF00109C1074FF0000501D1400726D509
:109EF000DFF80C81C8F86850FFF714FB0646414FA5
:109F000004E0FFF70FFB801B022857D838680001D8
:109F1000F7D46068217A800140EA017039498431C0
:109F20000860C8F86890FFF7FDFA064604E0FFF7FE
:109F3000F9FA801B022841D838680001F7D520784B
:109F4000800752D52F484030016841F080510160B0
:109F500000682D4F00F080500090386840F4807009
:109F60003860FFF7DFFA064604E0FFF7DBFA801BF4
:109F7000022823D83868C005F7D5224E70363068DD
:109F800010F4407020D0A18901F4407181421BD0AF
:109F900030681E4920F44070C1F800900D603060B8
:109FA0003068C00710D0FFF7BDFA054641F2883788
:109FB00007E0FFF7B7FA401BB84202D90320BDE81B
:109FC000F88330688007F4D5E0680E49C0F30122B9
:109FD0000831032A0BD0086820F4F81008603068B4
:109FE000A189C1F30B01084330600020E7E70A684C
:109FF000074B22F4F812184002430A60EFE7000012
:10A00000000047420038024000700040400E4742C6
:10A01000FFFCFF0F2DE9F0470D46040065D0DFF887
:10A020001491D9F80000EFB200F00700A84207D25F
:10A0300089F80070D9F8000000F00700A84254D158
:10A0400020683D4E810712D5400703D5306840F4A3
:10A05000E05030602078000703D5306840F460405D
:10A0600030603068A16820F0F0000843306020784C
:10A07000C0072DD0304960680839012812D0022865
:10A0800013D0032811D00968890700292DDA316817
:10A0900021F0030101433160FFF744FA804641F2A9
:10A0A000883A0EE009688903EFE709688901ECE75F
:10A0B000FFF738FAA0EB0801514502D90320BDE8AB
:10A0C000F0873068616800F00C00B0EB810FEFD1D1
:10A0D000D9F80010484601F00701A94207D90770D6
:10A0E000006800F00700A84201D00120E7E72078CF
:10A0F000400705D53068E16820F4E050084330603F
:10A100002078000706D53068216920F4604040EAD5
:10A11000C100306000F05EF83168084AC1F30311F5
:10A12000515CC8400649086006480068FFF722FAFB
:10A130000020C4E7003C024008380240B401010896
:10A1400040000020380000200F2202600C4A1368F3
:10A1500003F003034360136803F0F00383601368A4
:10A1600003F4E053C36012684FF4E05303EAD202F1
:10A1700002610448006800F00700086070470000B2
:10A1800008380240003C0240014800687047000067
:10A19000400000200448054900680968044AC1F3EA
:10A1A0008221515CC84070474000002008380240BE
:10A1B000C40101080448054900680968044AC1F35C
:10A1C0004231515CC84070474000002008380240CE
:10A1D000C4010108154810B5006810F00C011448BE
:10A1E00013D0431004290FD008290ED10F4C241F7F
:10A1F000216801F03F022168490207D52068C0F3B9
:10A200008810A0FB030106E0184610BD2168C1F3C9
:10A210008811A1FB00010023FEF734F82168C1F387
:10A220000141491C4900B0FBF1F010BD0838024063
:10A230000024F4002DE9F84F040075D02078DFF8F1
:10A2400038A3C007AAF1040548D00AF10400016848
:10A25000C1F38101012908D00068C0F38100022800
:10A260000AD1DAF80000400206D52868800335D507
:10A2700060680028E1D031E06068B0F5803F10D020
:10A28000B0F5A02F286810D020F48030286028680E
:10A2900020F4802028606068A0B1FFF743F90646EB
:10A2A0000CE0286840F48030F4E740F48020286017
:10A2B000F7E7FFF737F9801B642871D82868800317
:10A2C000F7D50BE0FFF72EF9064604E0FFF72AF971
:10A2D000801B6428F1D828688003F7D42078DFF841
:10A2E0009C9280074FF0000B3DD5A348001D0168EC
:10A2F00011F00C0F08D00068C0F3810002280AD1C9
:10A30000DAF80000400206D42868800715D5E06816
:10A31000012809D111E0E068B8B10120C9F80000B6
:10A32000FFF700F9064605E022E1FFF7FBF8801B86
:10A330000228C2D828688007F7D52868216920F04C
:10A34000F80040EAC10028600DE0C9F800B0FFF74E
:10A35000E9F8064604E0FFF7E5F8801B02281FD85D
:10A3600028688007F7D42078000722D5824F8448D8
:10A370006169703771B101210160FFF7D3F80646BA
:10A3800004E0FFF7CFF8801B022809D8386880075F
:10A39000F7D50EE0C0F800B0FFF7C4F8064605E0B8
:10A3A00082E0FFF7BFF8801B02287DD8386880075D
:10A3B000F7D42078400765D56F484FF000083C304F
:10A3C0000068C0000BD46C483C30016841F08051FB
:10A3D000016000684FF0010800F080500090694F64
:10A3E0003868C0050FD4386840F480703860FFF7D3
:10A3F00099F8064604E0FFF795F8801B022853D829
:10A400003868C005F7D55C4FA0686C3701280FD0BD
:10A410000528386810D020F001003860386820F036
:10A4200004003860A068B0B1FFF77CF806460EE083
:10A43000386840F00100F4E740F004003860F7E7C6
:10A44000FFF770F8811B41F28830814263D8386889
:10A450008007F5D50DE0FFF765F8064606E0FFF743
:10A4600061F8811B41F28830814254D838688007F6
:10A47000F5D4B8F1000F05D03F483C30016821F019
:10A4800080510160A069B8B33B49091D0968C1F357
:10A490008101022946D00228584606D0C9F860003A
:10A4A000FFF740F8044639E035E04F46C9F8600050
:10A4B000FFF738F8064604E0FFF734F8801B02285F
:10A4C00029D828688001F7D4D4E907010843A16A94
:10A4D0002D4A490802EB0141626A41EA82110843B0
:10A4E00094F82C1040EA0161CAF800100120386687
:10A4F000FFF718F8044605E03CE0FFF713F8001BEF
:10A50000022808D828688001F7D533E0FFF70AF859
:10A51000001B022802D90320BDE8F88F28688001BB
:10A52000F4D427E00128F7D0DAF80000E26900F45B
:10A53000800191421CD1226A00F03F01914217D163
:10A5400047F6C071626A0140B1EB821F10D1A26A66
:10A550004FF0FF3300F4403103EB5202B1EB024FF6
:10A5600006D194F82C1000F07060B0EB016F01D0B0
:10A570000120D1E70020CFE7043802400000474225
:10A58000800E4742007000400000FFFF70470068E7
:10A59000503050F8210070470068503040F82120BA
:10A5A0007047704710B5144904464FF400300860F6
:10A5B00021688868C0040BD5C868C00508D5C8687C
:10A5C00000F0800060F4C070C8602046FFF7E9FF2B
:10A5D0002168886880040BD5C868800508D5C868DC
:10A5E00000F0800060F42070C8602046FFF7CEFFC6
:10A5F0000120607710BD0000143C014010B50068D8
:10A600000B4641680D480140080CD870C1F3042482
:10A610005C7001F03F049C70C1F34231197052B973
:10A6200002F01EF8D870587802F01AF8587098782E
:10A6300002F016F89870002010BD00003FFFFF00E8
:10A6400010B50B460168896A596001680969C1F350
:10A650000E019960006801680D480140C1F3054092
:10A660001870C1F306245C7001F07F049C70890DA2
:10A67000D97052B901F0F4FF1870587801F0F0FF6A
:10A680005870987801F0ECFF9870002010BD000021
:10A690007F7F7F0010B5040002D0607F10B106E01C
:10A6A000012010BD00202077204600F041F8022054
:10A6B00060772068C168C943C90632D5CA214162A2
:10A6C000216853204862204601F0DEFF20BB20684D
:10A6D0008168164A11408160206881686268114370
:10A6E000D4E904231A43114381602168E0680861BA
:10A6F00020680169228941EA02410161204601F096
:10A70000E6FF48B921680A6C22F480220A642168B5
:10A710000A6CA3691A430A642268FF21516208B1D6
:10A7200010BD00200121617710BD0000BFFF8FFF29
:10A730001FB50021009101910291039100680C491D
:10A74000884214D102200090C00103906846FFF7B0
:10A75000C3FB08B1FEF740FA064901200860002259
:10A7600005212920FEF786FF2920FEF775FF1FBD72
:10A77000002800403C0E47422DE9F843644E034652
:10A780004FF4FA4730680C46B0FBF7F079114843B4
:10A790000090187F012877D04FF0010983F81C90B2
:10A7A0000220587718680025002A80684FEA406028
:10A7B0006CD0002800DBE570A178227894F803C003
:10A7C00041EA02416278E069120242EA8C52114386
:10A7D00094F8202041EA0261014360696268014304
:10A7E000A069D3F800C00243CA20CCF82400D3F8F3
:10A7F00000C05320CCF82400606AFF24B0F5807FAD
:10A8000018684FF0030C5CD0D0F8088028F400786A
:10A81000C0F808801868D0F80C8008F0800868F448
:10A820002078C0F80C8030684FF47A76B0FBF7F0EF
:10A83000704300901868009E761E009661D0C6682E
:10A84000B607F8D50162186882641868816841F417
:10A85000007181601868816841F4005181602D4861
:10A86000016841F4003101602A480830016841F470
:10A87000003101601868446283F81D901D77002044
:10A88000BDE8F88300E001E00220F9E7002800DBE2
:10A89000E570207801F0EDFE0204607801F0E9FE39
:10A8A00042EA0022A07801F0E4FE0243E07842EAA6
:10A8B000805294F8200001F0DCFE42EA0061E06979
:10A8C0008AE7866826F4807686601868C66806F08F
:10A8D000800666F4C076C6601868009E761E0096F4
:10A8E0000FD0C668F607F8D0C161186842641868CE
:10A8F000816841F4807181601868816841F48051F9
:10A90000ACE7446283F81DC01D770320B8E7000060
:10A9100040000020003C014070B50446007F0B461B
:10A92000012819D00126267702206077B2B19878E5
:10A93000D97840EA014558781978000240EA413058
:10A9400005432168CA204862216853204862204696
:10A9500001F09AFED0B122E0022070BD5878C10605
:10A9600003D500F0EF000A305870D87801F081FE6E
:10A970000204587801F07DFE42EA0022987801F046
:10A9800078FE0243187842EA4035DAE70748054086
:10A9900020684560204601F09AFE00B9667722687B
:10A9A000FF2151620021217770BD00003FFFFF00B1
:10A9B0002DE9F0410446007F0D46012823D04FF0D9
:10A9C000010884F81C8002206077206800278068D6
:10A9D0004FEA4060D2B1002800DBEF70A8782978F8
:10A9E00040EA01466878E978000240EA815006436F
:10A9F0002168CA204862216853204862204601F03D
:10AA000043FEB8B12CE00220BDE8F081002800DB55
:10AA1000EF70287801F02DFE0204687801F029FE1D
:10AA200042EA0022A87801F024FE0243E87842EAD4
:10AA30008056DDE70D480640206806602068816882
:10AA400021F480218160D5E90310014320688268E8
:10AA500011438160204601F03AFE08B984F81D8058
:10AA60002268FF2151622777CEE700007F7F7F00B9
:10AA700070B505460A482968C860FEF753FD0446CC
:10AA80004FF47A7606E0FEF74DFD001BB04201D987
:10AA9000032070BD2868C0688006F4D5002070BD12
:10AAA0005F7F010010B5FDF757FF10BD2DE9FE4394
:10AAB0000446002603200D4684F83400606C032809
:10AAC0005ED0B5F5805F5BD04FF4006700204FF09B
:10AAD0008068BD421FD1814600900190002120680E
:10AAE00001F020FE800113D46946204602F004FAEA
:10AAF00007000DD10198400334D5B4F8500001048B
:10AB0000206801F047FE070002D10221206823E0FF
:10AB1000A06B384328E01DB1A06B40F0006023E03B
:10AB20008146009001900021206801F0FBFD80012A
:10AB3000EED46946204602F0DFF90700E8D101981B
:10AB4000C0030FD5B4F850000104206801F022FEC4
:10AB50000700DDD10021206801F066FE0700D7D193
:10AB60004F46D5E74746D3E7A063A06B144F4FF09D
:10AB7000010848B12068876384F8348001260EE01C
:10AB8000A06B40F08050EFE7211DD4E9050C0EC901
:10AB9000CDE90050CDF808C0206801F0CDFD4FF49C
:10ABA0000071206801F028FE28B121688F63A16B35
:10ABB0000143A163012684F834803046BDE8FE835A
:10ABC000FF05400070470000F0B5426E920F0A701A
:10ABD000426EC2F383624A70426EC2F301628A70AF
:10ABE000426E120CCA70B0F86420120A0A7190F812
:10ABF00064204A71826E120DCA80826EC2F30342D3
:10AC00000A72B0F86820C2F3C0324A72B0F8682005
:10AC1000C2F380328A72B0F86820C2F34032CA723E
:10AC2000B0F86820C2F300320A7300264E73436CFA
:10AC30004FF40075012463B1012B3AD002684749F3
:10AC40009163816B41F08051816380F83440012031
:10AC5000F0BDB0F86820C36E9205120D42EA9372FF
:10AC60000A61C26EC2F3C2620A75C26EC2F30262A8
:10AC70004A75C26EC2F342528A75C26EC2F38242F4
:10AC8000CA75C26EC2F3C2320A760B695B1C436599
:10AC90000A7E02F00702921C934043650A7A02F092
:10ACA0000F0704FA07F28265520A5343C0E91735C9
:10ACB0000EE090F86820C36E9206920A42EA1342B0
:10ACC0000A610A69521C93024365C0E9165305667E
:10ACD00030F86C2FC2F3803201F8192F0288C2F3CA
:10ACE000C6124A70027802F07F028A704268D20F60
:10ACF000CA704268C2F341720A714268C2F382624A
:10AD00004A714268C2F383528A714268C2F3405268
:10AD1000CA710E724268C2F300424A728288C2F35C
:10AD2000C0328A728288C2F38032CA728288C2F3C9
:10AD300040320A738288C2F300324A738288C2F3B7
:10AD400081228A738288C2F30122CA730079C0F318
:10AD5000460008744C740020F0BD0000FF05400060
:10AD6000426C0A60826C4A60C26C8A60026DCA6082
:10AD7000426D0A61826D4A61C26D8A61006EC8616E
:10AD80000020704738B5002504460095B0F8500003
:10AD90000104206801F02BFE28B90021206801F091
:10ADA000C1FC0090284610B1A16B0143A16300983B
:10ADB000C0F3432038BD0000F8B5056B04460068B9
:10ADC000416B09041BD5290719D5D4E90A56002E71
:10ADD00014D00027206801F0C5FC05F8010B010A1A
:10ADE00005F8011B010C05F8021B000E361F7F1C25
:10ADF00005F8010C082FEDD3C4E90A56F8BD416BE4
:10AE00004FF00007C9054FF0010644D531028163B8
:10AE10002068C16B4CF23A329143C1632068C16A29
:10AE200021F00101C16228071DD515F0220F09D0BC
:10AE3000206801F00DFE28B1A16B0143A1632046FB
:10AE4000FFF7C0FE216840F23A50886384F834600E
:10AE50002763A80703D0204600F044FAF8BD204637
:10AE600000F044FAF8BD2806FCD5A80609D52068EC
:10AE700001F0EEFD28B1A16B0143A1632046FFF76D
:10AE8000A1FEA807EED12068C16A21F00801C162C5
:10AE900084F83460E3E7416B490423D5290721D5C1
:10AEA000D4E90856002EDDD0002715F8010B0090DC
:10AEB00015F8011B361F40EA0120009015F8021B0F
:10AEC00040EA0140009015F8011C40EA0160009042
:10AED0006946206801F059FC7F1C082FE5D3C4E9BE
:10AEE0000856F8BD416B40F23A221142F9D0416B4D
:10AEF000890703D5A16B41F00201A163416B0907EA
:10AF000003D5A16B41F00801A163416B890603D50C
:10AF1000A16B41F02001A163416BC90603D5A16B70
:10AF200041F01001A163416B890503D5A16B41F08C
:10AF30000801A16340F23A7181632068C16B40F25D
:10AF40003A329143C163206801F082FDA16B08434E
:10AF5000A063280706D584F8346027632046FFF7EE
:10AF600031FEF8BD2806FCD515F0300F0CD0E16B92
:10AF700011480865E06BFEF742F80028F1D0E06B5D
:10AF8000BDE8F84001F096BFA8070CD0216C0B4833
:10AF90000865206CFEF733F80028E2D0206CBDE88D
:10AFA000F84001F05EBFA76384F834602763204651
:10AFB000FFF778FDF8BD0000B5CE000863CE0008AD
:10AFC00070B504000ED094F83400002518B9257728
:10AFD000204600F04FF8032084F83400204600F0AB
:10AFE0000BF808B1012070BDA5632563012084F82A
:10AFF0003400002070BD0000FEB500250446762018
:10B000000095CDE9015029460B460A46206801F01B
:10B0100093FB40BB154E46F8A05F206801F09EFBF5
:10B02000012535600220FEF771F9204602F04CF848
:10B0300028B184F83450A16B0143A16313E020468A
:10B0400001F0CAFF0028F4D14FF40071206801F02C
:10B05000D3FB002808D0226805499163A16B014306
:10B06000A16384F834500120FEBD00000080254219
:10B07000FF0540002DE9F04F87B0054614216846D2
:10B08000FDF74AF94649286888427DD1454800685D
:10B09000444940F400600860086800F400600590CE
:10B0A0004048143800683F4940F0040014390860F3
:10B0B000086800F004000590086840F00800086087
:10B0C0000868032600F0080005904FF4F85000903F
:10B0D000022001900020CDE902060C246946049468
:10B0E0003148FEF725F904270220CDE90070002041
:10B0F000CDE90206694604942C48FEF719F92D4C57
:10B100002B484FF00068C4E900080020A060E06010
:10B1100038022061C4E90976800004F114014FF47B
:10B1200080494FF0200A4FF4003B81E8010EC6022F
:10B1300047022046C4E90B67FEF746F808B1FDF761
:10B140004BFD2C64A5631B4C194860344838C4E996
:10B1500000084020A0600020E0604FF48060206183
:10B1600004F11401800081E8010E042060621431B2
:10B17000032081E8C1002046FEF726F808B1FDF75C
:10B180002BFDEC63002200E007E005213120A563E0
:10B19000FEF770FA3120FEF75FFA07B0BDE8F08FD6
:10B1A000002C01404438024000080240000C0240DC
:10B1B000A0640240B80200202DE9F04786B01E4688
:10B1C0001546044639B194F83400012807D002200E
:10B1D00006B0BDE8F087A06B40F0006008E00020FA
:10B1E000A063E36DAA199A4204D9A06B40F00070E5
:10B1F000A0636CE0032284F8342081460246206874
:10B20000C2622068C36B40F22A373B43C363236C9E
:10B210003048D863236C3048D864206C0265206CB9
:10B220008260206C0068026822F0C0020260206820
:10B230000A46D4F840C0770200F18001BB0860469E
:10B24000FEF72CF8DFF894A04FF0010870B12068E9
:10B25000C16B21F49571C1632168C1F838A0A06B5E
:10B2600040F08040A06384F8348030E01C48C0F88F
:10B270000080606C012800D06D024FF0FF30CDE9F6
:10B280000007902002900220CDF81480CDE9030938
:10B290006946206801F030FA012E06D98220206329
:10B2A0002946206801F017FB05E08120206329462C
:10B2B000206801F028FB00288AD02268C2F838A054
:10B2C000A16B0143A16384F83480C4F8309001205D
:10B2D0007EE7000021CE0008BDCD0008FF0540003C
:10B2E0008C85254210B5FDF77FFB10BD10B5FDF72D
:10B2F00097FB10BD2DE9F04F5FEA010B87B01D46AB
:10B300000446114607D094F83400012807D00220E3
:10B3100007B0BDE8F08FA06B40F0006008E00026A9
:10B32000A663E26D4819904204D9A06B40F000700A
:10B33000A06356E0032084F834002068C6622068C9
:10B34000C26B40F21A2942EA0902C263E26B2D483D
:10B35000D063E26B2C48D064E06B0665606C01281A
:10B3600000D049024FF09008012D05D9A02020639C
:10B37000206801F087FB04E0C4F83080206801F009
:10B3800099FBDFF888A0012730B12268C2F838A005
:10B39000A16B0143A16321E01D480760E16B4020E0
:10B3A0008860E06B0068016821F0C00141F0400155
:10B3B000016022686D02AB0859468032E06BFDF7F0
:10B3C0006DFF80B12068C16B21EA0901C16321686A
:10B3D000C1F838A0A06B40F08040A06384F83470BE
:10B3E0002663012094E74FF0FF30CDE90005CDE959
:10B3F0000286CDE904676946206801F07DF90020E6
:10B4000086E70000A7CE0008BDCD0008FF0540007C
:10B410008C85254270B5040009D0606A002540B1D2
:10B4200025616561A56294F8510040B10CE00120EE
:10B4300070BD6068B0F5827FF4D0E561F2E784F812
:10B440005050204600F044F8022084F85100206853
:10B45000016821F040010160A088218900F4827018
:10B4600001F404410843A18901F400610843217CEF
:10B4700001F002010843217D01F001010843218B05
:10B4800001F400710843217F01F03801084394F86A
:10B49000201001F080010843218D01F40051084380
:10B4A00021680860A069042101EA104094F8241082
:10B4B00001F010010843216848602068C16921F447
:10B4C0000061C1616565012084F85100002070BDF4
:10B4D0002DE9F04387B0044614216846FCF71CFFB1
:10B4E0002C492068884251D12B480025016841F43D
:10B4F00080510160006800F480500590264814389F
:10B50000016841F0010101600068694600F0010036
:10B510000590F02000900220CDE901050320039062
:10B52000052004901D48FDF703FF1E4E1C484FF0F8
:10B53000C067E6E8020740204FF48068A6E82101D2
:10B540004FF4003946F814591648B561C6E9075951
:10B550007562FDF739FE08B1FDF73EFBA664B463E2
:10B56000104E0F48603678383060C6E90175C6E97C
:10B5700003587561B561C6E9075930467562FDF734
:10B5800023FE08B1FDF728FBE664B46307B0BDE80D
:10B59000F0830000003001404438024000000240C7
:10B5A00088640240D00300207047704770B590F85F
:10B5B0003C20012A32D0012580F83C50022280F83C
:10B5C0003D2002685368946823F070060B6833438B
:10B5D0005360134B02689A4214D0B2F1804F11D0DD
:10B5E000104B9A420ED0104B9A420BD00F4B9A42FE
:10B5F00008D00F4B9A4205D00E4B9A4202D00E4B08
:10B600009A4204D1496824F080031943916080F87C
:10B610003D50002180F83C10084670BD022070BDEE
:10B62000000001400004004000080040000C004001
:10B6300000040140004001400018004010B5040023
:10B6400003D094F83D0010B107E0012010BD0020A8
:10B6500084F83C00204600F01FF8022084F83D00EA
:10B66000211D206801F0A6FE012084F8460084F820
:10B670003E0084F83F0084F8400084F8410084F8DC
:10B68000420084F8430084F8440084F8450084F8BC
:10B690003D00002010BD000008B50068B0F1804FEB
:10B6A00008D10548016841F001010160006800F01F
:10B6B0000100009008BD00004038024090F83D10A5
:10B6C000012901D001207047022180F83D10016856
:10B6D000CA6842F00102CA6000681149884214D069
:10B6E000B0F1804F11D00F4988420ED00E498842E8
:10B6F0000BD00E49884208D00D49884205D00D492B
:10B70000884202D00C49884204D1816801F00701C7
:10B71000062903D0016841F0010101600020704753
:10B72000000001400004004000080040000C004000
:10B7300000040140004001400018004070B504467C
:10B7400090F83C000025012817D0012684F83C60C1
:10B75000022084F83D002068826822F0770222F4FB
:10B760007F4282600868502838D00DDC20284FD0F6
:10B7700005DC90B3102811D14AE0022070BD3028BA
:10B7800046D040280AD13BE060282FD070280DD049
:10B79000B0F5805F03D0B0F5005F12D0012584F8CA
:10B7A0003D60002084F83C00284670BDCB68D1E99C
:10B7B0000121206801F06AFE2068816841F077016C
:10B7C00009E0CB68D1E90121206801F05FFE206823
:10B7D000816841F480418160E1E719E0CA68496805
:10B7E000206801F065FE5021206806E0CA684968BB
:10B7F000206801F06EFE6021206801F051FECEE766
:10B80000CA684968206801F053FE40212068F4E7C7
:10B81000226801461046F0E770472DE9F0410446E2
:10B820000068C66805694FF00007A90713D5B1077E
:10B8300011D5F91E016101202077206880698007F9
:10B84000204602D0FFF7E8FF04E000F07EF8204633
:10B8500000F07CF82777680716D5700714D52168A3
:10B860006FF004000861022020772068806910F4DE
:10B87000407F204602D0FFF7CFFF04E000F065F8DC
:10B88000204600F063F82777280715D5300713D531
:10B8900021686FF008000861042020772068C069E3
:10B8A0008007204602D0FFF7B7FF04E000F04DF814
:10B8B000204600F04BF82777E80616D5F00614D599
:10B8C00021686FF010000861082020772068C069A7
:10B8D00010F4407F204602D0FFF79EFF04E000F006
:10B8E00034F8204600F032F82777E80708D0F00750
:10B8F00006D021686FF001000861204600F028F8AA
:10B90000280608D5300606D521686FF0800008614A
:10B910002046FFF749FE680608D5700606D521685F
:10B920006FF040000861204600F034F8A8060AD500
:10B93000B00608D521686FF0200008612046BDE8F8
:10B94000F041FFF732BEBDE8F0817047704700005C
:10B9500010B5044600680C49884201D1FDF7E8FDA6
:10B960002068B0F1804F0ED108480168084821B125
:10B97000BDE810400421FDF7C8BD0122BDE810401C
:10B980000421FDF7CABD10BD0010004000000020DA
:10B99000000402407047704770470000F8B5016826
:10B9A00004460868CA684B6910F00F0F4FF0000595
:10B9B00059D003F0010602F49077374365D0C107F0
:10B9C00005D0D10503D5616C41F0010161644107E7
:10B9D00005D5D90703D0616C41F00201616481078C
:10B9E00005D5D90703D0616C41F0040161640107FA
:10B9F00007D502F02001314303D0616C41F008010A
:10BA00006164616C00293AD0800604D5900602D5A5
:10BA1000204601F024FE20684069616CC0F380106C
:10BA2000090700D460B3204601F0E4FD20684069B6
:10BA3000400621D52068143050E8001F21F0400155
:10BA400040E80012002AF5D1E06BA8B16E4901650B
:10BA5000E06BFDF7D4FA002811D0E06B016D01B066
:10BA6000BDE8F040084783060FD593060DD5204664
:10BA7000BDE8F84001F0F3BD2046FFF78DFFF8BDAB
:10BA80002046FFF789FF6564F8BD266B2023012E51
:10BA90007DD1C6067BD5D60679D508684868009062
:10BAA00048694FF00206400641D5E16B08684068DE
:10BAB0000004000CE8D0A28D8242E5D9E085C86977
:10BAC000B0F5807F2DD020680C3050E8001F21F4A5
:10BAD000807140E80012002AF5D12068143050E847
:10BAE000001F21F0010140E80012002AF5D1206872
:10BAF000143050E8001F21F0400140E80012002AF5
:10BB0000F5D184F84230256320680C3050E8001FDE
:10BB100021F0100140E80012002AF5D1E06BFDF79A
:10BB200025FA6663A08DE18D401A81B22AE0A08DCE
:10BB3000E18D401A81B2E08D0028A5D00029A3D064
:10BB400020680C3050E8002F22F4907240E8002763
:10BB5000002FF5D12068143050E8002F22F00102A8
:10BB600040E80027002FF5D184F842302563206893
:10BB70000C3050E8002F22F0100240E80023002B88
:10BB8000F5D166632046FFF706FFF8BDFFE705061F
:10BB90002BD5150629D594F841002128F5D1A068A8
:10BBA000B0F5805F01D12069B0B1206A411C2162EB
:10BBB000216800784860E08C401E0004000CE0849E
:10BBC000E3D12068C16821F08001C1602068C168AC
:10BBD00041F04001C160D8E7206A0088C0F3080046
:10BBE0004860206A801C2062E5E74006CDD55006FB
:10BBF000CBD5CA68204622F04002CA6084F84130A2
:10BC000000F0C0F9C1E70000F7D4000870B50400E7
:10BC100004D094F84100002510B106E0012070BD69
:10BC200084F84050204600F023F8242084F8410096
:10BC30002068C16821F40051C160204601F070FD08
:10BC40002068016921F4904101612068416921F077
:10BC50002A0141612068C16841F40051C1606564F6
:10BC6000202084F8410084F842006563002070BD04
:10BC70002DE9F04786B0044614216846FCF74CFBDA
:10BC8000DFF870C1022126685B4803220723DFF832
:10BC90006C8100258F064FF0400A4FF4806966459D
:10BCA00050D1554E1436D6F800C04CF0100CC6F8E2
:10BCB00000C0366806F010060596066846F00106D4
:10BCC0000660006800F00100059050028DE8230036
:10BCD00069464046CDE90323FDF72AFB494EB846A5
:10BCE0004F46C6E9035975614FF40039B561C6E99D
:10BCF00007594348756286E801053046FDF764FA46
:10BD000008B1FCF769FFA663B4633E4E3C48603659
:10BD100078383060C6E90185C6E903577561B561B9
:10BD2000C6E9075930467562FDF74EFA08B1FCF7CF
:10BD300053FFE663002205212520B463FDF79AFC3A
:10BD4000252052E0DFF8C0C0664550D12A4E10369B
:10BD5000D6F800C04CF4003CC6F800C0366806F4C3
:10BD600000360596066846F001060660006800F099
:10BD7000010005900C208DE8230069464046CDE97E
:10BD80000323FDF7D5FA1F4E2048C036C846306061
:10BD9000C6E90175C6E9035975614FF44039B561CB
:10BDA000C6E9075930467562FDF70EFA08B1FCF78F
:10BDB00013FFE663B463164E1448C6E90358756171
:10BDC000B561C6E907591830756286E881043046C6
:10BDD000FDF7FAF908B1FCF7FFFEA6630022052182
:10BDE0002620B463FDF746FC2620FDF735FC06B09F
:10BDF000BDE8F087001001403038024000000240EA
:10BE0000B864024068050020004400408860024099
:10BE1000880600202DE9F84F044690F84200984625
:10BE200015460E46202802D00220BDE8F88FBEB18C
:10BE3000B5B100206064222184F842102063FDF730
:10BE400071FBA5858246E585A0684FF480574FF0C9
:10BE50002009B84201D1206920B13546002628E0EA
:10BE60000120E2E7002524E053460022202120465D
:10BE7000CDF8008001F024FD18B184F84290032031
:10BE8000D3E725B1A068B84219D038B108E02068DE
:10BE90004068C0F3080026F8020B07E0206970B183
:10BEA0002068406800F07F0005F8010BE08D401E1F
:10BEB000E085E08D0028D7D184F84290B5E720686E
:10BEC0004068F1E790F84230202B01D00220704703
:10BED00021B11AB10023036301F0A8BC012070470F
:10BEE000704770472DE9F843044690F841001F461B
:10BEF00015460E46202802D00220BDE8F8838EB1F8
:10BF000085B100206064212084F84100FDF70AFB20
:10BF1000A5848146E584A0684FF02008B0F5805FD5
:10BF200002D003E00120E8E7206910B13546002681
:10BF30000EE000250CE08021204601F0C1FCA0B9F4
:10BF4000BDB115F8010B21684860E08C401EE0840B
:10BF5000E08C4B464FF0000200970028EBD14FF0E9
:10BF60004001204601F0ACFC40B184F84180032040
:10BF7000C3E736F8020BC0F30800E4E784F8418019
:10BF80000020BAE77047FEE77FB50024154800940B
:10BF9000019402941249039401604FF48031C0E986
:10BFA00001140461047680F820400F49C0E90A14A6
:10BFB0000125C561C46080F830404561FCF773FF1E
:10BFC00008B1FCF709FE0095CDE901546946054822
:10BFD000FCF72AFE002801D0FCF7FEFD7FBD000023
:10BFE00000200140CC0100200100000F294808B5C5
:10BFF000016841F480010160016801F48001009151
:10C00000016841F4001101600068002200F4001092
:10C01000009005211020FDF72DFB1020FDF71CFBE3
:10C02000002205211120FDF725FB1120FDF714FB4F
:10C03000002205213820FDF71DFB3820FDF70CFB01
:10C04000002205213A20FDF715FB3A20FDF704FBFD
:10C05000002205213B20FDF70DFB3B20FDF7FCFAFC
:10C06000002205214420FDF705FB4420FDF7F4FAEA
:10C07000002205214520FDF7FDFA4520FDF7ECFAE9
:10C08000002205214620FDF7F5FABDE808404620CC
:10C09000FDF7E2BA3038024010B504490448FCF715
:10C0A0009DFD0249491E087010BD00002D000020B2
:10C0B000980101082DE9F04F87B014216846FCF77C
:10C0C0002BF94F480024016841F01001016001681C
:10C0D00001F010010591016841F00401016001685F
:10C0E00001F004010591016841F0800101600168DF
:10C0F00001F080010591016841F0010101600168D2
:10C1000001F001010591016841F00201016001683F
:10C1100001F002010591016841F008010160006829
:10C12000DFF8E0B000F0080005900122C421584675
:10C13000FDF7F3F9DFF8D0A04FF4807801224146F3
:10C140005046FDF7EAF94FF6FF700325CDE90005EB
:10C15000694602942D48FDF7EBF842F2FF00CDE965
:10C160000005694602942A48FDF7E2F80127CDE967
:10C170000074694650460294FDF7DAF84FF63B70BA
:10C18000CDE90005694602945846FDF7D1F8042030
:10C190000226CDE90007CDE9024669465846FDF77B
:10C1A000C7F84FF6F370CDE90005DFF868906946EF
:10C1B00002944846FDF7BCF8CDE90246CDE9008778
:10C1C00069465046FDF7B4F8B003CDE9000569466D
:10C1D00002945046FDF7ACF808208DE851006946FE
:10C1E0004846FDF7A5F8C020009001AA112082E87A
:10C1F000510069465846FDF79BF807B0BDE8F08F3F
:10C2000030380240000402400000024000100240AA
:10C2100000080240000C024070B592B014210AA838
:10C22000FCF77AF80024282168460F94FCF774F88C
:10C230003848016841F080510160006800F080508A
:10C240001090FDF73DFE35483349C0E900147F21C9
:10C250008160FF21C0E9031444618461FEF71AFA8A
:10C2600008B1FCF7B9FC00212C48FEF790F945F61F
:10C270005A26B0424BD012208DF828008DF8294064
:10C280008DF82A400D9401220AA924480E94FEF745
:10C290008FFB08B1FCF7A0FC01258DF83C50042071
:10C2A0008DF83D0022208DF83E0024208DF83F00BF
:10C2B0002A460FA91948FEF72FFB08B1FCF78CFCA2
:10C2C00023208DF8000055208DF8010056208DF8B0
:10C2D00002004FF08030CDE9044001944FF010602F
:10C2E000CDE906044FF48070039409908DF8205036
:10C2F000012269460948FEF73FFA08B1FCF76CFCD9
:10C30000324600210548FEF747F912B070BD00F033
:10C3100065F9FAE740380240002800401402002086
:10C32000074806494FF400620160002141608160C6
:10C33000C0E9031241610C2181617047002C01406A
:10C34000340200200F4810B50D4901604FF482718E
:10C35000416000218160C1604FF480220161C0E929
:10C360000512C1610162416281620A21C162FFF767
:10C3700051F8002803D0BDE81040FCF72DBC10BDDB
:10C38000003001407803002010B586B00024164824
:10C39000009401940294039404944FF08041059416
:10C3A00001605321C0E901144FF6FF71C0E9031485
:10C3B0008461FFF743F908B1FCF70EFC4FF480509D
:10C3C000009069460848FFF7B9F908B1FCF704FC8A
:10C3D000049404A904480594FFF7E8F8002801D064
:10C3E000FCF7FAFB06B010BD900400200C4810B515
:10C3F0000A4901604FF4E1314160002181600C2263
:10C40000C160C0E904128161C161FFF7FFFB002830
:10C4100003D0BDE81040FCF7DFBB10BD00100140A9
:10C42000D804002010B50E4C0C480C2120604FF4AD
:10C43000E13060600020A060E060C4E90401A06118
:10C44000E0612046FFF7E2FB08B1FCF7C5FB20687E
:10C45000C16841F02001C16010BD000000440040EF
:10C4600020050020FEE7FEE70148FDF72BBA00009B
:10C470005C0900202DE9F041066805460C46306C49
:10C4800006EB4411D1F8083B95F806C04FF400477D
:10C490004FF0200E05F29C42BCF1010F08D0DFF8EE
:10C4A00098C0604538D1180431D5C1F8087B3FE009
:10C4B000224E5FEA037C04D5B04239D91804F4D483
:10C4C00036E05FEA836C02D5C1F808EB30E013F088
:10C4D000280F2DD1B04201D91804E6D404EBC400D2
:10C4E00005EB8000D1F8101BD0F87432C1F31201B3
:10C4F000591AC0F8681200F51570ACB903691BB180
:10C50000C2681144C1600FE0012128680AE0980662
:10C510000AD5C1F808EB07E034B9D5F8640218B9B8
:10C520000021304601F0D6FEE1B22846FDF7E2F8E0
:10C530000020BDE8F08100000A31544F0A30544F0A
:10C540002DE9F84F0E4601EBC60100EB8104814650
:10C55000D0F80080D4E909101434884202D90120AF
:10C56000BDE8F88F081AA168814200D20846C01CB5
:10C57000870808EB461A15E0451AA068A84200D2C1
:10C580000546E81C870899F806000090ABB2F2B2A5
:10C590004046E16802F088F9E0682844E06060699C
:10C5A00028446061DAF8180980B2B84205D3D4E9AA
:10C5B0000401814201D20028DED1D4E9040188427D
:10C5C00008D806F00F0101208840D8F834188143BC
:10C5D000C8F834180020C3E77047000000B58BB0DE
:10C5E00028216846FBF798FE012217491748FEF7F5
:10C5F00027F8012216491548FEF700F823208DF888
:10C60000000055208DF801000F484FF080310122C5
:10C610008078401C8DF802000020CDE904010190D3
:10C620004FF01061CDE90610039001208DF8200035
:10C630000002099069460548FEF79EF8002801D0DF
:10C64000FCF7CAFA0BB000BDB801002014020020AC
:10C65000080000200148FDF7A5BF000014020020DB
:10C66000010901EB810100F00F0000EB4100C0B2B5
:10C670007047002102E00A38C0B2491C0A28FAD2E9
:10C68000090740EA116070472DE9F041054600684E
:10C690000024C168490617D4C16841F08001C16017
:10C6A000FCF740FF06464FF47A78042706E0FCF7D3
:10C6B00039FF801B404501D96F7701242868C06885
:10C6C000400601D4002CF2D02046BDE8F08170B5C0
:10C6D000044600680025C16821F08001C16020681F
:10C6E0008068800606D42046FEF7C2F910B1042007
:10C6F00060770125284670BD0A6842624A688262F6
:10C70000D1E902231A43D1E904310B43C16A1A4328
:10C7100021F0F7011143C16200207047006800F06A
:10C720000300704708444069704700000148FEF765
:10C7300043BB00003402002070B50DF1100C114312
:10C740009CE870002343194329434268314347F66C
:10C75000FF639A430A434260002070BD03210160D9
:10C7600000207047D0F8800070470A688260D1E9E5
:10C7700001231A43D1E903310B43C1681A436FF314
:10C780000B011143C160002070470968C0F8801098
:10C790000020704710B585B0044600913721019103
:10C7A00040210020CDE9021008010490694620468E
:10C7B000FFF7DBFF41F288323721204600F092F983
:10C7C00005B010BD10B50B4A85B0044611432920B1
:10C7D000CDE900104020029000200390500D0490FD
:10C7E00069462046FFF7C1FF204600F033FA05B046
:10C7F00010BD00000000108010B585B00446009107
:10C800001021019140210020CDE90210080104907F
:10C8100069462046FFF7A9FF41F2883210212046E1
:10C8200000F060F905B010BD10B585B00446009168
:10C830000621019140210020CDE902100801049059
:10C8400069462046FFF791FF41F2883206212046D3
:10C8500000F048F905B010BD30B585B0002504469C
:10C86000009501954FF480600295CDE9035069462B
:10C870002046FFF77AFF0B484FF4FA510068B0FBEF
:10C88000F1F141F288304143491E02D24FF0004598
:10C8900004E0606B0006F7D5C520A06305B028460C
:10C8A00030BD00004000002010B585B04FF4D571B8
:10C8B000009108210446019140210020CDE9021099
:10C8C0000801049069462046FFF74FFF204600F01C
:10C8D00027FA05B010BD10B585B0044600911221AD
:10C8E000019140210020CDE9021008010490694621
:10C8F0002046FFF73AFF41F288321221204600F02D
:10C90000F1F805B010BD10B585B0044600911121B5
:10C91000019140210020CDE90210080104906946F0
:10C920002046FFF722FF41F288321121204600F015
:10C93000D9F805B010BD10B585B0044607214020D8
:10C940000092CDE90110002003904FF48060049024
:10C9500069462046FFF709FF41F288320721204649
:10C9600000F0C0F805B010BD10B585B0002102225E
:10C970000446C020CDE90201CDE900125002049026
:10C9800069462046FFF7F1FE204600F03BF905B06E
:10C9900010BD10B585B00446009109210191C02158
:10C9A0000020CDE902104FF48060049069462046D3
:10C9B000FFF7DBFE204600F025F905B010BD10B5ED
:10C9C00085B00021044640203322CDE90201CDE9A3
:10C9D00000120001049069462046FFF7C6FE41F2AE
:10C9E00088323321204600F07DF805B010BD10B527
:10C9F00085B0044600910D21019140210020CDE930
:10CA000002100801049069462046FFF7AEFE41F28D
:10CA100088320D21204600F065F805B010BD30B514
:10CA200085B0054600230320CDE900304020CDE944
:10CA3000020300010C46049069462846FFF795FE64
:10CA400022460321284600F027F905B030BD00003A
:10CA500010B585B00021044640200C22CDE902012A
:10CA6000CDE900120001049069462046FFF77DFEE3
:10CA7000034A0C21204600F035F805B010BD000037
:10CA800000E1F50510B585B004460091192101912A
:10CA900040210020CDE9021008010490694620469B
:10CAA000FFF763FE41F288321921204600F01AF8A0
:10CAB00005B010BD10B585B0044600911821019154
:10CAC00040210020CDE9021008010490694620466B
:10CAD000FFF74BFE41F288321821204600F002F8A1
:10CAE00005B010BD454B10B51B684FF4FA54B3FBAD
:10CAF000F4F353435B1E02D24FF0004010BD426B73
:10CB000012F0450FF6D01205F4D4426B520703D54C
:10CB100004218163084610BD426BD20702D0012177
:10CB2000816305E0C52282630269D2B28A4201D0E4
:10CB3000012010BD0021FFF7F5FD3149084201D168
:10CB4000002010BD002802DA4FF0007010BD410037
:10CB500001D5402010BD810001D5802010BDC1004D
:10CB600002D54FF4807010BD010102D54FF4007062
:10CB700010BD410102D54FF4806010BDC10102D546
:10CB80004FF4006010BD010202D54FF4805010BD7B
:10CB9000410202D54FF4005010BD810202D54FF47E
:10CBA000804010BDC10202D54FF4004010BD4103CA
:10CBB00002D54FF4003010BD810302D54FF4802020
:10CBC00010BDC10302D54FF4002010BD010402D5F1
:10CBD0004FF4801010BD410402D54FF4001010BD79
:10CBE000810402D54FF4800010BD000702D54FF438
:10CBF000000010BD4FF4803010BD00004000002048
:10CC000008E0FFFD12494FF4FA520968B1FBF2F255
:10CC100041F288314A43521E02D24FF00040704721
:10CC2000416B11F0450FF6D00905F4D4416B49076B
:10CC300003D50421816308467047416BC90703D0BF
:10CC40000121816308467047C52181630020704738
:10CC5000400000200F494FF4FA520968B1FBF2F28C
:10CC600041F288314A43521E02D24FF000407047D1
:10CC7000416B11F0450FF6D00905F4D4416B49071B
:10CC800003D50421816308467047C52181630020D4
:10CC9000704700004000002030B5204B4FF4FA549C
:10CCA0001B68B3FBF4F441F288335C43641E02D288
:10CCB0004FF0004030BD436B13F0450FF6D01B051D
:10CCC000F4D4436B5B0703D504218163084630BD70
:10CCD000436BDB0702D00121816303E00369DBB210
:10CCE0008B4201D0012030BDC52181630021FFF7B7
:10CCF00019FD10F4604F04D0410406D54FF40050E4
:10CD000030BD000C1080002030BD000402D54FF46F
:10CD1000805030BD4FF4803030BD00004000002016
:10CD200014494FF4FA520968B1FBF2F241F288312A
:10CD30004A43521E02D24FF000407047416B11F03F
:10CD4000450FF6D00905F4D4416B490703D50421FA
:10CD5000816308467047416BC90703D00121816395
:10CD600008467047416B490601D540218163002088
:10CD7000704700004000002010B5064C01202070D4
:10CD8000FBF7F2FD18B9207820F001002070207820
:10CD900010BD00002400002070B5054602F080FAA6
:10CDA000044603E0FBF7E0FD002806D002F078FA25
:10CDB000001BA842F6D34FF0FF3070BD10B5846B56
:10CDC000FCF72FF9022828D0206C416DE06B406DF4
:10CDD000012901D001281DD12168104888632068ED
:10CDE000C16B21F49D71C163A06B40F08040A063D2
:10CDF0002046FDF7C7FF062801D0052805D1206889
:10CE0000FFF726FEA16B0843A063012084F83400DD
:10CE1000002020632046FDF7D5FE10BDFF05400031
:10CE200010B5846B206B822809D12068FFF710FEB3
:10CE300028B1A16B0143A1632046FDF7C3FE206822
:10CE4000C16A21F00801C162216840F23A5088634A
:10CE5000012084F83400002020632046FEF742FAC7
:10CE600010BD10B5846B40F23A50216888632046AB
:10CE7000FDF788FF012184F8341000212163062882
:10CE800001D0052805D12068FFF7E2FDA16B08431A
:10CE9000A063A06B0028204602D0FDF793FE10BDD2
:10CEA000FDF700FE10BD806B0068C16B41F480711E
:10CEB000C163704710B5846B40F23A5021688863B3
:10CEC0002046FDF75FFF012184F834100021216323
:10CED000062801D0052805D12068FFF7B9FDA16B10
:10CEE0000843A063A06B0028204602D0FDF76AFE2D
:10CEF00010BDFDF7D7FD10BD2DE9F04788B00E46F7
:10CF00000446FCF70FFB0025074606950795A84643
:10CF100008212068FFF770FC00282DD1B4F85000DC
:10CF200001042068FFF736FC002825D1401E4FF091
:10CF30000809CDE9000930204FF0020ACDE9020AC4
:10CF40000120CDE9048069462068FFF7D5FB206801
:10CF5000FFF735FD00280FD10DF118082068416B4F
:10CF600011F02A0F0BD0416B090702D4416B8905E0
:10CF700019D5C0F83890082008B0BDE8F087416B9B
:10CF8000890205D5FFF7EEFB48F825006D1C02E08D
:10CF9000416B8904E7D5FCF7C5FAC01B401CDDD105
:10CFA0004FF00040E8E7416B890703D5C0F838A08F
:10CFB0000220E1E7416B890603D520218163084601
:10CFC000DAE740F23A518163079800BA3060069878
:10CFD00000BA70600020CFE710B590B00446012081
:10CFE000ADF838002068FFF799FB002854D0606C3A
:10CFF000032842D02068FFF7B7FC00284AD100215F
:10D000002068FFF78FFB606704212068FFF78AFB29
:10D01000A06708212068FFF785FBE0670C212068E6
:10D02000FFF780FBC4F88000606C032825D00EA9B0
:10D030002068FFF7F4FC00282CD1606C03281CD07A
:10D04000BDF83800206501042068FFF7A2FC002825
:10D0500020D100212068FFF765FB6066042120686D
:10D06000FFF760FBA06608212068FFF75BFBE06626
:10D070000C212068FFF756FB206704212068FFF78A
:10D0800051FB000DE06403A92046FDF79DFD30B182
:10D090004FF0805010B010BD4FF08060FAE7B4F848
:10D0A0005000002302042068FFF745FC0028F1D15E
:10D0B00004F1100007C88DE8070094E80F00FFF79F
:10D0C0003BFB0020E6E700002DE9F84F0026044670
:10D0D0000096374635460068FFF7BEFB002827D18B
:10D0E0002068FFF7E1FB4FF0805B4FF001094FF63E
:10D0F000FF7848B1A6642068FFF7AEFB002817D17F
:10D10000A06C012802D01FE0C4F8489000212068DC
:10D11000FFF740FB58B917E000212068FFF73AFB02
:10D12000002805D151462068FFF74CFB10B1584646
:10D13000BDE8F88F00212068FFF7F4FA0746C50F15
:10D140000098401C009001E0DFF824A000994145C0
:10D1500001D2002DE0D0414502D34FF08070E7E7C7
:10D16000780002D5C4F8449000E066640020DFE750
:10D17000000010C170B5104C05460120207002F06F
:10D180007FF8022816D1FBF7FBFB18B92846FFF7FA
:10D19000F3FD2070207801280CD0606850B900227F
:10D1A00002210A2002F0B6F8606018B9207840F039
:10D1B00001002070207870BD2400002010B51248B6
:10D1C00088B014460078C00702D0032008B010BD14
:10D1D000C1B1012905D0022908D003290CD00420AF
:10D1E000F4E76846FBF7BAFB06980AE06846FBF7E7
:10D1F000B5FB0798208005E06846FBF7AFFB079872
:10D20000400A20600020E1E7240000202DE9F843D7
:10D2100047F230561C461746884601253046FFF730
:10D22000BBFD00281DDB224639464046FBF7CEFBFE
:10D23000B8B90E48334600226946406802F038F813
:10D2400078B9BDF8000001280BD102F029F8044696
:10D2500002E0FBF789FB38B102F022F8001BB04274
:10D26000F7D32846BDE8F8830025FAE7240000201C
:10D27000FFF782BD2DE9F84347F230561C461746AA
:10D28000884601253046FFF787FD00281DDB224632
:10D2900039464046FBF7B6FBB8B90E483346002284
:10D2A0006946406802F004F878B9BDF80000022829
:10D2B0000BD101F0F5FF044602E0FBF755FB38B156
:10D2C00001F0EEFF001BB042F7D32846BDE8F8831B
:10D2D0000025FAE7240000200178407841EA002088
:10D2E000704710B54FF0E020006902F0FFFD012803
:10D2F00003D0BDE8104002F015BB10BD30B593B0AF
:10D3000030216846FBF708F814210CA8FBF704F855
:10D310001F480025016841F080510160006800F05D
:10D32000805011901B48016841F480410160006801
:10D33000022400F480401190052000904FF48030CA
:10D340000190012002908005CDE90640042008905C
:10D35000A820CDE9090407200B906846FCF76AFF76
:10D3600008B172B6FEE70CA90F2081E831004FF436
:10D37000A0500F904FF48050109005210CA8FCF79E
:10D3800049FE002801D072B6FEE713B030BD0000A0
:10D3900040380240007000400248016841F47001CA
:10D3A0000160704788ED00E00148FEF736BA0000E2
:10D3B000E8060020F0B50268294D2A4E2A4FDFF812
:10D3C000ACC02B4B4FF0804EA84209D0704507D01F
:10D3D000B04205D0B84203D0604501D0984203D195
:10D3E00022F070044A682243A8421BD0704519D02D
:10D3F000B04217D0B84215D0604513D0984211D032
:10D400001C4CA0420ED01C4CA0420BD01B4CA04286
:10D4100008D01B4CA04205D01A4CA04202D01A4C96
:10D42000A04203D122F44074CA6822434C6922F01E
:10D430008002224302608A68C2620A688262A8424D
:10D4400001D0984201D1096901630121416101695B
:10D45000C90703D0016921F001010161F0BD00009D
:10D46000000001400004004000080040000C0040A3
:10D4700000040140004001400044014000480140D8
:10D4800000180040001C00400020004010B58468D7
:10D4900042EA032224F47F440A432243826010BDFF
:10D4A000826822F070020A4342F0070181607047EF
:10D4B00010B5046A036A23F001030362836923F051
:10D4C000F00343EA021324F00A020A438361026272
:10D4D00010BD10B5036A046A24F010040462846964
:10D4E00023F0A00324F4704444EA023243EA011119
:10D4F0008261016210BD10B5806B0021C185C184BD
:10D50000FEF74AFA10BD70B5846B2068406994F844
:10D510004110C0F3C0100025212904D118B1E584C1
:10D52000204600F08EF82068406994F84210C0F35D
:10D530008010222904D118B1E585204600F05AF860
:10D54000606C40F0100060642046FEF725FA70BD64
:10D5500010B50146806B096809684FF00003C905E2
:10D560002ED4C38501680C3151E8002F22F480725B
:10D5700041E80024002CF5D10168143151E8002F56
:10D5800022F0010241E80024002CF5D10168143199
:10D5900051E8002F22F0400241E80024002CF5D190
:10D5A000202180F84210016B012909D101680C315A
:10D5B00051E8002F22F0100241E80024002CF5D1A0
:10D5C0004363016B012902D0FEF78AFC10BD818DF7
:10D5D000FEF7E1F910BD10B5806B01214163016BCD
:10D5E000012902D0FEF77DFC10BD818D4908FEF7B0
:10D5F000D2F910BD01680C3151E8002F22F490726D
:10D6000041E80023002BF5D10168143151E8002FC7
:10D6100022F0010241E80023002BF5D1016B012922
:10D6200009D101680C3151E8002F22F0100241E8C5
:10D630000023002BF5D1202180F842100021016346
:10D64000704701680C3151E8002F22F0C00241E818
:10D650000023002BF5D1202180F84110704708B538
:10D6600090F84210222901D0022008BD81684FF4B1
:10D670008053994201D1026922B1826A99421BD03A
:10D6800049B10AE00268816A5268C2F308020A805E
:10D69000816A891C08E0016971B10168496801F07B
:10D6A0007F011170816A491C8162C18D491E090484
:10D6B000090CC18503D01BE001684968F1E70168E6
:10D6C000CA6822F02002CA600168CA6822F4807227
:10D6D000CA6001684A6922F001024A61202180F88B
:10D6E000421000214163026B012A03D0FEF7F8FBD0
:10D6F000002008BD016301680C3151E8002F22F0C1
:10D70000100241E80023002BF5D101680A68D20617
:10D7100002D50A6849680091818DFEF73CF9E7E778
:10D7200070B5044600680169E26821F44051114374
:10D730000161A1682069E269014360691043014306
:10D740002068C26849F20C639A430A43C2602068A9
:10D750004169A26921F44071114341613149206856
:10D76000884202D03049884202D1FCF723FD01E013
:10D77000FCF710FDE2690023192164253226B2F579
:10D78000004F626828D0A0FB0101930F9200FAF7C6
:10D7900079FD0146B0FBF5F06FF01802504301EB44
:10D7A000800006EB0010B0FBF5F000F0F002B1FBDA
:10D7B000F5F002EB0012B1FBF5F06FF018035843DF
:10D7C00001EB800006EB0010B0FBF5F000F00F005D
:10D7D00021681044886070BDA0FB010192185B4174
:10D7E000FAF750FD0146B0FBF5F00201B1FBF5F090
:10D7F0006FF01803584301EB800006EBC000B0FB4C
:10D80000F5F000F0F80002EB4002B1FBF5F05843F0
:10D8100001EB800006EBC000B0FBF5F000F0070064
:10D82000D6E70000001001400014014037B582B077
:10D830001346039A82620446838500206064222195
:10D8400084F84210E56B1B49E963E56B1A492964CA
:10D85000E56B1A49E964E16B08652168E06B091D15
:10D86000FBF71CFD2068016840680090206948B102
:10D8700020680C3050E8001F41F4807140E800122D
:10D88000002AF5D12068143050E8001F41F0010152
:10D8900040E80012002AF5D12068143050E8001F3B
:10D8A00041F0400140E80012002AF5D105B0002007
:10D8B00030BD000051D50008D7D5000807D50008B5
:10D8C0002DE9F8431F4690460D460446089E23E086
:10D8D000701C21D0FBF726FEC01BB0421AD8CEB177
:10D8E0002068C168490717D5802D15D0402D13D069
:10D8F0000168C94309070FD40168002540680090FA
:10D900002046FFF777FE0820606484F8405001202D
:10D91000BDE8F8830320FBE72068006835EA0000D3
:10D9200004D000204045D3D00020F1E70120F9E7E2
:10D930000148FEF733B80000D804002010B5FBF70B
:10D9400003F9BDE810400148FEF728B82005002083
:10D9500010B5D0F8B82200245268904700B10324D3
:10D96000204610BD0020704700207047134610B5B8
:10D970000A46002100F0B8F9002010BD134610B58A
:10D980000A46002100F050FA002010BD10B50446F0
:10D99000802100F033FA2046BDE81040002100F05D
:10D9A0002DBA10B50521C0F8941200231A46194665
:10D9B00000F09AF9002010BD10B50223C0F894328F
:10D9C00082611346C2610A46002100F02DFA002050
:10D9D00010BD10B50421C0F8941200231A46194650
:10D9E00000F022FA002010BDF8B504460020ADF882
:10D9F000000048880D46010A08295FD2DFE801F0DF
:10DA00005E0409175E5E3D45D4F8B412207C0A68B6
:10DA100019E0207C02260028D4F8B80205D0C16A9B
:10DA2000684688470146467039E0816AF8E7C0B227
:10DA3000062843D2DFE800F0030B1115191DD4F8B6
:10DA4000B402426806E069469047014627E0D4F8F0
:10DA5000B40282688AB3207CF5E7D4F8B402C268C5
:10DA6000F8E7D4F8B4020269F4E7D4F8B4024269E2
:10DA7000F0E7D4F8B4028269ECE7207CE8B9D4F886
:10DA8000B802416B68468847DFE7207CA8B9D4F824
:10DA9000B802016B68468847014607204870EA884B
:10DAA0008AB1BDF8000040B1824200D90246ADF80B
:10DAB00000202046FFF780FFF8BDFFE729462046FB
:10DAC000FFF764FFF8E72046FFF783FFF4E7010064
:10DAD0004FF0000004D0012901D0022901D0032019
